{
  "abi": [
    {
      "inputs": [
        {
          "internalType": "address",
          "name": "_positionManager",
          "type": "address"
        }
      ],
      "stateMutability": "nonpayable",
      "type": "constructor"
    },
    {
      "anonymous": false,
      "inputs": [
        {
          "indexed": false,
          "internalType": "address",
          "name": "pool",
          "type": "address"
        },
        {
          "indexed": false,
          "internalType": "address",
          "name": "vault",
          "type": "address"
        },
        {
          "indexed": false,
          "internalType": "address",
          "name": "owner",
          "type": "address"
        },
        {
          "indexed": false,
          "internalType": "uint256",
          "name": "amount0",
          "type": "uint256"
        },
        {
          "indexed": false,
          "internalType": "uint256",
          "name": "amount1",
          "type": "uint256"
        }
      ],
      "name": "LiquidityMigratedFromV2",
      "type": "event"
    },
    {
      "anonymous": false,
      "inputs": [
        {
          "indexed": false,
          "internalType": "bool",
          "name": "migrateFromUnipilot",
          "type": "bool"
        },
        {
          "indexed": false,
          "internalType": "address",
          "name": "vault",
          "type": "address"
        },
        {
          "indexed": false,
          "internalType": "address",
          "name": "owner",
          "type": "address"
        },
        {
          "indexed": false,
          "internalType": "uint256",
          "name": "amount0",
          "type": "uint256"
        },
        {
          "indexed": false,
          "internalType": "uint256",
          "name": "amount1",
          "type": "uint256"
        }
      ],
      "name": "LiquidityMigratedFromV3",
      "type": "event"
    },
    {
      "stateMutability": "payable",
      "type": "fallback"
    },
    {
      "inputs": [
        {
          "components": [
            {
              "internalType": "address",
              "name": "pair",
              "type": "address"
            },
            {
              "internalType": "address",
              "name": "vault",
              "type": "address"
            },
            {
              "internalType": "address",
              "name": "token0",
              "type": "address"
            },
            {
              "internalType": "address",
              "name": "token1",
              "type": "address"
            },
            {
              "internalType": "uint8",
              "name": "percentageToMigrate",
              "type": "uint8"
            },
            {
              "internalType": "uint256",
              "name": "liquidityToMigrate",
              "type": "uint256"
            },
            {
              "internalType": "bool",
              "name": "refundAsETH",
              "type": "bool"
            }
          ],
          "internalType": "struct IUnipilotMigrator.MigrateV2Params",
          "name": "params",
          "type": "tuple"
        }
      ],
      "name": "migrateLixirLiquidity",
      "outputs": [],
      "stateMutability": "nonpayable",
      "type": "function"
    },
    {
      "inputs": [
        {
          "components": [
            {
              "internalType": "address",
              "name": "pair",
              "type": "address"
            },
            {
              "internalType": "address",
              "name": "vault",
              "type": "address"
            },
            {
              "internalType": "address",
              "name": "token0",
              "type": "address"
            },
            {
              "internalType": "address",
              "name": "token1",
              "type": "address"
            },
            {
              "internalType": "uint8",
              "name": "percentageToMigrate",
              "type": "uint8"
            },
            {
              "internalType": "uint256",
              "name": "liquidityToMigrate",
              "type": "uint256"
            },
            {
              "internalType": "bool",
              "name": "refundAsETH",
              "type": "bool"
            }
          ],
          "internalType": "struct IUnipilotMigrator.MigrateV2Params",
          "name": "params",
          "type": "tuple"
        }
      ],
      "name": "migratePopsicleLiquidity",
      "outputs": [],
      "stateMutability": "nonpayable",
      "type": "function"
    },
    {
      "inputs": [
        {
          "components": [
            {
              "internalType": "address",
              "name": "pair",
              "type": "address"
            },
            {
              "internalType": "address",
              "name": "vault",
              "type": "address"
            },
            {
              "internalType": "address",
              "name": "token0",
              "type": "address"
            },
            {
              "internalType": "address",
              "name": "token1",
              "type": "address"
            },
            {
              "internalType": "uint8",
              "name": "percentageToMigrate",
              "type": "uint8"
            },
            {
              "internalType": "uint256",
              "name": "liquidityToMigrate",
              "type": "uint256"
            },
            {
              "internalType": "bool",
              "name": "refundAsETH",
              "type": "bool"
            }
          ],
          "internalType": "struct IUnipilotMigrator.MigrateV2Params",
          "name": "params",
          "type": "tuple"
        }
      ],
      "name": "migrateV2Liquidity",
      "outputs": [],
      "stateMutability": "nonpayable",
      "type": "function"
    },
    {
      "inputs": [
        {
          "components": [
            {
              "internalType": "address",
              "name": "vault",
              "type": "address"
            },
            {
              "internalType": "address",
              "name": "token0",
              "type": "address"
            },
            {
              "internalType": "address",
              "name": "token1",
              "type": "address"
            },
            {
              "internalType": "uint256",
              "name": "tokenId",
              "type": "uint256"
            },
            {
              "internalType": "bool",
              "name": "refundAsETH",
              "type": "bool"
            }
          ],
          "internalType": "struct IUnipilotMigrator.MigrateV3Params",
          "name": "params",
          "type": "tuple"
        }
      ],
      "name": "migrateV3Liquidity",
      "outputs": [],
      "stateMutability": "nonpayable",
      "type": "function"
    },
    {
      "inputs": [
        {
          "components": [
            {
              "internalType": "address",
              "name": "pair",
              "type": "address"
            },
            {
              "internalType": "address",
              "name": "vault",
              "type": "address"
            },
            {
              "internalType": "address",
              "name": "token0",
              "type": "address"
            },
            {
              "internalType": "address",
              "name": "token1",
              "type": "address"
            },
            {
              "internalType": "uint8",
              "name": "percentageToMigrate",
              "type": "uint8"
            },
            {
              "internalType": "uint256",
              "name": "liquidityToMigrate",
              "type": "uint256"
            },
            {
              "internalType": "bool",
              "name": "refundAsETH",
              "type": "bool"
            }
          ],
          "internalType": "struct IUnipilotMigrator.MigrateV2Params",
          "name": "params",
          "type": "tuple"
        }
      ],
      "name": "migrateVisorLiquidity",
      "outputs": [],
      "stateMutability": "nonpayable",
      "type": "function"
    },
    {
      "inputs": [
        {
          "internalType": "address",
          "name": "operator",
          "type": "address"
        },
        {
          "internalType": "address",
          "name": "from",
          "type": "address"
        },
        {
          "internalType": "uint256",
          "name": "tokenId",
          "type": "uint256"
        },
        {
          "internalType": "bytes",
          "name": "data",
          "type": "bytes"
        }
      ],
      "name": "onERC721Received",
      "outputs": [
        {
          "internalType": "bytes4",
          "name": "",
          "type": "bytes4"
        }
      ],
      "stateMutability": "nonpayable",
      "type": "function"
    },
    {
      "stateMutability": "payable",
      "type": "receive"
    }
  ],
  "bytecode": {
    "object": "0x60a060405234801561001057600080fd5b50604051620021de380380620021de83398101604081905261003191610046565b60601b6001600160601b031916608052610074565b600060208284031215610057578081fd5b81516001600160a01b038116811461006d578182fd5b9392505050565b60805160601c6121476200009760003980610b8e5280610c3352506121476000f3fe6080604052600436106100595760003560e01c806314f0740614610062578063150b7a021461008257806327aad2a8146100b8578063315957db146100d857806358d1deb7146100f85780638a9099641461011857610060565b3661006057005b005b34801561006e57600080fd5b5061006061007d366004611d01565b610138565b34801561008e57600080fd5b506100a261009d366004611c2f565b61048d565b6040516100af9190611f51565b60405180910390f35b3480156100c457600080fd5b506100606100d3366004611d01565b61049e565b3480156100e457600080fd5b506100606100f3366004611d01565b61075f565b34801561010457600080fd5b50610060610113366004611d01565b610a61565b34801561012457600080fd5b50610060610133366004611d18565b610b8c565b600061014a60a0830160808401611d79565b60ff1611801561016d5750606461016760a0830160808401611d79565b60ff1611155b6101925760405162461bcd60e51b815260040161018990611f66565b60405180910390fd5b61019f6020820182611c13565b6001600160a01b03166323b872dd6101b5610fdb565b6101c26020850185611c13565b8460a001356040518463ffffffff1660e01b81526004016101e593929190611e8d565b602060405180830381600087803b1580156101ff57600080fd5b505af1158015610213573d6000803e3d6000fd5b505050506040513d601f19601f820116820180604052508101906102379190611ce5565b506000806102486020840184611c13565b6001600160a01b03166389afcb44306040518263ffffffff1660e01b81526004016102739190611e79565b6040805180830381600087803b15801561028c57600080fd5b505af11580156102a0573d6000803e3d6000fd5b505050506040513d601f19601f820116820180604052508101906102c49190611d29565b909250905060006102e9836102df60a0870160808801611d79565b60ff166064610fdf565b90506000610301836102df60a0880160808901611d79565b905061032c6103166060870160408801611c13565b6103266040880160208901611c13565b8461108f565b61035561033f6080870160608801611c13565b61034f6040880160208901611c13565b8361108f565b60008061037361036b6040890160208a01611c13565b85853361109f565b915091506104236040518061014001604052808960200160208101906103999190611c13565b6001600160a01b031681526020016103b760608b0160408c01611c13565b6001600160a01b031681526020016103d560808b0160608c01611c13565b6001600160a01b031681526020018481526020018381526020018881526020018781526020018681526020018581526020018960c001602081019061041a9190611cc9565b15159052611132565b7f5d3c3c12c41dcd95ca847b54dbfe0211dbd38232e1576fb69eb3f87f20e995d96104516020890189611c13565b61046160408a0160208b01611c13565b610469610fdb565b858560405161047c959493929190611eec565b60405180910390a150505050505050565b630a85bd0160e11b95945050505050565b60006104b060a0830160808401611d79565b60ff161180156104d3575060646104cd60a0830160808401611d79565b60ff1611155b6104ef5760405162461bcd60e51b815260040161018990611f66565b61051e6104fa610fdb565b3060a084013561050d6020860186611c13565b6001600160a01b031692919061125e565b610526611bae565b6000806105366020850185611c13565b6001600160a01b031663a85598728560a001353030876040518563ffffffff1660e01b815260040161056b9493929190612029565b6040805180830381600087803b15801561058457600080fd5b505af1158015610598573d6000803e3d6000fd5b505050506040513d601f19601f820116820180604052508101906105bc9190611d29565b909250905060006105d7836102df60a0880160808901611d79565b905060006105ef836102df60a0890160808a01611d79565b90506106146106046060880160408901611c13565b6103266040890160208a01611c13565b6106376106276080880160608901611c13565b61034f6040890160208a01611c13565b60008061064d61036b60408a0160208b01611c13565b915091506106f46040518061014001604052808a60200160208101906106739190611c13565b6001600160a01b0316815260200161069160608c0160408d01611c13565b6001600160a01b031681526020016106af60808c0160608d01611c13565b6001600160a01b031681526020018481526020018381526020018881526020018781526020018681526020018581526020018a60c001602081019061041a9190611cc9565b7f5d3c3c12c41dcd95ca847b54dbfe0211dbd38232e1576fb69eb3f87f20e995d961072260208a018a611c13565b61073260408b0160208c01611c13565b61073a610fdb565b858560405161074d959493929190611eec565b60405180910390a15050505050505050565b600061077160a0830160808401611d79565b60ff161180156107945750606461078e60a0830160808401611d79565b60ff1611155b6107b05760405162461bcd60e51b815260040161018990611f66565b6000806107c06020840184611c13565b6001600160a01b0316639fef182b6107d6610fdb565b8560a0013560008030426078016040518763ffffffff1660e01b815260040161080496959493929190611eb1565b6040805180830381600087803b15801561081d57600080fd5b505af1158015610831573d6000803e3d6000fd5b505050506040513d601f19601f820116820180604052508101906108559190611d29565b909250905060008080806108896108726060890160408a01611c13565b61088260808a0160608b01611c13565b88886112be565b9350935093509350730d500b1d8e8ef31e21c99d1db9a6444d3adf12706001600160a01b031663d0e30db0826040518263ffffffff1660e01b81526004016000604051808303818588803b1580156108e057600080fd5b505af11580156108f4573d6000803e3d6000fd5b50505050506000610912828960800160208101906102df9190611d79565b9050600061092a856102df60a08c0160808d01611d79565b90506109408461032660408c0160208d01611c13565b6109548661034f60408c0160208d01611c13565b60008061096a61036b60408d0160208e01611c13565b915091506109f36040518061014001604052808d60200160208101906109909190611c13565b6001600160a01b031681526020018a6001600160a01b03168152602001886001600160a01b031681526020018481526020018381526020018981526020018781526020018581526020018681526020018d60c001602081019061041a9190611cc9565b7f5d3c3c12c41dcd95ca847b54dbfe0211dbd38232e1576fb69eb3f87f20e995d9610a2160208d018d611c13565b610a3160408e0160208f01611c13565b610a39610fdb565b8585604051610a4c959493929190611eec565b60405180910390a15050505050505050505050565b6000610a7360a0830160808401611d79565b60ff16118015610a9657506064610a9060a0830160808401611d79565b60ff1611155b610ab25760405162461bcd60e51b815260040161018990611f66565b610abf6020820182611c13565b6001600160a01b03166323b872dd610ad5610fdb565b308460a001356040518463ffffffff1660e01b8152600401610af993929190611e8d565b602060405180830381600087803b158015610b1357600080fd5b505af1158015610b27573d6000803e3d6000fd5b505050506040513d601f19601f82011682018060405250810190610b4b9190611ce5565b50600080610b5c6020840184611c13565b6001600160a01b031662f714ce8460a00135306040518363ffffffff1660e01b8152600401610273929190612012565b7f00000000000000000000000000000000000000000000000000000000000000006001600160a01b0381166342842e0e610bc4610fdb565b3085606001356040518463ffffffff1660e01b8152600401610be893929190611e8d565b600060405180830381600087803b158015610c0257600080fd5b505af1158015610c16573d6000803e3d6000fd5b505060405163133f757160e31b8152600092506001600160a01b037f00000000000000000000000000000000000000000000000000000000000000001691506399fbab8890610c6d90606087013590600401612009565b6101806040518083038186803b158015610c8657600080fd5b505afa158015610c9a573d6000803e3d6000fd5b505050506040513d601f19601f82011682018060405250810190610cbe9190611d9a565b50505050975050505050505050816001600160a01b0316630c49ccbe6040518060a0016040528086606001358152602001846001600160801b031681526020016000815260200160008152602001426078018152506040518263ffffffff1660e01b8152600401610d2f9190611fc6565b6040805180830381600087803b158015610d4857600080fd5b505af1158015610d5c573d6000803e3d6000fd5b505050506040513d601f19601f82011682018060405250810190610d809190611d29565b50506040805160808101825260608086013582523060208301526001600160801b0382840181905290820152905163fc6f786560e01b815260009182916001600160a01b0386169163fc6f786591610ddb9190600401611f83565b6040805180830381600087803b158015610df457600080fd5b505af1158015610e08573d6000803e3d6000fd5b505050506040513d601f19601f82011682018060405250810190610e2c9190611d29565b9092509050610e51610e446040870160208801611c13565b6103266020880188611c13565b610e71610e646060870160408801611c13565b61034f6020880188611c13565b600080610e8461036b6020890189611c13565b6040805161014081019091529193509150610f2b9080610ea760208b018b611c13565b6001600160a01b03168152602001896020016020810190610ec89190611c13565b6001600160a01b03168152602001610ee660608b0160408c01611c13565b6001600160a01b0316815260200184815260200183815260200186815260200185815260200186815260200185815260200189608001602081019061041a9190611cc9565b604051630852cd8d60e31b81526001600160a01b038716906342966c6890610f5b9060608b013590600401612009565b600060405180830381600087803b158015610f7557600080fd5b505af1158015610f89573d6000803e3d6000fd5b507ff4a75ce9d0b4236333fd093f7157a30ee90763177726812ba1448fda195a590c925060009150610fc0905060208a018a611c13565b610fc8610fdb565b858560405161047c959493929190611f20565b3390565b6000808060001985870986860292508281109083900303905080611015576000841161100a57600080fd5b508290049050611088565b80841161102157600080fd5b6000848688096000868103871696879004966002600389028118808a02820302808a02820302808a02820302808a02820302808a02820302808a02909103029181900381900460010186841190950394909402919094039290920491909117919091029150505b9392505050565b61109a838383611352565b505050565b600080856001600160a01b0316638dbdbe6d8686866040518463ffffffff1660e01b81526004016110d29392919061207f565b606060405180830381600087803b1580156110ec57600080fd5b505af1158015611100573d6000803e3d6000fd5b505050506040513d601f19601f820116820180604052508101906111249190611d4c565b909890975095505050505050565b8060a00151816060015110156111cb578060e001518160600151101561116657611166816020015182600001516000611352565b8061012001518015611198575060208101516001600160a01b0316730d500b1d8e8ef31e21c99d1db9a6444d3adf1270145b156111b4576111af60006111aa610fdb565b6114a0565b6111cb565b6111cb816020015160006111c6610fdb565b6115df565b8060c001518160800151101561125b578061010001518160800151101561120057611200816040015182600001516000611352565b8061012001518015611232575060408101516001600160a01b0316730d500b1d8e8ef31e21c99d1db9a6444d3adf1270145b156112495761124460006111aa610fdb565b61125b565b61125b816040015160006111c6610fdb565b50565b604080516001600160a01b0380861660248301528416604482015260648082018490528251808303909101815260849091019091526020810180516001600160e01b03166323b872dd60e01b1790526112b89085906116a7565b50505050565b6000808080808080806001600160a01b038c16730d500b1d8e8ef31e21c99d1db9a6444d3adf1270146112f4578b8b8a8c6112f9565b8b8b8b8b5b9350935093509350730d500b1d8e8ef31e21c99d1db9a6444d3adf12706001600160a01b0316846001600160a01b031614611337578382848361133c565b828185845b929f919e509c50909a5098505050505050505050565b604080516001600160a01b038481166024830152604480830185905283518084039091018152606490920183526020820180516001600160e01b031663095ea7b360e01b1781529251825160009485949389169392918291908083835b602083106113ce5780518252601f1990920191602091820191016113af565b6001836020036101000a0380198251168184511680821785525050505050509050019150506000604051808303816000865af19150503d8060008114611430576040519150601f19603f3d011682016040523d82523d6000602084013e611435565b606091505b5091509150818015611463575080511580611463575080806020019051602081101561146057600080fd5b50515b611499576040805162461bcd60e51b8152602060048201526002602482015261534160f01b604482015290519081900360640190fd5b5050505050565b604080516370a0823160e01b81523060048201529051600091730d500b1d8e8ef31e21c99d1db9a6444d3adf1270916370a0823191602480820192602092909190829003018186803b1580156114f557600080fd5b505afa158015611509573d6000803e3d6000fd5b505050506040513d602081101561151f57600080fd5b505190508281101561155d576040805162461bcd60e51b8152602060048201526002602482015261495760f01b604482015290519081900360640190fd5b801561109a57730d500b1d8e8ef31e21c99d1db9a6444d3adf12706001600160a01b0316632e1a7d4d826040518263ffffffff1660e01b815260040180828152602001915050600060405180830381600087803b1580156115bd57600080fd5b505af11580156115d1573d6000803e3d6000fd5b5050505061109a8282611758565b6000836001600160a01b03166370a08231306040518263ffffffff1660e01b815260040180826001600160a01b0316815260200191505060206040518083038186803b15801561162e57600080fd5b505afa158015611642573d6000803e3d6000fd5b505050506040513d602081101561165857600080fd5b5051905082811015611696576040805162461bcd60e51b8152602060048201526002602482015261125560f21b604482015290519081900360640190fd5b80156112b8576112b8848383611847565b60006116fc826040518060400160405280602081526020017f5361666545524332303a206c6f772d6c6576656c2063616c6c206661696c6564815250856001600160a01b031661198e9092919063ffffffff16565b80519091501561109a5780806020019051602081101561171b57600080fd5b505161109a5760405162461bcd60e51b815260040180806020018281038252602a8152602001806120e8602a913960400191505060405180910390fd5b604080516000808252602082019092526001600160a01b0384169083906040518082805190602001908083835b602083106117a45780518252601f199092019160209182019101611785565b6001836020036101000a03801982511681845116808217855250505050505090500191505060006040518083038185875af1925050503d8060008114611806576040519150601f19603f3d011682016040523d82523d6000602084013e61180b565b606091505b505090508061109a576040805162461bcd60e51b815260206004820152600360248201526253544560e81b604482015290519081900360640190fd5b604080516001600160a01b038481166024830152604480830185905283518084039091018152606490920183526020820180516001600160e01b031663a9059cbb60e01b1781529251825160009485949389169392918291908083835b602083106118c35780518252601f1990920191602091820191016118a4565b6001836020036101000a0380198251168184511680821785525050505050509050019150506000604051808303816000865af19150503d8060008114611925576040519150601f19603f3d011682016040523d82523d6000602084013e61192a565b606091505b5091509150818015611958575080511580611958575080806020019051602081101561195557600080fd5b50515b611499576040805162461bcd60e51b815260206004820152600260248201526114d560f21b604482015290519081900360640190fd5b606061199d84846000856119a5565b949350505050565b6060824710156119e65760405162461bcd60e51b81526004018080602001828103825260268152602001806120c26026913960400191505060405180910390fd5b6119ef85611b00565b611a40576040805162461bcd60e51b815260206004820152601d60248201527f416464726573733a2063616c6c20746f206e6f6e2d636f6e7472616374000000604482015290519081900360640190fd5b600080866001600160a01b031685876040518082805190602001908083835b60208310611a7e5780518252601f199092019160209182019101611a5f565b6001836020036101000a03801982511681845116808217855250505050505090500191505060006040518083038185875af1925050503d8060008114611ae0576040519150601f19603f3d011682016040523d82523d6000602084013e611ae5565b606091505b5091509150611af5828286611b0a565b979650505050505050565b803b15155b919050565b60608315611b19575081611088565b825115611b295782518084602001fd5b8160405162461bcd60e51b81526004018080602001828103825283818151815260200191508051906020019080838360005b83811015611b73578181015183820152602001611b5b565b50505050905090810190601f168015611ba05780820380516001836020036101000a031916815260200191505b509250505060405180910390fd5b60405180608001604052806004906020820280368337509192915050565b8051611b058161209e565b8051600281900b8114611b0557600080fd5b80516001600160801b0381168114611b0557600080fd5b805162ffffff81168114611b0557600080fd5b600060208284031215611c24578081fd5b81356110888161209e565b600080600080600060808688031215611c46578081fd5b8535611c518161209e565b94506020860135611c618161209e565b935060408601359250606086013567ffffffffffffffff80821115611c84578283fd5b818801915088601f830112611c97578283fd5b813581811115611ca5578384fd5b896020828501011115611cb6578384fd5b9699959850939650602001949392505050565b600060208284031215611cda578081fd5b8135611088816120b3565b600060208284031215611cf6578081fd5b8151611088816120b3565b600060e08284031215611d12578081fd5b50919050565b600060a08284031215611d12578081fd5b60008060408385031215611d3b578182fd5b505080516020909101519092909150565b600080600060608486031215611d60578283fd5b8351925060208401519150604084015190509250925092565b600060208284031215611d8a578081fd5b813560ff81168114611088578182fd5b6000806000806000806000806000806000806101808d8f031215611dbc578687fd5b8c516bffffffffffffffffffffffff81168114611dd7578788fd5b9b50611de560208e01611bcc565b9a50611df360408e01611bcc565b9950611e0160608e01611bcc565b9850611e0f60808e01611c00565b9750611e1d60a08e01611bd7565b9650611e2b60c08e01611bd7565b9550611e3960e08e01611be9565b94506101008d015193506101208d01519250611e586101408e01611be9565b9150611e676101608e01611be9565b90509295989b509295989b509295989b565b6001600160a01b0391909116815260200190565b6001600160a01b039384168152919092166020820152604081019190915260600190565b6001600160a01b039687168152602081019590955260408501939093526060840191909152909216608082015260a081019190915260c00190565b6001600160a01b03958616815293851660208501529190931660408301526060820192909252608081019190915260a00190565b94151585526001600160a01b0393841660208601529190921660408401526060830191909152608082015260a00190565b6001600160e01b031991909116815260200190565b60208082526003908201526249504160e81b604082015260600190565b815181526020808301516001600160a01b0316908201526040808301516001600160801b0390811691830191909152606092830151169181019190915260800190565b600060a082019050825182526001600160801b03602084015116602083015260408301516040830152606083015160608301526080830151608083015292915050565b90815260200190565b9182526001600160a01b0316602082015260400190565b8481526001600160a01b03848116602080840191909152908416604083015260e0820190606083018460005b600481101561207257815183529183019190830190600101612055565b5050505095945050505050565b92835260208301919091526001600160a01b0316604082015260600190565b6001600160a01b038116811461125b57600080fd5b801515811461125b57600080fdfe416464726573733a20696e73756666696369656e742062616c616e636520666f722063616c6c5361666545524332303a204552433230206f7065726174696f6e20646964206e6f742073756363656564a2646970667358221220a4feb9886eadd431a48c22ca7dded0bdc696ab818c286e86cc7def1204918fa464736f6c63430007060033",
    "linkReferences": {}
  },
  "methodIdentifiers": {
    "migrateLixirLiquidity((address,address,address,address,uint8,uint256,bool))": "315957db",
    "migratePopsicleLiquidity((address,address,address,address,uint8,uint256,bool))": "58d1deb7",
    "migrateV2Liquidity((address,address,address,address,uint8,uint256,bool))": "14f07406",
    "migrateV3Liquidity((address,address,address,uint256,bool))": "8a909964",
    "migrateVisorLiquidity((address,address,address,address,uint8,uint256,bool))": "27aad2a8",
    "onERC721Received(address,address,uint256,bytes)": "150b7a02"
  },
  "id": 2
}