{
  "abi": [
    {
      "inputs": [],
      "stateMutability": "nonpayable",
      "type": "constructor"
    },
    {
      "inputs": [],
      "name": "UAF",
      "outputs": [
        {
          "internalType": "contract UnipilotActiveFactory",
          "name": "",
          "type": "address"
        }
      ],
      "stateMutability": "view",
      "type": "function"
    }
  ],
  "bytecode": {
    "object": "0x608060405234801561001057600080fd5b5060405161001d906101b8565b604051809103906000f080158015610039573d6000803e3d6000fd5b50600080546001600160a01b0319166001600160a01b03929092169190911790556040513090610068906101c6565b61007291906101fd565b604051809103906000f08015801561008e573d6000803e3d6000fd5b50600280546001600160a01b0319166001600160a01b03929092169190911790556040516100bb906101d4565b604051809103906000f0801580156100d7573d6000803e3d6000fd5b50600380546001600160a01b0319166001600160a01b0392909216919091179055604051610104906101e1565b604051809103906000f080158015610120573d6000803e3d6000fd5b50600480546001600160a01b0319166001600160a01b03928316179081905560005460025460035460405192851694309492811693918116921690600190610167906101ef565b61017696959493929190610211565b604051809103906000f080158015610192573d6000803e3d6000fd5b50600180546001600160a01b0319166001600160a01b039290921691909117905561024e565b61601a80620002fd83390190565b61291f806200631783390190565b605c8062008c3683390190565b6108138062008c9283390190565b61627a80620094a583390190565b6001600160a01b0391909116815260200190565b6001600160a01b039687168152948616602086015292851660408501529084166060840152909216608082015260ff90911660a082015260c00190565b60a0806200025d6000396000f3fe6080604052348015600f57600080fd5b506004361060285760003560e01c80634affa2c114602d575b600080fd5b60336047565b604051603e91906056565b60405180910390f35b6001546001600160a01b031681565b6001600160a01b039190911681526020019056fea26469706673582212200d618ba5c3547321b3cf00ec37a761b88adae19f62dfe6ce873891a01724583d64736f6c6343000706003360a060405234801561001057600080fd5b503060601b608052600380546001600160a01b031916339081179091556040516000907fb532073b38c83145e3e5135377a08bf9aab55bc0fd7c1179cd4fb995d2a5159c908290a36101f4600081815260046020527ffb8cf1d12598d1a039dd1d106665851a96aadf67d0d9ed76fceea282119208b7805462ffffff1916600a908117909155604051909291600080516020615ffa83398151915291a3610bb8600081815260046020527f72dffa9b822156d9cf4b0090fa0b656bcb9cc2b2c60eb6acfc20a34f54b31743805462ffffff1916603c908117909155604051909291600080516020615ffa83398151915291a3612710600081815260046020527f8cc740d51daa94ff54f33bd779c2d20149f524c340519b49181be5a08615f829805462ffffff191660c8908117909155604051909291600080516020615ffa83398151915291a360805160601c615e86610174600039806105515250615e866000f3fe608060405234801561001057600080fd5b506004361061007d5760003560e01c8063890357301161005b578063890357301461013b5780638a7c195f146101855780638da5cb5b146101b0578063a1671295146101b85761007d565b806313af4035146100825780631698ee82146100aa57806322afcccb14610102575b600080fd5b6100a86004803603602081101561009857600080fd5b50356001600160a01b03166101f4565b005b6100e6600480360360608110156100c057600080fd5b5080356001600160a01b03908116916020810135909116906040013562ffffff16610267565b604080516001600160a01b039092168252519081900360200190f35b6101246004803603602081101561011857600080fd5b503562ffffff16610293565b6040805160029290920b8252519081900360200190f35b6101436102a8565b604080516001600160a01b0396871681529486166020860152929094168383015262ffffff16606083015260029290920b608082015290519081900360a00190f35b6100a86004803603604081101561019b57600080fd5b5062ffffff813516906020013560020b6102de565b6100e66103a1565b6100e6600480360360608110156101ce57600080fd5b5080356001600160a01b03908116916020810135909116906040013562ffffff166103b0565b6003546001600160a01b0316331461020b57600080fd5b6003546040516001600160a01b038084169216907fb532073b38c83145e3e5135377a08bf9aab55bc0fd7c1179cd4fb995d2a5159c90600090a3600380546001600160a01b0319166001600160a01b0392909216919091179055565b60056020908152600093845260408085208252928452828420905282529020546001600160a01b031681565b60046020526000908152604090205460020b81565b600054600154600280546001600160a01b03938416939283169281169162ffffff600160a01b83041691600160b81b9004900b85565b6003546001600160a01b031633146102f557600080fd5b620f42408262ffffff161061030957600080fd5b60008160020b13801561032057506140008160020b125b61032957600080fd5b62ffffff8216600090815260046020526040902054600290810b900b1561034f57600080fd5b62ffffff828116600081815260046020526040808220805462ffffff1916600287900b958616179055517fc66a3fdf07232cdd185febcc6579d408c241b47ae2f9907d84be655141eeaecc9190a35050565b6003546001600160a01b031681565b60006103ba610546565b826001600160a01b0316846001600160a01b031614156103d957600080fd5b600080846001600160a01b0316866001600160a01b0316106103fc5784866103ff565b85855b90925090506001600160a01b03821661041757600080fd5b62ffffff8416600090815260046020526040902054600290810b9081900b61043e57600080fd5b6001600160a01b0383811660009081526005602090815260408083208685168452825280832062ffffff8a168452909152902054161561047d57600080fd5b61048a308484888561057d565b6001600160a01b03808516600081815260056020818152604080842089871680865290835281852062ffffff8e168087529084528286208054988a166001600160a01b0319998a1681179091558287529484528286208787528452828620818752845294829020805490971684179096558051600289900b815291820192909252815195995091947f783cca1c0412dd0d695e784568c96da2e9c22ff989357a2e8b1d9b2b4e6b71189281900390910190a45050509392505050565b306001600160a01b037f0000000000000000000000000000000000000000000000000000000000000000161461057b57600080fd5b565b6040805160a0810182526001600160a01b03878116808352878216602080850182905292881684860181905262ffffff888116606080880182905260028a810b6080998a01819052600080546001600160a01b03199081169099178155600180548a16891790558254909816861762ffffff60a01b1916600160a01b85021762ffffff60b81b1916600160b81b91830b9095160293909317909255875180870194909452838801929092528281019190915285518083039091018152930193849052825192909101919091209091610654906106ab565b8190604051809103906000f5905080158015610674573d6000803e3d6000fd5b50600080546001600160a01b0319908116909155600180549091169055600280546001600160d01b03191690559695505050505050565b615798806106b98339019056fe6101606040523480156200001257600080fd5b503060601b60805260408051630890357360e41b81529051600091339163890357309160048082019260a092909190829003018186803b1580156200005657600080fd5b505afa1580156200006b573d6000803e3d6000fd5b505050506040513d60a08110156200008257600080fd5b508051602080830151604084015160608086015160809096015160e896871b6001600160e81b0319166101005291811b6001600160601b031990811660e05292811b831660c0529390931b1660a052600282810b900b90921b610120529150620000f79082906200010f811b62002adb17901c565b60801b6001600160801b03191661014052506200017d565b60008082600281900b620d89e719816200012557fe5b05029050600083600281900b620d89e8816200013d57fe5b0502905060008460020b83830360020b816200015557fe5b0560010190508062ffffff166001600160801b038016816200017357fe5b0495945050505050565b60805160601c60a05160601c60c05160601c60e05160601c6101005160e81c6101205160e81c6101405160801c61554e6200024a60003980611fab5280614a4d5280614a84525080610bd852806128975280614ab85280614aea525080610cc7528061198852806119bf52806128df5250806111855280611a425280611eb152806123e652806128bb5280613d7c5250806108aa52806112b35280611a115280611e4b52806123605280613c33525080612038528061221f5280612873525080612b52525061554e6000f3fe608060405234801561001057600080fd5b506004361061018e5760003560e01c806370cf754a116100de578063c45a015511610097578063ddca3f4311610071578063ddca3f43146107d8578063f3058399146107f8578063f30dba9314610800578063f637731d146108825761018e565b8063c45a0155146107a9578063d0c93a7c146107b1578063d21220a7146107d05761018e565b806370cf754a146105a05780638206a4d1146105a857806385b66729146105d0578063883bdbfd1461060d578063a34123a714610714578063a38807f21461074e5761018e565b80633850c7bd1161014b578063490e6cbc11610125578063490e6cbc1461044c5780634f1eb3d8146104d6578063514ea4bf146105275780635339c296146105805761018e565b80633850c7bd146103395780633c8a7d8d1461039257806346141319146104325761018e565b80630dfe168114610193578063128acb08146101b75780631a686502146102645780631ad8b03b14610288578063252c09d7146102bf57806332148f6714610316575b600080fd5b61019b6108a8565b604080516001600160a01b039092168252519081900360200190f35b61024b600480360360a08110156101cd57600080fd5b6001600160a01b0382358116926020810135151592604082013592606083013516919081019060a081016080820135600160201b81111561020d57600080fd5b82018360208201111561021f57600080fd5b803590602001918460018302840111600160201b8311171561024057600080fd5b5090925090506108cc565b6040805192835260208301919091528051918290030190f35b61026c61146b565b604080516001600160801b039092168252519081900360200190f35b61029061147a565b60405180836001600160801b03168152602001826001600160801b031681526020019250505060405180910390f35b6102dc600480360360208110156102d557600080fd5b5035611494565b6040805163ffffffff909516855260069390930b60208501526001600160a01b039091168383015215156060830152519081900360800190f35b6103376004803603602081101561032c57600080fd5b503561ffff166114d9565b005b6103416115d3565b604080516001600160a01b03909816885260029690960b602088015261ffff9485168787015292841660608701529216608085015260ff90911660a0840152151560c0830152519081900360e00190f35b61024b600480360360a08110156103a857600080fd5b6001600160a01b03823516916020810135600290810b92604083013590910b916001600160801b036060820135169181019060a081016080820135600160201b8111156103f457600080fd5b82018360208201111561040657600080fd5b803590602001918460018302840111600160201b8311171561042757600080fd5b509092509050611623565b61043a6118df565b60408051918252519081900360200190f35b6103376004803603608081101561046257600080fd5b6001600160a01b038235169160208101359160408201359190810190608081016060820135600160201b81111561049857600080fd5b8201836020820111156104aa57600080fd5b803590602001918460018302840111600160201b831117156104cb57600080fd5b5090925090506118e5565b610290600480360360a08110156104ec57600080fd5b506001600160a01b03813516906020810135600290810b91604081013590910b906001600160801b0360608201358116916080013516611d40565b6105446004803603602081101561053d57600080fd5b5035611f5a565b604080516001600160801b0396871681526020810195909552848101939093529084166060840152909216608082015290519081900360a00190f35b61043a6004803603602081101561059657600080fd5b503560010b611f97565b61026c611fa9565b610337600480360360408110156105be57600080fd5b5060ff81358116916020013516611fcd565b610290600480360360608110156105e657600080fd5b506001600160a01b03813516906001600160801b03602082013581169160400135166121b1565b61067b6004803603602081101561062357600080fd5b810190602081018135600160201b81111561063d57600080fd5b82018360208201111561064f57600080fd5b803590602001918460208302840111600160201b8311171561067057600080fd5b50909250905061247e565b604051808060200180602001838103835285818151815260200191508051906020019060200280838360005b838110156106bf5781810151838201526020016106a7565b50505050905001838103825284818151815260200191508051906020019060200280838360005b838110156106fe5781810151838201526020016106e6565b5050505090500194505050505060405180910390f35b61024b6004803603606081101561072a57600080fd5b508035600290810b91602081013590910b90604001356001600160801b031661250b565b6107786004803603604081101561076457600080fd5b508035600290810b9160200135900b612682565b6040805160069490940b84526001600160a01b03909216602084015263ffffffff1682820152519081900360600190f35b61019b612871565b6107b9612895565b6040805160029290920b8252519081900360200190f35b61019b6128b9565b6107e06128dd565b6040805162ffffff9092168252519081900360200190f35b61043a612901565b6108206004803603602081101561081657600080fd5b503560020b612907565b604080516001600160801b039099168952600f9790970b602089015287870195909552606087019390935260069190910b60808601526001600160a01b031660a085015263ffffffff1660c0840152151560e083015251908190036101000190f35b6103376004803603602081101561089857600080fd5b50356001600160a01b0316612971565b7f000000000000000000000000000000000000000000000000000000000000000081565b6000806108d7612b47565b8561090e576040805162461bcd60e51b8152602060048201526002602482015261415360f01b604482015290519081900360640190fd5b6040805160e0810182526000546001600160a01b0381168252600160a01b8104600290810b810b900b602083015261ffff600160b81b8204811693830193909352600160c81b810483166060830152600160d81b8104909216608082015260ff600160e81b8304811660a0830152600160f01b909204909116151560c082018190526109c7576040805162461bcd60e51b81526020600482015260036024820152624c4f4b60e81b604482015290519081900360640190fd5b87610a125780600001516001600160a01b0316866001600160a01b0316118015610a0d575073fffd8963efd1fc6a506488495d951d5263988d266001600160a01b038716105b610a44565b80600001516001600160a01b0316866001600160a01b0316108015610a4457506401000276a36001600160a01b038716115b610a7b576040805162461bcd60e51b815260206004820152600360248201526214d41360ea1b604482015290519081900360640190fd5b6000805460ff60f01b191681556040805160c08101909152808a610aaa5760048460a0015160ff16901c610abd565b60108460a0015160ff1681610abb57fe5b065b60ff1681526004546001600160801b03166020820152604001610ade612b7e565b63ffffffff168152602001600060060b815260200160006001600160a01b031681526020016000151581525090506000808913905060006040518060e001604052808b81526020016000815260200185600001516001600160a01b03168152602001856020015160020b81526020018c610b5a57600254610b5e565b6001545b815260200160006001600160801b0316815260200184602001516001600160801b031681525090505b805115801590610bad5750886001600160a01b031681604001516001600160a01b031614155b15610f7757610bba6154b5565b60408201516001600160a01b031681526060820151610bfd906006907f00000000000000000000000000000000000000000000000000000000000000008f612b82565b15156040830152600290810b810b60208301819052620d89e719910b1215610c2e57620d89e7196020820152610c4d565b6020810151620d89e860029190910b1315610c4d57620d89e860208201525b610c5a8160200151612cc4565b6001600160a01b031660608201526040820151610ceb908d610c94578b6001600160a01b031683606001516001600160a01b031611610cae565b8b6001600160a01b031683606001516001600160a01b0316105b610cbc578260600151610cbe565b8b5b60c085015185517f0000000000000000000000000000000000000000000000000000000000000000612ff5565b60c085015260a084015260808301526001600160a01b031660408301528215610d4d57610d218160c001518260800151016131e7565b825103825260a0810151610d4390610d38906131e7565b6020840151906131fd565b6020830152610d88565b610d5a8160a001516131e7565b825101825260c08101516080820151610d8291610d7791016131e7565b602084015190613219565b60208301525b835160ff1615610dce576000846000015160ff168260c0015181610da857fe5b60c0840180519290910491829003905260a0840180519091016001600160801b03169052505b60c08201516001600160801b031615610e0d57610e018160c00151600160801b8460c001516001600160801b031661322f565b60808301805190910190525b80606001516001600160a01b031682604001516001600160a01b03161415610f3657806040015115610f0d578360a00151610e9757610e75846040015160008760200151886040015188602001518a6060015160086132df909695949392919063ffffffff16565b6001600160a01b03166080860152600690810b900b6060850152600160a08501525b6000610ee382602001518e610eae57600154610eb4565b84608001515b8f610ec3578560800151610ec7565b6002545b608089015160608a015160408b01516005959493929190613471565b90508c15610eef576000035b610efd8360c001518261352b565b6001600160801b031660c0840152505b8b610f1c578060200151610f25565b60018160200151035b600290810b900b6060830152610f71565b80600001516001600160a01b031682604001516001600160a01b031614610f7157610f6482604001516135e1565b600290810b900b60608301525b50610b87565b836020015160020b816060015160020b1461104557600080610fc586604001518660400151886020015188602001518a606001518b6080015160086138fc909695949392919063ffffffff16565b604085015160608601516000805461ffff60c81b1916600160c81b61ffff958616021761ffff60b81b1916600160b81b95909416949094029290921762ffffff60a01b1916600160a01b62ffffff60029490940b9390931692909202919091176001600160a01b0319166001600160a01b039091161790555061106a9050565b6040810151600080546001600160a01b0319166001600160a01b039092169190911790555b8060c001516001600160801b031683602001516001600160801b0316146110b05760c0810151600480546001600160801b0319166001600160801b039092169190911790555b8a1561110057608081015160015560a08101516001600160801b0316156110fb5760a0810151600380546001600160801b031981166001600160801b03918216909301169190911790555b611146565b608081015160025560a08101516001600160801b0316156111465760a0810151600380546001600160801b03808216600160801b92839004821690940116029190911790555b8115158b15151461115f57602081015181518b0361116c565b80600001518a0381602001515b90965094508a156112a55760008512156111ae576111ae7f00000000000000000000000000000000000000000000000000000000000000008d87600003613a97565b60006111b8613be5565b9050336001600160a01b031663fa461e3388888c8c6040518563ffffffff1660e01b815260040180858152602001848152602001806020018281038252848482818152602001925080828437600081840152601f19601f82011690508083019250505095505050505050600060405180830381600087803b15801561123c57600080fd5b505af1158015611250573d6000803e3d6000fd5b5050505061125c613be5565b6112668289613d1e565b111561129f576040805162461bcd60e51b815260206004820152600360248201526249494160e81b604482015290519081900360640190fd5b506113cf565b60008612156112dc576112dc7f00000000000000000000000000000000000000000000000000000000000000008d88600003613a97565b60006112e6613d2e565b9050336001600160a01b031663fa461e3388888c8c6040518563ffffffff1660e01b815260040180858152602001848152602001806020018281038252848482818152602001925080828437600081840152601f19601f82011690508083019250505095505050505050600060405180830381600087803b15801561136a57600080fd5b505af115801561137e573d6000803e3d6000fd5b5050505061138a613d2e565b6113948288613d1e565b11156113cd576040805162461bcd60e51b815260206004820152600360248201526249494160e81b604482015290519081900360640190fd5b505b60408082015160c083015160608085015184518b8152602081018b90526001600160a01b03948516818701526001600160801b039093169183019190915260020b60808201529151908e169133917fc42079f94a6350d7e6235f29174924f928cc2ac818eb64fed8004e115fbcca679181900360a00190a350506000805460ff60f01b1916600160f01b17905550919890975095505050505050565b6004546001600160801b031681565b6003546001600160801b0380821691600160801b90041682565b60088161ffff81106114a557600080fd5b015463ffffffff81169150600160201b810460060b90600160581b81046001600160a01b031690600160f81b900460ff1684565b600054600160f01b900460ff1661151d576040805162461bcd60e51b81526020600482015260036024820152624c4f4b60e81b604482015290519081900360640190fd5b6000805460ff60f01b19169055611532612b47565b60008054600160d81b900461ffff169061154e60088385613dc6565b6000805461ffff808416600160d81b810261ffff60d81b19909316929092179092559192508316146115bb576040805161ffff80851682528316602082015281517fac49e518f90a358f652e4400164f05a5d8f7e35e7747279bc3a93dbf584e125a929181900390910190a15b50506000805460ff60f01b1916600160f01b17905550565b6000546001600160a01b03811690600160a01b810460020b9061ffff600160b81b8204811691600160c81b8104821691600160d81b8204169060ff600160e81b8204811691600160f01b90041687565b600080548190600160f01b900460ff1661166a576040805162461bcd60e51b81526020600482015260036024820152624c4f4b60e81b604482015290519081900360640190fd5b6000805460ff60f01b191690556001600160801b03851661168a57600080fd5b6000806116d860405180608001604052808c6001600160a01b031681526020018b60020b81526020018a60020b81526020016116ce8a6001600160801b0316613e69565b600f0b9052613e7a565b925092505081935080925060008060008611156116fa576116f7613be5565b91505b841561170b57611708613d2e565b90505b336001600160a01b031663d348799787878b8b6040518563ffffffff1660e01b815260040180858152602001848152602001806020018281038252848482818152602001925080828437600081840152601f19601f82011690508083019250505095505050505050600060405180830381600087803b15801561178d57600080fd5b505af11580156117a1573d6000803e3d6000fd5b5050505060008611156117f8576117b6613be5565b6117c08388613d1e565b11156117f8576040805162461bcd60e51b815260206004820152600260248201526104d360f41b604482015290519081900360640190fd5b841561184857611806613d2e565b6118108287613d1e565b1115611848576040805162461bcd60e51b81526020600482015260026024820152614d3160f01b604482015290519081900360640190fd5b8960020b8b60020b8d6001600160a01b03167f7a53080ba414158be7ec69b987b5fb7d07dee101fe85488f0853ae16239d0bde338d8b8b60405180856001600160a01b03168152602001846001600160801b0316815260200183815260200182815260200194505050505060405180910390a450506000805460ff60f01b1916600160f01b17905550919890975095505050505050565b60025481565b600054600160f01b900460ff16611929576040805162461bcd60e51b81526020600482015260036024820152624c4f4b60e81b604482015290519081900360640190fd5b6000805460ff60f01b1916905561193e612b47565b6004546001600160801b031680611980576040805162461bcd60e51b81526020600482015260016024820152601360fa1b604482015290519081900360640190fd5b60006119b5867f000000000000000000000000000000000000000000000000000000000000000062ffffff16620f42406140ba565b905060006119ec867f000000000000000000000000000000000000000000000000000000000000000062ffffff16620f42406140ba565b905060006119f8613be5565b90506000611a04613d2e565b90508815611a3757611a377f00000000000000000000000000000000000000000000000000000000000000008b8b613a97565b8715611a6857611a687f00000000000000000000000000000000000000000000000000000000000000008b8a613a97565b336001600160a01b031663e9cbafb085858a8a6040518563ffffffff1660e01b815260040180858152602001848152602001806020018281038252848482818152602001925080828437600081840152601f19601f82011690508083019250505095505050505050600060405180830381600087803b158015611aea57600080fd5b505af1158015611afe573d6000803e3d6000fd5b505050506000611b0c613be5565b90506000611b18613d2e565b905081611b258588613d1e565b1115611b5d576040805162461bcd60e51b8152602060048201526002602482015261046360f41b604482015290519081900360640190fd5b80611b688487613d1e565b1115611ba0576040805162461bcd60e51b8152602060048201526002602482015261463160f01b604482015290519081900360640190fd5b8382038382038115611c2f5760008054600160e81b9004600f16908115611bd3578160ff168481611bcd57fe5b04611bd6565b60005b90506001600160801b03811615611c0957600380546001600160801b038082168401166001600160801b03199091161790555b611c23818503600160801b8d6001600160801b031661322f565b60018054909101905550505b8015611cba5760008054600160e81b900460041c600f16908115611c5f578160ff168381611c5957fe5b04611c62565b60005b90506001600160801b03811615611c9457600380546001600160801b03600160801b8083048216850182160291161790555b611cae818403600160801b8d6001600160801b031661322f565b60028054909101905550505b8d6001600160a01b0316336001600160a01b03167fbdbdb71d7860376ba52b25a5028beea23581364a40522f6bcfb86bb1f2dca6338f8f86866040518085815260200184815260200183815260200182815260200194505050505060405180910390a350506000805460ff60f01b1916600160f01b179055505050505050505050505050565b600080548190600160f01b900460ff16611d87576040805162461bcd60e51b81526020600482015260036024820152624c4f4b60e81b604482015290519081900360640190fd5b6000805460ff60f01b19168155611da160073389896140f4565b60038101549091506001600160801b0390811690861611611dc25784611dd1565b60038101546001600160801b03165b60038201549093506001600160801b03600160801b909104811690851611611df95783611e0f565b6003810154600160801b90046001600160801b03165b91506001600160801b03831615611e74576003810180546001600160801b031981166001600160801b03918216869003821617909155611e74907f0000000000000000000000000000000000000000000000000000000000000000908a908616613a97565b6001600160801b03821615611eda576003810180546001600160801b03600160801b808304821686900382160291811691909117909155611eda907f0000000000000000000000000000000000000000000000000000000000000000908a908516613a97565b604080516001600160a01b038a1681526001600160801b0380861660208301528416818301529051600288810b92908a900b9133917f70935338e69775456a85ddef226c395fb668b63fa0115f5f20610b388e6ca9c0919081900360600190a4506000805460ff60f01b1916600160f01b17905590969095509350505050565b60076020526000908152604090208054600182015460028301546003909301546001600160801b0392831693919281811691600160801b90041685565b60066020526000908152604090205481565b7f000000000000000000000000000000000000000000000000000000000000000081565b600054600160f01b900460ff16612011576040805162461bcd60e51b81526020600482015260036024820152624c4f4b60e81b604482015290519081900360640190fd5b6000805460ff60f01b1916905560408051638da5cb5b60e01b815290516001600160a01b037f00000000000000000000000000000000000000000000000000000000000000001691638da5cb5b916004808301926020929190829003018186803b15801561207e57600080fd5b505afa158015612092573d6000803e3d6000fd5b505050506040513d60208110156120a857600080fd5b50516001600160a01b031633146120be57600080fd5b60ff821615806120e1575060048260ff16101580156120e15750600a8260ff1611155b801561210b575060ff8116158061210b575060048160ff161015801561210b5750600a8160ff1611155b61211457600080fd5b60008054610ff0600484901b16840160ff908116600160e81b90810260ff60e81b19841617909355919004167f973d8d92bb299f4af6ce49b52a8adb85ae46b9f214c4c4fc06ac77401237b1336010826040805160ff9390920683168252600f600486901c16602083015286831682820152918516606082015290519081900360800190a150506000805460ff60f01b1916600160f01b17905550565b600080548190600160f01b900460ff166121f8576040805162461bcd60e51b81526020600482015260036024820152624c4f4b60e81b604482015290519081900360640190fd5b6000805460ff60f01b1916905560408051638da5cb5b60e01b815290516001600160a01b037f00000000000000000000000000000000000000000000000000000000000000001691638da5cb5b916004808301926020929190829003018186803b15801561226557600080fd5b505afa158015612279573d6000803e3d6000fd5b505050506040513d602081101561228f57600080fd5b50516001600160a01b031633146122a557600080fd5b6003546001600160801b03908116908516116122c157836122ce565b6003546001600160801b03165b6003549092506001600160801b03600160801b9091048116908416116122f45782612308565b600354600160801b90046001600160801b03165b90506001600160801b03821615612389576003546001600160801b038381169116141561233757600019909101905b600380546001600160801b031981166001600160801b03918216859003821617909155612389907f00000000000000000000000000000000000000000000000000000000000000009087908516613a97565b6001600160801b0381161561240f576003546001600160801b03828116600160801b9092041614156123ba57600019015b600380546001600160801b03600160801b80830482168590038216029181169190911790915561240f907f00000000000000000000000000000000000000000000000000000000000000009087908416613a97565b604080516001600160801b0380851682528316602082015281516001600160a01b0388169233927f596b573906218d3411850b26a6b437d6c4522fdb43d2d2386263f86d50b8b151929081900390910190a36000805460ff60f01b1916600160f01b1790559094909350915050565b606080612489612b47565b612500612494612b7e565b858580806020026020016040519081016040528093929190818152602001838360200280828437600092018290525054600454600896959450600160a01b820460020b935061ffff600160b81b8304811693506001600160801b0390911691600160c81b900416614158565b915091509250929050565b600080548190600160f01b900460ff16612552576040805162461bcd60e51b81526020600482015260036024820152624c4f4b60e81b604482015290519081900360640190fd5b6000805460ff60f01b1916815560408051608081018252338152600288810b602083015287900b91810191909152819081906125ab906060810161259e6001600160801b038a16613e69565b600003600f0b9052613e7a565b92509250925081600003945080600003935060008511806125cc5750600084115b1561260b576003830180546001600160801b038082168089018216600160801b93849004831689019092169092029091176001600160801b0319161790555b604080516001600160801b0388168152602081018790528082018690529051600289810b92908b900b9133917f0c396cd989a39f4459b5fa1aed6a9a8dcdbc45908acfd67e028cd568da98982c919081900360600190a450506000805460ff60f01b1916600160f01b179055509094909350915050565b600080600061268f612b47565b61269985856142b2565b600285810b810b60009081526005602052604080822087840b90930b825281206003830154600681900b93600160381b82046001600160a01b0316928492600160d81b810463ffffffff169284929091600160f81b900460ff16806126fd57600080fd5b6003820154600681900b9850600160381b81046001600160a01b03169650600160d81b810463ffffffff169450600160f81b900460ff168061273e57600080fd5b50506040805160e0810182526000546001600160a01b0381168252600160a01b8104600290810b810b810b6020840181905261ffff600160b81b8404811695850195909552600160c81b830485166060850152600160d81b8304909416608084015260ff600160e81b8304811660a0850152600160f01b909204909116151560c08301529093508e810b91900b121590506127e75750939094039650900393509003905061286a565b8a60020b816020015160020b121561285b576000612803612b7e565b6020830151604084015160045460608601519394506000938493612839936008938893879392916001600160801b0316906132df565b9a9003989098039b50509490960392909203965090910303925061286a915050565b50949093039650039350900390505b9250925092565b7f000000000000000000000000000000000000000000000000000000000000000081565b7f000000000000000000000000000000000000000000000000000000000000000081565b7f000000000000000000000000000000000000000000000000000000000000000081565b7f000000000000000000000000000000000000000000000000000000000000000081565b60015481565b60056020526000908152604090208054600182015460028301546003909301546001600160801b03831693600160801b909304600f0b9290600681900b90600160381b81046001600160a01b031690600160d81b810463ffffffff1690600160f81b900460ff1688565b6000546001600160a01b0316156129b4576040805162461bcd60e51b8152602060048201526002602482015261414960f01b604482015290519081900360640190fd5b60006129bf826135e1565b90506000806129d76129cf612b7e565b60089061437b565b6040805160e0810182526001600160a01b038816808252600288810b6020808501829052600085870181905261ffff898116606088018190529089166080880181905260a08801839052600160c0909801979097528154600160f01b6001600160a01b0319909116871762ffffff60a01b1916600160a01b62ffffff9787900b97909716969096029590951763ffffffff60b81b1916600160c81b9091021761ffff60d81b1916600160d81b9096029590951761ffff60e81b191692909217909355835191825281019190915281519395509193507f98636036cb66a9c19a37435efc1e90142190214e8abeb821bdba3f2990dd4c9592918290030190a150505050565b60008082600281900b620d89e71981612af057fe5b05029050600083600281900b620d89e881612b0757fe5b0502905060008460020b83830360020b81612b1e57fe5b0560010190508062ffffff166001600160801b03801681612b3b57fe5b0493505050505b919050565b306001600160a01b037f00000000000000000000000000000000000000000000000000000000000000001614612b7c57600080fd5b565b4290565b60008060008460020b8660020b81612b9657fe5b05905060008660020b128015612bbd57508460020b8660020b81612bb657fe5b0760020b15155b15612bc757600019015b8315612c3c57600080612bd9836143c7565b600182810b810b600090815260208d9052604090205460ff83169190911b80016000190190811680151597509294509092509085612c1e57888360ff16860302612c31565b88612c28826143d9565b840360ff168603025b965050505050612cba565b600080612c4b836001016143c7565b91509150600060018260ff166001901b031990506000818b60008660010b60010b8152602001908152602001600020541690508060001415955085612c9d57888360ff0360ff16866001010102612cb3565b8883612ca883614478565b0360ff168660010101025b9650505050505b5094509492505050565b60008060008360020b12612cdb578260020b612ce3565b8260020b6000035b9050620d89e8811115612d21576040805162461bcd60e51b81526020600482015260016024820152601560fa1b604482015290519081900360640190fd5b600060018216612d3557600160801b612d47565b6ffffcb933bd6fad37aa2d162d1a5940015b70ffffffffffffffffffffffffffffffffff1690506002821615612d7b576ffff97272373d413259a46990580e213a0260801c5b6004821615612d9a576ffff2e50f5f656932ef12357cf3c7fdcc0260801c5b6008821615612db9576fffe5caca7e10e4e61c3624eaa0941cd00260801c5b6010821615612dd8576fffcb9843d60f6159c9db58835c9266440260801c5b6020821615612df7576fff973b41fa98c081472e6896dfb254c00260801c5b6040821615612e16576fff2ea16466c96a3843ec78b326b528610260801c5b6080821615612e35576ffe5dee046a99a2a811c461f1969c30530260801c5b610100821615612e55576ffcbe86c7900a88aedcffc83b479aa3a40260801c5b610200821615612e75576ff987a7253ac413176f2b074cf7815e540260801c5b610400821615612e95576ff3392b0822b70005940c7a398e4b70f30260801c5b610800821615612eb5576fe7159475a2c29b7443b29c7fa6e889d90260801c5b611000821615612ed5576fd097f3bdfd2022b8845ad8f792aa58250260801c5b612000821615612ef5576fa9f746462d870fdf8a65dc1f90e061e50260801c5b614000821615612f15576f70d869a156d2a1b890bb3df62baf32f70260801c5b618000821615612f35576f31be135f97d08fd981231505542fcfa60260801c5b62010000821615612f56576f09aa508b5b7a84e1c677de54f3e99bc90260801c5b62020000821615612f76576e5d6af8dedb81196699c329225ee6040260801c5b62040000821615612f95576d2216e584f5fa1ea926041bedfe980260801c5b62080000821615612fb2576b048a170391f7dc42444e8fa20260801c5b60008460020b1315612fcd578060001981612fc957fe5b0490505b600160201b810615612fe0576001612fe3565b60005b60ff16602082901c0192505050919050565b60008080806001600160a01b03808916908a16101581871280159061307a57600061302e8989620f42400362ffffff16620f424061322f565b905082613047576130428c8c8c6001614562565b613054565b6130548b8d8c60016145dd565b9550858110613065578a9650613074565b6130718c8b8386614688565b96505b506130c4565b816130915761308c8b8b8b60006145dd565b61309e565b61309e8a8c8b6000614562565b93508388600003106130b2578995506130c4565b6130c18b8a8a600003856146d4565b95505b6001600160a01b038a8116908716148215613127578080156130e35750815b6130f9576130f4878d8c60016145dd565b6130fb565b855b9550808015613108575081155b61311e57613119878d8c6000614562565b613120565b845b9450613171565b8080156131315750815b613147576131428c888c6001614562565b613149565b855b9550808015613156575081155b61316c576131678c888c60006145dd565b61316e565b845b94505b8115801561318157508860000385115b1561318d578860000394505b8180156131ac57508a6001600160a01b0316876001600160a01b031614155b156131bb5785890393506131d8565b6131d5868962ffffff168a620f42400362ffffff166140ba565b93505b50505095509550955095915050565b6000600160ff1b82106131f957600080fd5b5090565b8082038281131560008312151461321357600080fd5b92915050565b8181018281121560008312151461321357600080fd5b6000808060001985870986860292508281109083900303905080613265576000841161325a57600080fd5b5082900490506132d8565b80841161327157600080fd5b6000848688096000868103871696879004966002600389028118808a02820302808a02820302808a02820302808a02820302808a02820302808a02909103029181900381900460010186841190950394909402919094039290920491909117919091029150505b9392505050565b60008063ffffffff8716613385576000898661ffff1661ffff811061330057fe5b60408051608081018252919092015463ffffffff808216808452600160201b8304600690810b810b900b6020850152600160581b83046001600160a01b031694840194909452600160f81b90910460ff16151560608301529092508a16146133715761336e818a8988614720565b90505b806020015181604001519250925050613465565b86880360008061339a8c8c858c8c8c8c6147c3565b91509150816000015163ffffffff168363ffffffff1614156133cc578160200151826040015194509450505050613465565b805163ffffffff848116911614156133f4578060200151816040015194509450505050613465565b8151815160208085015190840151918390039286039163ffffffff80841692908516910360060b8161342257fe5b05028460200151018263ffffffff168263ffffffff1686604001518660400151036001600160a01b0316028161345457fe5b048560400151019650965050505050505b97509795505050505050565b600295860b860b60009081526020979097526040909620600181018054909503909455938301805490920390915560038201805463ffffffff600160d81b6001600160a01b03600160381b808504821690960316909402600160381b600160d81b031990921691909117600681810b90960390950b66ffffffffffffff1666ffffffffffffff199095169490941782810485169095039093160263ffffffff60d81b1990931692909217905554600160801b9004600f0b90565b60008082600f0b121561359057826001600160801b03168260000384039150816001600160801b03161061358b576040805162461bcd60e51b81526020600482015260026024820152614c5360f01b604482015290519081900360640190fd5b613213565b826001600160801b03168284019150816001600160801b03161015613213576040805162461bcd60e51b81526020600482015260026024820152614c4160f01b604482015290519081900360640190fd5b60006401000276a36001600160a01b0383161080159061361d575073fffd8963efd1fc6a506488495d951d5263988d266001600160a01b038316105b613652576040805162461bcd60e51b81526020600482015260016024820152602960f91b604482015290519081900360640190fd5b640100000000600160c01b03602083901b166001600160801b03811160071b81811c67ffffffffffffffff811160061b90811c63ffffffff811160051b90811c61ffff811160041b90811c60ff8111600390811b91821c600f811160021b90811c918211600190811b92831c979088119617909417909217179091171717608081106136e657607f810383901c91506136f0565b80607f0383901b91505b908002607f81811c60ff83811c9190911c800280831c81831c1c800280841c81841c1c800280851c81851c1c800280861c81861c1c800280871c81871c1c800280881c81881c1c800280891c81891c1c8002808a1c818a1c1c8002808b1c818b1c1c8002808c1c818c1c1c8002808d1c818d1c1c8002808e1c9c81901c9c909c1c80029c8d901c9e9d607f198f0160401b60c09190911c678000000000000000161760c19b909b1c674000000000000000169a909a1760c29990991c672000000000000000169890981760c39790971c671000000000000000169690961760c49590951c670800000000000000169490941760c59390931c670400000000000000169290921760c69190911c670200000000000000161760c79190911c600160381b161760c89190911c6680000000000000161760c99190911c6640000000000000161760ca9190911c6620000000000000161760cb9190911c6610000000000000161760cc9190911c6608000000000000161760cd9190911c66040000000000001617693627a301d71055774c8581026f028f6481ab7f045a5af012a19d003aa9198101608090811d906fdb2df09e81959a81455e260799a0632f8301901d600281810b9083900b146138ed57886001600160a01b03166138d182612cc4565b6001600160a01b031611156138e657816138e8565b805b6138ef565b815b9998505050505050505050565b6000806000898961ffff1661ffff811061391257fe5b60408051608081018252919092015463ffffffff808216808452600160201b8304600690810b810b900b6020850152600160581b83046001600160a01b031694840194909452600160f81b90910460ff1615156060830152909250891614156139815788859250925050613465565b8461ffff168461ffff161180156139a257506001850361ffff168961ffff16145b156139af578391506139b3565b8491505b8161ffff168960010161ffff16816139c757fe5b0692506139d681898989614720565b8a8461ffff1661ffff81106139e757fe5b825191018054602084015160408501516060909501511515600160f81b026001600160f81b036001600160a01b03909616600160581b027fff0000000000000000000000000000000000000000ffffffffffffffffffffff60069390930b66ffffffffffffff16600160201b026affffffffffffff000000001963ffffffff90971663ffffffff199095169490941795909516929092171692909217929092161790555097509795505050505050565b604080516001600160a01b038481166024830152604480830185905283518084039091018152606490920183526020820180516001600160e01b031663a9059cbb60e01b1781529251825160009485949389169392918291908083835b60208310613b135780518252601f199092019160209182019101613af4565b6001836020036101000a0380198251168184511680821785525050505050509050019150506000604051808303816000865af19150503d8060008114613b75576040519150601f19603f3d011682016040523d82523d6000602084013e613b7a565b606091505b5091509150818015613ba8575080511580613ba85750808060200190516020811015613ba557600080fd5b50515b613bde576040805162461bcd60e51b81526020600482015260026024820152612a2360f11b604482015290519081900360640190fd5b5050505050565b604080513060248083019190915282518083039091018152604490910182526020810180516001600160e01b03166370a0823160e01b17815291518151600093849384936001600160a01b037f00000000000000000000000000000000000000000000000000000000000000001693919290918291908083835b60208310613c7e5780518252601f199092019160209182019101613c5f565b6001836020036101000a038019825116818451168082178552505050505050905001915050600060405180830381855afa9150503d8060008114613cde576040519150601f19603f3d011682016040523d82523d6000602084013e613ce3565b606091505b5091509150818015613cf757506020815110155b613d0057600080fd5b808060200190516020811015613d1557600080fd5b50519250505090565b8082018281101561321357600080fd5b604080513060248083019190915282518083039091018152604490910182526020810180516001600160e01b03166370a0823160e01b17815291518151600093849384936001600160a01b037f000000000000000000000000000000000000000000000000000000000000000016939192909182919080838360208310613c7e5780518252601f199092019160209182019101613c5f565b6000808361ffff1611613e04576040805162461bcd60e51b81526020600482015260016024820152604960f81b604482015290519081900360640190fd5b8261ffff168261ffff1611613e1a5750816132d8565b825b8261ffff168161ffff161015613e60576001858261ffff1661ffff8110613e3f57fe5b01805463ffffffff191663ffffffff92909216919091179055600101613e1c565b50909392505050565b80600f81900b8114612b4257600080fd5b6000806000613e87612b47565b613e99846020015185604001516142b2565b6040805160e0810182526000546001600160a01b0381168252600160a01b8104600290810b810b900b602080840182905261ffff600160b81b8404811685870152600160c81b84048116606080870191909152600160d81b8504909116608086015260ff600160e81b8504811660a0870152600160f01b909404909316151560c085015288519089015194890151928901519394613f3d94919390929091906149bd565b93508460600151600f0b6000146140b257846020015160020b816020015160020b1215613f9257613f8b613f748660200151612cc4565b613f818760400151612cc4565b8760600151614b72565b92506140b2565b846040015160020b816020015160020b12156140885760045460408201516001600160801b0390911690613fe490613fc8612b7e565b60208501516060860151608087015160089493929187916138fc565b6000805461ffff60c81b1916600160c81b61ffff938416021761ffff60b81b1916600160b81b939092169290920217905581516040870151614034919061402a90612cc4565b8860600151614b72565b93506140526140468760200151612cc4565b83516060890151614bb6565b925061406281876060015161352b565b600480546001600160801b0319166001600160801b0392909216919091179055506140b2565b6140af6140988660200151612cc4565b6140a58760400151612cc4565b8760600151614bb6565b91505b509193909250565b60006140c784848461322f565b9050600082806140d357fe5b84860911156132d85760001981106140ea57600080fd5b6001019392505050565b6040805160609490941b6bffffffffffffffffffffffff1916602080860191909152600293840b60e890811b60348701529290930b90911b60378401528051808403601a018152603a90930181528251928201929092206000908152929052902090565b60608060008361ffff1611614198576040805162461bcd60e51b81526020600482015260016024820152604960f81b604482015290519081900360640190fd5b865167ffffffffffffffff811180156141b057600080fd5b506040519080825280602002602001820160405280156141da578160200160208202803683370190505b509150865167ffffffffffffffff811180156141f557600080fd5b5060405190808252806020026020018201604052801561421f578160200160208202803683370190505b50905060005b87518110156142a5576142508a8a8a848151811061423f57fe5b60200260200101518a8a8a8a6132df565b84838151811061425c57fe5b6020026020010184848151811061426f57fe5b60200260200101826001600160a01b03166001600160a01b03168152508260060b60060b81525050508080600101915050614225565b5097509795505050505050565b8060020b8260020b126142f2576040805162461bcd60e51b8152602060048201526003602482015262544c5560e81b604482015290519081900360640190fd5b620d89e719600283900b1215614335576040805162461bcd60e51b8152602060048201526003602482015262544c4d60e81b604482015290519081900360640190fd5b620d89e8600282900b1315614377576040805162461bcd60e51b815260206004820152600360248201526254554d60e81b604482015290519081900360640190fd5b5050565b6040805160808101825263ffffffff9283168082526000602083018190529282019290925260016060909101819052835463ffffffff1916909117909116600160f81b17909155908190565b60020b600881901d9161010090910790565b60008082116143e757600080fd5b600160801b82106143fa57608091821c91015b68010000000000000000821061441257604091821c91015b600160201b821061442557602091821c91015b62010000821061443757601091821c91015b610100821061444857600891821c91015b6010821061445857600491821c91015b6004821061446857600291821c91015b60028210612b4257600101919050565b600080821161448657600080fd5b5060ff6001600160801b038216156144a157607f19016144a9565b608082901c91505b67ffffffffffffffff8216156144c257603f19016144ca565b604082901c91505b63ffffffff8216156144df57601f19016144e7565b602082901c91505b61ffff8216156144fa57600f1901614502565b601082901c91505b60ff821615614514576007190161451c565b600882901c91505b600f82161561452e5760031901614536565b600482901c91505b60038216156145485760011901614550565b600282901c91505b6001821615612b425760001901919050565b6000836001600160a01b0316856001600160a01b03161115614582579293925b816145af576145aa836001600160801b03168686036001600160a01b0316600160601b61322f565b6145d2565b6145d2836001600160801b03168686036001600160a01b0316600160601b6140ba565b90505b949350505050565b6000836001600160a01b0316856001600160a01b031611156145fd579293925b600160601b600160e01b03606084901b166001600160a01b03868603811690871661462757600080fd5b8361465757866001600160a01b031661464a8383896001600160a01b031661322f565b8161465157fe5b0461467d565b61467d61466e8383896001600160a01b03166140ba565b886001600160a01b0316614be5565b979650505050505050565b600080856001600160a01b03161161469f57600080fd5b6000846001600160801b0316116146b557600080fd5b816146c7576145aa8585856001614bf0565b6145d28585856001614cd1565b600080856001600160a01b0316116146eb57600080fd5b6000846001600160801b03161161470157600080fd5b81614713576145aa8585856000614cd1565b6145d28585856000614bf0565b6147286154f1565b600085600001518503905060405180608001604052808663ffffffff1681526020018263ffffffff168660020b0288602001510160060b81526020016000856001600160801b03161161477c57600161477e565b845b6001600160801b031663ffffffff60801b608085901b168161479c57fe5b048860400151016001600160a01b0316815260200160011515815250915050949350505050565b6147cb6154f1565b6147d36154f1565b888561ffff1661ffff81106147e457fe5b60408051608081018252919092015463ffffffff8116808352600160201b8204600690810b810b900b6020840152600160581b82046001600160a01b031693830193909352600160f81b900460ff1615156060820152925061484890899089614db4565b15614880578663ffffffff16826000015163ffffffff16141561486a57613465565b8161487783898988614720565b91509150613465565b888361ffff168660010161ffff168161489557fe5b0661ffff1661ffff81106148a557fe5b60408051608081018252929091015463ffffffff81168352600160201b8104600690810b810b900b60208401526001600160a01b03600160581b8204169183019190915260ff600160f81b9091041615156060820181905290925061495a57604080516080810182528a5463ffffffff81168252600160201b8104600690810b810b900b6020830152600160581b81046001600160a01b031692820192909252600160f81b90910460ff161515606082015291505b61496988836000015189614db4565b6149a0576040805162461bcd60e51b815260206004820152600360248201526213d31160ea1b604482015290519081900360640190fd5b6149ad8989898887614e75565b9150915097509795505050505050565b60006149cc60078787876140f4565b60015460025491925090600080600f87900b15614b125760006149ed612b7e565b6000805460045492935090918291614a379160089186918591600160a01b810460020b9161ffff600160b81b83048116926001600160801b0390921691600160c81b9004166132df565b9092509050614a7160058d8b8d8b8b87898b60007f0000000000000000000000000000000000000000000000000000000000000000615013565b9450614aa860058c8b8d8b8b87898b60017f0000000000000000000000000000000000000000000000000000000000000000615013565b93508415614adc57614adc60068d7f00000000000000000000000000000000000000000000000000000000000000006151cc565b8315614b0e57614b0e60068c7f00000000000000000000000000000000000000000000000000000000000000006151cc565b5050505b600080614b2460058c8c8b8a8a615232565b9092509050614b35878a84846152de565b600089600f0b1215614b63578315614b5257614b5260058c615473565b8215614b6357614b6360058b615473565b50505050505095945050505050565b60008082600f0b12614b9857614b93614b8e85858560016145dd565b6131e7565b6145d5565b614bab614b8e85858560000360006145dd565b600003949350505050565b60008082600f0b12614bd257614b93614b8e8585856001614562565b614bab614b8e8585856000036000614562565b808204910615150190565b60008115614c635760006001600160a01b03841115614c2657614c2184600160601b876001600160801b031661322f565b614c3e565b6001600160801b038516606085901b81614c3c57fe5b045b9050614c5b614c566001600160a01b03881683613d1e565b61549f565b9150506145d5565b60006001600160a01b03841115614c9157614c8c84600160601b876001600160801b03166140ba565b614ca8565b614ca8606085901b6001600160801b038716614be5565b905080866001600160a01b031611614cbf57600080fd5b6001600160a01b0386160390506145d5565b600082614cdf5750836145d5565b600160601b600160e01b03606085901b168215614d6d576001600160a01b03861684810290858281614d0d57fe5b041415614d3e57818101828110614d3c57614d3283896001600160a01b0316836140ba565b93505050506145d5565b505b614d6482614d5f878a6001600160a01b03168681614d5857fe5b0490613d1e565b614be5565b925050506145d5565b6001600160a01b03861684810290858281614d8457fe5b04148015614d9157508082115b614d9a57600080fd5b808203614d32614c56846001600160a01b038b16846140ba565b60008363ffffffff168363ffffffff1611158015614dde57508363ffffffff168263ffffffff1611155b15614dfa578163ffffffff168363ffffffff16111590506132d8565b60008463ffffffff168463ffffffff1611614e21578363ffffffff16600160201b01614e29565b8363ffffffff165b64ffffffffff16905060008563ffffffff168463ffffffff1611614e59578363ffffffff16600160201b01614e61565b8363ffffffff165b64ffffffffff169091111595945050505050565b614e7d6154f1565b614e856154f1565b60008361ffff168560010161ffff1681614e9b57fe5b0661ffff169050600060018561ffff16830103905060005b506002818301048961ffff87168281614ec857fe5b0661ffff8110614ed457fe5b60408051608081018252929091015463ffffffff81168352600160201b8104600690810b810b900b60208401526001600160a01b03600160581b8204169183019190915260ff600160f81b90910416151560608201819052909550614f3e57806001019250614eb3565b898661ffff168260010181614f4f57fe5b0661ffff8110614f5b57fe5b60408051608081018252929091015463ffffffff81168352600160201b8104600690810b810b900b60208401526001600160a01b03600160581b8204169183019190915260ff600160f81b90910416151560608201528551909450600090614fc5908b908b614db4565b9050808015614fde5750614fde8a8a8760000151614db4565b15614fe95750615006565b80614ff957600182039250615000565b8160010193505b50614eb3565b5050509550959350505050565b60028a810b900b600090815260208c90526040812080546001600160801b03168261503e828d61352b565b9050846001600160801b0316816001600160801b0316111561508c576040805162461bcd60e51b81526020600482015260026024820152614c4f60f01b604482015290519081900360640190fd5b6001600160801b038281161590821615811415945015615131578c60020b8e60020b1361511957600183018b9055600283018a9055600383018054600160381b600160d81b031916600160381b6001600160a01b038c16021766ffffffffffffff191666ffffffffffffff60068b900b161763ffffffff60d81b1916600160d81b63ffffffff8a16021790555b6003830180546001600160f81b0316600160f81b1790555b82546001600160801b0319166001600160801b0382161783558561517a5782546151759061517090600160801b9004600f90810b810b908f900b613219565b613e69565b61519b565b825461519b9061517090600160801b9004600f90810b810b908f900b6131fd565b8354600f9190910b6001600160801b03908116600160801b0291161790925550909c9b505050505050505050505050565b8060020b8260020b816151db57fe5b0760020b156151e957600080fd5b6000806152048360020b8560020b816151fe57fe5b056143c7565b600191820b820b60009081526020979097526040909620805460ff9097169190911b90951890945550505050565b600285810b80820b60009081526020899052604080822088850b850b83529082209193849391929184918291908a900b126152785750506001820154600283015461528b565b8360010154880391508360020154870390505b6000808b60020b8b60020b12156152ad575050600183015460028401546152c0565b84600101548a0391508460020154890390505b92909803979097039b96909503949094039850939650505050505050565b6040805160a08101825285546001600160801b0390811682526001870154602083015260028701549282019290925260038601548083166060830152600160801b900490911660808201526000600f85900b61537d5781516001600160801b0316615375576040805162461bcd60e51b815260206004820152600260248201526104e560f41b604482015290519081900360640190fd5b50805161538c565b8151615389908661352b565b90505b60006153b08360200151860384600001516001600160801b0316600160801b61322f565b905060006153d68460400151860385600001516001600160801b0316600160801b61322f565b905086600f0b6000146153fd5787546001600160801b0319166001600160801b0384161788555b60018801869055600288018590556001600160801b03821615158061542b57506000816001600160801b0316115b15615469576003880180546001600160801b031981166001600160801b039182168501821617808216600160801b9182900483168501909216021790555b5050505050505050565b600290810b810b6000908152602092909252604082208281556001810183905590810182905560030155565b806001600160a01b0381168114612b4257600080fd5b6040805160e081018252600080825260208201819052918101829052606081018290526080810182905260a0810182905260c081019190915290565b6040805160808101825260008082526020820181905291810182905260608101919091529056fea26469706673582212203e0130586751b2b00c2b3d442cad542f0861e927a6ae5ceae3e15f0006b2ade964736f6c63430007060033a2646970667358221220041a9aa6d2ba8bd212649557b5affb52f05c6d6123090439c47733b4ad693f3264736f6c63430007060033c66a3fdf07232cdd185febcc6579d408c241b47ae2f9907d84be655141eeaecc60806040523480156200001157600080fd5b506040516200291f3803806200291f8339810160408190526200003491620000bc565b6000805460018054600a65ffffff0000001990911664012c0000001763ffffffff60301b1916670e100000000000001762ffffff19161790556001600160a01b0319166001600160a01b03929092169190911762ffffff60a01b191660e160a31b1762ffffff60b81b191660e160bb1b176001600160e81b0316600f60e91b179055620000ec565b600060208284031215620000ce578081fd5b81516001600160a01b0381168114620000e5578182fd5b9392505050565b61282380620000fc6000396000f3fe608060405234801561001057600080fd5b50600436106101375760003560e01c8063963f0bb6116100b8578063c433c80a1161007c578063c433c80a1461027c578063d4f9b7a71461028f578063d60a0955146102a2578063e7c7cb91146102aa578063f8806a13146102b2578063fd0679e9146102d257610137565b8063963f0bb61461021d578063ab033ea914610230578063ab24f52614610243578063b0a42a5114610256578063b7ab92e81461026957610137565b80634ed8cf27116100ff5780634ed8cf27146101aa57806357159a2e146101bd5780635aa6e675146101d0578063802036f5146101e55780638df2345e1461020a57610137565b8063051bb8331461013c5780631ca6aede1461015157806326d895451461016f5780633cbff3fe146101845780633d47d22714610197575b600080fd5b61014f61014a3660046120c2565b6102da565b005b61015961036c565b604051610166919061253b565b60405180910390f35b61017761037c565b604051610166919061273a565b61014f61019236600461231b565b61038f565b6101596101a53660046120c2565b610441565b6101596101b83660046120c2565b6105ce565b61014f6101cb366004612260565b6105f9565b6101d861068d565b604051610166919061250d565b6101f86101f33660046120c2565b61069c565b6040516101669695949392919061255d565b61014f61021836600461217e565b610ae5565b61014f61022b366004612353565b610bd2565b61014f61023e3660046120c2565b610e5b565b61014f61025136600461211d565b610f14565b6101596102643660046120e5565b610fe1565b61014f61027736600461231b565b611010565b61014f61028a366004612441565b6110cc565b61014f61029d36600461231b565b611179565b610159611212565b610159611222565b6102c56102c03660046120c2565b611232565b60405161016691906126b0565b6101596112ca565b60006102e5826112da565b905060006102f2836113fc565b50905060008260020b8260020b1361030c57818303610310565b8282035b6001600160a01b038516600090815260026020819052604090912054919250600160301b909104810b810b9082900b13156103665760405162461bcd60e51b815260040161035d90612622565b60405180910390fd5b50505050565b600054600160a01b900460020b81565b600154600160301b900463ffffffff1681565b6000546001600160a01b031633146103b95760405162461bcd60e51b815260040161035d9061263f565b60148160020b12156103dd5760405162461bcd60e51b815260040161035d906125cc565b60018054600283810b62ffffff16630100000090810265ffffff000000198416179093556040517fb32bf5279c25f60e729f297567e5882813fe72a29dec91009962465b6a98a15f93610436930490910b908490612549565b60405180910390a150565b600080829050600080826001600160a01b0316633850c7bd6040518163ffffffff1660e01b815260040160e06040518083038186803b15801561048357600080fd5b505afa158015610497573d6000803e3d6000fd5b505050506040513d601f19601f820116820180604052508101906104bb91906123a6565b5050509350935050506000836001600160a01b031663252c09d78361ffff168560010161ffff16816104e957fe5b066040518263ffffffff1660e01b8152600401610506919061272b565b60806040518083038186803b15801561051e57600080fd5b505afa158015610532573d6000803e3d6000fd5b505050506040513d601f19601f82011682018060405250810190610556919061245d565b5050506001600160a01b0387166000908152600260205260409020549091504282900390600160601b900463ffffffff168061059e5750600154600160301b900463ffffffff165b6105c2888263ffffffff168463ffffffff16116105bb57836105bd565b825b6114f9565b98975050505050505050565b6001600160a01b038116600090815260026020819052604090912054600160481b9004900b5b919050565b6000546001600160a01b031633146106235760405162461bcd60e51b815260040161035d9061263f565b80518251146106445760405162461bcd60e51b815260040161035d906125e8565b60005b82518110156106885761068083828151811061065f57fe5b602002602001015183838151811061067357fe5b6020026020010151610bd2565b600101610647565b505050565b6000546001600160a01b031681565b6000806000806000806000806106b1896113fc565b6001600160a01b038b1660009081526002602081905260409091205492945090925090810b900b158061070857506001600160a01b03891660009081526002602081905260409091205463010000009004810b900b155b156108d4576000805461072590600160b81b900460020b836117f9565b90506040518060c001604052808260020b8152602001610754600060149054906101000a900460020b856117f9565b600290810b825260015463010000008104820b820b602084015260409092019160649190810b8502900b0560020b8152602001600160069054906101000a900463ffffffff1663ffffffff1681526020016000601d9054906101000a900460020b60020b815250600260008c6001600160a01b03166001600160a01b0316815260200190815260200160002060008201518160000160006101000a81548162ffffff021916908360020b62ffffff16021790555060208201518160000160036101000a81548162ffffff021916908360020b62ffffff16021790555060408201518160000160066101000a81548162ffffff021916908360020b62ffffff16021790555060608201518160000160096101000a81548162ffffff021916908360020b62ffffff160217905550608082015181600001600c6101000a81548163ffffffff021916908363ffffffff16021790555060a08201518160000160106101000a81548162ffffff021916908360020b62ffffff160217905550905050505b6001600160a01b038916600090815260026020819052604082208054835462ffffff60d01b1916600160d01b62ffffff6301000000909304850b850b9290921682021780855591549104820b820b90820b90910b1361093f57600054600160d01b900460020b61095e565b6001600160a01b038a16600090815260026020819052604090912054900b5b90508181620d89e719010160020b8360020b13801561098d57508181620d89e719600003030360020b8360020b125b6109a95760405162461bcd60e51b815260040161035d9061265b565b60006109b48b6112da565b905060008160020b8560020b136109cd578482036109d1565b8185035b6001600160a01b038d16600090815260026020819052604090912054919250600160301b909104810b810b9082900b1315610a1e5760405162461bcd60e51b815260040161035d90612622565b6000610a2a86866117f9565b905060008582019050600260008f6001600160a01b03166001600160a01b0316815260200190815260200160002060000160009054906101000a900460020b82039c50600260008f6001600160a01b03166001600160a01b0316815260200190815260200160002060000160009054906101000a900460020b82019b506000601a9054906101000a900460020b82039a508199508098506000601a9054906101000a900460020b810197505050505050505091939550919395565b6000546001600160a01b03163314610b0f5760405162461bcd60e51b815260040161035d9061263f565b8051835114610b1d57600080fd5b8151835114610b2b57600080fd5b60005b835181101561036657818181518110610b4357fe5b602002602001015160036000868481518110610b5b57fe5b60200260200101516001600160a01b03166001600160a01b031681526020019081526020016000206000858481518110610b9157fe5b60209081029190910181015161ffff168252810191909152604001600020805460029290920b62ffffff1662ffffff19909216919091179055600101610b2e565b6000546001600160a01b03163314610bfc5760405162461bcd60e51b815260040161035d9061263f565b6001600160a01b038116600081815260026020818152604092839020835160c081018552905480840b840b840b825263010000008104840b840b840b82840152600160301b8104840b840b840b82860152600160481b8104840b840b840b606083015263ffffffff600160601b8204166080830152600160801b9004830b830b90920b60a0830152855183516334324e9f60e21b815293519294610cfc949193909263d0c93a7c9260048082019391829003018186803b158015610cbf57600080fd5b505afa158015610cd3573d6000803e3d6000fd5b505050506040513d601f19601f82011682018060405250810190610cf79190612337565b611847565b6040805160c0810182528451600290810b8252602080870151820b81840190815287850151830b8486019081526060808a0151850b9086019081526080808b015163ffffffff90811691880191825260a0808d0151880b9089019081526001600160a01b038c16600090815296889052958990209751885495519451935192519651880b62ffffff908116600160801b0262ffffff60801b1998909316600160601b0263ffffffff60601b19948a0b8216600160481b026bffffff00000000000000000019968b0b8316600160301b0268ffffff00000000000019988c0b841663010000000265ffffff0000001995909c0b90931662ffffff199099169890981792909216989098179490941696909617919091169290921791909116171617815590517fe748bf5f6cb4a1bc33a8d0ec9893c62ea767c51450d362551972251729e9cd3f91610e4e918491906126be565b60405180910390a1505050565b6000546001600160a01b03163314610e855760405162461bcd60e51b815260040161035d9061263f565b6001600160a01b038116610eab5760405162461bcd60e51b815260040161035d90612605565b6000546040517f434a2db650703b36c824e745330d6397cdaa9ee2cc891a4938ae853e1c50b68d91610eea916001600160a01b03909116908490612521565b60405180910390a1600080546001600160a01b0319166001600160a01b0392909216919091179055565b6000546001600160a01b03163314610f3e5760405162461bcd60e51b815260040161035d9061263f565b8051825114610f5f5760405162461bcd60e51b815260040161035d906125e8565b60005b825181101561068857818181518110610f7757fe5b602002602001015160026000858481518110610f8f57fe5b6020908102919091018101516001600160a01b03168252810191909152604001600020805460029290920b62ffffff16600160301b0268ffffff00000000000019909216919091179055600101610f62565b6001600160a01b03909116600090815260036020908152604080832061ffff9094168352929052205460020b90565b6000546001600160a01b0316331461103a5760405162461bcd60e51b815260040161035d9061263f565b60008160020b1361105d5760405162461bcd60e51b815260040161035d90612693565b6000546040517f5d57c30988c079327c7a2866b4ec81c1eb83dca7d6ecd954093458c50034c9389161109c91600160a01b90910460020b908490612549565b60405180910390a16000805460029290920b62ffffff16600160a01b0262ffffff60a01b19909216919091179055565b6000546001600160a01b031633146110f65760405162461bcd60e51b815260040161035d9061263f565b60648163ffffffff16101561111d5760405162461bcd60e51b815260040161035d90612677565b6001805463ffffffff838116600160301b90810269ffffffff000000000000198416179093556040517f1c373b0a9b89049c835cfc0851faad1f23dbb7e5bd46cf58eb88da4dd760378b9361043693049190911690849061274b565b6000546001600160a01b031633146111a35760405162461bcd60e51b815260040161035d9061263f565b60008160020b136111c65760405162461bcd60e51b815260040161035d906125ae565b60018054600283810b62ffffff1662ffffff198316179092556040517f6970a7f31fee92e8ced74d8833776ba308b9d4259e72a19b40ea53bdce8c8c489261043692900b908490612549565b600054600160e81b900460020b81565b6001546301000000900460020b81565b61123a611eee565b506001600160a01b0316600090815260026020818152604092839020835160c081018552905480840b840b840b825263010000008104840b840b840b92820192909252600160301b8204830b830b830b93810193909352600160481b8104820b820b820b606084015263ffffffff600160601b8204166080840152600160801b9004810b810b900b60a082015290565b600054600160b81b900460020b81565b600080826001600160a01b0316631a6865026040518163ffffffff1660e01b815260040160206040518083038186803b15801561131657600080fd5b505afa15801561132a573d6000803e3d6000fd5b505050506040513d601f19601f8201168201806040525081019061134e919061237f565b90506001600160801b0381166113ea576000836001600160a01b0316633850c7bd6040518163ffffffff1660e01b815260040160e06040518083038186803b15801561139957600080fd5b505afa1580156113ad573d6000803e3d6000fd5b505050506040513d601f19601f820116820180604052508101906113d191906123a6565b50505050505090506113e28161189d565b9250506113f6565b6113f383610441565b91505b50919050565b600080826001600160a01b0316633850c7bd6040518163ffffffff1660e01b815260040160e06040518083038186803b15801561143857600080fd5b505afa15801561144c573d6000803e3d6000fd5b505050506040513d601f19601f8201168201806040525081019061147091906123a6565b5050604080516334324e9f60e21b815290519497506001600160a01b038916955063d0c93a7c94600480830195506020945090925090829003018186803b1580156114ba57600080fd5b505afa1580156114ce573d6000803e3d6000fd5b505050506040513d601f19601f820116820180604052508101906114f29190612337565b9050915091565b600063ffffffff8216611538576040805162461bcd60e51b8152602060048201526002602482015261042560f41b604482015290519081900360640190fd5b604080516002808252606082018352600092602083019080368337019050509050828160008151811061156757fe5b602002602001019063ffffffff16908163ffffffff168152505060008160018151811061159057fe5b63ffffffff90921660209283029190910182015260405163883bdbfd60e01b8152600481018281528351602483015283516000936001600160a01b0389169363883bdbfd938793909283926044019185820191028083838b5b838110156116015781810151838201526020016115e9565b505050509050019250505060006040518083038186803b15801561162457600080fd5b505afa158015611638573d6000803e3d6000fd5b505050506040513d6000823e601f3d908101601f19168201604090815281101561166157600080fd5b810190808051604051939291908464010000000082111561168157600080fd5b90830190602082018581111561169657600080fd5b82518660208202830111640100000000821117156116b357600080fd5b82525081516020918201928201910280838360005b838110156116e05781810151838201526020016116c8565b505050509050016040526020018051604051939291908464010000000082111561170957600080fd5b90830190602082018581111561171e57600080fd5b825186602082028301116401000000008211171561173b57600080fd5b82525081516020918201928201910280838360005b83811015611768578181015183820152602001611750565b5050505090500160405250505050905060008160008151811061178757fe5b60200260200101518260018151811061179c57fe5b60200260200101510390508463ffffffff168160060b816117b957fe5b05935060008160060b1280156117e357508463ffffffff168160060b816117dc57fe5b0760060b15155b156117f057600019909301925b50505092915050565b6000808260020b8460020b8161180b57fe5b05905060008460020b12801561183257508260020b8460020b8161182b57fe5b0760020b15155b1561183c57600019015b820290505b92915050565b620d89e8600283900b1380159061186e57508060020b8260020b8161186857fe5b0760020b155b801561187d575060008260020b135b6118995760405162461bcd60e51b815260040161035d90612591565b5050565b60006401000276a36001600160a01b038316108015906118d9575073fffd8963efd1fc6a506488495d951d5263988d266001600160a01b038316105b61190e576040805162461bcd60e51b81526020600482015260016024820152602960f91b604482015290519081900360640190fd5b640100000000600160c01b03602083901b166001600160801b03811160071b81811c67ffffffffffffffff811160061b90811c63ffffffff811160051b90811c61ffff811160041b90811c60ff8111600390811b91821c600f811160021b90811c918211600190811b92831c979088119617909417909217179091171717608081106119a257607f810383901c91506119ac565b80607f0383901b91505b908002607f81811c60ff83811c9190911c800280831c81831c1c800280841c81841c1c800280851c81851c1c800280861c81861c1c800280871c81871c1c800280881c81881c1c800280891c81891c1c8002808a1c818a1c1c8002808b1c818b1c1c8002808c1c818c1c1c8002808d1c818d1c1c8002808e1c9c81901c9c909c1c80029c8d901c9e9d607f198f0160401b60c09190911c678000000000000000161760c19b909b1c674000000000000000169a909a1760c29990991c672000000000000000169890981760c39790971c671000000000000000169690961760c49590951c670800000000000000169490941760c59390931c670400000000000000169290921760c69190911c670200000000000000161760c79190911c670100000000000000161760c89190911c6680000000000000161760c99190911c6640000000000000161760ca9190911c6620000000000000161760cb9190911c6610000000000000161760cc9190911c6608000000000000161760cd9190911c66040000000000001617693627a301d71055774c8581026f028f6481ab7f045a5af012a19d003aa9198101608090811d906fdb2df09e81959a81455e260799a0632f8301901d600281810b9083900b14611bad57886001600160a01b0316611b9182611bbc565b6001600160a01b03161115611ba65781611ba8565b805b611baf565b815b9998505050505050505050565b60008060008360020b12611bd3578260020b611bdb565b8260020b6000035b9050620d89e8811115611c19576040805162461bcd60e51b81526020600482015260016024820152601560fa1b604482015290519081900360640190fd5b600060018216611c2d57600160801b611c3f565b6ffffcb933bd6fad37aa2d162d1a5940015b70ffffffffffffffffffffffffffffffffff1690506002821615611c73576ffff97272373d413259a46990580e213a0260801c5b6004821615611c92576ffff2e50f5f656932ef12357cf3c7fdcc0260801c5b6008821615611cb1576fffe5caca7e10e4e61c3624eaa0941cd00260801c5b6010821615611cd0576fffcb9843d60f6159c9db58835c9266440260801c5b6020821615611cef576fff973b41fa98c081472e6896dfb254c00260801c5b6040821615611d0e576fff2ea16466c96a3843ec78b326b528610260801c5b6080821615611d2d576ffe5dee046a99a2a811c461f1969c30530260801c5b610100821615611d4d576ffcbe86c7900a88aedcffc83b479aa3a40260801c5b610200821615611d6d576ff987a7253ac413176f2b074cf7815e540260801c5b610400821615611d8d576ff3392b0822b70005940c7a398e4b70f30260801c5b610800821615611dad576fe7159475a2c29b7443b29c7fa6e889d90260801c5b611000821615611dcd576fd097f3bdfd2022b8845ad8f792aa58250260801c5b612000821615611ded576fa9f746462d870fdf8a65dc1f90e061e50260801c5b614000821615611e0d576f70d869a156d2a1b890bb3df62baf32f70260801c5b618000821615611e2d576f31be135f97d08fd981231505542fcfa60260801c5b62010000821615611e4e576f09aa508b5b7a84e1c677de54f3e99bc90260801c5b62020000821615611e6e576e5d6af8dedb81196699c329225ee6040260801c5b62040000821615611e8d576d2216e584f5fa1ea926041bedfe980260801c5b62080000821615611eaa576b048a170391f7dc42444e8fa20260801c5b60008460020b1315611ec5578060001981611ec157fe5b0490505b640100000000810615611ed9576001611edc565b60005b60ff16602082901c0192505050919050565b6040805160c081018252600080825260208201819052918101829052606081018290526080810182905260a081019190915290565b600082601f830112611f33578081fd5b81356020611f48611f4383612786565b612762565b8281528181019085830183850287018401881015611f64578586fd5b855b85811015611f8b578135611f79816127a4565b84529284019290840190600101611f66565b5090979650505050505050565b600082601f830112611fa8578081fd5b81356020611fb8611f4383612786565b8281528181019085830183850287018401881015611fd4578586fd5b855b85811015611f8b578135611fe9816127bc565b84529284019290840190600101611fd6565b805180151581146105f457600080fd5b80356105f4816127bc565b600060c08284031215612027578081fd5b60405160c0810181811067ffffffffffffffff8211171561204457fe5b6040529050808235612055816127bc565b81526020830135612065816127bc565b60208201526040830135612078816127bc565b60408201526120896060840161200b565b606082015261209a608084016120b7565b60808201526120ab60a0840161200b565b60a08201525092915050565b80356105f4816127db565b6000602082840312156120d3578081fd5b81356120de816127a4565b9392505050565b600080604083850312156120f7578081fd5b8235612102816127a4565b91506020830135612112816127cb565b809150509250929050565b6000806040838503121561212f578182fd5b823567ffffffffffffffff80821115612146578384fd5b61215286838701611f23565b93506020850135915080821115612167578283fd5b5061217485828601611f98565b9150509250929050565b600080600060608486031215612192578081fd5b833567ffffffffffffffff808211156121a9578283fd5b6121b587838801611f23565b94506020915081860135818111156121cb578384fd5b8601601f810188136121db578384fd5b80356121e9611f4382612786565b81815284810190838601868402850187018c1015612205578788fd5b8794505b8385101561223057803561221c816127cb565b835260019490940193918601918601612209565b5096505050506040860135915080821115612249578283fd5b5061225686828701611f98565b9150509250925092565b60008060408385031215612272578182fd5b823567ffffffffffffffff80821115612289578384fd5b818501915085601f83011261229c578384fd5b813560206122ac611f4383612786565b8281528181019085830160c0808602880185018c10156122ca57898afd5b8997505b858810156122f6576122e08c83612016565b84526001979097019692840192908101906122ce565b5090975050508601359250508082111561230e578283fd5b5061217485828601611f23565b60006020828403121561232c578081fd5b81356120de816127bc565b600060208284031215612348578081fd5b81516120de816127bc565b60008060e08385031215612365578182fd5b61236f8484612016565b915060c0830135612112816127a4565b600060208284031215612390578081fd5b81516001600160801b03811681146120de578182fd5b600080600080600080600060e0888a0312156123c0578485fd5b87516123cb816127a4565b60208901519097506123dc816127bc565b60408901519096506123ed816127cb565b60608901519095506123fe816127cb565b608089015190945061240f816127cb565b60a089015190935060ff81168114612425578283fd5b915061243360c08901611ffb565b905092959891949750929550565b600060208284031215612452578081fd5b81356120de816127db565b60008060008060808587031215612472578182fd5b845161247d816127db565b8094505060208501518060060b8114612494578283fd5b60408601519093506124a5816127a4565b91506124b360608601611ffb565b905092959194509250565b805160020b8252602081015160020b6020830152604081015160020b6040830152606081015160020b606083015263ffffffff608082015116608083015260a081015160020b60a08301525050565b6001600160a01b0391909116815260200190565b6001600160a01b0392831681529116602082015260400190565b60029190910b815260200190565b600292830b8152910b602082015260400190565b600296870b815294860b602086015292850b604085015290840b6060840152830b608083015290910b60a082015260c00190565b602080825260039082015262494e5360e81b604082015260600190565b6020808252600490820152634952454d60e01b604082015260600190565b602080825260029082015261282360f11b604082015260600190565b60208082526003908201526249564960e81b604082015260600190565b60208082526003908201526249474160e81b604082015260600190565b60208082526003908201526226aa2360e91b604082015260600190565b6020808252600290820152614e4760f01b604082015260600190565b602080825260029082015261125560f21b604082015260600190565b602080825260029082015261151160f21b604082015260600190565b60208082526003908201526249524d60e81b604082015260600190565b60c0810161184182846124be565b61018081016126cd82856124be565b8254600281810b810b60c08501528160181c810b810b60e08501528160301c810b810b6101008501528160481c810b810b61012085015263ffffffff8260601c166101408501528160801c810b810b61016085015250509392505050565b61ffff91909116815260200190565b63ffffffff91909116815260200190565b63ffffffff92831681529116602082015260400190565b60405181810167ffffffffffffffff8111828210171561277e57fe5b604052919050565b600067ffffffffffffffff82111561279a57fe5b5060209081020190565b6001600160a01b03811681146127b957600080fd5b50565b8060020b81146127b957600080fd5b61ffff811681146127b957600080fd5b63ffffffff811681146127b957600080fdfea264697066735822122015d4b0f1f0330c8bd7377748cd39d802c70f8d573de4155bcad5fde2d429f76164736f6c634300070600336080604052348015600f57600080fd5b50603f80601d6000396000f3fe6080604052600080fdfea264697066735822122070ee1b956a6f121264e445ff6e35e4fc5fb8757eaca2596e6765f7a3d38dfe7e64736f6c6343000706003360c0604052600d60808190526c2bb930b83832b21022ba3432b960991b60a090815261002e916000919061007a565b50604080518082019091526004808252630ae8aa8960e31b602090920191825261005a9160019161007a565b506002805460ff1916601217905534801561007457600080fd5b5061011b565b828054600181600116156101000203166002900490600052602060002090601f0160209004810192826100b057600085556100f6565b82601f106100c957805160ff19168380011785556100f6565b828001600101855582156100f6579182015b828111156100f65782518255916020019190600101906100db565b50610102929150610106565b5090565b5b808211156101025760008155600101610107565b6106e98061012a6000396000f3fe60806040526004361061009c5760003560e01c8063313ce56711610064578063313ce5671461020e57806370a082311461023957806395d89b411461026c578063a9059cbb14610281578063d0e30db0146102ba578063dd62ed3e146102c25761009c565b806306fdde03146100a1578063095ea7b31461012b57806318160ddd1461017857806323b872dd1461019f5780632e1a7d4d146101e2575b600080fd5b3480156100ad57600080fd5b506100b66102fd565b6040805160208082528351818301528351919283929083019185019080838360005b838110156100f05781810151838201526020016100d8565b50505050905090810190601f16801561011d5780820380516001836020036101000a031916815260200191505b509250505060405180910390f35b34801561013757600080fd5b506101646004803603604081101561014e57600080fd5b506001600160a01b03813516906020013561038b565b604080519115158252519081900360200190f35b34801561018457600080fd5b5061018d6103f1565b60408051918252519081900360200190f35b3480156101ab57600080fd5b50610164600480360360608110156101c257600080fd5b506001600160a01b038135811691602081013590911690604001356103f5565b3480156101ee57600080fd5b5061020c6004803603602081101561020557600080fd5b5035610529565b005b34801561021a57600080fd5b506102236105be565b6040805160ff9092168252519081900360200190f35b34801561024557600080fd5b5061018d6004803603602081101561025c57600080fd5b50356001600160a01b03166105c7565b34801561027857600080fd5b506100b66105d9565b34801561028d57600080fd5b50610164600480360360408110156102a457600080fd5b506001600160a01b038135169060200135610633565b61020c610647565b3480156102ce57600080fd5b5061018d600480360360408110156102e557600080fd5b506001600160a01b0381358116916020013516610696565b6000805460408051602060026001851615610100026000190190941693909304601f810184900484028201840190925281815292918301828280156103835780601f1061035857610100808354040283529160200191610383565b820191906000526020600020905b81548152906001019060200180831161036657829003601f168201915b505050505081565b3360008181526004602090815260408083206001600160a01b038716808552908352818420869055815186815291519394909390927f8c5be1e5ebec7d5bd14f71427d1e84f3dd0314c0f7b2291e5b200ac8c7c3b925928290030190a350600192915050565b4790565b6001600160a01b03831660009081526003602052604081205482111561041a57600080fd5b6001600160a01b038416331480159061045857506001600160a01b038416600090815260046020908152604080832033845290915290205460001914155b156104b8576001600160a01b038416600090815260046020908152604080832033845290915290205482111561048d57600080fd5b6001600160a01b03841660009081526004602090815260408083203384529091529020805483900390555b6001600160a01b03808516600081815260036020908152604080832080548890039055938716808352918490208054870190558351868152935191937fddf252ad1be2c89b69c2b068fc378daa952ba7f163c4a11628f55a4df523b3ef929081900390910190a35060019392505050565b3360009081526003602052604090205481111561054557600080fd5b33600081815260036020526040808220805485900390555183156108fc0291849190818181858888f19350505050158015610584573d6000803e3d6000fd5b5060408051828152905133917f7fcf532c15f0a6db0bd6d0e038bea71d30d808c7d98cb3bf7268a95bf5081b65919081900360200190a250565b60025460ff1681565b60036020526000908152604090205481565b60018054604080516020600284861615610100026000190190941693909304601f810184900484028201840190925281815292918301828280156103835780601f1061035857610100808354040283529160200191610383565b60006106403384846103f5565b9392505050565b33600081815260036020908152604091829020805434908101909155825190815291517fe1fffcc4923d04b559f4d29a8bfc6cda04eb5b0d3c460751c2402c5c5cc9109c9281900390910190a2565b60046020908152600092835260408084209091529082529020548156fea2646970667358221220e339af4b2033e64ecbf462cf1034ba24977cecb7b34f221f59f8355fab4bc98d64736f6c63430007060033608060405234801561001057600080fd5b5060405161627a38038061627a833981810160405260c081101561003357600080fd5b508051602082015160408301516060840151608085015160a090950151600080546001600160a01b039586166001600160a01b03199182161790915560018054948616948216949094179093556004805495851695841695909517909455600280549184169183169190911790556003805460ff909416600160a81b0260ff60a81b19939095169390911692909217169190911790556161a2806100d86000396000f3fe60806040523480156200001157600080fd5b50600436106200005e5760003560e01c806338d7728014620000635780633f1e478b14620000ad578063517d6c3c14620000ec578063859e3fad1462000151578063ab033ea914620002bd575b600080fd5b6200006d620002e6565b604080516001600160a01b0396871681529486166020860152929094168383015260ff908116606084015292909216608082015290519081900360a00190f35b620000ea60048036036060811015620000c557600080fd5b5080356001600160a01b03908116916020810135909116906040013560ff166200031d565b005b62000135600480360360808110156200010457600080fd5b5080356001600160a01b0390811691602081013590911690604081013562ffffff16906060013561ffff16620003a6565b604080516001600160a01b039092168252519081900360200190f35b62000135600480360360e08110156200016957600080fd5b6001600160a01b038235811692602081013582169262ffffff6040830135169261ffff6060840135169260808101359091169181019060c0810160a0820135640100000000811115620001bb57600080fd5b820183602082011115620001ce57600080fd5b80359060200191846001830284011164010000000083111715620001f157600080fd5b91908080601f01602080910402602001604051908101604052809392919081815260200183838082843760009201919091525092959493602081019350359150506401000000008111156200024557600080fd5b8201836020820111156200025857600080fd5b803590602001918460018302840111640100000000831117156200027b57600080fd5b91908080601f016020809104026020016040519081016040528093929190818152602001838380828437600092019190915250929550620003db945050505050565b620000ea60048036036020811015620002d557600080fd5b50356001600160a01b0316620009a0565b6000546001546002546003546001600160a01b0393841694928416939091169160ff600160a81b8304811692600160a01b90041690565b6000546001600160a01b031633146200033557600080fd5b60008160ff161180156200034c575060648160ff16105b6200035657600080fd5b600180546001600160a01b039485166001600160a01b03199182161790915560028054939094169216919091179091556003805460ff909216600160a81b0260ff60a81b19909216919091179055565b60056020908152600094855260408086208252938552838520815291845282842090915282529020546001600160a01b031681565b600080546001600160a01b03163314620003f457600080fd5b866001600160a01b0316886001600160a01b031614156200041457600080fd5b600080886001600160a01b03168a6001600160a01b0316106200043957888a6200043c565b89895b6004805460408051630b4c774160e11b81526001600160a01b0380871694820194909452838516602482015262ffffff8e1660448201529051949650929450600093911691631698ee82916064808301926020929190829003018186803b158015620004a757600080fd5b505afa158015620004bc573d6000803e3d6000fd5b505050506040513d6020811015620004d357600080fd5b505190506001600160a01b0381161562000535576001600160a01b0383811660009081526005602090815260408083208685168452825280832062ffffff8e168452825280832083805290915290205416156200052f57600080fd5b62000633565b600480546040805163a167129560e01b81526001600160a01b0387811694820194909452858416602482015262ffffff8d1660448201529051929091169163a1671295916064808201926020929091908290030181600087803b1580156200059c57600080fd5b505af1158015620005b1573d6000803e3d6000fd5b505050506040513d6020811015620005c857600080fd5b50516040805163f637731d60e01b81526001600160a01b038a8116600483015291519293509083169163f637731d9160248082019260009290919082900301818387803b1580156200061957600080fd5b505af11580156200062e573d6000803e3d6000fd5b505050505b8a8a8a60405160200180846001600160a01b031660601b8152601401836001600160a01b031660601b81526014018262ffffff1660e81b81526003019350505050604051602081830303815290604052805190602001208130600360009054906101000a90046001600160a01b03168b8a8a604051620006b39062000a27565b80876001600160a01b03168152602001866001600160a01b03168152602001856001600160a01b031681526020018461ffff1681526020018060200180602001838103835285818151815260200191508051906020019080838360005b838110156200072a57818101518382015260200162000710565b50505050905090810190601f168015620007585780820380516001836020036101000a031916815260200191505b50838103825284518152845160209182019186019080838360005b838110156200078d57818101518382015260200162000773565b50505050905090810190601f168015620007bb5780820380516001836020036101000a031916815260200191505b50985050505050505050508190604051809103906000f5905080158015620007e7573d6000803e3d6000fd5b5093508360056000856001600160a01b03166001600160a01b031681526020019081526020016000206000846001600160a01b03166001600160a01b0316815260200190815260200160002060008b62ffffff1662ffffff16815260200190815260200160002060008a61ffff1661ffff16815260200190815260200160002060006101000a8154816001600160a01b0302191690836001600160a01b031602179055508360056000846001600160a01b03166001600160a01b031681526020019081526020016000206000856001600160a01b03166001600160a01b0316815260200190815260200160002060008b62ffffff1662ffffff16815260200190815260200160002060008a61ffff1661ffff16815260200190815260200160002060006101000a8154816001600160a01b0302191690836001600160a01b03160217905550836001600160a01b0316826001600160a01b0316846001600160a01b03167fe551e4179838a57090f0386dca8e982f6a8f74f80922cbf508d9bad5cce10fc88b8d604051808361ffff1681526020018262ffffff1681526020019250505060405180910390a4505050979650505050505050565b6000546001600160a01b03163314620009b857600080fd5b6001600160a01b038116620009cc57600080fd5b600080546040516001600160a01b03808516939216917f3aaaebeb4821d6a7e5c77ece53cff0afcc56c82add2c978dbbb7f73e84cbcfd291a3600080546001600160a01b0319166001600160a01b0392909216919091179055565b6157378062000a368339019056fe6101406040527f6e71edae12b1b97f4d1f60370fef10105fa2faae0126114a169c64845d6126c961012052600c805463ffffffff60d01b1963ffffffff60b01b19909116600160b01b1716600160d01b1790553480156200005f57600080fd5b506040516200573738038062005737833981016040819052620000829162000647565b8180604051806040016040528060018152602001603160f81b81525084848160039080519060200190620000b8929190620004bf565b508051620000ce906004906020840190620004bf565b50506005805460ff1916601217905550815160208084019190912082519183019190912060c082905260e08190527f8b73c3c69bb8fe3d512ecc4cf759cc79239f7b179b0ffacaa9a75d522b39400f6200012762000457565b60a052620001378184846200045b565b6080526101005250505050506001600160a01b0386166200015757600080fd5b6001600160a01b0384166200016b57600080fd5b6001600160a01b0385166200017f57600080fd5b600a80546001600160a01b038089166001600160a01b03199283161792839055600b8054898316908416179055600c805488831693169290921790915560408051630dfe168160e01b815290519290911691630dfe168191600480820192602092909190829003018186803b158015620001f857600080fd5b505afa1580156200020d573d6000803e3d6000fd5b505050506040513d601f19601f8201168201806040525081019062000233919062000623565b600780546001600160a01b0319166001600160a01b03928316179055600a546040805163d21220a760e01b81529051919092169163d21220a7916004808301926020929190829003018186803b1580156200028d57600080fd5b505afa158015620002a2573d6000803e3d6000fd5b505050506040513d601f19601f82011682018060405250810190620002c8919062000623565b600880546001600160a01b0319166001600160a01b03928316179055600a546040805163ddca3f4360e01b81529051919092169163ddca3f43916004808301926020929190829003018186803b1580156200032257600080fd5b505afa15801562000337573d6000803e3d6000fd5b505050506040513d601f19601f820116820180604052508101906200035d919062000722565b600860146101000a81548162ffffff021916908362ffffff160217905550600a60009054906101000a90046001600160a01b03166001600160a01b031663d0c93a7c6040518163ffffffff1660e01b815260040160206040518083038186803b158015620003ca57600080fd5b505afa158015620003df573d6000803e3d6000fd5b505050506040513d601f19601f82011682018060405250810190620004059190620006ff565b6008805460029290920b62ffffff16600160b81b0262ffffff60b81b199092169190911790555050600c805461ffff909216600160a01b0261ffff60a01b199092169190911790555062000747915050565b4690565b60008383836200046a62000457565b3060405160200180868152602001858152602001848152602001838152602001826001600160a01b03168152602001955050505050506040516020818303038152906040528051906020012090509392505050565b828054600181600116156101000203166002900490600052602060002090601f016020900481019282620004f7576000855562000542565b82601f106200051257805160ff191683800117855562000542565b8280016001018555821562000542579182015b828111156200054257825182559160200191906001019062000525565b506200055092915062000554565b5090565b5b8082111562000550576000815560010162000555565b80516001600160a01b03811681146200058357600080fd5b919050565b600082601f83011262000599578081fd5b81516001600160401b0380821115620005ae57fe5b6040516020601f8401601f1916820181018381118382101715620005ce57fe5b6040528382528584018101871015620005e5578485fd5b8492505b83831015620006085785830181015182840182015291820191620005e9565b838311156200061957848185840101525b5095945050505050565b60006020828403121562000635578081fd5b62000640826200056b565b9392505050565b60008060008060008060c0878903121562000660578182fd5b6200066b876200056b565b95506200067b602088016200056b565b94506200068b604088016200056b565b9350606087015161ffff81168114620006a2578283fd5b60808801519093506001600160401b0380821115620006bf578384fd5b620006cd8a838b0162000588565b935060a0890151915080821115620006e3578283fd5b50620006f289828a0162000588565b9150509295509295509295565b60006020828403121562000711578081fd5b81518060020b811462000640578182fd5b60006020828403121562000734578081fd5b815162ffffff8116811462000640578182fd5b60805160a05160c05160e0516101005161012051614fa662000791600039806116f4525080612d55525080612d97525080612d76525080612cfc525080612d2c5250614fa66000f3fe6080604052600436106101c55760003560e01c80637f98aa71116100f7578063b2f9f57111610095578063d505accf11610064578063d505accf146104f4578063dd62ed3e14610514578063f8e35be714610534578063fa461e3314610549576101cc565b8063b2f9f57114610478578063c86962321461048d578063cb81da2e146104b4578063d3487997146104d4576101cc565b8063a457c2d7116100d1578063a457c2d7146103fe578063a9059cbb1461041e578063ac2dc5621461043e578063adcc377914610463576101cc565b80637f98aa71146103a25780638dbdbe6d146103c757806395d89b41146103e9576101cc565b80633644e515116101645780633fe529f01161013e5780633fe529f0146103225780636d70f7ae1461034257806370a08231146103625780637ecebe0014610382576101cc565b80633644e515146102d857806339509351146102ed5780633eaaf86b1461030d576101cc565b806318160ddd116101a057806318160ddd146102545780631a87e87d1461027657806323b872dd14610296578063313ce567146102b6576101cc565b8062ebf5dd146101ce57806306fdde0314610205578063095ea7b314610227576101cc565b366101cc57005b005b3480156101da57600080fd5b506101ee6101e9366004614af4565b610569565b6040516101fc929190614cd4565b60405180910390f35b34801561021157600080fd5b5061021a610873565b6040516101fc9190614c49565b34801561023357600080fd5b506102476102423660046149ba565b61090a565b6040516101fc9190614bf8565b34801561026057600080fd5b50610269610928565b6040516101fc9190614c1b565b34801561028257600080fd5b506101cc610291366004614b62565b61092e565b3480156102a257600080fd5b506102476102b136600461490a565b610d4e565b3480156102c257600080fd5b506102cb610dd6565b6040516101fc9190614d47565b3480156102e457600080fd5b50610269610ddf565b3480156102f957600080fd5b506102476103083660046149ba565b610dee565b34801561031957600080fd5b50610269610e3c565b34801561032e57600080fd5b506101cc61033d366004614842565b610e42565b34801561034e57600080fd5b5061024761035d366004614842565b610e9a565b34801561036e57600080fd5b5061026961037d366004614842565b610ebc565b34801561038e57600080fd5b5061026961039d366004614842565b610ed7565b3480156103ae57600080fd5b506103b7610ef8565b6040516101fc9493929190614b92565b6103da6103d5366004614b35565b610f25565b6040516101fc93929190614ce2565b3480156103f557600080fd5b5061021a611270565b34801561040a57600080fd5b506102476104193660046149ba565b6112d1565b34801561042a57600080fd5b506102476104393660046149ba565b611339565b34801561044a57600080fd5b5061045361134d565b6040516101fc9493929190614c24565b34801561046f57600080fd5b50610269611376565b34801561048457600080fd5b506102696113f7565b34801561049957600080fd5b506104a2611428565b6040516101fc96959493929190614d13565b3480156104c057600080fd5b506101cc6104cf366004614a39565b6114b4565b3480156104e057600080fd5b506101cc6104ef366004614a8b565b61161f565b34801561050057600080fd5b506101cc61050f36600461494a565b611685565b34801561052057600080fd5b5061026961052f36600461485e565b61183c565b34801561054057600080fd5b506101cc611867565b34801561055557600080fd5b506101cc610564366004614a8b565b61191b565b600080600c601a9054906101000a900463ffffffff1663ffffffff1660011461059157600080fd5b600c805463ffffffff60d01b1916600160d11b17905560006105b1611999565b5050600a5460405163051bb83360e01b81529294506001600160a01b03808616945063051bb833936105e99350911690600401614b7e565b60006040518083038186803b15801561060157600080fd5b505afa158015610615573d6000803e3d6000fd5b505050506000861161062657600080fd5b6000610630610928565b600c54909150600160b01b900463ffffffff16600114156106d657600061066088670de0b6b3a764000084611a38565b600954600a5491925061068d916001600160a01b031690600281810b9163010000009004900b8430611ae7565b600954600a5492975090955060009182916106c2916001600160a01b0316903090600281810b9163010000009004900b611cb4565b915091506106d260008383611d7b565b5050505b60006106f46106ed866106e7611376565b90611e2a565b8984611a38565b9050600061070e610707866106e76113f7565b8a85611a38565b905061071a8683611e3a565b95506107268582611e3a565b94508515610748576007546107489088908a906001600160a01b031689611e4a565b8415610768576008546107689088908a906001600160a01b031688611e4a565b610772338a611eeb565b876001600160a01b03167f02f25270a4d87bea75db541cdfe559334a275b4a233520ed6c0a2429667cca948a88886040516107af93929190614ce2565b60405180910390a2600c54600160b01b900463ffffffff166001141561084f57600954600090819061080f90600281810b9163010000009004900b6107f2611376565b6107fa6113f7565b600a546001600160a01b031693929190611fe7565b915091507f2fb985eb745b9e89bb1ab82e0f8ceb6bf94d4d60aed7e8196540c50161a5fe918282604051610844929190614cd4565b60405180910390a150505b5050600c805463ffffffff60d01b1916600160d01b17905550919590945092505050565b60038054604080516020601f60026000196101006001881615020190951694909404938401819004810282018101909252828152606093909290918301828280156108ff5780601f106108d4576101008083540402835291602001916108ff565b820191906000526020600020905b8154815290600101906020018083116108e257829003601f168201915b505050505090505b90565b600061091e610917612149565b848461214d565b5060015b92915050565b60025490565b336000908152600d602052604090205460ff1661094a57600080fd5b6000610954611999565b5050600a5460405163051bb83360e01b81529294506001600160a01b03808616945063051bb8339361098c9350911690600401614b7e565b60006040518083038186803b1580156109a457600080fd5b505afa1580156109b8573d6000803e3d6000fd5b5050600c805463ffffffff60b01b1916600160b01b179055506109db9050614766565b600954600a54600091610a06916001600160a01b031690600281810b9163010000009004900b612239565b5050600954600a54919250610a34916001600160a01b031690600281810b9163010000009004900b306122d7565b6020860181905281865260c086019290925260a0850192909252610a5a91600191611d7b565b6000610a6461248b565b600854600a54600160b81b90910460020b919091029150610a8d906001600160a01b0316612534565b50600290810b810b60408601819052600854610ab6935090918491600160b81b9004900b6125b6565b600290810b810b608086015290810b900b60608401526001600160801b03821615801590610af2575060a08301511580610af2575060c0830151155b15610b6f576000808460a0015111610b0b576000610b0e565b60015b9050600081610b3757610b32610b2d8660c001518960ff166064611a38565b6125d3565b610b4d565b610b4d610b2d8660a001518960ff166064611a38565b600a54909150610b68906001600160a01b031630848461261b565b5050610c95565b610b77611376565b60a0840152610b846113f7565b60c0840181905260a084015160608501516080860151600a54610bb5946001600160a01b0390911693929091612797565b6001600160801b031660e0840181905260608401516080850151600a54610be9936001600160a01b0390911692909161282b565b6101208501819052610100850182905260a085015160c0860151610c119391929091906128c2565b15156101408401819052610c4e57610c49610c3e8461012001518560c00151611e2a90919063ffffffff16565b8660ff166064611a38565b610c6d565b610c6d610c3e8461010001518560a00151611e2a90919063ffffffff16565b6101608401819052610140840151600a54610c95926001600160a01b0390911691309161261b565b610c9d611376565b60a0840152610caa6113f7565b60c0840181905260a0840151600854600a54610cde936001600160a01b0390911692918590600160b81b900460020b6128fd565b6009805465ffffff00000019166301000000600293840b62ffffff90811682029290921762ffffff191694840b91909116939093179081905560a086015160c0870151600a54610d45956001600160a01b039091169484810b9491909104900b9190611fe7565b50505050505050565b6000610d5b848484612b06565b610dcb84610d67612149565b610dc685604051806060016040528060288152602001614e92602891396001600160a01b038a16600090815260016020526040812090610da5612149565b6001600160a01b031681526020810191909152604001600020549190612c61565b61214d565b5060015b9392505050565b60055460ff1690565b6000610de9612cf8565b905090565b600061091e610dfb612149565b84610dc68560016000610e0c612149565b6001600160a01b03908116825260208083019390935260409182016000908120918c168152925290205490612dc2565b60025481565b6000610e4c611999565b505050509050806001600160a01b0316336001600160a01b031614610e7057600080fd5b506001600160a01b03166000908152600d60205260409020805460ff19811660ff90911615179055565b6001600160a01b0381166000908152600d602052604090205460ff165b919050565b6001600160a01b031660009081526020819052604090205490565b6001600160a01b038116600090815260066020526040812061092290612e1c565b600754600854600a546001600160a01b039283169383831693600160a01b90930462ffffff169290911690565b6000806000600c601a9054906101000a900463ffffffff1663ffffffff16600114610f4f57600080fd5b600c805463ffffffff60d01b1916600160d11b1790556000610f6f611999565b5050600a5460405163051bb83360e01b81529294506001600160a01b03808616945063051bb83393610fa79350911690600401614b7e565b60006040518083038186803b158015610fbf57600080fd5b505afa158015610fd3573d6000803e3d6000fd5b505050506001600160a01b038516610fea57600080fd5b600087118015610ffa5750600086115b61100357600080fd5b600061100d612149565b90506000611019610928565b905061109c60018a8a61102a611376565b6110326113f7565b60408051608081018252600954600281810b810b810b835263010000008204810b810b810b6020840152600160301b8204810b810b810b93830193909352600160481b9004820b820b90910b6060820152600a546001600160a01b03169594939291908890612e20565b919750955093507f47bb89f0fc234008e53c79bc3e3dab90e27502d1380a4b3cc35038d57fa03d2a6110cc611376565b6040516110d99190614c1b565b60405180910390a17f47bb89f0fc234008e53c79bc3e3dab90e27502d1380a4b3cc35038d57fa03d2a61110a6113f7565b6040516111179190614c1b565b60405180910390a18061114e576103e8861161114e5760405162461bcd60e51b815260040161114590614c9c565b60405180910390fd5b8561116b5760405162461bcd60e51b815260040161114590614cb8565b600754611183906001600160a01b0316833088612ebc565b60085461119b906001600160a01b0316833087612ebc565b600c54600160b01b900463ffffffff16600114156111e257600954600a546111df916001600160a01b0390911690600281810b9163010000009004900b8888611fe7565b50505b47156111f2576111f28247612ff9565b6111fc87876130ed565b866001600160a01b0316826001600160a01b03167f4e2ca0515ed1aef1395f66b5303bb5d6f1bf9d61a353fa53f73f8ac9973fa9f687878a60405161124393929190614ce2565b60405180910390a35050600c805463ffffffff60d01b1916600160d01b1790555091959094509092509050565b60048054604080516020601f60026000196101006001881615020190951694909404938401819004810282018101909252828152606093909290918301828280156108ff5780601f106108d4576101008083540402835291602001916108ff565b600061091e6112de612149565b84610dc685604051806060016040528060258152602001614f4c6025913960016000611308612149565b6001600160a01b03908116825260208083019390935260409182016000908120918d16815292529020549190612c61565b600061091e611346612149565b8484612b06565b600954600281810b9163010000008104820b91600160301b8204810b91600160481b9004900b84565b6007546040516370a0823160e01b81526000916001600160a01b0316906370a08231906113a7903090600401614b7e565b60206040518083038186803b1580156113bf57600080fd5b505afa1580156113d3573d6000803e3d6000fd5b505050506040513d601f19601f82011682018060405250810190610de99190614adc565b6008546040516370a0823160e01b81526000916001600160a01b0316906370a08231906113a7903090600401614b7e565b60408051608081018252600954600281810b810b810b835263010000008204810b810b810b6020840152600160301b8204810b810b810b93830193909352600160481b9004820b820b90910b6060820152600a54600091829182918291829182916114a1916001600160a01b03909116906001906131dd565b949b939a50919850965094509092509050565b336000908152600d602052604090205460ff166114d057600080fd5b60006114da611999565b5050600a5460405163051bb83360e01b81529294506001600160a01b03808616945063051bb833936115129350911690600401614b7e565b60006040518083038186803b15801561152a57600080fd5b505afa15801561153e573d6000803e3d6000fd5b5050600c805463ffffffff60b01b1916600160b01b17905550506008546115729084908490600160b81b900460020b613274565b600954600a5460009182916115a2916001600160a01b0390911690600281810b9163010000009004900b306122d7565b9350935050506115b460018383611d7b565b86156115d257600a546115d2906001600160a01b031630888a61261b565b6115df85856107f2611376565b505060098054600296870b62ffffff90811662ffffff199790980b1663010000000265ffffff000000199091161794909416949094179092555050505050565b6116276133cf565b6000611631612149565b9050600061164183850185614842565b9050851561166057600754611660906001600160a01b031683886133e8565b841561167d5760085461167d906001600160a01b031683876133e8565b505050505050565b834211156116da576040805162461bcd60e51b815260206004820152601d60248201527f45524332305065726d69743a206578706972656420646561646c696e65000000604482015290519081900360640190fd5b6001600160a01b03871660009081526006602052604081207f00000000000000000000000000000000000000000000000000000000000000009089908990899061172390612e1c565b8960405160200180878152602001866001600160a01b03168152602001856001600160a01b031681526020018481526020018381526020018281526020019650505050505050604051602081830303815290604052805190602001209050600061178c8261352f565b9050600061179c8287878761357b565b9050896001600160a01b0316816001600160a01b031614611804576040805162461bcd60e51b815260206004820152601e60248201527f45524332305065726d69743a20696e76616c6964207369676e61747572650000604482015290519081900360640190fd5b6001600160a01b038a166000908152600660205260409020611825906136fb565b6118308a8a8a61214d565b50505050505050505050565b6001600160a01b03918216600090815260016020908152604080832093909416825291909152205490565b336000908152600d602052604090205460ff1661188357600080fd5b600954600a546000918291829182916118b7916001600160a01b0390911690600281810b9163010000009004900b306122d7565b600c805463ffffffff60b01b1916600160b11b179055604051939750919550935091507f0b807fda608508350274d5da730325b52bb86f7ba43085d327059ed4b2fc84049061190d908690869086908690614cf8565b60405180910390a150505050565b6119236133cf565b60008413806119325750600083135b61193b57600080fd5b6000611949828401846149e5565b905080156119745760075461196f906001600160a01b0316611969612149565b876133e8565b611992565b600854611992906001600160a01b031661198c612149565b866133e8565b5050505050565b6000806000806000600b60009054906101000a90046001600160a01b03166001600160a01b03166338d772806040518163ffffffff1660e01b815260040160a06040518083038186803b1580156119ef57600080fd5b505afa158015611a03573d6000803e3d6000fd5b505050506040513d601f19601f82011682018060405250810190611a279190614896565b945094509450945094509091929394565b6000808060001985870986860292508281109083900303905080611a6e5760008411611a6357600080fd5b508290049050610dcf565b808411611a7a57600080fd5b6000848688096000868103871696879004966002600389028118808a02820302808a02820302808a02820302808a02820302808a02820302808a02909103029181900381900460010186841190950394909402919094039290920491909117919091029150509392505050565b60008080611aff6001600160a01b0389168888612239565b505090506000611b21826001600160801b031687670de0b6b3a7640000611a38565b9050886001600160a01b031663a34123a78989611b3d85613704565b6040518463ffffffff1660e01b8152600401808460020b81526020018360020b8152602001826001600160801b0316815260200193505050506040805180830381600087803b158015611b8f57600080fd5b505af1158015611ba3573d6000803e3d6000fd5b505050506040513d6040811015611bb957600080fd5b508051602090910151909450925083151580611bd55750600083115b15611ca857886001600160a01b0316634f1eb3d8868a8a611bf589613704565b611bfe89613704565b6040518663ffffffff1660e01b815260040180866001600160a01b031681526020018560020b81526020018460020b8152602001836001600160801b03168152602001826001600160801b03168152602001955050505050506040805180830381600087803b158015611c7057600080fd5b505af1158015611c84573d6000803e3d6000fd5b505050506040513d6040811015611c9a57600080fd5b50516001600160801b031693505b50509550959350505050565b600080611cc2868585613748565b50604080516309e3d67b60e31b81526001600160a01b038781166004830152600287810b602484015286900b60448301526001600160801b03606483018190526084830152825190891692634f1eb3d89260a480820193918290030181600087803b158015611d3057600080fd5b505af1158015611d44573d6000803e3d6000fd5b505050506040513d6040811015611d5a57600080fd5b5080516020909101516001600160801b039182169891169650945050505050565b600080611d86611999565b509094509250505060ff811615611992578315611dc257600754611dc2906001600160a01b031683611dbd8760ff86166064611a38565b6133e8565b8215611de857600854611de8906001600160a01b031683611dbd8660ff86166064611a38565b7ff8994d9c768d599c5c6e92d52cd9cc24762cd773384c7a4612796773c56a86a6858585604051611e1b93929190614c03565b60405180910390a15050505050565b8082038281111561092257600080fd5b8082018281101561092257600080fd5b838015611e645750600c546001600160a01b038381169116145b15611eda57600c54604051632e1a7d4d60e01b81526001600160a01b0390911690632e1a7d4d90611e99908490600401614c1b565b600060405180830381600087803b158015611eb357600080fd5b505af1158015611ec7573d6000803e3d6000fd5b50505050611ed58382612ff9565b611ee5565b611ee58284836133e8565b50505050565b6001600160a01b038216611f305760405162461bcd60e51b8152600401808060200182810382526021815260200180614eba6021913960400191505060405180910390fd5b611f3c826000836130e8565b611f7981604051806060016040528060228152602001614dbd602291396001600160a01b0385166000908152602081905260409020549190612c61565b6001600160a01b038316600090815260208190526040902055600254611f9f9082613801565b6002556040805182815290516000916001600160a01b038516917fddf252ad1be2c89b69c2b068fc378daa952ba7f163c4a11628f55a4df523b3ef9181900360200190a35050565b600080806120016001600160a01b03891686868a8a612797565b90506001600160801b0381161561213e576040805130602080830182905283518084038201815283850194859052633c8a7d8d60e01b9094526044830182815260028c810b60648601528b900b60848501526001600160801b03861660a485015260a060c48501908152855160e486015285516001600160a01b038f1696633c8a7d8d968f958f958b959394909392610104019185019080838360005b838110156120b657818101518382015260200161209e565b50505050905090810190601f1680156120e35780820380516001836020036101000a031916815260200191505b5096505050505050506040805180830381600087803b15801561210557600080fd5b505af1158015612119573d6000803e3d6000fd5b505050506040513d604081101561212f57600080fd5b50805160209091015190935091505b509550959350505050565b3390565b6001600160a01b0383166121925760405162461bcd60e51b8152600401808060200182810382526024815260200180614f006024913960400191505060405180910390fd5b6001600160a01b0382166121d75760405162461bcd60e51b8152600401808060200182810382526022815260200180614ddf6022913960400191505060405180910390fd5b6001600160a01b03808416600081815260016020908152604080832094871680845294825291829020859055815185815291517f8c5be1e5ebec7d5bd14f71427d1e84f3dd0314c0f7b2291e5b200ac8c7c3b9259281900390910190a3505050565b60008060008061224a30878761385e565b9050866001600160a01b031663514ea4bf826040518263ffffffff1660e01b81526004018082815260200191505060a06040518083038186803b15801561229057600080fd5b505afa1580156122a4573d6000803e3d6000fd5b505050506040513d60a08110156122ba57600080fd5b508051606082015160809092015190999198509650945050505050565b6000808080806122f16001600160a01b038a168989612239565b50909150506001600160801b0381161561247f576040805163a34123a760e01b815260028a810b600483015289900b60248201526001600160801b038316604482015281516001600160a01b038c169263a34123a792606480820193918290030181600087803b15801561236457600080fd5b505af1158015612378573d6000803e3d6000fd5b505050506040513d604081101561238e57600080fd5b5080516020909101519095509350841515806123aa5750600084115b1561247f57604080516309e3d67b60e31b81526001600160a01b03888116600483015260028b810b60248401528a900b60448301526001600160801b0360648301819052608483015282516000938493928e1692634f1eb3d89260a4808301939282900301818787803b15801561242057600080fd5b505af1158015612434573d6000803e3d6000fd5b505050506040513d604081101561244a57600080fd5b5080516020909101516001600160801b03918216935016905061246d8288611e2a565b6124778288611e2a565b909550935050505b50945094509450949050565b600080612496611999565b5050600a54600c5460405163b0a42a5160e01b81529395506001600160a01b03808716955063b0a42a51946124de9450921691600160a01b90910461ffff1690600401614bc2565b60206040518083038186803b1580156124f657600080fd5b505afa15801561250a573d6000803e3d6000fd5b505050506040513d601f19601f8201168201806040525081019061252e9190614a1d565b91505090565b6000806000836001600160a01b0316633850c7bd6040518163ffffffff1660e01b815260040160e06040518083038186803b15801561257257600080fd5b505afa158015612586573d6000803e3d6000fd5b505050506040513d60e081101561259c57600080fd5b508051602082015160609092015190969195509350915050565b60008060006125c586856138b4565b858103979501955050505050565b6000600160ff1b82106126175760405162461bcd60e51b8152600401808060200182810382526028815260200180614f246028913960400191505060405180910390fd5b5090565b600061262f856001600160a01b0316612534565b505090506000620f42408261c350026001600160a01b03168161264e57fe5b04905060008461266057818301612664565b8183035b9050866001600160a01b031663128acb08878787858a6040516020018082151581526020019150506040516020818303038152906040526040518663ffffffff1660e01b815260040180866001600160a01b031681526020018515158152602001848152602001836001600160a01b0316815260200180602001828103825283818151815260200191508051906020019080838360005b838110156127135781810151838201526020016126fb565b50505050905090810190601f1680156127405780820380516001836020036101000a031916815260200191505b5096505050505050506040805180830381600087803b15801561276257600080fd5b505af1158015612776573d6000803e3d6000fd5b505050506040513d604081101561278c57600080fd5b505050505050505050565b600080866001600160a01b0316633850c7bd6040518163ffffffff1660e01b815260040160e06040518083038186803b1580156127d357600080fd5b505afa1580156127e7573d6000803e3d6000fd5b505050506040513d60e08110156127fd57600080fd5b5051905061281e8161280e86613900565b61281786613900565b8989613c32565b9150505b95945050505050565b6000806000866001600160a01b0316633850c7bd6040518163ffffffff1660e01b815260040160e06040518083038186803b15801561286957600080fd5b505afa15801561287d573d6000803e3d6000fd5b505050506040513d60e081101561289357600080fd5b505190506128b3816128a487613900565b6128ad87613900565b89613cf4565b92509250505b94509492505050565b60006128d8856128d28685611e2a565b90613d8f565b6128e6856128d28887611e2a565b116128f2576000612822565b600195945050505050565b60008060006040518060e00160405280888152602001878152602001600081526020016000815260200160006001600160801b03168152602001600060020b8152602001600060020b8152509050600080896001600160a01b0316633850c7bd6040518163ffffffff1660e01b815260040160e06040518083038186803b15801561298757600080fd5b505afa15801561299b573d6000803e3d6000fd5b505050506040513d60e08110156129b157600080fd5b50805160209091015190925090506129ca8188886125b6565b600290810b810b60c0860181905291810b900b60a08501819052845160208601516129f7938e9390613db3565b606085018190526040850182905260a085015160c0860151612a1e938e9390929091612797565b6001600160801b031660808401528251602084015160408501516060860151600093612a4d93909290916128c2565b90508015612a92576000612a6c84866080015187600001516000613de2565b9050612a80612a7a82613ed3565b896138b4565b600290810b900b60c086015250612ac5565b6000612aa9848660800151876020015160006141f2565b9050612ab7612a7a82613ed3565b600290810b900b60a0860152505b612ad88460a001518560c0015189613274565b612ae68460a00151886138b4565b9550612af68460c00151886138b4565b9450505050509550959350505050565b6001600160a01b038316612b4b5760405162461bcd60e51b8152600401808060200182810382526025815260200180614edb6025913960400191505060405180910390fd5b6001600160a01b038216612b905760405162461bcd60e51b8152600401808060200182810382526023815260200180614d9a6023913960400191505060405180910390fd5b612b9b8383836130e8565b612bd881604051806060016040528060268152602001614e01602691396001600160a01b0386166000908152602081905260409020549190612c61565b6001600160a01b038085166000908152602081905260408082209390935590841681522054612c079082612dc2565b6001600160a01b038084166000818152602081815260409182902094909455805185815290519193928716927fddf252ad1be2c89b69c2b068fc378daa952ba7f163c4a11628f55a4df523b3ef92918290030190a3505050565b60008184841115612cf05760405162461bcd60e51b81526004018080602001828103825283818151815260200191508051906020019080838360005b83811015612cb5578181015183820152602001612c9d565b50505050905090810190601f168015612ce25780820380516001836020036101000a031916815260200191505b509250505060405180910390fd5b505050900390565b60007f0000000000000000000000000000000000000000000000000000000000000000612d236142ce565b1415612d5057507f0000000000000000000000000000000000000000000000000000000000000000610907565b612dbb7f00000000000000000000000000000000000000000000000000000000000000007f00000000000000000000000000000000000000000000000000000000000000007f00000000000000000000000000000000000000000000000000000000000000006142d2565b9050610907565b600082820183811015610dcf576040805162461bcd60e51b815260206004820152601b60248201527f536166654d6174683a206164646974696f6e206f766572666c6f770000000000604482015290519081900360640190fd5b5490565b6000806000806000806000612e368f8f8a6131dd565b505093509350935093506000612e5f8c612e598588611e3a90919063ffffffff16565b90611e3a565b90506000612e718c612e598786611e3a565b90508a1580612e7f57508115155b80612e8957508015155b612e8f57fe5b612e9c8f8f84848f614334565b809950819a50829b50505050505050505050985098509895505050505050565b600c546001600160a01b038581169116148015612ed95750804710155b15612fd157600c60009054906101000a90046001600160a01b03166001600160a01b031663d0e30db0826040518263ffffffff1660e01b81526004016000604051808303818588803b158015612f2e57600080fd5b505af1158015612f42573d6000803e3d6000fd5b5050600c5460405163a9059cbb60e01b81526001600160a01b03909116935063a9059cbb9250612f79915085908590600401614bdf565b602060405180830381600087803b158015612f9357600080fd5b505af1158015612fa7573d6000803e3d6000fd5b505050506040513d601f19601f82011682018060405250810190612fcb9190614a01565b50611ee5565b6001600160a01b038316301415612fed57611ed58483836133e8565b611ee5848484846143c8565b604080516000808252602082019092526001600160a01b0384169083906040518082805190602001908083835b602083106130455780518252601f199092019160209182019101613026565b6001836020036101000a03801982511681845116808217855250505050505090500191505060006040518083038185875af1925050503d80600081146130a7576040519150601f19603f3d011682016040523d82523d6000602084013e6130ac565b606091505b50509050806130e8576040805162461bcd60e51b815260206004820152600360248201526253544560e81b604482015290519081900360640190fd5b505050565b6001600160a01b038216613148576040805162461bcd60e51b815260206004820152601f60248201527f45524332303a206d696e7420746f20746865207a65726f206164647265737300604482015290519081900360640190fd5b613154600083836130e8565b6002546131619082612dc2565b6002556001600160a01b0382166000908152602081905260409020546131879082612dc2565b6001600160a01b0383166000818152602081815260408083209490945583518581529351929391927fddf252ad1be2c89b69c2b068fc378daa952ba7f163c4a11628f55a4df523b3ef9281900390910190a35050565b6000806000806000806131f98988600001518960200151614518565b939950919750955093509150876132685760008060008060006132258e8d604001518e60600151614518565b93985091965094509250905061323b8b86611e3a565b9a506132478a85611e3a565b99506132538984611e3a565b985061325f8883611e3a565b97509450505050505b93975093979195509350565b8160020b8360020b126132b4576040805162461bcd60e51b8152602060048201526003602482015262544c5560e81b604482015290519081900360640190fd5b620d89e719600284900b12156132f7576040805162461bcd60e51b8152602060048201526003602482015262544c4d60e81b604482015290519081900360640190fd5b620d89e8600283900b1315613339576040805162461bcd60e51b815260206004820152600360248201526254554d60e81b604482015290519081900360640190fd5b8060020b8360020b8161334857fe5b0760020b15613384576040805162461bcd60e51b8152602060048201526003602482015262544c4960e81b604482015290519081900360640190fd5b8060020b8260020b8161339357fe5b0760020b156130e8576040805162461bcd60e51b815260206004820152600360248201526254554960e81b604482015290519081900360640190fd5b600a546001600160a01b031633146133e657600080fd5b565b604080516001600160a01b038481166024830152604480830185905283518084039091018152606490920183526020820180516001600160e01b031663a9059cbb60e01b1781529251825160009485949389169392918291908083835b602083106134645780518252601f199092019160209182019101613445565b6001836020036101000a0380198251168184511680821785525050505050509050019150506000604051808303816000865af19150503d80600081146134c6576040519150601f19603f3d011682016040523d82523d6000602084013e6134cb565b606091505b50915091508180156134f95750805115806134f957508080602001905160208110156134f657600080fd5b50515b611992576040805162461bcd60e51b815260206004820152600260248201526114d560f21b604482015290519081900360640190fd5b6000613539612cf8565b82604051602001808061190160f01b81525060020183815260200182815260200192505050604051602081830303815290604052805190602001209050919050565b60007f7fffffffffffffffffffffffffffffff5d576e7357a4501ddfe92f46681b20a08211156135dc5760405162461bcd60e51b8152600401808060200182810382526022815260200180614e4e6022913960400191505060405180910390fd5b8360ff16601b14806135f157508360ff16601c145b61362c5760405162461bcd60e51b8152600401808060200182810382526022815260200180614e706022913960400191505060405180910390fd5b600060018686868660405160008152602001604052604051808581526020018460ff1681526020018381526020018281526020019450505050506020604051602081039080840390855afa158015613688573d6000803e3d6000fd5b5050604051601f1901519150506001600160a01b0381166136f0576040805162461bcd60e51b815260206004820152601860248201527f45434453413a20696e76616c6964207369676e61747572650000000000000000604482015290519081900360640190fd5b90505b949350505050565b80546001019055565b6000600160801b82106126175760405162461bcd60e51b8152600401808060200182810382526027815260200180614e276027913960400191505060405180910390fd5b600061375e6001600160a01b0385168484612239565b50909150506001600160801b03811615610dcf57836001600160a01b031663a34123a7848460006040518463ffffffff1660e01b8152600401808460020b81526020018360020b815260200182815260200193505050506040805180830381600087803b1580156137ce57600080fd5b505af11580156137e2573d6000803e3d6000fd5b505050506040513d60408110156137f857600080fd5b50509392505050565b600082821115613858576040805162461bcd60e51b815260206004820152601e60248201527f536166654d6174683a207375627472616374696f6e206f766572666c6f770000604482015290519081900360640190fd5b50900390565b6040805160609490941b6bffffffffffffffffffffffff1916602080860191909152600293840b60e890811b60348701529290930b90911b60378401528051808403601a018152603a9093019052815191012090565b6000808260020b8460020b816138c657fe5b05905060008460020b1280156138ed57508260020b8460020b816138e657fe5b0760020b15155b156138f757600019015b90910292915050565b60008060008360020b12613917578260020b61391f565b8260020b6000035b9050620d89e881111561395d576040805162461bcd60e51b81526020600482015260016024820152601560fa1b604482015290519081900360640190fd5b60006001821661397157600160801b613983565b6ffffcb933bd6fad37aa2d162d1a5940015b70ffffffffffffffffffffffffffffffffff16905060028216156139b7576ffff97272373d413259a46990580e213a0260801c5b60048216156139d6576ffff2e50f5f656932ef12357cf3c7fdcc0260801c5b60088216156139f5576fffe5caca7e10e4e61c3624eaa0941cd00260801c5b6010821615613a14576fffcb9843d60f6159c9db58835c9266440260801c5b6020821615613a33576fff973b41fa98c081472e6896dfb254c00260801c5b6040821615613a52576fff2ea16466c96a3843ec78b326b528610260801c5b6080821615613a71576ffe5dee046a99a2a811c461f1969c30530260801c5b610100821615613a91576ffcbe86c7900a88aedcffc83b479aa3a40260801c5b610200821615613ab1576ff987a7253ac413176f2b074cf7815e540260801c5b610400821615613ad1576ff3392b0822b70005940c7a398e4b70f30260801c5b610800821615613af1576fe7159475a2c29b7443b29c7fa6e889d90260801c5b611000821615613b11576fd097f3bdfd2022b8845ad8f792aa58250260801c5b612000821615613b31576fa9f746462d870fdf8a65dc1f90e061e50260801c5b614000821615613b51576f70d869a156d2a1b890bb3df62baf32f70260801c5b618000821615613b71576f31be135f97d08fd981231505542fcfa60260801c5b62010000821615613b92576f09aa508b5b7a84e1c677de54f3e99bc90260801c5b62020000821615613bb2576e5d6af8dedb81196699c329225ee6040260801c5b62040000821615613bd1576d2216e584f5fa1ea926041bedfe980260801c5b62080000821615613bee576b048a170391f7dc42444e8fa20260801c5b60008460020b1315613c09578060001981613c0557fe5b0490505b640100000000810615613c1d576001613c20565b60005b60ff16602082901c0192505050919050565b6000836001600160a01b0316856001600160a01b03161115613c52579293925b846001600160a01b0316866001600160a01b031611613c7d57613c7685858561455d565b9050612822565b836001600160a01b0316866001600160a01b03161015613cdf576000613ca487868661455d565b90506000613cb38789866145c0565b9050806001600160801b0316826001600160801b031610613cd45780613cd6565b815b92505050612822565b613cea8585846145c0565b9695505050505050565b600080836001600160a01b0316856001600160a01b03161115613d15579293925b846001600160a01b0316866001600160a01b031611613d4057613d398585856145fd565b91506128b9565b836001600160a01b0316866001600160a01b03161015613d7957613d658685856145fd565b9150613d72858785614666565b90506128b9565b613d84858585614666565b905094509492505050565b6000821580613daa57505081810281838281613da757fe5b04145b61092257600080fd5b6000806000613dc58888888888612797565b9050613dd38882878761282b565b90999098509650505050505050565b600082613df05750836136f3565b6fffffffffffffffffffffffffffffffff60601b606085901b168215613e87576001600160a01b03861684810290858281613e2757fe5b041415613e5857818101828110613e5657613e4c83896001600160a01b0316836146a9565b93505050506136f3565b505b613e7e82613e79878a6001600160a01b03168681613e7257fe5b0490611e3a565b6146e3565b925050506136f3565b6001600160a01b03861684810290858281613e9e57fe5b04148015613eab57508082115b613eb457600080fd5b808203613e4c613ece846001600160a01b038b16846146a9565b6146ee565b60006401000276a36001600160a01b03831610801590613f0f575073fffd8963efd1fc6a506488495d951d5263988d266001600160a01b038316105b613f44576040805162461bcd60e51b81526020600482015260016024820152602960f91b604482015290519081900360640190fd5b640100000000600160c01b03602083901b166001600160801b03811160071b81811c67ffffffffffffffff811160061b90811c63ffffffff811160051b90811c61ffff811160041b90811c60ff8111600390811b91821c600f811160021b90811c918211600190811b92831c97908811961790941790921717909117171760808110613fd857607f810383901c9150613fe2565b80607f0383901b91505b908002607f81811c60ff83811c9190911c800280831c81831c1c800280841c81841c1c800280851c81851c1c800280861c81861c1c800280871c81871c1c800280881c81881c1c800280891c81891c1c8002808a1c818a1c1c8002808b1c818b1c1c8002808c1c818c1c1c8002808d1c818d1c1c8002808e1c9c81901c9c909c1c80029c8d901c9e9d607f198f0160401b60c09190911c678000000000000000161760c19b909b1c674000000000000000169a909a1760c29990991c672000000000000000169890981760c39790971c671000000000000000169690961760c49590951c670800000000000000169490941760c59390931c670400000000000000169290921760c69190911c670200000000000000161760c79190911c670100000000000000161760c89190911c6680000000000000161760c99190911c6640000000000000161760ca9190911c6620000000000000161760cb9190911c6610000000000000161760cc9190911c6608000000000000161760cd9190911c66040000000000001617693627a301d71055774c8581026f028f6481ab7f045a5af012a19d003aa9198101608090811d906fdb2df09e81959a81455e260799a0632f8301901d600281810b9083900b146141e357886001600160a01b03166141c782613900565b6001600160a01b031611156141dc57816141de565b805b6141e5565b815b9998505050505050505050565b600081156142605760006001600160a01b038411156142285761422384600160601b876001600160801b0316611a38565b614240565b6001600160801b038516606085901b8161423e57fe5b045b9050614258613ece6001600160a01b03881683611e3a565b9150506136f3565b60006001600160a01b0384111561428e5761428984600160601b876001600160801b03166146a9565b6142a5565b6142a5606085901b6001600160801b0387166146e3565b905080866001600160a01b0316116142bc57600080fd5b6001600160a01b0386160390506136f3565b4690565b60008383836142df6142ce565b3060405160200180868152602001858152602001848152602001838152602001826001600160a01b03168152602001955050505050506040516020818303038152906040528051906020012090509392505050565b600080808361435857508690508580821161434f5780614351565b815b92506143bd565b8561436a575085614351818587611a38565b8461437d57879150614351828588611a38565b614388878787611a38565b91508782101561439f575085614351818587611a38565b8791506143ad828688611a38565b90506143ba828588611a38565b92505b955095509592505050565b604080516001600160a01b0385811660248301528481166044830152606480830185905283518084039091018152608490920183526020820180516001600160e01b03166323b872dd60e01b178152925182516000948594938a169392918291908083835b6020831061444c5780518252601f19909201916020918201910161442d565b6001836020036101000a0380198251168184511680821785525050505050509050019150506000604051808303816000865af19150503d80600081146144ae576040519150601f19603f3d011682016040523d82523d6000602084013e6144b3565b606091505b50915091508180156144e15750805115806144e157508080602001905160208110156144de57600080fd5b50515b61167d576040805162461bcd60e51b815260206004820152600360248201526229aa2360e91b604482015290519081900360640190fd5b600080600080600061452b888888613748565b90506001600160801b0381161561455257614547888888614704565b929750909550935091505b939792965093509350565b6000826001600160a01b0316846001600160a01b0316111561457d579192915b60006145a0856001600160a01b0316856001600160a01b0316600160601b611a38565b90506128226145bb84838888036001600160a01b0316611a38565b614750565b6000826001600160a01b0316846001600160a01b031611156145e0579192915b6136f36145bb83600160601b8787036001600160a01b0316611a38565b6000826001600160a01b0316846001600160a01b0316111561461d579192915b836001600160a01b0316614656606060ff16846001600160801b0316901b8686036001600160a01b0316866001600160a01b0316611a38565b8161465d57fe5b04949350505050565b6000826001600160a01b0316846001600160a01b03161115614686579192915b6136f3826001600160801b03168585036001600160a01b0316600160601b611a38565b60006146b6848484611a38565b9050600082806146c257fe5b8486091115610dcf5760001981106146d957600080fd5b6001019392505050565b808204910615150190565b806001600160a01b0381168114610eb757600080fd5b600080600080600080600061471a8a8a8a612239565b92509250925060008061472f8c868d8d61282b565b9099509750506001600160801b039283169550501691505093509350935093565b806001600160801b0381168114610eb757600080fd5b604051806101c001604052806000815260200160008152602001600060020b8152602001600060020b8152602001600060020b8152602001600081526020016000815260200160006001600160801b0316815260200160008152602001600081526020016000151581526020016000815260200160006001600160a01b0316815260200160006001600160a01b031681525090565b60008083601f84011261480c578182fd5b50813567ffffffffffffffff811115614823578182fd5b60208301915083602082850101111561483b57600080fd5b9250929050565b600060208284031215614853578081fd5b8135610dcf81614d55565b60008060408385031215614870578081fd5b823561487b81614d55565b9150602083013561488b81614d55565b809150509250929050565b600080600080600060a086880312156148ad578081fd5b85516148b881614d55565b60208701519095506148c981614d55565b60408701519094506148da81614d55565b60608701519093506148eb81614d8a565b60808701519092506148fc81614d8a565b809150509295509295909350565b60008060006060848603121561491e578283fd5b833561492981614d55565b9250602084013561493981614d55565b929592945050506040919091013590565b600080600080600080600060e0888a031215614964578182fd5b873561496f81614d55565b9650602088013561497f81614d55565b95506040880135945060608801359350608088013561499d81614d8a565b9699959850939692959460a0840135945060c09093013592915050565b600080604083850312156149cc578182fd5b82356149d781614d55565b946020939093013593505050565b6000602082840312156149f6578081fd5b8135610dcf81614d6d565b600060208284031215614a12578081fd5b8151610dcf81614d6d565b600060208284031215614a2e578081fd5b8151610dcf81614d7b565b60008060008060808587031215614a4e578182fd5b843593506020850135614a6081614d6d565b92506040850135614a7081614d7b565b91506060850135614a8081614d7b565b939692955090935050565b60008060008060608587031215614aa0578182fd5b8435935060208501359250604085013567ffffffffffffffff811115614ac4578283fd5b614ad0878288016147fb565b95989497509550505050565b600060208284031215614aed578081fd5b5051919050565b600080600060608486031215614b08578081fd5b833592506020840135614b1a81614d55565b91506040840135614b2a81614d6d565b809150509250925092565b600080600060608486031215614b49578081fd5b83359250602084013591506040840135614b2a81614d55565b600060208284031215614b73578081fd5b8135610dcf81614d8a565b6001600160a01b0391909116815260200190565b6001600160a01b039485168152928416602084015262ffffff919091166040830152909116606082015260800190565b6001600160a01b0392909216825261ffff16602082015260400190565b6001600160a01b03929092168252602082015260400190565b901515815260200190565b92151583526020830191909152604082015260600190565b90815260200190565b600294850b815292840b602084015290830b604083015290910b606082015260800190565b6000602080835283518082850152825b81811015614c7557858101830151858201604001528201614c59565b81811115614c865783604083870101525b50601f01601f1916929092016040019392505050565b602080825260029082015261135360f21b604082015260600190565b602080825260029082015261495360f01b604082015260600190565b918252602082015260400190565b9283526020830191909152604082015260600190565b93845260208401929092526040830152606082015260800190565b9586526020860194909452604085019290925260608401526001600160801b0390811660808401521660a082015260c00190565b60ff91909116815260200190565b6001600160a01b0381168114614d6a57600080fd5b50565b8015158114614d6a57600080fd5b8060020b8114614d6a57600080fd5b60ff81168114614d6a57600080fdfe45524332303a207472616e7366657220746f20746865207a65726f206164647265737345524332303a206275726e20616d6f756e7420657863656564732062616c616e636545524332303a20617070726f766520746f20746865207a65726f206164647265737345524332303a207472616e7366657220616d6f756e7420657863656564732062616c616e636553616665436173743a2076616c756520646f65736e27742066697420696e20313238206269747345434453413a20696e76616c6964207369676e6174757265202773272076616c756545434453413a20696e76616c6964207369676e6174757265202776272076616c756545524332303a207472616e7366657220616d6f756e74206578636565647320616c6c6f77616e636545524332303a206275726e2066726f6d20746865207a65726f206164647265737345524332303a207472616e736665722066726f6d20746865207a65726f206164647265737345524332303a20617070726f76652066726f6d20746865207a65726f206164647265737353616665436173743a2076616c756520646f65736e27742066697420696e20616e20696e7432353645524332303a2064656372656173656420616c6c6f77616e63652062656c6f77207a65726fa2646970667358221220865d490fe59b97de1a97e67d4f48f3305a7991ce5b782b2853084ba8902d06db64736f6c63430007060033a2646970667358221220c36eb6274f8b3c0b46e20ed5ff0eb728511dfa536e304a7fa274240abeb0c17c64736f6c63430007060033",
    "linkReferences": {}
  },
  "methodIdentifiers": {
    "UAF()": "4affa2c1"
  },
  "id": 38
}