{
  "abi": [
    {
      "inputs": [
        {
          "internalType": "address",
          "name": "_timelock",
          "type": "address"
        }
      ],
      "stateMutability": "nonpayable",
      "type": "constructor"
    },
    {
      "anonymous": false,
      "inputs": [
        {
          "indexed": false,
          "internalType": "address",
          "name": "minter",
          "type": "address"
        },
        {
          "indexed": false,
          "internalType": "bool",
          "name": "status",
          "type": "bool"
        }
      ],
      "name": "MinterUpdated",
      "type": "event"
    },
    {
      "anonymous": false,
      "inputs": [
        {
          "indexed": false,
          "internalType": "address",
          "name": "previousTimelock",
          "type": "address"
        },
        {
          "indexed": false,
          "internalType": "address",
          "name": "newTimelock",
          "type": "address"
        }
      ],
      "name": "TimelockUpdated",
      "type": "event"
    },
    {
      "inputs": [
        {
          "internalType": "address",
          "name": "_to",
          "type": "address"
        },
        {
          "internalType": "uint256",
          "name": "_value",
          "type": "uint256"
        }
      ],
      "name": "mint",
      "outputs": [],
      "stateMutability": "nonpayable",
      "type": "function"
    },
    {
      "inputs": [
        {
          "internalType": "address",
          "name": "",
          "type": "address"
        }
      ],
      "name": "minter",
      "outputs": [
        {
          "internalType": "bool",
          "name": "",
          "type": "bool"
        }
      ],
      "stateMutability": "view",
      "type": "function"
    },
    {
      "inputs": [],
      "name": "timelock",
      "outputs": [
        {
          "internalType": "address",
          "name": "",
          "type": "address"
        }
      ],
      "stateMutability": "view",
      "type": "function"
    },
    {
      "inputs": [
        {
          "internalType": "address",
          "name": "_minter",
          "type": "address"
        }
      ],
      "name": "updateMinter",
      "outputs": [],
      "stateMutability": "nonpayable",
      "type": "function"
    },
    {
      "inputs": [
        {
          "internalType": "address",
          "name": "_timelock",
          "type": "address"
        }
      ],
      "name": "updateTimelock",
      "outputs": [],
      "stateMutability": "nonpayable",
      "type": "function"
    }
  ],
  "bytecode": {
    "object": "0x608060405234801561001057600080fd5b5060405161045b38038061045b8339818101604052602081101561003357600080fd5b5051600080546001600160a01b039092166001600160a01b03199092169190911790556103f6806100656000396000f3fe608060405234801561001057600080fd5b50600436106100575760003560e01c80633dd08c381461005c57806340c10f19146100965780634eb03f6e146100c4578063a890c910146100ea578063d33219b414610110575b600080fd5b6100826004803603602081101561007257600080fd5b50356001600160a01b0316610134565b604080519115158252519081900360200190f35b6100c2600480360360408110156100ac57600080fd5b506001600160a01b038135169060200135610149565b005b6100c2600480360360208110156100da57600080fd5b50356001600160a01b031661022b565b6100c26004803603602081101561010057600080fd5b50356001600160a01b03166102f4565b6101186103b1565b604080516001600160a01b039092168252519081900360200190f35b60016020526000908152604090205460ff1681565b3360009081526001602052604090205460ff166101ad576040805162461bcd60e51b815260206004820152601e60248201527f50494c4f545f544f4b454e5f50524f58593a3a204e4f545f4d494e5445520000604482015290519081900360640190fd5b604080516340c10f1960e01b81526001600160a01b0384166004820152602481018390529051732e53716051be4bcce9f546fcfb0ef7632e505dbd916340c10f1991604480830192600092919082900301818387803b15801561020f57600080fd5b505af1158015610223573d6000803e3d6000fd5b505050505050565b6000546001600160a01b0316331461028a576040805162461bcd60e51b815260206004820181905260248201527f50494c4f545f544f4b454e5f50524f58593a3a204e4f545f54494d454c4f434b604482015290519081900360640190fd5b6001600160a01b038116600081815260016020908152604091829020805460ff81161560ff1990911681179091558251938452908301819052815190927fb21afb9ce9be0a676f8f317ff0ca072fb89a4f8ce2d1b6fe80f8755c14f1cb1992908290030190a15050565b6000546001600160a01b03163314610353576040805162461bcd60e51b815260206004820181905260248201527f50494c4f545f544f4b454e5f50524f58593a3a204e4f545f54494d454c4f434b604482015290519081900360640190fd5b600080546001600160a01b031981166001600160a01b0384811691821790935560408051939092168352602083015280517fae97011a27b5efe7b1d76fe38e75cc498fd64cc24e407a9c6b2185d27f611f7e9281900390910190a150565b6000546001600160a01b03168156fea264697066735822122005b8d49d659f07d544bda51a751d50267eeb5c3cce55116c7c24ad70185dc2dd64736f6c63430007060033",
    "linkReferences": {}
  },
  "methodIdentifiers": {
    "mint(address,uint256)": "40c10f19",
    "minter(address)": "3dd08c38",
    "timelock()": "d33219b4",
    "updateMinter(address)": "4eb03f6e",
    "updateTimelock(address)": "a890c910"
  },
  "id": 84
}