{
  "abi": [
    {
      "inputs": [
        {
          "internalType": "uint256",
          "name": "x",
          "type": "uint256"
        }
      ],
      "name": "sqrt",
      "outputs": [
        {
          "internalType": "uint256",
          "name": "y",
          "type": "uint256"
        }
      ],
      "stateMutability": "pure",
      "type": "function"
    }
  ],
  "bytecode": {
    "object": "0x60cd610025600b82828239805160001a60731461001857fe5b30600052607381538281f3fe730000000000000000000000000000000000000000301460806040526004361060335760003560e01c8063677342ce146038575b600080fd5b605260048036036020811015604c57600080fd5b50356064565b60408051918252519081900360200190f35b80600260018201045b81811015609157809150600281828581608257fe5b040181608a57fe5b049050606d565b5091905056fea2646970667358221220183934ab95f12c053cca191a0e2b08d0bd774ef83692e212f2781aae9a180f5e64736f6c63430007060033",
    "linkReferences": {}
  },
  "methodIdentifiers": {
    "sqrt(uint256)": "677342ce"
  },
  "id": 40
}