{
  "abi": [
    {
      "inputs": [
        {
          "internalType": "address",
          "name": "_pool",
          "type": "address"
        },
        {
          "internalType": "address",
          "name": "_unipilotFactory",
          "type": "address"
        },
        {
          "internalType": "address",
          "name": "_WETH",
          "type": "address"
        },
        {
          "internalType": "uint16",
          "name": "_strategytype",
          "type": "uint16"
        },
        {
          "internalType": "string",
          "name": "_name",
          "type": "string"
        },
        {
          "internalType": "string",
          "name": "_symbol",
          "type": "string"
        }
      ],
      "stateMutability": "nonpayable",
      "type": "constructor"
    },
    {
      "anonymous": false,
      "inputs": [
        {
          "indexed": true,
          "internalType": "address",
          "name": "owner",
          "type": "address"
        },
        {
          "indexed": true,
          "internalType": "address",
          "name": "spender",
          "type": "address"
        },
        {
          "indexed": false,
          "internalType": "uint256",
          "name": "value",
          "type": "uint256"
        }
      ],
      "name": "Approval",
      "type": "event"
    },
    {
      "anonymous": false,
      "inputs": [
        {
          "indexed": false,
          "internalType": "uint256",
          "name": "amount0",
          "type": "uint256"
        },
        {
          "indexed": false,
          "internalType": "uint256",
          "name": "amount1",
          "type": "uint256"
        }
      ],
      "name": "CompoundFees",
      "type": "event"
    },
    {
      "anonymous": false,
      "inputs": [
        {
          "indexed": true,
          "internalType": "address",
          "name": "depositor",
          "type": "address"
        },
        {
          "indexed": true,
          "internalType": "address",
          "name": "recipient",
          "type": "address"
        },
        {
          "indexed": false,
          "internalType": "uint256",
          "name": "amount0",
          "type": "uint256"
        },
        {
          "indexed": false,
          "internalType": "uint256",
          "name": "amount1",
          "type": "uint256"
        },
        {
          "indexed": false,
          "internalType": "uint256",
          "name": "lpShares",
          "type": "uint256"
        }
      ],
      "name": "Deposit",
      "type": "event"
    },
    {
      "anonymous": false,
      "inputs": [
        {
          "indexed": false,
          "internalType": "bool",
          "name": "isReadjustLiquidity",
          "type": "bool"
        },
        {
          "indexed": false,
          "internalType": "uint256",
          "name": "fees0",
          "type": "uint256"
        },
        {
          "indexed": false,
          "internalType": "uint256",
          "name": "fees1",
          "type": "uint256"
        }
      ],
      "name": "FeesSnapshot",
      "type": "event"
    },
    {
      "anonymous": false,
      "inputs": [
        {
          "indexed": false,
          "internalType": "uint256",
          "name": "reserves0",
          "type": "uint256"
        },
        {
          "indexed": false,
          "internalType": "uint256",
          "name": "reserves1",
          "type": "uint256"
        },
        {
          "indexed": false,
          "internalType": "uint256",
          "name": "fees0",
          "type": "uint256"
        },
        {
          "indexed": false,
          "internalType": "uint256",
          "name": "fees1",
          "type": "uint256"
        }
      ],
      "name": "PullLiquidity",
      "type": "event"
    },
    {
      "anonymous": false,
      "inputs": [
        {
          "indexed": true,
          "internalType": "address",
          "name": "from",
          "type": "address"
        },
        {
          "indexed": true,
          "internalType": "address",
          "name": "to",
          "type": "address"
        },
        {
          "indexed": false,
          "internalType": "uint256",
          "name": "value",
          "type": "uint256"
        }
      ],
      "name": "Transfer",
      "type": "event"
    },
    {
      "anonymous": false,
      "inputs": [
        {
          "indexed": true,
          "internalType": "address",
          "name": "recipient",
          "type": "address"
        },
        {
          "indexed": false,
          "internalType": "uint256",
          "name": "shares",
          "type": "uint256"
        },
        {
          "indexed": false,
          "internalType": "uint256",
          "name": "amount0",
          "type": "uint256"
        },
        {
          "indexed": false,
          "internalType": "uint256",
          "name": "amount1",
          "type": "uint256"
        }
      ],
      "name": "Withdraw",
      "type": "event"
    },
    {
      "anonymous": false,
      "inputs": [
        {
          "indexed": false,
          "internalType": "uint256",
          "name": "",
          "type": "uint256"
        }
      ],
      "name": "balance",
      "type": "event"
    },
    {
      "stateMutability": "payable",
      "type": "fallback"
    },
    {
      "inputs": [],
      "name": "DOMAIN_SEPARATOR",
      "outputs": [
        {
          "internalType": "bytes32",
          "name": "",
          "type": "bytes32"
        }
      ],
      "stateMutability": "view",
      "type": "function"
    },
    {
      "inputs": [],
      "name": "_balance0",
      "outputs": [
        {
          "internalType": "uint256",
          "name": "",
          "type": "uint256"
        }
      ],
      "stateMutability": "view",
      "type": "function"
    },
    {
      "inputs": [],
      "name": "_balance1",
      "outputs": [
        {
          "internalType": "uint256",
          "name": "",
          "type": "uint256"
        }
      ],
      "stateMutability": "view",
      "type": "function"
    },
    {
      "inputs": [],
      "name": "_totalSupply",
      "outputs": [
        {
          "internalType": "uint256",
          "name": "",
          "type": "uint256"
        }
      ],
      "stateMutability": "view",
      "type": "function"
    },
    {
      "inputs": [
        {
          "internalType": "address",
          "name": "owner",
          "type": "address"
        },
        {
          "internalType": "address",
          "name": "spender",
          "type": "address"
        }
      ],
      "name": "allowance",
      "outputs": [
        {
          "internalType": "uint256",
          "name": "",
          "type": "uint256"
        }
      ],
      "stateMutability": "view",
      "type": "function"
    },
    {
      "inputs": [
        {
          "internalType": "address",
          "name": "spender",
          "type": "address"
        },
        {
          "internalType": "uint256",
          "name": "amount",
          "type": "uint256"
        }
      ],
      "name": "approve",
      "outputs": [
        {
          "internalType": "bool",
          "name": "",
          "type": "bool"
        }
      ],
      "stateMutability": "nonpayable",
      "type": "function"
    },
    {
      "inputs": [
        {
          "internalType": "address",
          "name": "account",
          "type": "address"
        }
      ],
      "name": "balanceOf",
      "outputs": [
        {
          "internalType": "uint256",
          "name": "",
          "type": "uint256"
        }
      ],
      "stateMutability": "view",
      "type": "function"
    },
    {
      "inputs": [],
      "name": "decimals",
      "outputs": [
        {
          "internalType": "uint8",
          "name": "",
          "type": "uint8"
        }
      ],
      "stateMutability": "view",
      "type": "function"
    },
    {
      "inputs": [
        {
          "internalType": "address",
          "name": "spender",
          "type": "address"
        },
        {
          "internalType": "uint256",
          "name": "subtractedValue",
          "type": "uint256"
        }
      ],
      "name": "decreaseAllowance",
      "outputs": [
        {
          "internalType": "bool",
          "name": "",
          "type": "bool"
        }
      ],
      "stateMutability": "nonpayable",
      "type": "function"
    },
    {
      "inputs": [
        {
          "internalType": "uint256",
          "name": "amount0Desired",
          "type": "uint256"
        },
        {
          "internalType": "uint256",
          "name": "amount1Desired",
          "type": "uint256"
        },
        {
          "internalType": "address",
          "name": "recipient",
          "type": "address"
        }
      ],
      "name": "deposit",
      "outputs": [
        {
          "internalType": "uint256",
          "name": "lpShares",
          "type": "uint256"
        },
        {
          "internalType": "uint256",
          "name": "amount0",
          "type": "uint256"
        },
        {
          "internalType": "uint256",
          "name": "amount1",
          "type": "uint256"
        }
      ],
      "stateMutability": "payable",
      "type": "function"
    },
    {
      "inputs": [],
      "name": "getPositionDetails",
      "outputs": [
        {
          "internalType": "uint256",
          "name": "amount0",
          "type": "uint256"
        },
        {
          "internalType": "uint256",
          "name": "amount1",
          "type": "uint256"
        },
        {
          "internalType": "uint256",
          "name": "fees0",
          "type": "uint256"
        },
        {
          "internalType": "uint256",
          "name": "fees1",
          "type": "uint256"
        },
        {
          "internalType": "uint128",
          "name": "baseLiquidity",
          "type": "uint128"
        },
        {
          "internalType": "uint128",
          "name": "rangeLiquidity",
          "type": "uint128"
        }
      ],
      "stateMutability": "nonpayable",
      "type": "function"
    },
    {
      "inputs": [],
      "name": "getVaultInfo",
      "outputs": [
        {
          "internalType": "address",
          "name": "",
          "type": "address"
        },
        {
          "internalType": "address",
          "name": "",
          "type": "address"
        },
        {
          "internalType": "uint24",
          "name": "",
          "type": "uint24"
        },
        {
          "internalType": "address",
          "name": "",
          "type": "address"
        }
      ],
      "stateMutability": "view",
      "type": "function"
    },
    {
      "inputs": [
        {
          "internalType": "address",
          "name": "spender",
          "type": "address"
        },
        {
          "internalType": "uint256",
          "name": "addedValue",
          "type": "uint256"
        }
      ],
      "name": "increaseAllowance",
      "outputs": [
        {
          "internalType": "bool",
          "name": "",
          "type": "bool"
        }
      ],
      "stateMutability": "nonpayable",
      "type": "function"
    },
    {
      "inputs": [
        {
          "internalType": "address",
          "name": "_operator",
          "type": "address"
        }
      ],
      "name": "isOperator",
      "outputs": [
        {
          "internalType": "bool",
          "name": "",
          "type": "bool"
        }
      ],
      "stateMutability": "view",
      "type": "function"
    },
    {
      "inputs": [],
      "name": "name",
      "outputs": [
        {
          "internalType": "string",
          "name": "",
          "type": "string"
        }
      ],
      "stateMutability": "view",
      "type": "function"
    },
    {
      "inputs": [
        {
          "internalType": "address",
          "name": "owner",
          "type": "address"
        }
      ],
      "name": "nonces",
      "outputs": [
        {
          "internalType": "uint256",
          "name": "",
          "type": "uint256"
        }
      ],
      "stateMutability": "view",
      "type": "function"
    },
    {
      "inputs": [
        {
          "internalType": "address",
          "name": "owner",
          "type": "address"
        },
        {
          "internalType": "address",
          "name": "spender",
          "type": "address"
        },
        {
          "internalType": "uint256",
          "name": "value",
          "type": "uint256"
        },
        {
          "internalType": "uint256",
          "name": "deadline",
          "type": "uint256"
        },
        {
          "internalType": "uint8",
          "name": "v",
          "type": "uint8"
        },
        {
          "internalType": "bytes32",
          "name": "r",
          "type": "bytes32"
        },
        {
          "internalType": "bytes32",
          "name": "s",
          "type": "bytes32"
        }
      ],
      "name": "permit",
      "outputs": [],
      "stateMutability": "nonpayable",
      "type": "function"
    },
    {
      "inputs": [],
      "name": "pool",
      "outputs": [
        {
          "internalType": "contract IUniswapV3Pool",
          "name": "",
          "type": "address"
        }
      ],
      "stateMutability": "view",
      "type": "function"
    },
    {
      "inputs": [],
      "name": "pullLiquidity",
      "outputs": [],
      "stateMutability": "nonpayable",
      "type": "function"
    },
    {
      "inputs": [
        {
          "internalType": "uint8",
          "name": "swapBP",
          "type": "uint8"
        }
      ],
      "name": "readjustLiquidity",
      "outputs": [],
      "stateMutability": "nonpayable",
      "type": "function"
    },
    {
      "inputs": [
        {
          "internalType": "int256",
          "name": "swapAmount",
          "type": "int256"
        },
        {
          "internalType": "bool",
          "name": "zeroForOne",
          "type": "bool"
        },
        {
          "internalType": "int24",
          "name": "tickLower",
          "type": "int24"
        },
        {
          "internalType": "int24",
          "name": "tickUpper",
          "type": "int24"
        }
      ],
      "name": "rebalance",
      "outputs": [],
      "stateMutability": "nonpayable",
      "type": "function"
    },
    {
      "inputs": [],
      "name": "symbol",
      "outputs": [
        {
          "internalType": "string",
          "name": "",
          "type": "string"
        }
      ],
      "stateMutability": "view",
      "type": "function"
    },
    {
      "inputs": [],
      "name": "ticksData",
      "outputs": [
        {
          "internalType": "int24",
          "name": "baseTickLower",
          "type": "int24"
        },
        {
          "internalType": "int24",
          "name": "baseTickUpper",
          "type": "int24"
        },
        {
          "internalType": "int24",
          "name": "rangeTickLower",
          "type": "int24"
        },
        {
          "internalType": "int24",
          "name": "rangeTickUpper",
          "type": "int24"
        }
      ],
      "stateMutability": "view",
      "type": "function"
    },
    {
      "inputs": [
        {
          "internalType": "address",
          "name": "_operator",
          "type": "address"
        }
      ],
      "name": "toggleOperator",
      "outputs": [],
      "stateMutability": "nonpayable",
      "type": "function"
    },
    {
      "inputs": [],
      "name": "totalSupply",
      "outputs": [
        {
          "internalType": "uint256",
          "name": "",
          "type": "uint256"
        }
      ],
      "stateMutability": "view",
      "type": "function"
    },
    {
      "inputs": [
        {
          "internalType": "address",
          "name": "recipient",
          "type": "address"
        },
        {
          "internalType": "uint256",
          "name": "amount",
          "type": "uint256"
        }
      ],
      "name": "transfer",
      "outputs": [
        {
          "internalType": "bool",
          "name": "",
          "type": "bool"
        }
      ],
      "stateMutability": "nonpayable",
      "type": "function"
    },
    {
      "inputs": [
        {
          "internalType": "address",
          "name": "sender",
          "type": "address"
        },
        {
          "internalType": "address",
          "name": "recipient",
          "type": "address"
        },
        {
          "internalType": "uint256",
          "name": "amount",
          "type": "uint256"
        }
      ],
      "name": "transferFrom",
      "outputs": [
        {
          "internalType": "bool",
          "name": "",
          "type": "bool"
        }
      ],
      "stateMutability": "nonpayable",
      "type": "function"
    },
    {
      "inputs": [
        {
          "internalType": "uint256",
          "name": "amount0Owed",
          "type": "uint256"
        },
        {
          "internalType": "uint256",
          "name": "amount1Owed",
          "type": "uint256"
        },
        {
          "internalType": "bytes",
          "name": "data",
          "type": "bytes"
        }
      ],
      "name": "uniswapV3MintCallback",
      "outputs": [],
      "stateMutability": "nonpayable",
      "type": "function"
    },
    {
      "inputs": [
        {
          "internalType": "int256",
          "name": "amount0",
          "type": "int256"
        },
        {
          "internalType": "int256",
          "name": "amount1",
          "type": "int256"
        },
        {
          "internalType": "bytes",
          "name": "data",
          "type": "bytes"
        }
      ],
      "name": "uniswapV3SwapCallback",
      "outputs": [],
      "stateMutability": "nonpayable",
      "type": "function"
    },
    {
      "inputs": [
        {
          "internalType": "uint256",
          "name": "liquidity",
          "type": "uint256"
        },
        {
          "internalType": "address",
          "name": "recipient",
          "type": "address"
        },
        {
          "internalType": "bool",
          "name": "refundAsETH",
          "type": "bool"
        }
      ],
      "name": "withdraw",
      "outputs": [
        {
          "internalType": "uint256",
          "name": "amount0",
          "type": "uint256"
        },
        {
          "internalType": "uint256",
          "name": "amount1",
          "type": "uint256"
        }
      ],
      "stateMutability": "nonpayable",
      "type": "function"
    },
    {
      "stateMutability": "payable",
      "type": "receive"
    }
  ],
  "bytecode": {
    "object": "0x6101406040527f6e71edae12b1b97f4d1f60370fef10105fa2faae0126114a169c64845d6126c961012052600c805463ffffffff60d01b1963ffffffff60b01b19909116600160b01b1716600160d01b1790553480156200005f57600080fd5b506040516200577338038062005773833981016040819052620000829162000647565b8180604051806040016040528060018152602001603160f81b81525084848160039080519060200190620000b8929190620004bf565b508051620000ce906004906020840190620004bf565b50506005805460ff1916601217905550815160208084019190912082519183019190912060c082905260e08190527f8b73c3c69bb8fe3d512ecc4cf759cc79239f7b179b0ffacaa9a75d522b39400f6200012762000457565b60a052620001378184846200045b565b6080526101005250505050506001600160a01b0386166200015757600080fd5b6001600160a01b0384166200016b57600080fd5b6001600160a01b0385166200017f57600080fd5b600a80546001600160a01b038089166001600160a01b03199283161792839055600b8054898316908416179055600c805488831693169290921790915560408051630dfe168160e01b815290519290911691630dfe168191600480820192602092909190829003018186803b158015620001f857600080fd5b505afa1580156200020d573d6000803e3d6000fd5b505050506040513d601f19601f8201168201806040525081019062000233919062000623565b600780546001600160a01b0319166001600160a01b03928316179055600a546040805163d21220a760e01b81529051919092169163d21220a7916004808301926020929190829003018186803b1580156200028d57600080fd5b505afa158015620002a2573d6000803e3d6000fd5b505050506040513d601f19601f82011682018060405250810190620002c8919062000623565b600880546001600160a01b0319166001600160a01b03928316179055600a546040805163ddca3f4360e01b81529051919092169163ddca3f43916004808301926020929190829003018186803b1580156200032257600080fd5b505afa15801562000337573d6000803e3d6000fd5b505050506040513d601f19601f820116820180604052508101906200035d919062000722565b600860146101000a81548162ffffff021916908362ffffff160217905550600a60009054906101000a90046001600160a01b03166001600160a01b031663d0c93a7c6040518163ffffffff1660e01b815260040160206040518083038186803b158015620003ca57600080fd5b505afa158015620003df573d6000803e3d6000fd5b505050506040513d601f19601f82011682018060405250810190620004059190620006ff565b6008805460029290920b62ffffff16600160b81b0262ffffff60b81b199092169190911790555050600c805461ffff909216600160a01b0261ffff60a01b199092169190911790555062000747915050565b4690565b60008383836200046a62000457565b3060405160200180868152602001858152602001848152602001838152602001826001600160a01b03168152602001955050505050506040516020818303038152906040528051906020012090509392505050565b828054600181600116156101000203166002900490600052602060002090601f016020900481019282620004f7576000855562000542565b82601f106200051257805160ff191683800117855562000542565b8280016001018555821562000542579182015b828111156200054257825182559160200191906001019062000525565b506200055092915062000554565b5090565b5b8082111562000550576000815560010162000555565b80516001600160a01b03811681146200058357600080fd5b919050565b600082601f83011262000599578081fd5b81516001600160401b0380821115620005ae57fe5b6040516020601f8401601f1916820181018381118382101715620005ce57fe5b6040528382528584018101871015620005e5578485fd5b8492505b83831015620006085785830181015182840182015291820191620005e9565b838311156200061957848185840101525b5095945050505050565b60006020828403121562000635578081fd5b62000640826200056b565b9392505050565b60008060008060008060c0878903121562000660578182fd5b6200066b876200056b565b95506200067b602088016200056b565b94506200068b604088016200056b565b9350606087015161ffff81168114620006a2578283fd5b60808801519093506001600160401b0380821115620006bf578384fd5b620006cd8a838b0162000588565b935060a0890151915080821115620006e3578283fd5b50620006f289828a0162000588565b9150509295509295509295565b60006020828403121562000711578081fd5b81518060020b811462000640578182fd5b60006020828403121562000734578081fd5b815162ffffff8116811462000640578182fd5b60805160a05160c05160e0516101005161012051614fe26200079160003980611730525080612d91525080612dd3525080612db2525080612d38525080612d685250614fe26000f3fe6080604052600436106101d05760003560e01c80637f98aa71116100f7578063b2f9f57111610095578063d505accf11610064578063d505accf14610521578063dd62ed3e14610541578063f8e35be714610561578063fa461e3314610576576101d7565b8063b2f9f571146104a5578063c8696232146104ba578063cb81da2e146104e1578063d348799714610501576101d7565b8063a457c2d7116100d1578063a457c2d71461042b578063a9059cbb1461044b578063ac2dc5621461046b578063adcc377914610490576101d7565b80637f98aa71146103cf5780638dbdbe6d146103f457806395d89b4114610416576101d7565b8063313ce5671161016f5780633fe529f01161013e5780633fe529f01461034f5780636d70f7ae1461036f57806370a082311461038f5780637ecebe00146103af576101d7565b8063313ce567146102e35780633644e51514610305578063395093511461031a5780633eaaf86b1461033a576101d7565b806316f0115b116101ab57806316f0115b1461025f57806318160ddd146102815780631a87e87d146102a357806323b872dd146102c3576101d7565b8062ebf5dd146101d957806306fdde0314610210578063095ea7b314610232576101d7565b366101d757005b005b3480156101e557600080fd5b506101f96101f4366004614b30565b610596565b604051610207929190614d10565b60405180910390f35b34801561021c57600080fd5b506102256108a0565b6040516102079190614c85565b34801561023e57600080fd5b5061025261024d3660046149f6565b610937565b6040516102079190614c34565b34801561026b57600080fd5b50610274610955565b6040516102079190614bba565b34801561028d57600080fd5b50610296610964565b6040516102079190614c57565b3480156102af57600080fd5b506101d76102be366004614b9e565b61096a565b3480156102cf57600080fd5b506102526102de366004614946565b610d8a565b3480156102ef57600080fd5b506102f8610e12565b6040516102079190614d83565b34801561031157600080fd5b50610296610e1b565b34801561032657600080fd5b506102526103353660046149f6565b610e2a565b34801561034657600080fd5b50610296610e78565b34801561035b57600080fd5b506101d761036a36600461487e565b610e7e565b34801561037b57600080fd5b5061025261038a36600461487e565b610ed6565b34801561039b57600080fd5b506102966103aa36600461487e565b610ef8565b3480156103bb57600080fd5b506102966103ca36600461487e565b610f13565b3480156103db57600080fd5b506103e4610f34565b6040516102079493929190614bce565b610407610402366004614b71565b610f61565b60405161020793929190614d1e565b34801561042257600080fd5b506102256112ac565b34801561043757600080fd5b506102526104463660046149f6565b61130d565b34801561045757600080fd5b506102526104663660046149f6565b611375565b34801561047757600080fd5b50610480611389565b6040516102079493929190614c60565b34801561049c57600080fd5b506102966113b2565b3480156104b157600080fd5b50610296611433565b3480156104c657600080fd5b506104cf611464565b60405161020796959493929190614d4f565b3480156104ed57600080fd5b506101d76104fc366004614a75565b6114f0565b34801561050d57600080fd5b506101d761051c366004614ac7565b61165b565b34801561052d57600080fd5b506101d761053c366004614986565b6116c1565b34801561054d57600080fd5b5061029661055c36600461489a565b611878565b34801561056d57600080fd5b506101d76118a3565b34801561058257600080fd5b506101d7610591366004614ac7565b611957565b600080600c601a9054906101000a900463ffffffff1663ffffffff166001146105be57600080fd5b600c805463ffffffff60d01b1916600160d11b17905560006105de6119d5565b5050600a5460405163051bb83360e01b81529294506001600160a01b03808616945063051bb833936106169350911690600401614bba565b60006040518083038186803b15801561062e57600080fd5b505afa158015610642573d6000803e3d6000fd5b505050506000861161065357600080fd5b600061065d610964565b600c54909150600160b01b900463ffffffff166001141561070357600061068d88670de0b6b3a764000084611a74565b600954600a549192506106ba916001600160a01b031690600281810b9163010000009004900b8430611b23565b600954600a5492975090955060009182916106ef916001600160a01b0316903090600281810b9163010000009004900b611cf0565b915091506106ff60008383611db7565b5050505b600061072161071a866107146113b2565b90611e66565b8984611a74565b9050600061073b61073486610714611433565b8a85611a74565b90506107478683611e76565b95506107538582611e76565b94508515610775576007546107759088908a906001600160a01b031689611e86565b8415610795576008546107959088908a906001600160a01b031688611e86565b61079f338a611f27565b876001600160a01b03167f02f25270a4d87bea75db541cdfe559334a275b4a233520ed6c0a2429667cca948a88886040516107dc93929190614d1e565b60405180910390a2600c54600160b01b900463ffffffff166001141561087c57600954600090819061083c90600281810b9163010000009004900b61081f6113b2565b610827611433565b600a546001600160a01b031693929190612023565b915091507f2fb985eb745b9e89bb1ab82e0f8ceb6bf94d4d60aed7e8196540c50161a5fe918282604051610871929190614d10565b60405180910390a150505b5050600c805463ffffffff60d01b1916600160d01b17905550919590945092505050565b60038054604080516020601f600260001961010060018816150201909516949094049384018190048102820181019092528281526060939092909183018282801561092c5780601f106109015761010080835404028352916020019161092c565b820191906000526020600020905b81548152906001019060200180831161090f57829003601f168201915b505050505090505b90565b600061094b610944612185565b8484612189565b5060015b92915050565b600a546001600160a01b031681565b60025490565b336000908152600d602052604090205460ff1661098657600080fd5b60006109906119d5565b5050600a5460405163051bb83360e01b81529294506001600160a01b03808616945063051bb833936109c89350911690600401614bba565b60006040518083038186803b1580156109e057600080fd5b505afa1580156109f4573d6000803e3d6000fd5b5050600c805463ffffffff60b01b1916600160b01b17905550610a1790506147a2565b600954600a54600091610a42916001600160a01b031690600281810b9163010000009004900b612275565b5050600954600a54919250610a70916001600160a01b031690600281810b9163010000009004900b30612313565b6020860181905281865260c086019290925260a0850192909252610a9691600191611db7565b6000610aa06124c7565b600854600a54600160b81b90910460020b919091029150610ac9906001600160a01b0316612570565b50600290810b810b60408601819052600854610af2935090918491600160b81b9004900b6125f2565b600290810b810b608086015290810b900b60608401526001600160801b03821615801590610b2e575060a08301511580610b2e575060c0830151155b15610bab576000808460a0015111610b47576000610b4a565b60015b9050600081610b7357610b6e610b698660c001518960ff166064611a74565b61260f565b610b89565b610b89610b698660a001518960ff166064611a74565b600a54909150610ba4906001600160a01b0316308484612657565b5050610cd1565b610bb36113b2565b60a0840152610bc0611433565b60c0840181905260a084015160608501516080860151600a54610bf1946001600160a01b03909116939290916127d3565b6001600160801b031660e0840181905260608401516080850151600a54610c25936001600160a01b03909116929091612867565b6101208501819052610100850182905260a085015160c0860151610c4d9391929091906128fe565b15156101408401819052610c8a57610c85610c7a8461012001518560c00151611e6690919063ffffffff16565b8660ff166064611a74565b610ca9565b610ca9610c7a8461010001518560a00151611e6690919063ffffffff16565b6101608401819052610140840151600a54610cd1926001600160a01b03909116913091612657565b610cd96113b2565b60a0840152610ce6611433565b60c0840181905260a0840151600854600a54610d1a936001600160a01b0390911692918590600160b81b900460020b612939565b6009805465ffffff00000019166301000000600293840b62ffffff90811682029290921762ffffff191694840b91909116939093179081905560a086015160c0870151600a54610d81956001600160a01b039091169484810b9491909104900b9190612023565b50505050505050565b6000610d97848484612b42565b610e0784610da3612185565b610e0285604051806060016040528060288152602001614ece602891396001600160a01b038a16600090815260016020526040812090610de1612185565b6001600160a01b031681526020810191909152604001600020549190612c9d565b612189565b5060015b9392505050565b60055460ff1690565b6000610e25612d34565b905090565b600061094b610e37612185565b84610e028560016000610e48612185565b6001600160a01b03908116825260208083019390935260409182016000908120918c168152925290205490612dfe565b60025481565b6000610e886119d5565b505050509050806001600160a01b0316336001600160a01b031614610eac57600080fd5b506001600160a01b03166000908152600d60205260409020805460ff19811660ff90911615179055565b6001600160a01b0381166000908152600d602052604090205460ff165b919050565b6001600160a01b031660009081526020819052604090205490565b6001600160a01b038116600090815260066020526040812061094f90612e58565b600754600854600a546001600160a01b039283169383831693600160a01b90930462ffffff169290911690565b6000806000600c601a9054906101000a900463ffffffff1663ffffffff16600114610f8b57600080fd5b600c805463ffffffff60d01b1916600160d11b1790556000610fab6119d5565b5050600a5460405163051bb83360e01b81529294506001600160a01b03808616945063051bb83393610fe39350911690600401614bba565b60006040518083038186803b158015610ffb57600080fd5b505afa15801561100f573d6000803e3d6000fd5b505050506001600160a01b03851661102657600080fd5b6000871180156110365750600086115b61103f57600080fd5b6000611049612185565b90506000611055610964565b90506110d860018a8a6110666113b2565b61106e611433565b60408051608081018252600954600281810b810b810b835263010000008204810b810b810b6020840152600160301b8204810b810b810b93830193909352600160481b9004820b820b90910b6060820152600a546001600160a01b03169594939291908890612e5c565b919750955093507f47bb89f0fc234008e53c79bc3e3dab90e27502d1380a4b3cc35038d57fa03d2a6111086113b2565b6040516111159190614c57565b60405180910390a17f47bb89f0fc234008e53c79bc3e3dab90e27502d1380a4b3cc35038d57fa03d2a611146611433565b6040516111539190614c57565b60405180910390a18061118a576103e8861161118a5760405162461bcd60e51b815260040161118190614cd8565b60405180910390fd5b856111a75760405162461bcd60e51b815260040161118190614cf4565b6007546111bf906001600160a01b0316833088612ef8565b6008546111d7906001600160a01b0316833087612ef8565b600c54600160b01b900463ffffffff166001141561121e57600954600a5461121b916001600160a01b0390911690600281810b9163010000009004900b8888612023565b50505b471561122e5761122e8247613035565b6112388787613129565b866001600160a01b0316826001600160a01b03167f4e2ca0515ed1aef1395f66b5303bb5d6f1bf9d61a353fa53f73f8ac9973fa9f687878a60405161127f93929190614d1e565b60405180910390a35050600c805463ffffffff60d01b1916600160d01b1790555091959094509092509050565b60048054604080516020601f600260001961010060018816150201909516949094049384018190048102820181019092528281526060939092909183018282801561092c5780601f106109015761010080835404028352916020019161092c565b600061094b61131a612185565b84610e0285604051806060016040528060258152602001614f886025913960016000611344612185565b6001600160a01b03908116825260208083019390935260409182016000908120918d16815292529020549190612c9d565b600061094b611382612185565b8484612b42565b600954600281810b9163010000008104820b91600160301b8204810b91600160481b9004900b84565b6007546040516370a0823160e01b81526000916001600160a01b0316906370a08231906113e3903090600401614bba565b60206040518083038186803b1580156113fb57600080fd5b505afa15801561140f573d6000803e3d6000fd5b505050506040513d601f19601f82011682018060405250810190610e259190614b18565b6008546040516370a0823160e01b81526000916001600160a01b0316906370a08231906113e3903090600401614bba565b60408051608081018252600954600281810b810b810b835263010000008204810b810b810b6020840152600160301b8204810b810b810b93830193909352600160481b9004820b820b90910b6060820152600a54600091829182918291829182916114dd916001600160a01b0390911690600190613219565b949b939a50919850965094509092509050565b336000908152600d602052604090205460ff1661150c57600080fd5b60006115166119d5565b5050600a5460405163051bb83360e01b81529294506001600160a01b03808616945063051bb8339361154e9350911690600401614bba565b60006040518083038186803b15801561156657600080fd5b505afa15801561157a573d6000803e3d6000fd5b5050600c805463ffffffff60b01b1916600160b01b17905550506008546115ae9084908490600160b81b900460020b6132b0565b600954600a5460009182916115de916001600160a01b0390911690600281810b9163010000009004900b30612313565b9350935050506115f060018383611db7565b861561160e57600a5461160e906001600160a01b031630888a612657565b61161b858561081f6113b2565b505060098054600296870b62ffffff90811662ffffff199790980b1663010000000265ffffff000000199091161794909416949094179092555050505050565b61166361340b565b600061166d612185565b9050600061167d8385018561487e565b9050851561169c5760075461169c906001600160a01b03168388613424565b84156116b9576008546116b9906001600160a01b03168387613424565b505050505050565b83421115611716576040805162461bcd60e51b815260206004820152601d60248201527f45524332305065726d69743a206578706972656420646561646c696e65000000604482015290519081900360640190fd5b6001600160a01b03871660009081526006602052604081207f00000000000000000000000000000000000000000000000000000000000000009089908990899061175f90612e58565b8960405160200180878152602001866001600160a01b03168152602001856001600160a01b03168152602001848152602001838152602001828152602001965050505050505060405160208183030381529060405280519060200120905060006117c88261356b565b905060006117d8828787876135b7565b9050896001600160a01b0316816001600160a01b031614611840576040805162461bcd60e51b815260206004820152601e60248201527f45524332305065726d69743a20696e76616c6964207369676e61747572650000604482015290519081900360640190fd5b6001600160a01b038a16600090815260066020526040902061186190613737565b61186c8a8a8a612189565b50505050505050505050565b6001600160a01b03918216600090815260016020908152604080832093909416825291909152205490565b336000908152600d602052604090205460ff166118bf57600080fd5b600954600a546000918291829182916118f3916001600160a01b0390911690600281810b9163010000009004900b30612313565b600c805463ffffffff60b01b1916600160b11b179055604051939750919550935091507f0b807fda608508350274d5da730325b52bb86f7ba43085d327059ed4b2fc840490611949908690869086908690614d34565b60405180910390a150505050565b61195f61340b565b600084138061196e5750600083135b61197757600080fd5b600061198582840184614a21565b905080156119b0576007546119ab906001600160a01b03166119a5612185565b87613424565b6119ce565b6008546119ce906001600160a01b03166119c8612185565b86613424565b5050505050565b6000806000806000600b60009054906101000a90046001600160a01b03166001600160a01b03166338d772806040518163ffffffff1660e01b815260040160a06040518083038186803b158015611a2b57600080fd5b505afa158015611a3f573d6000803e3d6000fd5b505050506040513d601f19601f82011682018060405250810190611a6391906148d2565b945094509450945094509091929394565b6000808060001985870986860292508281109083900303905080611aaa5760008411611a9f57600080fd5b508290049050610e0b565b808411611ab657600080fd5b6000848688096000868103871696879004966002600389028118808a02820302808a02820302808a02820302808a02820302808a02820302808a02909103029181900381900460010186841190950394909402919094039290920491909117919091029150509392505050565b60008080611b3b6001600160a01b0389168888612275565b505090506000611b5d826001600160801b031687670de0b6b3a7640000611a74565b9050886001600160a01b031663a34123a78989611b7985613740565b6040518463ffffffff1660e01b8152600401808460020b81526020018360020b8152602001826001600160801b0316815260200193505050506040805180830381600087803b158015611bcb57600080fd5b505af1158015611bdf573d6000803e3d6000fd5b505050506040513d6040811015611bf557600080fd5b508051602090910151909450925083151580611c115750600083115b15611ce457886001600160a01b0316634f1eb3d8868a8a611c3189613740565b611c3a89613740565b6040518663ffffffff1660e01b815260040180866001600160a01b031681526020018560020b81526020018460020b8152602001836001600160801b03168152602001826001600160801b03168152602001955050505050506040805180830381600087803b158015611cac57600080fd5b505af1158015611cc0573d6000803e3d6000fd5b505050506040513d6040811015611cd657600080fd5b50516001600160801b031693505b50509550959350505050565b600080611cfe868585613784565b50604080516309e3d67b60e31b81526001600160a01b038781166004830152600287810b602484015286900b60448301526001600160801b03606483018190526084830152825190891692634f1eb3d89260a480820193918290030181600087803b158015611d6c57600080fd5b505af1158015611d80573d6000803e3d6000fd5b505050506040513d6040811015611d9657600080fd5b5080516020909101516001600160801b039182169891169650945050505050565b600080611dc26119d5565b509094509250505060ff8116156119ce578315611dfe57600754611dfe906001600160a01b031683611df98760ff86166064611a74565b613424565b8215611e2457600854611e24906001600160a01b031683611df98660ff86166064611a74565b7ff8994d9c768d599c5c6e92d52cd9cc24762cd773384c7a4612796773c56a86a6858585604051611e5793929190614c3f565b60405180910390a15050505050565b8082038281111561094f57600080fd5b8082018281101561094f57600080fd5b838015611ea05750600c546001600160a01b038381169116145b15611f1657600c54604051632e1a7d4d60e01b81526001600160a01b0390911690632e1a7d4d90611ed5908490600401614c57565b600060405180830381600087803b158015611eef57600080fd5b505af1158015611f03573d6000803e3d6000fd5b50505050611f118382613035565b611f21565b611f21828483613424565b50505050565b6001600160a01b038216611f6c5760405162461bcd60e51b8152600401808060200182810382526021815260200180614ef66021913960400191505060405180910390fd5b611f7882600083613124565b611fb581604051806060016040528060228152602001614df9602291396001600160a01b0385166000908152602081905260409020549190612c9d565b6001600160a01b038316600090815260208190526040902055600254611fdb908261383d565b6002556040805182815290516000916001600160a01b038516917fddf252ad1be2c89b69c2b068fc378daa952ba7f163c4a11628f55a4df523b3ef9181900360200190a35050565b6000808061203d6001600160a01b03891686868a8a6127d3565b90506001600160801b0381161561217a576040805130602080830182905283518084038201815283850194859052633c8a7d8d60e01b9094526044830182815260028c810b60648601528b900b60848501526001600160801b03861660a485015260a060c48501908152855160e486015285516001600160a01b038f1696633c8a7d8d968f958f958b959394909392610104019185019080838360005b838110156120f25781810151838201526020016120da565b50505050905090810190601f16801561211f5780820380516001836020036101000a031916815260200191505b5096505050505050506040805180830381600087803b15801561214157600080fd5b505af1158015612155573d6000803e3d6000fd5b505050506040513d604081101561216b57600080fd5b50805160209091015190935091505b509550959350505050565b3390565b6001600160a01b0383166121ce5760405162461bcd60e51b8152600401808060200182810382526024815260200180614f3c6024913960400191505060405180910390fd5b6001600160a01b0382166122135760405162461bcd60e51b8152600401808060200182810382526022815260200180614e1b6022913960400191505060405180910390fd5b6001600160a01b03808416600081815260016020908152604080832094871680845294825291829020859055815185815291517f8c5be1e5ebec7d5bd14f71427d1e84f3dd0314c0f7b2291e5b200ac8c7c3b9259281900390910190a3505050565b60008060008061228630878761389a565b9050866001600160a01b031663514ea4bf826040518263ffffffff1660e01b81526004018082815260200191505060a06040518083038186803b1580156122cc57600080fd5b505afa1580156122e0573d6000803e3d6000fd5b505050506040513d60a08110156122f657600080fd5b508051606082015160809092015190999198509650945050505050565b60008080808061232d6001600160a01b038a168989612275565b50909150506001600160801b038116156124bb576040805163a34123a760e01b815260028a810b600483015289900b60248201526001600160801b038316604482015281516001600160a01b038c169263a34123a792606480820193918290030181600087803b1580156123a057600080fd5b505af11580156123b4573d6000803e3d6000fd5b505050506040513d60408110156123ca57600080fd5b5080516020909101519095509350841515806123e65750600084115b156124bb57604080516309e3d67b60e31b81526001600160a01b03888116600483015260028b810b60248401528a900b60448301526001600160801b0360648301819052608483015282516000938493928e1692634f1eb3d89260a4808301939282900301818787803b15801561245c57600080fd5b505af1158015612470573d6000803e3d6000fd5b505050506040513d604081101561248657600080fd5b5080516020909101516001600160801b0391821693501690506124a98288611e66565b6124b38288611e66565b909550935050505b50945094509450949050565b6000806124d26119d5565b5050600a54600c5460405163b0a42a5160e01b81529395506001600160a01b03808716955063b0a42a519461251a9450921691600160a01b90910461ffff1690600401614bfe565b60206040518083038186803b15801561253257600080fd5b505afa158015612546573d6000803e3d6000fd5b505050506040513d601f19601f8201168201806040525081019061256a9190614a59565b91505090565b6000806000836001600160a01b0316633850c7bd6040518163ffffffff1660e01b815260040160e06040518083038186803b1580156125ae57600080fd5b505afa1580156125c2573d6000803e3d6000fd5b505050506040513d60e08110156125d857600080fd5b508051602082015160609092015190969195509350915050565b600080600061260186856138f0565b858103979501955050505050565b6000600160ff1b82106126535760405162461bcd60e51b8152600401808060200182810382526028815260200180614f606028913960400191505060405180910390fd5b5090565b600061266b856001600160a01b0316612570565b505090506000620f42408261c350026001600160a01b03168161268a57fe5b04905060008461269c578183016126a0565b8183035b9050866001600160a01b031663128acb08878787858a6040516020018082151581526020019150506040516020818303038152906040526040518663ffffffff1660e01b815260040180866001600160a01b031681526020018515158152602001848152602001836001600160a01b0316815260200180602001828103825283818151815260200191508051906020019080838360005b8381101561274f578181015183820152602001612737565b50505050905090810190601f16801561277c5780820380516001836020036101000a031916815260200191505b5096505050505050506040805180830381600087803b15801561279e57600080fd5b505af11580156127b2573d6000803e3d6000fd5b505050506040513d60408110156127c857600080fd5b505050505050505050565b600080866001600160a01b0316633850c7bd6040518163ffffffff1660e01b815260040160e06040518083038186803b15801561280f57600080fd5b505afa158015612823573d6000803e3d6000fd5b505050506040513d60e081101561283957600080fd5b5051905061285a8161284a8661393c565b6128538661393c565b8989613c6e565b9150505b95945050505050565b6000806000866001600160a01b0316633850c7bd6040518163ffffffff1660e01b815260040160e06040518083038186803b1580156128a557600080fd5b505afa1580156128b9573d6000803e3d6000fd5b505050506040513d60e08110156128cf57600080fd5b505190506128ef816128e08761393c565b6128e98761393c565b89613d30565b92509250505b94509492505050565b60006129148561290e8685611e66565b90613dcb565b6129228561290e8887611e66565b1161292e57600061285e565b600195945050505050565b60008060006040518060e00160405280888152602001878152602001600081526020016000815260200160006001600160801b03168152602001600060020b8152602001600060020b8152509050600080896001600160a01b0316633850c7bd6040518163ffffffff1660e01b815260040160e06040518083038186803b1580156129c357600080fd5b505afa1580156129d7573d6000803e3d6000fd5b505050506040513d60e08110156129ed57600080fd5b5080516020909101519092509050612a068188886125f2565b600290810b810b60c0860181905291810b900b60a0850181905284516020860151612a33938e9390613def565b606085018190526040850182905260a085015160c0860151612a5a938e93909290916127d3565b6001600160801b031660808401528251602084015160408501516060860151600093612a8993909290916128fe565b90508015612ace576000612aa884866080015187600001516000613e1e565b9050612abc612ab682613f0f565b896138f0565b600290810b900b60c086015250612b01565b6000612ae58486608001518760200151600061422e565b9050612af3612ab682613f0f565b600290810b900b60a0860152505b612b148460a001518560c00151896132b0565b612b228460a00151886138f0565b9550612b328460c00151886138f0565b9450505050509550959350505050565b6001600160a01b038316612b875760405162461bcd60e51b8152600401808060200182810382526025815260200180614f176025913960400191505060405180910390fd5b6001600160a01b038216612bcc5760405162461bcd60e51b8152600401808060200182810382526023815260200180614dd66023913960400191505060405180910390fd5b612bd7838383613124565b612c1481604051806060016040528060268152602001614e3d602691396001600160a01b0386166000908152602081905260409020549190612c9d565b6001600160a01b038085166000908152602081905260408082209390935590841681522054612c439082612dfe565b6001600160a01b038084166000818152602081815260409182902094909455805185815290519193928716927fddf252ad1be2c89b69c2b068fc378daa952ba7f163c4a11628f55a4df523b3ef92918290030190a3505050565b60008184841115612d2c5760405162461bcd60e51b81526004018080602001828103825283818151815260200191508051906020019080838360005b83811015612cf1578181015183820152602001612cd9565b50505050905090810190601f168015612d1e5780820380516001836020036101000a031916815260200191505b509250505060405180910390fd5b505050900390565b60007f0000000000000000000000000000000000000000000000000000000000000000612d5f61430a565b1415612d8c57507f0000000000000000000000000000000000000000000000000000000000000000610934565b612df77f00000000000000000000000000000000000000000000000000000000000000007f00000000000000000000000000000000000000000000000000000000000000007f000000000000000000000000000000000000000000000000000000000000000061430e565b9050610934565b600082820183811015610e0b576040805162461bcd60e51b815260206004820152601b60248201527f536166654d6174683a206164646974696f6e206f766572666c6f770000000000604482015290519081900360640190fd5b5490565b6000806000806000806000612e728f8f8a613219565b505093509350935093506000612e9b8c612e958588611e7690919063ffffffff16565b90611e76565b90506000612ead8c612e958786611e76565b90508a1580612ebb57508115155b80612ec557508015155b612ecb57fe5b612ed88f8f84848f614370565b809950819a50829b50505050505050505050985098509895505050505050565b600c546001600160a01b038581169116148015612f155750804710155b1561300d57600c60009054906101000a90046001600160a01b03166001600160a01b031663d0e30db0826040518263ffffffff1660e01b81526004016000604051808303818588803b158015612f6a57600080fd5b505af1158015612f7e573d6000803e3d6000fd5b5050600c5460405163a9059cbb60e01b81526001600160a01b03909116935063a9059cbb9250612fb5915085908590600401614c1b565b602060405180830381600087803b158015612fcf57600080fd5b505af1158015612fe3573d6000803e3d6000fd5b505050506040513d601f19601f820116820180604052508101906130079190614a3d565b50611f21565b6001600160a01b03831630141561302957611f11848383613424565b611f2184848484614404565b604080516000808252602082019092526001600160a01b0384169083906040518082805190602001908083835b602083106130815780518252601f199092019160209182019101613062565b6001836020036101000a03801982511681845116808217855250505050505090500191505060006040518083038185875af1925050503d80600081146130e3576040519150601f19603f3d011682016040523d82523d6000602084013e6130e8565b606091505b5050905080613124576040805162461bcd60e51b815260206004820152600360248201526253544560e81b604482015290519081900360640190fd5b505050565b6001600160a01b038216613184576040805162461bcd60e51b815260206004820152601f60248201527f45524332303a206d696e7420746f20746865207a65726f206164647265737300604482015290519081900360640190fd5b61319060008383613124565b60025461319d9082612dfe565b6002556001600160a01b0382166000908152602081905260409020546131c39082612dfe565b6001600160a01b0383166000818152602081815260408083209490945583518581529351929391927fddf252ad1be2c89b69c2b068fc378daa952ba7f163c4a11628f55a4df523b3ef9281900390910190a35050565b6000806000806000806132358988600001518960200151614554565b939950919750955093509150876132a45760008060008060006132618e8d604001518e60600151614554565b9398509196509450925090506132778b86611e76565b9a506132838a85611e76565b995061328f8984611e76565b985061329b8883611e76565b97509450505050505b93975093979195509350565b8160020b8360020b126132f0576040805162461bcd60e51b8152602060048201526003602482015262544c5560e81b604482015290519081900360640190fd5b620d89e719600284900b1215613333576040805162461bcd60e51b8152602060048201526003602482015262544c4d60e81b604482015290519081900360640190fd5b620d89e8600283900b1315613375576040805162461bcd60e51b815260206004820152600360248201526254554d60e81b604482015290519081900360640190fd5b8060020b8360020b8161338457fe5b0760020b156133c0576040805162461bcd60e51b8152602060048201526003602482015262544c4960e81b604482015290519081900360640190fd5b8060020b8260020b816133cf57fe5b0760020b15613124576040805162461bcd60e51b815260206004820152600360248201526254554960e81b604482015290519081900360640190fd5b600a546001600160a01b0316331461342257600080fd5b565b604080516001600160a01b038481166024830152604480830185905283518084039091018152606490920183526020820180516001600160e01b031663a9059cbb60e01b1781529251825160009485949389169392918291908083835b602083106134a05780518252601f199092019160209182019101613481565b6001836020036101000a0380198251168184511680821785525050505050509050019150506000604051808303816000865af19150503d8060008114613502576040519150601f19603f3d011682016040523d82523d6000602084013e613507565b606091505b5091509150818015613535575080511580613535575080806020019051602081101561353257600080fd5b50515b6119ce576040805162461bcd60e51b815260206004820152600260248201526114d560f21b604482015290519081900360640190fd5b6000613575612d34565b82604051602001808061190160f01b81525060020183815260200182815260200192505050604051602081830303815290604052805190602001209050919050565b60007f7fffffffffffffffffffffffffffffff5d576e7357a4501ddfe92f46681b20a08211156136185760405162461bcd60e51b8152600401808060200182810382526022815260200180614e8a6022913960400191505060405180910390fd5b8360ff16601b148061362d57508360ff16601c145b6136685760405162461bcd60e51b8152600401808060200182810382526022815260200180614eac6022913960400191505060405180910390fd5b600060018686868660405160008152602001604052604051808581526020018460ff1681526020018381526020018281526020019450505050506020604051602081039080840390855afa1580156136c4573d6000803e3d6000fd5b5050604051601f1901519150506001600160a01b03811661372c576040805162461bcd60e51b815260206004820152601860248201527f45434453413a20696e76616c6964207369676e61747572650000000000000000604482015290519081900360640190fd5b90505b949350505050565b80546001019055565b6000600160801b82106126535760405162461bcd60e51b8152600401808060200182810382526027815260200180614e636027913960400191505060405180910390fd5b600061379a6001600160a01b0385168484612275565b50909150506001600160801b03811615610e0b57836001600160a01b031663a34123a7848460006040518463ffffffff1660e01b8152600401808460020b81526020018360020b815260200182815260200193505050506040805180830381600087803b15801561380a57600080fd5b505af115801561381e573d6000803e3d6000fd5b505050506040513d604081101561383457600080fd5b50509392505050565b600082821115613894576040805162461bcd60e51b815260206004820152601e60248201527f536166654d6174683a207375627472616374696f6e206f766572666c6f770000604482015290519081900360640190fd5b50900390565b6040805160609490941b6bffffffffffffffffffffffff1916602080860191909152600293840b60e890811b60348701529290930b90911b60378401528051808403601a018152603a9093019052815191012090565b6000808260020b8460020b8161390257fe5b05905060008460020b12801561392957508260020b8460020b8161392257fe5b0760020b15155b1561393357600019015b90910292915050565b60008060008360020b12613953578260020b61395b565b8260020b6000035b9050620d89e8811115613999576040805162461bcd60e51b81526020600482015260016024820152601560fa1b604482015290519081900360640190fd5b6000600182166139ad57600160801b6139bf565b6ffffcb933bd6fad37aa2d162d1a5940015b70ffffffffffffffffffffffffffffffffff16905060028216156139f3576ffff97272373d413259a46990580e213a0260801c5b6004821615613a12576ffff2e50f5f656932ef12357cf3c7fdcc0260801c5b6008821615613a31576fffe5caca7e10e4e61c3624eaa0941cd00260801c5b6010821615613a50576fffcb9843d60f6159c9db58835c9266440260801c5b6020821615613a6f576fff973b41fa98c081472e6896dfb254c00260801c5b6040821615613a8e576fff2ea16466c96a3843ec78b326b528610260801c5b6080821615613aad576ffe5dee046a99a2a811c461f1969c30530260801c5b610100821615613acd576ffcbe86c7900a88aedcffc83b479aa3a40260801c5b610200821615613aed576ff987a7253ac413176f2b074cf7815e540260801c5b610400821615613b0d576ff3392b0822b70005940c7a398e4b70f30260801c5b610800821615613b2d576fe7159475a2c29b7443b29c7fa6e889d90260801c5b611000821615613b4d576fd097f3bdfd2022b8845ad8f792aa58250260801c5b612000821615613b6d576fa9f746462d870fdf8a65dc1f90e061e50260801c5b614000821615613b8d576f70d869a156d2a1b890bb3df62baf32f70260801c5b618000821615613bad576f31be135f97d08fd981231505542fcfa60260801c5b62010000821615613bce576f09aa508b5b7a84e1c677de54f3e99bc90260801c5b62020000821615613bee576e5d6af8dedb81196699c329225ee6040260801c5b62040000821615613c0d576d2216e584f5fa1ea926041bedfe980260801c5b62080000821615613c2a576b048a170391f7dc42444e8fa20260801c5b60008460020b1315613c45578060001981613c4157fe5b0490505b640100000000810615613c59576001613c5c565b60005b60ff16602082901c0192505050919050565b6000836001600160a01b0316856001600160a01b03161115613c8e579293925b846001600160a01b0316866001600160a01b031611613cb957613cb2858585614599565b905061285e565b836001600160a01b0316866001600160a01b03161015613d1b576000613ce0878686614599565b90506000613cef8789866145fc565b9050806001600160801b0316826001600160801b031610613d105780613d12565b815b9250505061285e565b613d268585846145fc565b9695505050505050565b600080836001600160a01b0316856001600160a01b03161115613d51579293925b846001600160a01b0316866001600160a01b031611613d7c57613d75858585614639565b91506128f5565b836001600160a01b0316866001600160a01b03161015613db557613da1868585614639565b9150613dae8587856146a2565b90506128f5565b613dc08585856146a2565b905094509492505050565b6000821580613de657505081810281838281613de357fe5b04145b61094f57600080fd5b6000806000613e0188888888886127d3565b9050613e0f88828787612867565b90999098509650505050505050565b600082613e2c57508361372f565b6fffffffffffffffffffffffffffffffff60601b606085901b168215613ec3576001600160a01b03861684810290858281613e6357fe5b041415613e9457818101828110613e9257613e8883896001600160a01b0316836146e5565b935050505061372f565b505b613eba82613eb5878a6001600160a01b03168681613eae57fe5b0490611e76565b61471f565b9250505061372f565b6001600160a01b03861684810290858281613eda57fe5b04148015613ee757508082115b613ef057600080fd5b808203613e88613f0a846001600160a01b038b16846146e5565b61472a565b60006401000276a36001600160a01b03831610801590613f4b575073fffd8963efd1fc6a506488495d951d5263988d266001600160a01b038316105b613f80576040805162461bcd60e51b81526020600482015260016024820152602960f91b604482015290519081900360640190fd5b640100000000600160c01b03602083901b166001600160801b03811160071b81811c67ffffffffffffffff811160061b90811c63ffffffff811160051b90811c61ffff811160041b90811c60ff8111600390811b91821c600f811160021b90811c918211600190811b92831c9790881196179094179092171790911717176080811061401457607f810383901c915061401e565b80607f0383901b91505b908002607f81811c60ff83811c9190911c800280831c81831c1c800280841c81841c1c800280851c81851c1c800280861c81861c1c800280871c81871c1c800280881c81881c1c800280891c81891c1c8002808a1c818a1c1c8002808b1c818b1c1c8002808c1c818c1c1c8002808d1c818d1c1c8002808e1c9c81901c9c909c1c80029c8d901c9e9d607f198f0160401b60c09190911c678000000000000000161760c19b909b1c674000000000000000169a909a1760c29990991c672000000000000000169890981760c39790971c671000000000000000169690961760c49590951c670800000000000000169490941760c59390931c670400000000000000169290921760c69190911c670200000000000000161760c79190911c670100000000000000161760c89190911c6680000000000000161760c99190911c6640000000000000161760ca9190911c6620000000000000161760cb9190911c6610000000000000161760cc9190911c6608000000000000161760cd9190911c66040000000000001617693627a301d71055774c8581026f028f6481ab7f045a5af012a19d003aa9198101608090811d906fdb2df09e81959a81455e260799a0632f8301901d600281810b9083900b1461421f57886001600160a01b03166142038261393c565b6001600160a01b03161115614218578161421a565b805b614221565b815b9998505050505050505050565b6000811561429c5760006001600160a01b038411156142645761425f84600160601b876001600160801b0316611a74565b61427c565b6001600160801b038516606085901b8161427a57fe5b045b9050614294613f0a6001600160a01b03881683611e76565b91505061372f565b60006001600160a01b038411156142ca576142c584600160601b876001600160801b03166146e5565b6142e1565b6142e1606085901b6001600160801b03871661471f565b905080866001600160a01b0316116142f857600080fd5b6001600160a01b03861603905061372f565b4690565b600083838361431b61430a565b3060405160200180868152602001858152602001848152602001838152602001826001600160a01b03168152602001955050505050506040516020818303038152906040528051906020012090509392505050565b600080808361439457508690508580821161438b578061438d565b815b92506143f9565b856143a657508561438d818587611a74565b846143b95787915061438d828588611a74565b6143c4878787611a74565b9150878210156143db57508561438d818587611a74565b8791506143e9828688611a74565b90506143f6828588611a74565b92505b955095509592505050565b604080516001600160a01b0385811660248301528481166044830152606480830185905283518084039091018152608490920183526020820180516001600160e01b03166323b872dd60e01b178152925182516000948594938a169392918291908083835b602083106144885780518252601f199092019160209182019101614469565b6001836020036101000a0380198251168184511680821785525050505050509050019150506000604051808303816000865af19150503d80600081146144ea576040519150601f19603f3d011682016040523d82523d6000602084013e6144ef565b606091505b509150915081801561451d57508051158061451d575080806020019051602081101561451a57600080fd5b50515b6116b9576040805162461bcd60e51b815260206004820152600360248201526229aa2360e91b604482015290519081900360640190fd5b6000806000806000614567888888613784565b90506001600160801b0381161561458e57614583888888614740565b929750909550935091505b939792965093509350565b6000826001600160a01b0316846001600160a01b031611156145b9579192915b60006145dc856001600160a01b0316856001600160a01b0316600160601b611a74565b905061285e6145f784838888036001600160a01b0316611a74565b61478c565b6000826001600160a01b0316846001600160a01b0316111561461c579192915b61372f6145f783600160601b8787036001600160a01b0316611a74565b6000826001600160a01b0316846001600160a01b03161115614659579192915b836001600160a01b0316614692606060ff16846001600160801b0316901b8686036001600160a01b0316866001600160a01b0316611a74565b8161469957fe5b04949350505050565b6000826001600160a01b0316846001600160a01b031611156146c2579192915b61372f826001600160801b03168585036001600160a01b0316600160601b611a74565b60006146f2848484611a74565b9050600082806146fe57fe5b8486091115610e0b57600019811061471557600080fd5b6001019392505050565b808204910615150190565b806001600160a01b0381168114610ef357600080fd5b60008060008060008060006147568a8a8a612275565b92509250925060008061476b8c868d8d612867565b9099509750506001600160801b039283169550501691505093509350935093565b806001600160801b0381168114610ef357600080fd5b604051806101c001604052806000815260200160008152602001600060020b8152602001600060020b8152602001600060020b8152602001600081526020016000815260200160006001600160801b0316815260200160008152602001600081526020016000151581526020016000815260200160006001600160a01b0316815260200160006001600160a01b031681525090565b60008083601f840112614848578182fd5b50813567ffffffffffffffff81111561485f578182fd5b60208301915083602082850101111561487757600080fd5b9250929050565b60006020828403121561488f578081fd5b8135610e0b81614d91565b600080604083850312156148ac578081fd5b82356148b781614d91565b915060208301356148c781614d91565b809150509250929050565b600080600080600060a086880312156148e9578081fd5b85516148f481614d91565b602087015190955061490581614d91565b604087015190945061491681614d91565b606087015190935061492781614dc6565b608087015190925061493881614dc6565b809150509295509295909350565b60008060006060848603121561495a578283fd5b833561496581614d91565b9250602084013561497581614d91565b929592945050506040919091013590565b600080600080600080600060e0888a0312156149a0578182fd5b87356149ab81614d91565b965060208801356149bb81614d91565b9550604088013594506060880135935060808801356149d981614dc6565b9699959850939692959460a0840135945060c09093013592915050565b60008060408385031215614a08578182fd5b8235614a1381614d91565b946020939093013593505050565b600060208284031215614a32578081fd5b8135610e0b81614da9565b600060208284031215614a4e578081fd5b8151610e0b81614da9565b600060208284031215614a6a578081fd5b8151610e0b81614db7565b60008060008060808587031215614a8a578182fd5b843593506020850135614a9c81614da9565b92506040850135614aac81614db7565b91506060850135614abc81614db7565b939692955090935050565b60008060008060608587031215614adc578182fd5b8435935060208501359250604085013567ffffffffffffffff811115614b00578283fd5b614b0c87828801614837565b95989497509550505050565b600060208284031215614b29578081fd5b5051919050565b600080600060608486031215614b44578081fd5b833592506020840135614b5681614d91565b91506040840135614b6681614da9565b809150509250925092565b600080600060608486031215614b85578081fd5b83359250602084013591506040840135614b6681614d91565b600060208284031215614baf578081fd5b8135610e0b81614dc6565b6001600160a01b0391909116815260200190565b6001600160a01b039485168152928416602084015262ffffff919091166040830152909116606082015260800190565b6001600160a01b0392909216825261ffff16602082015260400190565b6001600160a01b03929092168252602082015260400190565b901515815260200190565b92151583526020830191909152604082015260600190565b90815260200190565b600294850b815292840b602084015290830b604083015290910b606082015260800190565b6000602080835283518082850152825b81811015614cb157858101830151858201604001528201614c95565b81811115614cc25783604083870101525b50601f01601f1916929092016040019392505050565b602080825260029082015261135360f21b604082015260600190565b602080825260029082015261495360f01b604082015260600190565b918252602082015260400190565b9283526020830191909152604082015260600190565b93845260208401929092526040830152606082015260800190565b9586526020860194909452604085019290925260608401526001600160801b0390811660808401521660a082015260c00190565b60ff91909116815260200190565b6001600160a01b0381168114614da657600080fd5b50565b8015158114614da657600080fd5b8060020b8114614da657600080fd5b60ff81168114614da657600080fdfe45524332303a207472616e7366657220746f20746865207a65726f206164647265737345524332303a206275726e20616d6f756e7420657863656564732062616c616e636545524332303a20617070726f766520746f20746865207a65726f206164647265737345524332303a207472616e7366657220616d6f756e7420657863656564732062616c616e636553616665436173743a2076616c756520646f65736e27742066697420696e20313238206269747345434453413a20696e76616c6964207369676e6174757265202773272076616c756545434453413a20696e76616c6964207369676e6174757265202776272076616c756545524332303a207472616e7366657220616d6f756e74206578636565647320616c6c6f77616e636545524332303a206275726e2066726f6d20746865207a65726f206164647265737345524332303a207472616e736665722066726f6d20746865207a65726f206164647265737345524332303a20617070726f76652066726f6d20746865207a65726f206164647265737353616665436173743a2076616c756520646f65736e27742066697420696e20616e20696e7432353645524332303a2064656372656173656420616c6c6f77616e63652062656c6f77207a65726fa264697066735822122017728e17c537228392c2b598f338fea8ea36bda310fb608cc73dbbaa9b1d2af764736f6c63430007060033",
    "linkReferences": {}
  },
  "methodIdentifiers": {
    "DOMAIN_SEPARATOR()": "3644e515",
    "_balance0()": "adcc3779",
    "_balance1()": "b2f9f571",
    "_totalSupply()": "3eaaf86b",
    "allowance(address,address)": "dd62ed3e",
    "approve(address,uint256)": "095ea7b3",
    "balanceOf(address)": "70a08231",
    "decimals()": "313ce567",
    "decreaseAllowance(address,uint256)": "a457c2d7",
    "deposit(uint256,uint256,address)": "8dbdbe6d",
    "getPositionDetails()": "c8696232",
    "getVaultInfo()": "7f98aa71",
    "increaseAllowance(address,uint256)": "39509351",
    "isOperator(address)": "6d70f7ae",
    "name()": "06fdde03",
    "nonces(address)": "7ecebe00",
    "permit(address,address,uint256,uint256,uint8,bytes32,bytes32)": "d505accf",
    "pool()": "16f0115b",
    "pullLiquidity()": "f8e35be7",
    "readjustLiquidity(uint8)": "1a87e87d",
    "rebalance(int256,bool,int24,int24)": "cb81da2e",
    "symbol()": "95d89b41",
    "ticksData()": "ac2dc562",
    "toggleOperator(address)": "3fe529f0",
    "totalSupply()": "18160ddd",
    "transfer(address,uint256)": "a9059cbb",
    "transferFrom(address,address,uint256)": "23b872dd",
    "uniswapV3MintCallback(uint256,uint256,bytes)": "d3487997",
    "uniswapV3SwapCallback(int256,int256,bytes)": "fa461e33",
    "withdraw(uint256,address,bool)": "00ebf5dd"
  },
  "id": 1
}