{
  "abi": [
    {
      "inputs": [
        {
          "internalType": "address",
          "name": "_pool",
          "type": "address"
        },
        {
          "internalType": "address",
          "name": "_unipilotFactory",
          "type": "address"
        },
        {
          "internalType": "address",
          "name": "_WETH",
          "type": "address"
        },
        {
          "internalType": "uint16",
          "name": "_strategytype",
          "type": "uint16"
        },
        {
          "internalType": "string",
          "name": "_name",
          "type": "string"
        },
        {
          "internalType": "string",
          "name": "_symbol",
          "type": "string"
        }
      ],
      "stateMutability": "nonpayable",
      "type": "constructor"
    },
    {
      "anonymous": false,
      "inputs": [
        {
          "indexed": true,
          "internalType": "address",
          "name": "owner",
          "type": "address"
        },
        {
          "indexed": true,
          "internalType": "address",
          "name": "spender",
          "type": "address"
        },
        {
          "indexed": false,
          "internalType": "uint256",
          "name": "value",
          "type": "uint256"
        }
      ],
      "name": "Approval",
      "type": "event"
    },
    {
      "anonymous": false,
      "inputs": [
        {
          "indexed": false,
          "internalType": "uint256",
          "name": "amount0",
          "type": "uint256"
        },
        {
          "indexed": false,
          "internalType": "uint256",
          "name": "amount1",
          "type": "uint256"
        }
      ],
      "name": "CompoundFees",
      "type": "event"
    },
    {
      "anonymous": false,
      "inputs": [
        {
          "indexed": true,
          "internalType": "address",
          "name": "depositor",
          "type": "address"
        },
        {
          "indexed": true,
          "internalType": "address",
          "name": "recipient",
          "type": "address"
        },
        {
          "indexed": false,
          "internalType": "uint256",
          "name": "amount0",
          "type": "uint256"
        },
        {
          "indexed": false,
          "internalType": "uint256",
          "name": "amount1",
          "type": "uint256"
        },
        {
          "indexed": false,
          "internalType": "uint256",
          "name": "lpShares",
          "type": "uint256"
        }
      ],
      "name": "Deposit",
      "type": "event"
    },
    {
      "anonymous": false,
      "inputs": [
        {
          "indexed": false,
          "internalType": "bool",
          "name": "isReadjustLiquidity",
          "type": "bool"
        },
        {
          "indexed": false,
          "internalType": "uint256",
          "name": "fees0",
          "type": "uint256"
        },
        {
          "indexed": false,
          "internalType": "uint256",
          "name": "fees1",
          "type": "uint256"
        }
      ],
      "name": "FeesSnapshot",
      "type": "event"
    },
    {
      "anonymous": false,
      "inputs": [
        {
          "indexed": false,
          "internalType": "uint256",
          "name": "reserves0",
          "type": "uint256"
        },
        {
          "indexed": false,
          "internalType": "uint256",
          "name": "reserves1",
          "type": "uint256"
        },
        {
          "indexed": false,
          "internalType": "uint256",
          "name": "fees0",
          "type": "uint256"
        },
        {
          "indexed": false,
          "internalType": "uint256",
          "name": "fees1",
          "type": "uint256"
        }
      ],
      "name": "PullLiquidity",
      "type": "event"
    },
    {
      "anonymous": false,
      "inputs": [
        {
          "indexed": true,
          "internalType": "address",
          "name": "from",
          "type": "address"
        },
        {
          "indexed": true,
          "internalType": "address",
          "name": "to",
          "type": "address"
        },
        {
          "indexed": false,
          "internalType": "uint256",
          "name": "value",
          "type": "uint256"
        }
      ],
      "name": "Transfer",
      "type": "event"
    },
    {
      "anonymous": false,
      "inputs": [
        {
          "indexed": true,
          "internalType": "address",
          "name": "recipient",
          "type": "address"
        },
        {
          "indexed": false,
          "internalType": "uint256",
          "name": "shares",
          "type": "uint256"
        },
        {
          "indexed": false,
          "internalType": "uint256",
          "name": "amount0",
          "type": "uint256"
        },
        {
          "indexed": false,
          "internalType": "uint256",
          "name": "amount1",
          "type": "uint256"
        }
      ],
      "name": "Withdraw",
      "type": "event"
    },
    {
      "anonymous": false,
      "inputs": [
        {
          "indexed": false,
          "internalType": "uint256",
          "name": "",
          "type": "uint256"
        }
      ],
      "name": "balance",
      "type": "event"
    },
    {
      "stateMutability": "payable",
      "type": "fallback"
    },
    {
      "inputs": [],
      "name": "DOMAIN_SEPARATOR",
      "outputs": [
        {
          "internalType": "bytes32",
          "name": "",
          "type": "bytes32"
        }
      ],
      "stateMutability": "view",
      "type": "function"
    },
    {
      "inputs": [],
      "name": "_totalSupply",
      "outputs": [
        {
          "internalType": "uint256",
          "name": "",
          "type": "uint256"
        }
      ],
      "stateMutability": "view",
      "type": "function"
    },
    {
      "inputs": [
        {
          "internalType": "address",
          "name": "owner",
          "type": "address"
        },
        {
          "internalType": "address",
          "name": "spender",
          "type": "address"
        }
      ],
      "name": "allowance",
      "outputs": [
        {
          "internalType": "uint256",
          "name": "",
          "type": "uint256"
        }
      ],
      "stateMutability": "view",
      "type": "function"
    },
    {
      "inputs": [
        {
          "internalType": "address",
          "name": "spender",
          "type": "address"
        },
        {
          "internalType": "uint256",
          "name": "amount",
          "type": "uint256"
        }
      ],
      "name": "approve",
      "outputs": [
        {
          "internalType": "bool",
          "name": "",
          "type": "bool"
        }
      ],
      "stateMutability": "nonpayable",
      "type": "function"
    },
    {
      "inputs": [
        {
          "internalType": "address",
          "name": "account",
          "type": "address"
        }
      ],
      "name": "balanceOf",
      "outputs": [
        {
          "internalType": "uint256",
          "name": "",
          "type": "uint256"
        }
      ],
      "stateMutability": "view",
      "type": "function"
    },
    {
      "inputs": [],
      "name": "decimals",
      "outputs": [
        {
          "internalType": "uint8",
          "name": "",
          "type": "uint8"
        }
      ],
      "stateMutability": "view",
      "type": "function"
    },
    {
      "inputs": [
        {
          "internalType": "address",
          "name": "spender",
          "type": "address"
        },
        {
          "internalType": "uint256",
          "name": "subtractedValue",
          "type": "uint256"
        }
      ],
      "name": "decreaseAllowance",
      "outputs": [
        {
          "internalType": "bool",
          "name": "",
          "type": "bool"
        }
      ],
      "stateMutability": "nonpayable",
      "type": "function"
    },
    {
      "inputs": [
        {
          "internalType": "uint256",
          "name": "amount0Desired",
          "type": "uint256"
        },
        {
          "internalType": "uint256",
          "name": "amount1Desired",
          "type": "uint256"
        },
        {
          "internalType": "address",
          "name": "recipient",
          "type": "address"
        }
      ],
      "name": "deposit",
      "outputs": [
        {
          "internalType": "uint256",
          "name": "lpShares",
          "type": "uint256"
        },
        {
          "internalType": "uint256",
          "name": "amount0",
          "type": "uint256"
        },
        {
          "internalType": "uint256",
          "name": "amount1",
          "type": "uint256"
        }
      ],
      "stateMutability": "payable",
      "type": "function"
    },
    {
      "inputs": [],
      "name": "getPositionDetails",
      "outputs": [
        {
          "internalType": "uint256",
          "name": "amount0",
          "type": "uint256"
        },
        {
          "internalType": "uint256",
          "name": "amount1",
          "type": "uint256"
        },
        {
          "internalType": "uint256",
          "name": "fees0",
          "type": "uint256"
        },
        {
          "internalType": "uint256",
          "name": "fees1",
          "type": "uint256"
        },
        {
          "internalType": "uint128",
          "name": "baseLiquidity",
          "type": "uint128"
        },
        {
          "internalType": "uint128",
          "name": "rangeLiquidity",
          "type": "uint128"
        }
      ],
      "stateMutability": "nonpayable",
      "type": "function"
    },
    {
      "inputs": [],
      "name": "getVaultInfo",
      "outputs": [
        {
          "internalType": "address",
          "name": "",
          "type": "address"
        },
        {
          "internalType": "address",
          "name": "",
          "type": "address"
        },
        {
          "internalType": "uint24",
          "name": "",
          "type": "uint24"
        },
        {
          "internalType": "address",
          "name": "",
          "type": "address"
        }
      ],
      "stateMutability": "view",
      "type": "function"
    },
    {
      "inputs": [
        {
          "internalType": "address",
          "name": "spender",
          "type": "address"
        },
        {
          "internalType": "uint256",
          "name": "addedValue",
          "type": "uint256"
        }
      ],
      "name": "increaseAllowance",
      "outputs": [
        {
          "internalType": "bool",
          "name": "",
          "type": "bool"
        }
      ],
      "stateMutability": "nonpayable",
      "type": "function"
    },
    {
      "inputs": [
        {
          "internalType": "address",
          "name": "_operator",
          "type": "address"
        }
      ],
      "name": "isOperator",
      "outputs": [
        {
          "internalType": "bool",
          "name": "",
          "type": "bool"
        }
      ],
      "stateMutability": "view",
      "type": "function"
    },
    {
      "inputs": [],
      "name": "name",
      "outputs": [
        {
          "internalType": "string",
          "name": "",
          "type": "string"
        }
      ],
      "stateMutability": "view",
      "type": "function"
    },
    {
      "inputs": [
        {
          "internalType": "address",
          "name": "owner",
          "type": "address"
        }
      ],
      "name": "nonces",
      "outputs": [
        {
          "internalType": "uint256",
          "name": "",
          "type": "uint256"
        }
      ],
      "stateMutability": "view",
      "type": "function"
    },
    {
      "inputs": [
        {
          "internalType": "address",
          "name": "owner",
          "type": "address"
        },
        {
          "internalType": "address",
          "name": "spender",
          "type": "address"
        },
        {
          "internalType": "uint256",
          "name": "value",
          "type": "uint256"
        },
        {
          "internalType": "uint256",
          "name": "deadline",
          "type": "uint256"
        },
        {
          "internalType": "uint8",
          "name": "v",
          "type": "uint8"
        },
        {
          "internalType": "bytes32",
          "name": "r",
          "type": "bytes32"
        },
        {
          "internalType": "bytes32",
          "name": "s",
          "type": "bytes32"
        }
      ],
      "name": "permit",
      "outputs": [],
      "stateMutability": "nonpayable",
      "type": "function"
    },
    {
      "inputs": [],
      "name": "pullLiquidity",
      "outputs": [],
      "stateMutability": "nonpayable",
      "type": "function"
    },
    {
      "inputs": [
        {
          "internalType": "uint8",
          "name": "swapBP",
          "type": "uint8"
        }
      ],
      "name": "readjustLiquidity",
      "outputs": [],
      "stateMutability": "nonpayable",
      "type": "function"
    },
    {
      "inputs": [
        {
          "internalType": "int256",
          "name": "swapAmount",
          "type": "int256"
        },
        {
          "internalType": "bool",
          "name": "zeroForOne",
          "type": "bool"
        },
        {
          "internalType": "int24",
          "name": "tickLower",
          "type": "int24"
        },
        {
          "internalType": "int24",
          "name": "tickUpper",
          "type": "int24"
        }
      ],
      "name": "rebalance",
      "outputs": [],
      "stateMutability": "nonpayable",
      "type": "function"
    },
    {
      "inputs": [],
      "name": "symbol",
      "outputs": [
        {
          "internalType": "string",
          "name": "",
          "type": "string"
        }
      ],
      "stateMutability": "view",
      "type": "function"
    },
    {
      "inputs": [],
      "name": "ticksData",
      "outputs": [
        {
          "internalType": "int24",
          "name": "baseTickLower",
          "type": "int24"
        },
        {
          "internalType": "int24",
          "name": "baseTickUpper",
          "type": "int24"
        },
        {
          "internalType": "int24",
          "name": "rangeTickLower",
          "type": "int24"
        },
        {
          "internalType": "int24",
          "name": "rangeTickUpper",
          "type": "int24"
        }
      ],
      "stateMutability": "view",
      "type": "function"
    },
    {
      "inputs": [
        {
          "internalType": "address",
          "name": "_operator",
          "type": "address"
        }
      ],
      "name": "toggleOperator",
      "outputs": [],
      "stateMutability": "nonpayable",
      "type": "function"
    },
    {
      "inputs": [],
      "name": "totalSupply",
      "outputs": [
        {
          "internalType": "uint256",
          "name": "",
          "type": "uint256"
        }
      ],
      "stateMutability": "view",
      "type": "function"
    },
    {
      "inputs": [
        {
          "internalType": "address",
          "name": "recipient",
          "type": "address"
        },
        {
          "internalType": "uint256",
          "name": "amount",
          "type": "uint256"
        }
      ],
      "name": "transfer",
      "outputs": [
        {
          "internalType": "bool",
          "name": "",
          "type": "bool"
        }
      ],
      "stateMutability": "nonpayable",
      "type": "function"
    },
    {
      "inputs": [
        {
          "internalType": "address",
          "name": "sender",
          "type": "address"
        },
        {
          "internalType": "address",
          "name": "recipient",
          "type": "address"
        },
        {
          "internalType": "uint256",
          "name": "amount",
          "type": "uint256"
        }
      ],
      "name": "transferFrom",
      "outputs": [
        {
          "internalType": "bool",
          "name": "",
          "type": "bool"
        }
      ],
      "stateMutability": "nonpayable",
      "type": "function"
    },
    {
      "inputs": [
        {
          "internalType": "uint256",
          "name": "amount0Owed",
          "type": "uint256"
        },
        {
          "internalType": "uint256",
          "name": "amount1Owed",
          "type": "uint256"
        },
        {
          "internalType": "bytes",
          "name": "data",
          "type": "bytes"
        }
      ],
      "name": "uniswapV3MintCallback",
      "outputs": [],
      "stateMutability": "nonpayable",
      "type": "function"
    },
    {
      "inputs": [
        {
          "internalType": "int256",
          "name": "amount0",
          "type": "int256"
        },
        {
          "internalType": "int256",
          "name": "amount1",
          "type": "int256"
        },
        {
          "internalType": "bytes",
          "name": "data",
          "type": "bytes"
        }
      ],
      "name": "uniswapV3SwapCallback",
      "outputs": [],
      "stateMutability": "nonpayable",
      "type": "function"
    },
    {
      "inputs": [
        {
          "internalType": "uint256",
          "name": "liquidity",
          "type": "uint256"
        },
        {
          "internalType": "address",
          "name": "recipient",
          "type": "address"
        },
        {
          "internalType": "bool",
          "name": "refundAsETH",
          "type": "bool"
        }
      ],
      "name": "withdraw",
      "outputs": [
        {
          "internalType": "uint256",
          "name": "amount0",
          "type": "uint256"
        },
        {
          "internalType": "uint256",
          "name": "amount1",
          "type": "uint256"
        }
      ],
      "stateMutability": "nonpayable",
      "type": "function"
    },
    {
      "stateMutability": "payable",
      "type": "receive"
    }
  ],
  "bytecode": {
    "object": "0x6101406040527f6e71edae12b1b97f4d1f60370fef10105fa2faae0126114a169c64845d6126c961012052600c805463ffffffff60d01b1963ffffffff60b01b19909116600160b01b1716600160d01b1790553480156200005f57600080fd5b50604051620056e7380380620056e7833981016040819052620000829162000647565b8180604051806040016040528060018152602001603160f81b81525084848160039080519060200190620000b8929190620004bf565b508051620000ce906004906020840190620004bf565b50506005805460ff1916601217905550815160208084019190912082519183019190912060c082905260e08190527f8b73c3c69bb8fe3d512ecc4cf759cc79239f7b179b0ffacaa9a75d522b39400f6200012762000457565b60a052620001378184846200045b565b6080526101005250505050506001600160a01b0386166200015757600080fd5b6001600160a01b0384166200016b57600080fd5b6001600160a01b0385166200017f57600080fd5b600a80546001600160a01b038089166001600160a01b03199283161792839055600b8054898316908416179055600c805488831693169290921790915560408051630dfe168160e01b815290519290911691630dfe168191600480820192602092909190829003018186803b158015620001f857600080fd5b505afa1580156200020d573d6000803e3d6000fd5b505050506040513d601f19601f8201168201806040525081019062000233919062000623565b600780546001600160a01b0319166001600160a01b03928316179055600a546040805163d21220a760e01b81529051919092169163d21220a7916004808301926020929190829003018186803b1580156200028d57600080fd5b505afa158015620002a2573d6000803e3d6000fd5b505050506040513d601f19601f82011682018060405250810190620002c8919062000623565b600880546001600160a01b0319166001600160a01b03928316179055600a546040805163ddca3f4360e01b81529051919092169163ddca3f43916004808301926020929190829003018186803b1580156200032257600080fd5b505afa15801562000337573d6000803e3d6000fd5b505050506040513d601f19601f820116820180604052508101906200035d919062000722565b600860146101000a81548162ffffff021916908362ffffff160217905550600a60009054906101000a90046001600160a01b03166001600160a01b031663d0c93a7c6040518163ffffffff1660e01b815260040160206040518083038186803b158015620003ca57600080fd5b505afa158015620003df573d6000803e3d6000fd5b505050506040513d601f19601f82011682018060405250810190620004059190620006ff565b6008805460029290920b62ffffff16600160b81b0262ffffff60b81b199092169190911790555050600c805461ffff909216600160a01b0261ffff60a01b199092169190911790555062000747915050565b4690565b60008383836200046a62000457565b3060405160200180868152602001858152602001848152602001838152602001826001600160a01b03168152602001955050505050506040516020818303038152906040528051906020012090509392505050565b828054600181600116156101000203166002900490600052602060002090601f016020900481019282620004f7576000855562000542565b82601f106200051257805160ff191683800117855562000542565b8280016001018555821562000542579182015b828111156200054257825182559160200191906001019062000525565b506200055092915062000554565b5090565b5b8082111562000550576000815560010162000555565b80516001600160a01b03811681146200058357600080fd5b919050565b600082601f83011262000599578081fd5b81516001600160401b0380821115620005ae57fe5b6040516020601f8401601f1916820181018381118382101715620005ce57fe5b6040528382528584018101871015620005e5578485fd5b8492505b83831015620006085785830181015182840182015291820191620005e9565b838311156200061957848185840101525b5095945050505050565b60006020828403121562000635578081fd5b62000640826200056b565b9392505050565b60008060008060008060c0878903121562000660578182fd5b6200066b876200056b565b95506200067b602088016200056b565b94506200068b604088016200056b565b9350606087015161ffff81168114620006a2578283fd5b60808801519093506001600160401b0380821115620006bf578384fd5b620006cd8a838b0162000588565b935060a0890151915080821115620006e3578283fd5b50620006f289828a0162000588565b9150509295509295509295565b60006020828403121562000711578081fd5b81518060020b811462000640578182fd5b60006020828403121562000734578081fd5b815162ffffff8116811462000640578182fd5b60805160a05160c05160e0516101005161012051614f5662000791600039806115f2525080612d05525080612d47525080612d26525080612cac525080612cdc5250614f566000f3fe60806040526004361061019f5760003560e01c80637ecebe00116100ec578063c86962321161008a578063d505accf11610064578063d505accf146104a4578063dd62ed3e146104c4578063f8e35be7146104e4578063fa461e33146104f9576101a6565b8063c86962321461043d578063cb81da2e14610464578063d348799714610484576101a6565b806395d89b41116100c657806395d89b41146103c3578063a457c2d7146103d8578063a9059cbb146103f8578063ac2dc56214610418576101a6565b80637ecebe001461035c5780637f98aa711461037c5780638dbdbe6d146103a1576101a6565b8063313ce567116101595780633eaaf86b116101335780633eaaf86b146102e75780633fe529f0146102fc5780636d70f7ae1461031c57806370a082311461033c576101a6565b8063313ce567146102905780633644e515146102b257806339509351146102c7576101a6565b8062ebf5dd146101a857806306fdde03146101df578063095ea7b31461020157806318160ddd1461022e5780631a87e87d1461025057806323b872dd14610270576101a6565b366101a657005b005b3480156101b457600080fd5b506101c86101c3366004614aa4565b610519565b6040516101d6929190614c84565b60405180910390f35b3480156101eb57600080fd5b506101f4610823565b6040516101d69190614bf9565b34801561020d57600080fd5b5061022161021c36600461496a565b6108ba565b6040516101d69190614ba8565b34801561023a57600080fd5b506102436108d8565b6040516101d69190614bcb565b34801561025c57600080fd5b506101a661026b366004614b12565b6108de565b34801561027c57600080fd5b5061022161028b3660046148ba565b610cfe565b34801561029c57600080fd5b506102a5610d86565b6040516101d69190614cf7565b3480156102be57600080fd5b50610243610d8f565b3480156102d357600080fd5b506102216102e236600461496a565b610d9e565b3480156102f357600080fd5b50610243610dec565b34801561030857600080fd5b506101a66103173660046147f2565b610df2565b34801561032857600080fd5b506102216103373660046147f2565b610e4a565b34801561034857600080fd5b506102436103573660046147f2565b610e6c565b34801561036857600080fd5b506102436103773660046147f2565b610e87565b34801561038857600080fd5b50610391610ea8565b6040516101d69493929190614b42565b6103b46103af366004614ae5565b610ed5565b6040516101d693929190614c92565b3480156103cf57600080fd5b506101f4611220565b3480156103e457600080fd5b506102216103f336600461496a565b611281565b34801561040457600080fd5b5061022161041336600461496a565b6112e9565b34801561042457600080fd5b5061042d6112fd565b6040516101d69493929190614bd4565b34801561044957600080fd5b50610452611326565b6040516101d696959493929190614cc3565b34801561047057600080fd5b506101a661047f3660046149e9565b6113b2565b34801561049057600080fd5b506101a661049f366004614a3b565b61151d565b3480156104b057600080fd5b506101a66104bf3660046148fa565b611583565b3480156104d057600080fd5b506102436104df36600461480e565b61173a565b3480156104f057600080fd5b506101a6611765565b34801561050557600080fd5b506101a6610514366004614a3b565b611819565b600080600c601a9054906101000a900463ffffffff1663ffffffff1660011461054157600080fd5b600c805463ffffffff60d01b1916600160d11b1790556000610561611897565b5050600a5460405163051bb83360e01b81529294506001600160a01b03808616945063051bb833936105999350911690600401614b2e565b60006040518083038186803b1580156105b157600080fd5b505afa1580156105c5573d6000803e3d6000fd5b50505050600086116105d657600080fd5b60006105e06108d8565b600c54909150600160b01b900463ffffffff166001141561068657600061061088670de0b6b3a764000084611936565b600954600a5491925061063d916001600160a01b031690600281810b9163010000009004900b84306119e5565b600954600a549297509095506000918291610672916001600160a01b0316903090600281810b9163010000009004900b611bb2565b9150915061068260008383611c79565b5050505b60006106a461069d86610697611d28565b90611da9565b8984611936565b905060006106be6106b786610697611db9565b8a85611936565b90506106ca8683611dea565b95506106d68582611dea565b945085156106f8576007546106f89088908a906001600160a01b031689611dfa565b8415610718576008546107189088908a906001600160a01b031688611dfa565b610722338a611e9b565b876001600160a01b03167f02f25270a4d87bea75db541cdfe559334a275b4a233520ed6c0a2429667cca948a888860405161075f93929190614c92565b60405180910390a2600c54600160b01b900463ffffffff16600114156107ff5760095460009081906107bf90600281810b9163010000009004900b6107a2611d28565b6107aa611db9565b600a546001600160a01b031693929190611f97565b915091507f2fb985eb745b9e89bb1ab82e0f8ceb6bf94d4d60aed7e8196540c50161a5fe9182826040516107f4929190614c84565b60405180910390a150505b5050600c805463ffffffff60d01b1916600160d01b17905550919590945092505050565b60038054604080516020601f60026000196101006001881615020190951694909404938401819004810282018101909252828152606093909290918301828280156108af5780601f10610884576101008083540402835291602001916108af565b820191906000526020600020905b81548152906001019060200180831161089257829003601f168201915b505050505090505b90565b60006108ce6108c76120f9565b84846120fd565b5060015b92915050565b60025490565b336000908152600d602052604090205460ff166108fa57600080fd5b6000610904611897565b5050600a5460405163051bb83360e01b81529294506001600160a01b03808616945063051bb8339361093c9350911690600401614b2e565b60006040518083038186803b15801561095457600080fd5b505afa158015610968573d6000803e3d6000fd5b5050600c805463ffffffff60b01b1916600160b01b1790555061098b9050614716565b600954600a546000916109b6916001600160a01b031690600281810b9163010000009004900b6121e9565b5050600954600a549192506109e4916001600160a01b031690600281810b9163010000009004900b30612287565b6020860181905281865260c086019290925260a0850192909252610a0a91600191611c79565b6000610a1461243b565b600854600a54600160b81b90910460020b919091029150610a3d906001600160a01b03166124e4565b50600290810b810b60408601819052600854610a66935090918491600160b81b9004900b612566565b600290810b810b608086015290810b900b60608401526001600160801b03821615801590610aa2575060a08301511580610aa2575060c0830151155b15610b1f576000808460a0015111610abb576000610abe565b60015b9050600081610ae757610ae2610add8660c001518960ff166064611936565b612583565b610afd565b610afd610add8660a001518960ff166064611936565b600a54909150610b18906001600160a01b03163084846125cb565b5050610c45565b610b27611d28565b60a0840152610b34611db9565b60c0840181905260a084015160608501516080860151600a54610b65946001600160a01b0390911693929091612747565b6001600160801b031660e0840181905260608401516080850151600a54610b99936001600160a01b039091169290916127db565b6101208501819052610100850182905260a085015160c0860151610bc1939192909190612872565b15156101408401819052610bfe57610bf9610bee8461012001518560c00151611da990919063ffffffff16565b8660ff166064611936565b610c1d565b610c1d610bee8461010001518560a00151611da990919063ffffffff16565b6101608401819052610140840151600a54610c45926001600160a01b039091169130916125cb565b610c4d611d28565b60a0840152610c5a611db9565b60c0840181905260a0840151600854600a54610c8e936001600160a01b0390911692918590600160b81b900460020b6128ad565b6009805465ffffff00000019166301000000600293840b62ffffff90811682029290921762ffffff191694840b91909116939093179081905560a086015160c0870151600a54610cf5956001600160a01b039091169484810b9491909104900b9190611f97565b50505050505050565b6000610d0b848484612ab6565b610d7b84610d176120f9565b610d7685604051806060016040528060288152602001614e42602891396001600160a01b038a16600090815260016020526040812090610d556120f9565b6001600160a01b031681526020810191909152604001600020549190612c11565b6120fd565b5060015b9392505050565b60055460ff1690565b6000610d99612ca8565b905090565b60006108ce610dab6120f9565b84610d768560016000610dbc6120f9565b6001600160a01b03908116825260208083019390935260409182016000908120918c168152925290205490612d72565b60025481565b6000610dfc611897565b505050509050806001600160a01b0316336001600160a01b031614610e2057600080fd5b506001600160a01b03166000908152600d60205260409020805460ff19811660ff90911615179055565b6001600160a01b0381166000908152600d602052604090205460ff165b919050565b6001600160a01b031660009081526020819052604090205490565b6001600160a01b03811660009081526006602052604081206108d290612dcc565b600754600854600a546001600160a01b039283169383831693600160a01b90930462ffffff169290911690565b6000806000600c601a9054906101000a900463ffffffff1663ffffffff16600114610eff57600080fd5b600c805463ffffffff60d01b1916600160d11b1790556000610f1f611897565b5050600a5460405163051bb83360e01b81529294506001600160a01b03808616945063051bb83393610f579350911690600401614b2e565b60006040518083038186803b158015610f6f57600080fd5b505afa158015610f83573d6000803e3d6000fd5b505050506001600160a01b038516610f9a57600080fd5b600087118015610faa5750600086115b610fb357600080fd5b6000610fbd6120f9565b90506000610fc96108d8565b905061104c60018a8a610fda611d28565b610fe2611db9565b60408051608081018252600954600281810b810b810b835263010000008204810b810b810b6020840152600160301b8204810b810b810b93830193909352600160481b9004820b820b90910b6060820152600a546001600160a01b03169594939291908890612dd0565b919750955093507f47bb89f0fc234008e53c79bc3e3dab90e27502d1380a4b3cc35038d57fa03d2a61107c611d28565b6040516110899190614bcb565b60405180910390a17f47bb89f0fc234008e53c79bc3e3dab90e27502d1380a4b3cc35038d57fa03d2a6110ba611db9565b6040516110c79190614bcb565b60405180910390a1806110fe576103e886116110fe5760405162461bcd60e51b81526004016110f590614c4c565b60405180910390fd5b8561111b5760405162461bcd60e51b81526004016110f590614c68565b600754611133906001600160a01b0316833088612e6c565b60085461114b906001600160a01b0316833087612e6c565b600c54600160b01b900463ffffffff166001141561119257600954600a5461118f916001600160a01b0390911690600281810b9163010000009004900b8888611f97565b50505b47156111a2576111a28247612fa9565b6111ac878761309d565b866001600160a01b0316826001600160a01b03167f4e2ca0515ed1aef1395f66b5303bb5d6f1bf9d61a353fa53f73f8ac9973fa9f687878a6040516111f393929190614c92565b60405180910390a35050600c805463ffffffff60d01b1916600160d01b1790555091959094509092509050565b60048054604080516020601f60026000196101006001881615020190951694909404938401819004810282018101909252828152606093909290918301828280156108af5780601f10610884576101008083540402835291602001916108af565b60006108ce61128e6120f9565b84610d7685604051806060016040528060258152602001614efc60259139600160006112b86120f9565b6001600160a01b03908116825260208083019390935260409182016000908120918d16815292529020549190612c11565b60006108ce6112f66120f9565b8484612ab6565b600954600281810b9163010000008104820b91600160301b8204810b91600160481b9004900b84565b60408051608081018252600954600281810b810b810b835263010000008204810b810b810b6020840152600160301b8204810b810b810b93830193909352600160481b9004820b820b90910b6060820152600a546000918291829182918291829161139f916001600160a01b039091169060019061318d565b949b939a50919850965094509092509050565b336000908152600d602052604090205460ff166113ce57600080fd5b60006113d8611897565b5050600a5460405163051bb83360e01b81529294506001600160a01b03808616945063051bb833936114109350911690600401614b2e565b60006040518083038186803b15801561142857600080fd5b505afa15801561143c573d6000803e3d6000fd5b5050600c805463ffffffff60b01b1916600160b01b17905550506008546114709084908490600160b81b900460020b613224565b600954600a5460009182916114a0916001600160a01b0390911690600281810b9163010000009004900b30612287565b9350935050506114b260018383611c79565b86156114d057600a546114d0906001600160a01b031630888a6125cb565b6114dd85856107a2611d28565b505060098054600296870b62ffffff90811662ffffff199790980b1663010000000265ffffff000000199091161794909416949094179092555050505050565b61152561337f565b600061152f6120f9565b9050600061153f838501856147f2565b9050851561155e5760075461155e906001600160a01b03168388613398565b841561157b5760085461157b906001600160a01b03168387613398565b505050505050565b834211156115d8576040805162461bcd60e51b815260206004820152601d60248201527f45524332305065726d69743a206578706972656420646561646c696e65000000604482015290519081900360640190fd5b6001600160a01b03871660009081526006602052604081207f00000000000000000000000000000000000000000000000000000000000000009089908990899061162190612dcc565b8960405160200180878152602001866001600160a01b03168152602001856001600160a01b031681526020018481526020018381526020018281526020019650505050505050604051602081830303815290604052805190602001209050600061168a826134df565b9050600061169a8287878761352b565b9050896001600160a01b0316816001600160a01b031614611702576040805162461bcd60e51b815260206004820152601e60248201527f45524332305065726d69743a20696e76616c6964207369676e61747572650000604482015290519081900360640190fd5b6001600160a01b038a166000908152600660205260409020611723906136ab565b61172e8a8a8a6120fd565b50505050505050505050565b6001600160a01b03918216600090815260016020908152604080832093909416825291909152205490565b336000908152600d602052604090205460ff1661178157600080fd5b600954600a546000918291829182916117b5916001600160a01b0390911690600281810b9163010000009004900b30612287565b600c805463ffffffff60b01b1916600160b11b179055604051939750919550935091507f0b807fda608508350274d5da730325b52bb86f7ba43085d327059ed4b2fc84049061180b908690869086908690614ca8565b60405180910390a150505050565b61182161337f565b60008413806118305750600083135b61183957600080fd5b600061184782840184614995565b905080156118725760075461186d906001600160a01b03166118676120f9565b87613398565b611890565b600854611890906001600160a01b031661188a6120f9565b86613398565b5050505050565b6000806000806000600b60009054906101000a90046001600160a01b03166001600160a01b03166338d772806040518163ffffffff1660e01b815260040160a06040518083038186803b1580156118ed57600080fd5b505afa158015611901573d6000803e3d6000fd5b505050506040513d601f19601f820116820180604052508101906119259190614846565b945094509450945094509091929394565b600080806000198587098686029250828110908390030390508061196c576000841161196157600080fd5b508290049050610d7f565b80841161197857600080fd5b6000848688096000868103871696879004966002600389028118808a02820302808a02820302808a02820302808a02820302808a02820302808a02909103029181900381900460010186841190950394909402919094039290920491909117919091029150509392505050565b600080806119fd6001600160a01b03891688886121e9565b505090506000611a1f826001600160801b031687670de0b6b3a7640000611936565b9050886001600160a01b031663a34123a78989611a3b856136b4565b6040518463ffffffff1660e01b8152600401808460020b81526020018360020b8152602001826001600160801b0316815260200193505050506040805180830381600087803b158015611a8d57600080fd5b505af1158015611aa1573d6000803e3d6000fd5b505050506040513d6040811015611ab757600080fd5b508051602090910151909450925083151580611ad35750600083115b15611ba657886001600160a01b0316634f1eb3d8868a8a611af3896136b4565b611afc896136b4565b6040518663ffffffff1660e01b815260040180866001600160a01b031681526020018560020b81526020018460020b8152602001836001600160801b03168152602001826001600160801b03168152602001955050505050506040805180830381600087803b158015611b6e57600080fd5b505af1158015611b82573d6000803e3d6000fd5b505050506040513d6040811015611b9857600080fd5b50516001600160801b031693505b50509550959350505050565b600080611bc08685856136f8565b50604080516309e3d67b60e31b81526001600160a01b038781166004830152600287810b602484015286900b60448301526001600160801b03606483018190526084830152825190891692634f1eb3d89260a480820193918290030181600087803b158015611c2e57600080fd5b505af1158015611c42573d6000803e3d6000fd5b505050506040513d6040811015611c5857600080fd5b5080516020909101516001600160801b039182169891169650945050505050565b600080611c84611897565b509094509250505060ff811615611890578315611cc057600754611cc0906001600160a01b031683611cbb8760ff86166064611936565b613398565b8215611ce657600854611ce6906001600160a01b031683611cbb8660ff86166064611936565b7ff8994d9c768d599c5c6e92d52cd9cc24762cd773384c7a4612796773c56a86a6858585604051611d1993929190614bb3565b60405180910390a15050505050565b6007546040516370a0823160e01b81526000916001600160a01b0316906370a0823190611d59903090600401614b2e565b60206040518083038186803b158015611d7157600080fd5b505afa158015611d85573d6000803e3d6000fd5b505050506040513d601f19601f82011682018060405250810190610d999190614a8c565b808203828111156108d257600080fd5b6008546040516370a0823160e01b81526000916001600160a01b0316906370a0823190611d59903090600401614b2e565b808201828110156108d257600080fd5b838015611e145750600c546001600160a01b038381169116145b15611e8a57600c54604051632e1a7d4d60e01b81526001600160a01b0390911690632e1a7d4d90611e49908490600401614bcb565b600060405180830381600087803b158015611e6357600080fd5b505af1158015611e77573d6000803e3d6000fd5b50505050611e858382612fa9565b611e95565b611e95828483613398565b50505050565b6001600160a01b038216611ee05760405162461bcd60e51b8152600401808060200182810382526021815260200180614e6a6021913960400191505060405180910390fd5b611eec82600083613098565b611f2981604051806060016040528060228152602001614d6d602291396001600160a01b0385166000908152602081905260409020549190612c11565b6001600160a01b038316600090815260208190526040902055600254611f4f90826137b1565b6002556040805182815290516000916001600160a01b038516917fddf252ad1be2c89b69c2b068fc378daa952ba7f163c4a11628f55a4df523b3ef9181900360200190a35050565b60008080611fb16001600160a01b03891686868a8a612747565b90506001600160801b038116156120ee576040805130602080830182905283518084038201815283850194859052633c8a7d8d60e01b9094526044830182815260028c810b60648601528b900b60848501526001600160801b03861660a485015260a060c48501908152855160e486015285516001600160a01b038f1696633c8a7d8d968f958f958b959394909392610104019185019080838360005b8381101561206657818101518382015260200161204e565b50505050905090810190601f1680156120935780820380516001836020036101000a031916815260200191505b5096505050505050506040805180830381600087803b1580156120b557600080fd5b505af11580156120c9573d6000803e3d6000fd5b505050506040513d60408110156120df57600080fd5b50805160209091015190935091505b509550959350505050565b3390565b6001600160a01b0383166121425760405162461bcd60e51b8152600401808060200182810382526024815260200180614eb06024913960400191505060405180910390fd5b6001600160a01b0382166121875760405162461bcd60e51b8152600401808060200182810382526022815260200180614d8f6022913960400191505060405180910390fd5b6001600160a01b03808416600081815260016020908152604080832094871680845294825291829020859055815185815291517f8c5be1e5ebec7d5bd14f71427d1e84f3dd0314c0f7b2291e5b200ac8c7c3b9259281900390910190a3505050565b6000806000806121fa30878761380e565b9050866001600160a01b031663514ea4bf826040518263ffffffff1660e01b81526004018082815260200191505060a06040518083038186803b15801561224057600080fd5b505afa158015612254573d6000803e3d6000fd5b505050506040513d60a081101561226a57600080fd5b508051606082015160809092015190999198509650945050505050565b6000808080806122a16001600160a01b038a1689896121e9565b50909150506001600160801b0381161561242f576040805163a34123a760e01b815260028a810b600483015289900b60248201526001600160801b038316604482015281516001600160a01b038c169263a34123a792606480820193918290030181600087803b15801561231457600080fd5b505af1158015612328573d6000803e3d6000fd5b505050506040513d604081101561233e57600080fd5b50805160209091015190955093508415158061235a5750600084115b1561242f57604080516309e3d67b60e31b81526001600160a01b03888116600483015260028b810b60248401528a900b60448301526001600160801b0360648301819052608483015282516000938493928e1692634f1eb3d89260a4808301939282900301818787803b1580156123d057600080fd5b505af11580156123e4573d6000803e3d6000fd5b505050506040513d60408110156123fa57600080fd5b5080516020909101516001600160801b03918216935016905061241d8288611da9565b6124278288611da9565b909550935050505b50945094509450949050565b600080612446611897565b5050600a54600c5460405163b0a42a5160e01b81529395506001600160a01b03808716955063b0a42a519461248e9450921691600160a01b90910461ffff1690600401614b72565b60206040518083038186803b1580156124a657600080fd5b505afa1580156124ba573d6000803e3d6000fd5b505050506040513d601f19601f820116820180604052508101906124de91906149cd565b91505090565b6000806000836001600160a01b0316633850c7bd6040518163ffffffff1660e01b815260040160e06040518083038186803b15801561252257600080fd5b505afa158015612536573d6000803e3d6000fd5b505050506040513d60e081101561254c57600080fd5b508051602082015160609092015190969195509350915050565b60008060006125758685613864565b858103979501955050505050565b6000600160ff1b82106125c75760405162461bcd60e51b8152600401808060200182810382526028815260200180614ed46028913960400191505060405180910390fd5b5090565b60006125df856001600160a01b03166124e4565b505090506000620f42408261c350026001600160a01b0316816125fe57fe5b04905060008461261057818301612614565b8183035b9050866001600160a01b031663128acb08878787858a6040516020018082151581526020019150506040516020818303038152906040526040518663ffffffff1660e01b815260040180866001600160a01b031681526020018515158152602001848152602001836001600160a01b0316815260200180602001828103825283818151815260200191508051906020019080838360005b838110156126c35781810151838201526020016126ab565b50505050905090810190601f1680156126f05780820380516001836020036101000a031916815260200191505b5096505050505050506040805180830381600087803b15801561271257600080fd5b505af1158015612726573d6000803e3d6000fd5b505050506040513d604081101561273c57600080fd5b505050505050505050565b600080866001600160a01b0316633850c7bd6040518163ffffffff1660e01b815260040160e06040518083038186803b15801561278357600080fd5b505afa158015612797573d6000803e3d6000fd5b505050506040513d60e08110156127ad57600080fd5b505190506127ce816127be866138b0565b6127c7866138b0565b8989613be2565b9150505b95945050505050565b6000806000866001600160a01b0316633850c7bd6040518163ffffffff1660e01b815260040160e06040518083038186803b15801561281957600080fd5b505afa15801561282d573d6000803e3d6000fd5b505050506040513d60e081101561284357600080fd5b5051905061286381612854876138b0565b61285d876138b0565b89613ca4565b92509250505b94509492505050565b6000612888856128828685611da9565b90613d3f565b612896856128828887611da9565b116128a25760006127d2565b600195945050505050565b60008060006040518060e00160405280888152602001878152602001600081526020016000815260200160006001600160801b03168152602001600060020b8152602001600060020b8152509050600080896001600160a01b0316633850c7bd6040518163ffffffff1660e01b815260040160e06040518083038186803b15801561293757600080fd5b505afa15801561294b573d6000803e3d6000fd5b505050506040513d60e081101561296157600080fd5b508051602090910151909250905061297a818888612566565b600290810b810b60c0860181905291810b900b60a08501819052845160208601516129a7938e9390613d63565b606085018190526040850182905260a085015160c08601516129ce938e9390929091612747565b6001600160801b0316608084015282516020840151604085015160608601516000936129fd9390929091612872565b90508015612a42576000612a1c84866080015187600001516000613d92565b9050612a30612a2a82613e83565b89613864565b600290810b900b60c086015250612a75565b6000612a59848660800151876020015160006141a2565b9050612a67612a2a82613e83565b600290810b900b60a0860152505b612a888460a001518560c0015189613224565b612a968460a0015188613864565b9550612aa68460c0015188613864565b9450505050509550959350505050565b6001600160a01b038316612afb5760405162461bcd60e51b8152600401808060200182810382526025815260200180614e8b6025913960400191505060405180910390fd5b6001600160a01b038216612b405760405162461bcd60e51b8152600401808060200182810382526023815260200180614d4a6023913960400191505060405180910390fd5b612b4b838383613098565b612b8881604051806060016040528060268152602001614db1602691396001600160a01b0386166000908152602081905260409020549190612c11565b6001600160a01b038085166000908152602081905260408082209390935590841681522054612bb79082612d72565b6001600160a01b038084166000818152602081815260409182902094909455805185815290519193928716927fddf252ad1be2c89b69c2b068fc378daa952ba7f163c4a11628f55a4df523b3ef92918290030190a3505050565b60008184841115612ca05760405162461bcd60e51b81526004018080602001828103825283818151815260200191508051906020019080838360005b83811015612c65578181015183820152602001612c4d565b50505050905090810190601f168015612c925780820380516001836020036101000a031916815260200191505b509250505060405180910390fd5b505050900390565b60007f0000000000000000000000000000000000000000000000000000000000000000612cd361427e565b1415612d0057507f00000000000000000000000000000000000000000000000000000000000000006108b7565b612d6b7f00000000000000000000000000000000000000000000000000000000000000007f00000000000000000000000000000000000000000000000000000000000000007f0000000000000000000000000000000000000000000000000000000000000000614282565b90506108b7565b600082820183811015610d7f576040805162461bcd60e51b815260206004820152601b60248201527f536166654d6174683a206164646974696f6e206f766572666c6f770000000000604482015290519081900360640190fd5b5490565b6000806000806000806000612de68f8f8a61318d565b505093509350935093506000612e0f8c612e098588611dea90919063ffffffff16565b90611dea565b90506000612e218c612e098786611dea565b90508a1580612e2f57508115155b80612e3957508015155b612e3f57fe5b612e4c8f8f84848f6142e4565b809950819a50829b50505050505050505050985098509895505050505050565b600c546001600160a01b038581169116148015612e895750804710155b15612f8157600c60009054906101000a90046001600160a01b03166001600160a01b031663d0e30db0826040518263ffffffff1660e01b81526004016000604051808303818588803b158015612ede57600080fd5b505af1158015612ef2573d6000803e3d6000fd5b5050600c5460405163a9059cbb60e01b81526001600160a01b03909116935063a9059cbb9250612f29915085908590600401614b8f565b602060405180830381600087803b158015612f4357600080fd5b505af1158015612f57573d6000803e3d6000fd5b505050506040513d601f19601f82011682018060405250810190612f7b91906149b1565b50611e95565b6001600160a01b038316301415612f9d57611e85848383613398565b611e9584848484614378565b604080516000808252602082019092526001600160a01b0384169083906040518082805190602001908083835b60208310612ff55780518252601f199092019160209182019101612fd6565b6001836020036101000a03801982511681845116808217855250505050505090500191505060006040518083038185875af1925050503d8060008114613057576040519150601f19603f3d011682016040523d82523d6000602084013e61305c565b606091505b5050905080613098576040805162461bcd60e51b815260206004820152600360248201526253544560e81b604482015290519081900360640190fd5b505050565b6001600160a01b0382166130f8576040805162461bcd60e51b815260206004820152601f60248201527f45524332303a206d696e7420746f20746865207a65726f206164647265737300604482015290519081900360640190fd5b61310460008383613098565b6002546131119082612d72565b6002556001600160a01b0382166000908152602081905260409020546131379082612d72565b6001600160a01b0383166000818152602081815260408083209490945583518581529351929391927fddf252ad1be2c89b69c2b068fc378daa952ba7f163c4a11628f55a4df523b3ef9281900390910190a35050565b6000806000806000806131a989886000015189602001516144c8565b939950919750955093509150876132185760008060008060006131d58e8d604001518e606001516144c8565b9398509196509450925090506131eb8b86611dea565b9a506131f78a85611dea565b99506132038984611dea565b985061320f8883611dea565b97509450505050505b93975093979195509350565b8160020b8360020b12613264576040805162461bcd60e51b8152602060048201526003602482015262544c5560e81b604482015290519081900360640190fd5b620d89e719600284900b12156132a7576040805162461bcd60e51b8152602060048201526003602482015262544c4d60e81b604482015290519081900360640190fd5b620d89e8600283900b13156132e9576040805162461bcd60e51b815260206004820152600360248201526254554d60e81b604482015290519081900360640190fd5b8060020b8360020b816132f857fe5b0760020b15613334576040805162461bcd60e51b8152602060048201526003602482015262544c4960e81b604482015290519081900360640190fd5b8060020b8260020b8161334357fe5b0760020b15613098576040805162461bcd60e51b815260206004820152600360248201526254554960e81b604482015290519081900360640190fd5b600a546001600160a01b0316331461339657600080fd5b565b604080516001600160a01b038481166024830152604480830185905283518084039091018152606490920183526020820180516001600160e01b031663a9059cbb60e01b1781529251825160009485949389169392918291908083835b602083106134145780518252601f1990920191602091820191016133f5565b6001836020036101000a0380198251168184511680821785525050505050509050019150506000604051808303816000865af19150503d8060008114613476576040519150601f19603f3d011682016040523d82523d6000602084013e61347b565b606091505b50915091508180156134a95750805115806134a957508080602001905160208110156134a657600080fd5b50515b611890576040805162461bcd60e51b815260206004820152600260248201526114d560f21b604482015290519081900360640190fd5b60006134e9612ca8565b82604051602001808061190160f01b81525060020183815260200182815260200192505050604051602081830303815290604052805190602001209050919050565b60007f7fffffffffffffffffffffffffffffff5d576e7357a4501ddfe92f46681b20a082111561358c5760405162461bcd60e51b8152600401808060200182810382526022815260200180614dfe6022913960400191505060405180910390fd5b8360ff16601b14806135a157508360ff16601c145b6135dc5760405162461bcd60e51b8152600401808060200182810382526022815260200180614e206022913960400191505060405180910390fd5b600060018686868660405160008152602001604052604051808581526020018460ff1681526020018381526020018281526020019450505050506020604051602081039080840390855afa158015613638573d6000803e3d6000fd5b5050604051601f1901519150506001600160a01b0381166136a0576040805162461bcd60e51b815260206004820152601860248201527f45434453413a20696e76616c6964207369676e61747572650000000000000000604482015290519081900360640190fd5b90505b949350505050565b80546001019055565b6000600160801b82106125c75760405162461bcd60e51b8152600401808060200182810382526027815260200180614dd76027913960400191505060405180910390fd5b600061370e6001600160a01b03851684846121e9565b50909150506001600160801b03811615610d7f57836001600160a01b031663a34123a7848460006040518463ffffffff1660e01b8152600401808460020b81526020018360020b815260200182815260200193505050506040805180830381600087803b15801561377e57600080fd5b505af1158015613792573d6000803e3d6000fd5b505050506040513d60408110156137a857600080fd5b50509392505050565b600082821115613808576040805162461bcd60e51b815260206004820152601e60248201527f536166654d6174683a207375627472616374696f6e206f766572666c6f770000604482015290519081900360640190fd5b50900390565b6040805160609490941b6bffffffffffffffffffffffff1916602080860191909152600293840b60e890811b60348701529290930b90911b60378401528051808403601a018152603a9093019052815191012090565b6000808260020b8460020b8161387657fe5b05905060008460020b12801561389d57508260020b8460020b8161389657fe5b0760020b15155b156138a757600019015b90910292915050565b60008060008360020b126138c7578260020b6138cf565b8260020b6000035b9050620d89e881111561390d576040805162461bcd60e51b81526020600482015260016024820152601560fa1b604482015290519081900360640190fd5b60006001821661392157600160801b613933565b6ffffcb933bd6fad37aa2d162d1a5940015b70ffffffffffffffffffffffffffffffffff1690506002821615613967576ffff97272373d413259a46990580e213a0260801c5b6004821615613986576ffff2e50f5f656932ef12357cf3c7fdcc0260801c5b60088216156139a5576fffe5caca7e10e4e61c3624eaa0941cd00260801c5b60108216156139c4576fffcb9843d60f6159c9db58835c9266440260801c5b60208216156139e3576fff973b41fa98c081472e6896dfb254c00260801c5b6040821615613a02576fff2ea16466c96a3843ec78b326b528610260801c5b6080821615613a21576ffe5dee046a99a2a811c461f1969c30530260801c5b610100821615613a41576ffcbe86c7900a88aedcffc83b479aa3a40260801c5b610200821615613a61576ff987a7253ac413176f2b074cf7815e540260801c5b610400821615613a81576ff3392b0822b70005940c7a398e4b70f30260801c5b610800821615613aa1576fe7159475a2c29b7443b29c7fa6e889d90260801c5b611000821615613ac1576fd097f3bdfd2022b8845ad8f792aa58250260801c5b612000821615613ae1576fa9f746462d870fdf8a65dc1f90e061e50260801c5b614000821615613b01576f70d869a156d2a1b890bb3df62baf32f70260801c5b618000821615613b21576f31be135f97d08fd981231505542fcfa60260801c5b62010000821615613b42576f09aa508b5b7a84e1c677de54f3e99bc90260801c5b62020000821615613b62576e5d6af8dedb81196699c329225ee6040260801c5b62040000821615613b81576d2216e584f5fa1ea926041bedfe980260801c5b62080000821615613b9e576b048a170391f7dc42444e8fa20260801c5b60008460020b1315613bb9578060001981613bb557fe5b0490505b640100000000810615613bcd576001613bd0565b60005b60ff16602082901c0192505050919050565b6000836001600160a01b0316856001600160a01b03161115613c02579293925b846001600160a01b0316866001600160a01b031611613c2d57613c2685858561450d565b90506127d2565b836001600160a01b0316866001600160a01b03161015613c8f576000613c5487868661450d565b90506000613c63878986614570565b9050806001600160801b0316826001600160801b031610613c845780613c86565b815b925050506127d2565b613c9a858584614570565b9695505050505050565b600080836001600160a01b0316856001600160a01b03161115613cc5579293925b846001600160a01b0316866001600160a01b031611613cf057613ce98585856145ad565b9150612869565b836001600160a01b0316866001600160a01b03161015613d2957613d158685856145ad565b9150613d22858785614616565b9050612869565b613d34858585614616565b905094509492505050565b6000821580613d5a57505081810281838281613d5757fe5b04145b6108d257600080fd5b6000806000613d758888888888612747565b9050613d83888287876127db565b90999098509650505050505050565b600082613da05750836136a3565b6fffffffffffffffffffffffffffffffff60601b606085901b168215613e37576001600160a01b03861684810290858281613dd757fe5b041415613e0857818101828110613e0657613dfc83896001600160a01b031683614659565b93505050506136a3565b505b613e2e82613e29878a6001600160a01b03168681613e2257fe5b0490611dea565b614693565b925050506136a3565b6001600160a01b03861684810290858281613e4e57fe5b04148015613e5b57508082115b613e6457600080fd5b808203613dfc613e7e846001600160a01b038b1684614659565b61469e565b60006401000276a36001600160a01b03831610801590613ebf575073fffd8963efd1fc6a506488495d951d5263988d266001600160a01b038316105b613ef4576040805162461bcd60e51b81526020600482015260016024820152602960f91b604482015290519081900360640190fd5b640100000000600160c01b03602083901b166001600160801b03811160071b81811c67ffffffffffffffff811160061b90811c63ffffffff811160051b90811c61ffff811160041b90811c60ff8111600390811b91821c600f811160021b90811c918211600190811b92831c97908811961790941790921717909117171760808110613f8857607f810383901c9150613f92565b80607f0383901b91505b908002607f81811c60ff83811c9190911c800280831c81831c1c800280841c81841c1c800280851c81851c1c800280861c81861c1c800280871c81871c1c800280881c81881c1c800280891c81891c1c8002808a1c818a1c1c8002808b1c818b1c1c8002808c1c818c1c1c8002808d1c818d1c1c8002808e1c9c81901c9c909c1c80029c8d901c9e9d607f198f0160401b60c09190911c678000000000000000161760c19b909b1c674000000000000000169a909a1760c29990991c672000000000000000169890981760c39790971c671000000000000000169690961760c49590951c670800000000000000169490941760c59390931c670400000000000000169290921760c69190911c670200000000000000161760c79190911c670100000000000000161760c89190911c6680000000000000161760c99190911c6640000000000000161760ca9190911c6620000000000000161760cb9190911c6610000000000000161760cc9190911c6608000000000000161760cd9190911c66040000000000001617693627a301d71055774c8581026f028f6481ab7f045a5af012a19d003aa9198101608090811d906fdb2df09e81959a81455e260799a0632f8301901d600281810b9083900b1461419357886001600160a01b0316614177826138b0565b6001600160a01b0316111561418c578161418e565b805b614195565b815b9998505050505050505050565b600081156142105760006001600160a01b038411156141d8576141d384600160601b876001600160801b0316611936565b6141f0565b6001600160801b038516606085901b816141ee57fe5b045b9050614208613e7e6001600160a01b03881683611dea565b9150506136a3565b60006001600160a01b0384111561423e5761423984600160601b876001600160801b0316614659565b614255565b614255606085901b6001600160801b038716614693565b905080866001600160a01b03161161426c57600080fd5b6001600160a01b0386160390506136a3565b4690565b600083838361428f61427e565b3060405160200180868152602001858152602001848152602001838152602001826001600160a01b03168152602001955050505050506040516020818303038152906040528051906020012090509392505050565b60008080836143085750869050858082116142ff5780614301565b815b925061436d565b8561431a575085614301818587611936565b8461432d57879150614301828588611936565b614338878787611936565b91508782101561434f575085614301818587611936565b87915061435d828688611936565b905061436a828588611936565b92505b955095509592505050565b604080516001600160a01b0385811660248301528481166044830152606480830185905283518084039091018152608490920183526020820180516001600160e01b03166323b872dd60e01b178152925182516000948594938a169392918291908083835b602083106143fc5780518252601f1990920191602091820191016143dd565b6001836020036101000a0380198251168184511680821785525050505050509050019150506000604051808303816000865af19150503d806000811461445e576040519150601f19603f3d011682016040523d82523d6000602084013e614463565b606091505b5091509150818015614491575080511580614491575080806020019051602081101561448e57600080fd5b50515b61157b576040805162461bcd60e51b815260206004820152600360248201526229aa2360e91b604482015290519081900360640190fd5b60008060008060006144db8888886136f8565b90506001600160801b03811615614502576144f78888886146b4565b929750909550935091505b939792965093509350565b6000826001600160a01b0316846001600160a01b0316111561452d579192915b6000614550856001600160a01b0316856001600160a01b0316600160601b611936565b90506127d261456b84838888036001600160a01b0316611936565b614700565b6000826001600160a01b0316846001600160a01b03161115614590579192915b6136a361456b83600160601b8787036001600160a01b0316611936565b6000826001600160a01b0316846001600160a01b031611156145cd579192915b836001600160a01b0316614606606060ff16846001600160801b0316901b8686036001600160a01b0316866001600160a01b0316611936565b8161460d57fe5b04949350505050565b6000826001600160a01b0316846001600160a01b03161115614636579192915b6136a3826001600160801b03168585036001600160a01b0316600160601b611936565b6000614666848484611936565b90506000828061467257fe5b8486091115610d7f57600019811061468957600080fd5b6001019392505050565b808204910615150190565b806001600160a01b0381168114610e6757600080fd5b60008060008060008060006146ca8a8a8a6121e9565b9250925092506000806146df8c868d8d6127db565b9099509750506001600160801b039283169550501691505093509350935093565b806001600160801b0381168114610e6757600080fd5b604051806101c001604052806000815260200160008152602001600060020b8152602001600060020b8152602001600060020b8152602001600081526020016000815260200160006001600160801b0316815260200160008152602001600081526020016000151581526020016000815260200160006001600160a01b0316815260200160006001600160a01b031681525090565b60008083601f8401126147bc578182fd5b50813567ffffffffffffffff8111156147d3578182fd5b6020830191508360208285010111156147eb57600080fd5b9250929050565b600060208284031215614803578081fd5b8135610d7f81614d05565b60008060408385031215614820578081fd5b823561482b81614d05565b9150602083013561483b81614d05565b809150509250929050565b600080600080600060a0868803121561485d578081fd5b855161486881614d05565b602087015190955061487981614d05565b604087015190945061488a81614d05565b606087015190935061489b81614d3a565b60808701519092506148ac81614d3a565b809150509295509295909350565b6000806000606084860312156148ce578283fd5b83356148d981614d05565b925060208401356148e981614d05565b929592945050506040919091013590565b600080600080600080600060e0888a031215614914578182fd5b873561491f81614d05565b9650602088013561492f81614d05565b95506040880135945060608801359350608088013561494d81614d3a565b9699959850939692959460a0840135945060c09093013592915050565b6000806040838503121561497c578182fd5b823561498781614d05565b946020939093013593505050565b6000602082840312156149a6578081fd5b8135610d7f81614d1d565b6000602082840312156149c2578081fd5b8151610d7f81614d1d565b6000602082840312156149de578081fd5b8151610d7f81614d2b565b600080600080608085870312156149fe578182fd5b843593506020850135614a1081614d1d565b92506040850135614a2081614d2b565b91506060850135614a3081614d2b565b939692955090935050565b60008060008060608587031215614a50578182fd5b8435935060208501359250604085013567ffffffffffffffff811115614a74578283fd5b614a80878288016147ab565b95989497509550505050565b600060208284031215614a9d578081fd5b5051919050565b600080600060608486031215614ab8578081fd5b833592506020840135614aca81614d05565b91506040840135614ada81614d1d565b809150509250925092565b600080600060608486031215614af9578081fd5b83359250602084013591506040840135614ada81614d05565b600060208284031215614b23578081fd5b8135610d7f81614d3a565b6001600160a01b0391909116815260200190565b6001600160a01b039485168152928416602084015262ffffff919091166040830152909116606082015260800190565b6001600160a01b0392909216825261ffff16602082015260400190565b6001600160a01b03929092168252602082015260400190565b901515815260200190565b92151583526020830191909152604082015260600190565b90815260200190565b600294850b815292840b602084015290830b604083015290910b606082015260800190565b6000602080835283518082850152825b81811015614c2557858101830151858201604001528201614c09565b81811115614c365783604083870101525b50601f01601f1916929092016040019392505050565b602080825260029082015261135360f21b604082015260600190565b602080825260029082015261495360f01b604082015260600190565b918252602082015260400190565b9283526020830191909152604082015260600190565b93845260208401929092526040830152606082015260800190565b9586526020860194909452604085019290925260608401526001600160801b0390811660808401521660a082015260c00190565b60ff91909116815260200190565b6001600160a01b0381168114614d1a57600080fd5b50565b8015158114614d1a57600080fd5b8060020b8114614d1a57600080fd5b60ff81168114614d1a57600080fdfe45524332303a207472616e7366657220746f20746865207a65726f206164647265737345524332303a206275726e20616d6f756e7420657863656564732062616c616e636545524332303a20617070726f766520746f20746865207a65726f206164647265737345524332303a207472616e7366657220616d6f756e7420657863656564732062616c616e636553616665436173743a2076616c756520646f65736e27742066697420696e20313238206269747345434453413a20696e76616c6964207369676e6174757265202773272076616c756545434453413a20696e76616c6964207369676e6174757265202776272076616c756545524332303a207472616e7366657220616d6f756e74206578636565647320616c6c6f77616e636545524332303a206275726e2066726f6d20746865207a65726f206164647265737345524332303a207472616e736665722066726f6d20746865207a65726f206164647265737345524332303a20617070726f76652066726f6d20746865207a65726f206164647265737353616665436173743a2076616c756520646f65736e27742066697420696e20616e20696e7432353645524332303a2064656372656173656420616c6c6f77616e63652062656c6f77207a65726fa26469706673582212201d577ed845f00f7309be68c55cdec322e12001e1e9d2a257c2afe798bb12118164736f6c63430007060033",
    "linkReferences": {}
  },
  "methodIdentifiers": {
    "DOMAIN_SEPARATOR()": "3644e515",
    "_totalSupply()": "3eaaf86b",
    "allowance(address,address)": "dd62ed3e",
    "approve(address,uint256)": "095ea7b3",
    "balanceOf(address)": "70a08231",
    "decimals()": "313ce567",
    "decreaseAllowance(address,uint256)": "a457c2d7",
    "deposit(uint256,uint256,address)": "8dbdbe6d",
    "getPositionDetails()": "c8696232",
    "getVaultInfo()": "7f98aa71",
    "increaseAllowance(address,uint256)": "39509351",
    "isOperator(address)": "6d70f7ae",
    "name()": "06fdde03",
    "nonces(address)": "7ecebe00",
    "permit(address,address,uint256,uint256,uint8,bytes32,bytes32)": "d505accf",
    "pullLiquidity()": "f8e35be7",
    "readjustLiquidity(uint8)": "1a87e87d",
    "rebalance(int256,bool,int24,int24)": "cb81da2e",
    "symbol()": "95d89b41",
    "ticksData()": "ac2dc562",
    "toggleOperator(address)": "3fe529f0",
    "totalSupply()": "18160ddd",
    "transfer(address,uint256)": "a9059cbb",
    "transferFrom(address,address,uint256)": "23b872dd",
    "uniswapV3MintCallback(uint256,uint256,bytes)": "d3487997",
    "uniswapV3SwapCallback(int256,int256,bytes)": "fa461e33",
    "withdraw(uint256,address,bool)": "00ebf5dd"
  },
  "id": 1
}