{
  "abi": [
    {
      "anonymous": false,
      "inputs": [
        {
          "indexed": false,
          "internalType": "uint160",
          "name": "",
          "type": "uint160"
        }
      ],
      "name": "Sqrt",
      "type": "event"
    },
    {
      "anonymous": false,
      "inputs": [
        {
          "indexed": false,
          "internalType": "uint24",
          "name": "",
          "type": "uint24"
        }
      ],
      "name": "fee",
      "type": "event"
    },
    {
      "anonymous": false,
      "inputs": [
        {
          "indexed": false,
          "internalType": "string",
          "name": "",
          "type": "string"
        }
      ],
      "name": "here",
      "type": "event"
    },
    {
      "anonymous": false,
      "inputs": [
        {
          "indexed": false,
          "internalType": "address",
          "name": "",
          "type": "address"
        }
      ],
      "name": "notmytoken",
      "type": "event"
    },
    {
      "inputs": [],
      "name": "PositionManager",
      "outputs": [
        {
          "internalType": "contract NonfungiblePositionManager",
          "name": "",
          "type": "address"
        }
      ],
      "stateMutability": "view",
      "type": "function"
    },
    {
      "inputs": [],
      "name": "ST",
      "outputs": [
        {
          "internalType": "contract UnipilotStrategy",
          "name": "",
          "type": "address"
        }
      ],
      "stateMutability": "view",
      "type": "function"
    },
    {
      "inputs": [],
      "name": "UAF",
      "outputs": [
        {
          "internalType": "contract UnipilotActiveFactory",
          "name": "",
          "type": "address"
        }
      ],
      "stateMutability": "view",
      "type": "function"
    },
    {
      "inputs": [],
      "name": "UAV",
      "outputs": [
        {
          "internalType": "contract UnipilotActiveVault",
          "name": "",
          "type": "address"
        }
      ],
      "stateMutability": "view",
      "type": "function"
    },
    {
      "inputs": [],
      "name": "factory",
      "outputs": [
        {
          "internalType": "contract UniswapV3Factory",
          "name": "",
          "type": "address"
        }
      ],
      "stateMutability": "view",
      "type": "function"
    },
    {
      "inputs": [],
      "name": "fees",
      "outputs": [
        {
          "internalType": "uint24",
          "name": "",
          "type": "uint24"
        }
      ],
      "stateMutability": "view",
      "type": "function"
    },
    {
      "inputs": [],
      "name": "getCurrentTick",
      "outputs": [
        {
          "internalType": "int24",
          "name": "tick",
          "type": "int24"
        }
      ],
      "stateMutability": "view",
      "type": "function"
    },
    {
      "inputs": [],
      "name": "pool",
      "outputs": [
        {
          "internalType": "address",
          "name": "",
          "type": "address"
        }
      ],
      "stateMutability": "view",
      "type": "function"
    },
    {
      "inputs": [
        {
          "internalType": "address",
          "name": "t0",
          "type": "address"
        },
        {
          "internalType": "address",
          "name": "t1",
          "type": "address"
        },
        {
          "internalType": "uint256",
          "name": "amount0",
          "type": "uint256"
        },
        {
          "internalType": "uint256",
          "name": "amount1",
          "type": "uint256"
        },
        {
          "internalType": "uint16",
          "name": "_vaultStrategy",
          "type": "uint16"
        }
      ],
      "name": "testInit",
      "outputs": [],
      "stateMutability": "nonpayable",
      "type": "function"
    },
    {
      "inputs": [],
      "name": "weth",
      "outputs": [
        {
          "internalType": "contract WETH9",
          "name": "",
          "type": "address"
        }
      ],
      "stateMutability": "view",
      "type": "function"
    }
  ],
  "bytecode": {
    "object": "0x608060405268556e6973776170563360b81b6007553480156200002157600080fd5b506040516200003090620002bc565b604051809103906000f0801580156200004d573d6000803e3d6000fd5b50600080546001600160a01b0319166001600160a01b039290921691909117905560405130906200007e90620002ca565b6200008a91906200031d565b604051809103906000f080158015620000a7573d6000803e3d6000fd5b50600480546001600160a01b0319166001600160a01b0392909216919091179055604051620000d690620002d8565b604051809103906000f080158015620000f3573d6000803e3d6000fd5b50600580546001600160a01b0319166001600160a01b03929092169190911790556040516200012290620002e5565b604051809103906000f0801580156200013f573d6000803e3d6000fd5b50600680546001600160a01b0319166001600160a01b039283161790819055600054600454600554604051928516943094928116939181169216906001906200018890620002f3565b620001999695949392919062000354565b604051809103906000f080158015620001b6573d6000803e3d6000fd5b50600380546001600160a01b0319166001600160a01b0392909216919091179055620001e1620001e7565b620003aa565b6006546007546040516001600160a01b0390921691620002079062000301565b6200021492919062000391565b604051809103906000f08015801562000231573d6000803e3d6000fd5b50600180546001600160a01b0319166001600160a01b039283161790819055600054600654604051918416939081169216906200026e906200030f565b6200027c9392919062000331565b604051809103906000f08015801562000299573d6000803e3d6000fd5b50600280546001600160a01b0319166001600160a01b0392909216919091179055565b6161408062000f8d83390190565b61291f80620070cd83390190565b605c80620099ec83390190565b6108138062009a4883390190565b61627a806200a25b83390190565b6114f080620104d583390190565b615db580620119c583390190565b6001600160a01b0391909116815260200190565b6001600160a01b0393841681529183166020830152909116604082015260600190565b6001600160a01b039687168152948616602086015292851660408501529084166060840152909216608082015260ff90911660a082015260c00190565b6001600160a01b03929092168252602082015260400190565b610bd380620003ba6000396000f3fe608060405234801561001057600080fd5b506004361061009e5760003560e01c80639af1d35a116100665780639af1d35a146100ee578063ae0e76d514610103578063c45a01551461010b578063ca1e1db414610113578063e3dd9ffc1461011b5761009e565b806308f3c30c146100a357806316f0115b146100c15780633fc8cef3146100c95780634affa2c1146100d157806353aad1d9146100d9575b600080fd5b6100ab610130565b6040516100b89190610995565b60405180910390f35b6100ab61013f565b6100ab61014e565b6100ab61015d565b6100e161016c565b6040516100b89190610adf565b6100f66101f5565b6040516100b89190610b65565b6100ab610207565b6100ab610216565b6100ab610225565b61012e610129366004610828565b610234565b005b6004546001600160a01b031681565b6009546001600160a01b031681565b6006546001600160a01b031681565b6003546001600160a01b031681565b60095460408051633850c7bd60e01b815290516000926001600160a01b031691633850c7bd9160048083019260e0929190829003018186803b1580156101b157600080fd5b505afa1580156101c5573d6000803e3d6000fd5b505050506040513d601f19601f820116820180604052508101906101e99190610886565b50939695505050505050565b600954600160a01b900462ffffff1681565b6008546001600160a01b031681565b6000546001600160a01b031681565b6002546001600160a01b031681565b600854600160a01b900460ff16156102675760405162461bcd60e51b815260040161025e90610b29565b60405180910390fd5b600061027384846106e4565b905061027d610785565b6009805462ffffff92909216600160a01b0262ffffff60a01b199092169190911790556001600160a01b038616158015906102bc575060058261ffff16105b6102d85760405162461bcd60e51b815260040161025e90610b49565b7ffcb74c516541dc6ceffc3a7b26b680142f8b82e9ed4b1a267a003ae3c2fb42ee816040516103079190610995565b60405180910390a160035460095460405163859e3fad60e01b81526000926001600160a01b03169163859e3fad91610356918b918b91600160a01b900462ffffff1690899089906004016109d1565b602060405180830381600087803b15801561037057600080fd5b505af1158015610384573d6000803e3d6000fd5b505050506040513d601f19601f820116820180604052508101906103a89190610805565b90506001600160a01b0381166103ba57fe5b60088054600160a01b6001600160a01b03199091166001600160a01b038481169190911760ff60a01b19168217909255600054600954604051630b4c774160e11b81529190931692631698ee8292610420928c928c92900462ffffff16906004016109a9565b60206040518083038186803b15801561043857600080fd5b505afa15801561044c573d6000803e3d6000fd5b505050506040513d601f19601f820116820180604052508101906104709190610805565b600980546001600160a01b0319166001600160a01b03929092169190911790556040805160018082528183019092526000916020808301908036833750506040805160018082528183019092529293506000929150602080830190803683375050604080516001808252818301909252929350600092915060208083019080368337505060095485519293506001600160a01b03169185915060009061051257fe5b60200260200101906001600160a01b031690816001600160a01b031681525050858260008151811061054057fe5b602002602001019061ffff16908161ffff168152505060648160008151811061056557fe5b602002602001019060020b908160020b815250507f13dfcca188a6fed4191bef3f5aee844b8e807ecef38bd393201d7fe5774ff3f46040516105a690610aed565b60405180910390a1600480546040516346f91a2f60e11b81526001600160a01b0390911691638df2345e916105e19187918791879101610a45565b600060405180830381600087803b1580156105fb57600080fd5b505af115801561060f573d6000803e3d6000fd5b505060048054604051631e5ff9ff60e11b81526001600160a01b039091169350633cbff3fe9250610644916123289101610adf565b600060405180830381600087803b15801561065e57600080fd5b505af1158015610672573d6000803e3d6000fd5b50506008546040516303fe529f60e41b81526001600160a01b039091169250633fe529f091506106a6903390600401610995565b600060405180830381600087803b1580156106c057600080fd5b505af11580156106d4573d6000803e3d6000fd5b5050505050505050505050505050565b600082158015906106f457508115155b6107105760405162461bcd60e51b815260040161025e90610b0b565b670de0b6b3a7640000830260008084838161072757fe5b0490506000600260018301045b8082116107655760028183010480800284106107585780945080600101925061075f565b6001810391505b50610734565b633b9aca006001600160a01b03606086901b160498975050505050505050565b6040516000906101f490610bb8906127109084906003906107ae9042904490339060200161096d565b6040516020818303038152906040528051906020012060001c816107ce57fe5b069050806107e25783945050505050610802565b80600114156107f75782945050505050610802565b509250610802915050565b90565b600060208284031215610816578081fd5b815161082181610b75565b9392505050565b600080600080600060a0868803121561083f578081fd5b853561084a81610b75565b9450602086013561085a81610b75565b93506040860135925060608601359150608086013561087881610b8d565b809150509295509295909350565b600080600080600080600060e0888a0312156108a0578182fd5b87516108ab81610b75565b8097505060208801518060020b81146108c2578283fd5b60408901519096506108d381610b8d565b60608901519095506108e481610b8d565b60808901519094506108f581610b8d565b60a089015190935060ff8116811461090b578283fd5b60c08901519092508015158114610920578182fd5b8091505092959891949750929550565b6000815180845260208085019450808401835b8381101561096257815160020b87529582019590820190600101610943565b509495945050505050565b928352602083019190915260601b6bffffffffffffffffffffffff1916604082015260540190565b6001600160a01b0391909116815260200190565b6001600160a01b03938416815291909216602082015262ffffff909116604082015260600190565b6001600160a01b039586168152938516602085015262ffffff92909216604084015261ffff166060830152909116608082015260e060a08201819052600490820181905263233abd3d60e11b61010083015261012060c0830181905282015263333abd3d60e11b6101408201526101600190565b606080825284519082018190526000906020906080840190828801845b82811015610a875781516001600160a01b031684529284019290840190600101610a62565b50505083810382850152855180825286830191830190845b81811015610abf57835161ffff1683529284019291840191600101610a9f565b50508481036040860152610ad38187610930565b98975050505050505050565b60029190910b815260200190565b6020808252600490820152636865726560e01b604082015260600190565b6020808252600490820152635a45524f60e01b604082015260600190565b6020808252600690820152651a5b9a5d195960d21b604082015260600190565b6020808252600290820152612a2b60f11b604082015260600190565b62ffffff91909116815260200190565b6001600160a01b0381168114610b8a57600080fd5b50565b61ffff81168114610b8a57600080fdfea2646970667358221220ff8b5d4b2584d0c23bacb38d6f9c54de9b748115fe70814ed08d6a043693f5a064736f6c6343000706003360a060405234801561001057600080fd5b503060601b608052600380546001600160a01b031916339081179091556040516000907fb532073b38c83145e3e5135377a08bf9aab55bc0fd7c1179cd4fb995d2a5159c908290a36101f4600081815260046020527ffb8cf1d12598d1a039dd1d106665851a96aadf67d0d9ed76fceea282119208b7805462ffffff1916600a90811790915560405190929160008051602061612083398151915291a3610bb8600081815260046020527f72dffa9b822156d9cf4b0090fa0b656bcb9cc2b2c60eb6acfc20a34f54b31743805462ffffff1916603c90811790915560405190929160008051602061612083398151915291a3612710600081815260046020527f8cc740d51daa94ff54f33bd779c2d20149f524c340519b49181be5a08615f829805462ffffff191660c890811790915560405190929160008051602061612083398151915291a360805160601c615fac610174600039806105515250615fac6000f3fe608060405234801561001057600080fd5b506004361061007d5760003560e01c8063890357301161005b578063890357301461013b5780638a7c195f146101855780638da5cb5b146101b0578063a1671295146101b85761007d565b806313af4035146100825780631698ee82146100aa57806322afcccb14610102575b600080fd5b6100a86004803603602081101561009857600080fd5b50356001600160a01b03166101f4565b005b6100e6600480360360608110156100c057600080fd5b5080356001600160a01b03908116916020810135909116906040013562ffffff16610267565b604080516001600160a01b039092168252519081900360200190f35b6101246004803603602081101561011857600080fd5b503562ffffff16610293565b6040805160029290920b8252519081900360200190f35b6101436102a8565b604080516001600160a01b0396871681529486166020860152929094168383015262ffffff16606083015260029290920b608082015290519081900360a00190f35b6100a86004803603604081101561019b57600080fd5b5062ffffff813516906020013560020b6102de565b6100e66103a1565b6100e6600480360360608110156101ce57600080fd5b5080356001600160a01b03908116916020810135909116906040013562ffffff166103b0565b6003546001600160a01b0316331461020b57600080fd5b6003546040516001600160a01b038084169216907fb532073b38c83145e3e5135377a08bf9aab55bc0fd7c1179cd4fb995d2a5159c90600090a3600380546001600160a01b0319166001600160a01b0392909216919091179055565b60056020908152600093845260408085208252928452828420905282529020546001600160a01b031681565b60046020526000908152604090205460020b81565b600054600154600280546001600160a01b03938416939283169281169162ffffff600160a01b83041691600160b81b9004900b85565b6003546001600160a01b031633146102f557600080fd5b620f42408262ffffff161061030957600080fd5b60008160020b13801561032057506140008160020b125b61032957600080fd5b62ffffff8216600090815260046020526040902054600290810b900b1561034f57600080fd5b62ffffff828116600081815260046020526040808220805462ffffff1916600287900b958616179055517fc66a3fdf07232cdd185febcc6579d408c241b47ae2f9907d84be655141eeaecc9190a35050565b6003546001600160a01b031681565b60006103ba610546565b826001600160a01b0316846001600160a01b031614156103d957600080fd5b600080846001600160a01b0316866001600160a01b0316106103fc5784866103ff565b85855b90925090506001600160a01b03821661041757600080fd5b62ffffff8416600090815260046020526040902054600290810b9081900b61043e57600080fd5b6001600160a01b0383811660009081526005602090815260408083208685168452825280832062ffffff8a168452909152902054161561047d57600080fd5b61048a308484888561057d565b6001600160a01b03808516600081815260056020818152604080842089871680865290835281852062ffffff8e168087529084528286208054988a166001600160a01b0319998a1681179091558287529484528286208787528452828620818752845294829020805490971684179096558051600289900b815291820192909252815195995091947f783cca1c0412dd0d695e784568c96da2e9c22ff989357a2e8b1d9b2b4e6b71189281900390910190a45050509392505050565b306001600160a01b037f0000000000000000000000000000000000000000000000000000000000000000161461057b57600080fd5b565b6040805160a0810182526001600160a01b03878116808352878216602080850182905292881684860181905262ffffff888116606080880182905260028a810b6080998a01819052600080546001600160a01b03199081169099178155600180548a16891790558254909816861762ffffff60a01b1916600160a01b85021762ffffff60b81b1916600160b81b91830b9095160293909317909255875180870194909452838801929092528281019190915285518083039091018152930193849052825192909101919091209091610654906106ab565b8190604051809103906000f5905080158015610674573d6000803e3d6000fd5b50600080546001600160a01b0319908116909155600180549091169055600280546001600160d01b03191690559695505050505050565b6158be806106b98339019056fe6101606040523480156200001257600080fd5b503060601b60805260408051630890357360e41b81529051600091339163890357309160048082019260a092909190829003018186803b1580156200005657600080fd5b505afa1580156200006b573d6000803e3d6000fd5b505050506040513d60a08110156200008257600080fd5b508051602080830151604084015160608086015160809096015160e896871b6001600160e81b0319166101005291811b6001600160601b031990811660e05292811b831660c0529390931b1660a052600282810b900b90921b610120529150620000f79082906200010f811b62002c0117901c565b60801b6001600160801b03191661014052506200017d565b60008082600281900b620d89e719816200012557fe5b05029050600083600281900b620d89e8816200013d57fe5b0502905060008460020b83830360020b816200015557fe5b0560010190508062ffffff166001600160801b038016816200017357fe5b0495945050505050565b60805160601c60a05160601c60c05160601c60e05160601c6101005160e81c6101205160e81c6101405160801c6156746200024a600039806120d15280614b735280614baa525080610bd852806129bd5280614bde5280614c10525080610cc75280611aae5280611ae55280612a055250806111855280611b685280611fd7528061250c52806129e15280613ea25250806108aa52806113d95280611b375280611f7152806124865280613d5952508061215e52806123455280612999525080612c7852506156746000f3fe608060405234801561001057600080fd5b506004361061018e5760003560e01c806370cf754a116100de578063c45a015511610097578063ddca3f4311610071578063ddca3f43146107d8578063f3058399146107f8578063f30dba9314610800578063f637731d146108825761018e565b8063c45a0155146107a9578063d0c93a7c146107b1578063d21220a7146107d05761018e565b806370cf754a146105a05780638206a4d1146105a857806385b66729146105d0578063883bdbfd1461060d578063a34123a714610714578063a38807f21461074e5761018e565b80633850c7bd1161014b578063490e6cbc11610125578063490e6cbc1461044c5780634f1eb3d8146104d6578063514ea4bf146105275780635339c296146105805761018e565b80633850c7bd146103395780633c8a7d8d1461039257806346141319146104325761018e565b80630dfe168114610193578063128acb08146101b75780631a686502146102645780631ad8b03b14610288578063252c09d7146102bf57806332148f6714610316575b600080fd5b61019b6108a8565b604080516001600160a01b039092168252519081900360200190f35b61024b600480360360a08110156101cd57600080fd5b6001600160a01b0382358116926020810135151592604082013592606083013516919081019060a081016080820135600160201b81111561020d57600080fd5b82018360208201111561021f57600080fd5b803590602001918460018302840111600160201b8311171561024057600080fd5b5090925090506108cc565b6040805192835260208301919091528051918290030190f35b61026c611591565b604080516001600160801b039092168252519081900360200190f35b6102906115a0565b60405180836001600160801b03168152602001826001600160801b031681526020019250505060405180910390f35b6102dc600480360360208110156102d557600080fd5b50356115ba565b6040805163ffffffff909516855260069390930b60208501526001600160a01b039091168383015215156060830152519081900360800190f35b6103376004803603602081101561032c57600080fd5b503561ffff166115ff565b005b6103416116f9565b604080516001600160a01b03909816885260029690960b602088015261ffff9485168787015292841660608701529216608085015260ff90911660a0840152151560c0830152519081900360e00190f35b61024b600480360360a08110156103a857600080fd5b6001600160a01b03823516916020810135600290810b92604083013590910b916001600160801b036060820135169181019060a081016080820135600160201b8111156103f457600080fd5b82018360208201111561040657600080fd5b803590602001918460018302840111600160201b8311171561042757600080fd5b509092509050611749565b61043a611a05565b60408051918252519081900360200190f35b6103376004803603608081101561046257600080fd5b6001600160a01b038235169160208101359160408201359190810190608081016060820135600160201b81111561049857600080fd5b8201836020820111156104aa57600080fd5b803590602001918460018302840111600160201b831117156104cb57600080fd5b509092509050611a0b565b610290600480360360a08110156104ec57600080fd5b506001600160a01b03813516906020810135600290810b91604081013590910b906001600160801b0360608201358116916080013516611e66565b6105446004803603602081101561053d57600080fd5b5035612080565b604080516001600160801b0396871681526020810195909552848101939093529084166060840152909216608082015290519081900360a00190f35b61043a6004803603602081101561059657600080fd5b503560010b6120bd565b61026c6120cf565b610337600480360360408110156105be57600080fd5b5060ff813581169160200135166120f3565b610290600480360360608110156105e657600080fd5b506001600160a01b03813516906001600160801b03602082013581169160400135166122d7565b61067b6004803603602081101561062357600080fd5b810190602081018135600160201b81111561063d57600080fd5b82018360208201111561064f57600080fd5b803590602001918460208302840111600160201b8311171561067057600080fd5b5090925090506125a4565b604051808060200180602001838103835285818151815260200191508051906020019060200280838360005b838110156106bf5781810151838201526020016106a7565b50505050905001838103825284818151815260200191508051906020019060200280838360005b838110156106fe5781810151838201526020016106e6565b5050505090500194505050505060405180910390f35b61024b6004803603606081101561072a57600080fd5b508035600290810b91602081013590910b90604001356001600160801b0316612631565b6107786004803603604081101561076457600080fd5b508035600290810b9160200135900b6127a8565b6040805160069490940b84526001600160a01b03909216602084015263ffffffff1682820152519081900360600190f35b61019b612997565b6107b96129bb565b6040805160029290920b8252519081900360200190f35b61019b6129df565b6107e0612a03565b6040805162ffffff9092168252519081900360200190f35b61043a612a27565b6108206004803603602081101561081657600080fd5b503560020b612a2d565b604080516001600160801b039099168952600f9790970b602089015287870195909552606087019390935260069190910b60808601526001600160a01b031660a085015263ffffffff1660c0840152151560e083015251908190036101000190f35b6103376004803603602081101561089857600080fd5b50356001600160a01b0316612a97565b7f000000000000000000000000000000000000000000000000000000000000000081565b6000806108d7612c6d565b8561090e576040805162461bcd60e51b8152602060048201526002602482015261415360f01b604482015290519081900360640190fd5b6040805160e0810182526000546001600160a01b0381168252600160a01b8104600290810b810b900b602083015261ffff600160b81b8204811693830193909352600160c81b810483166060830152600160d81b8104909216608082015260ff600160e81b8304811660a0830152600160f01b909204909116151560c082018190526109c7576040805162461bcd60e51b81526020600482015260036024820152624c4f4b60e81b604482015290519081900360640190fd5b87610a125780600001516001600160a01b0316866001600160a01b0316118015610a0d575073fffd8963efd1fc6a506488495d951d5263988d266001600160a01b038716105b610a44565b80600001516001600160a01b0316866001600160a01b0316108015610a4457506401000276a36001600160a01b038716115b610a7b576040805162461bcd60e51b815260206004820152600360248201526214d41360ea1b604482015290519081900360640190fd5b6000805460ff60f01b191681556040805160c08101909152808a610aaa5760048460a0015160ff16901c610abd565b60108460a0015160ff1681610abb57fe5b065b60ff1681526004546001600160801b03166020820152604001610ade612ca4565b63ffffffff168152602001600060060b815260200160006001600160a01b031681526020016000151581525090506000808913905060006040518060e001604052808b81526020016000815260200185600001516001600160a01b03168152602001856020015160020b81526020018c610b5a57600254610b5e565b6001545b815260200160006001600160801b0316815260200184602001516001600160801b031681525090505b805115801590610bad5750886001600160a01b031681604001516001600160a01b031614155b15610f7757610bba6155db565b60408201516001600160a01b031681526060820151610bfd906006907f00000000000000000000000000000000000000000000000000000000000000008f612ca8565b15156040830152600290810b810b60208301819052620d89e719910b1215610c2e57620d89e7196020820152610c4d565b6020810151620d89e860029190910b1315610c4d57620d89e860208201525b610c5a8160200151612dea565b6001600160a01b031660608201526040820151610ceb908d610c94578b6001600160a01b031683606001516001600160a01b031611610cae565b8b6001600160a01b031683606001516001600160a01b0316105b610cbc578260600151610cbe565b8b5b60c085015185517f000000000000000000000000000000000000000000000000000000000000000061311b565b60c085015260a084015260808301526001600160a01b031660408301528215610d4d57610d218160c0015182608001510161330d565b825103825260a0810151610d4390610d389061330d565b602084015190613323565b6020830152610d88565b610d5a8160a0015161330d565b825101825260c08101516080820151610d8291610d77910161330d565b60208401519061333f565b60208301525b835160ff1615610dce576000846000015160ff168260c0015181610da857fe5b60c0840180519290910491829003905260a0840180519091016001600160801b03169052505b60c08201516001600160801b031615610e0d57610e018160c00151600160801b8460c001516001600160801b0316613355565b60808301805190910190525b80606001516001600160a01b031682604001516001600160a01b03161415610f3657806040015115610f0d578360a00151610e9757610e75846040015160008760200151886040015188602001518a606001516008613405909695949392919063ffffffff16565b6001600160a01b03166080860152600690810b900b6060850152600160a08501525b6000610ee382602001518e610eae57600154610eb4565b84608001515b8f610ec3578560800151610ec7565b6002545b608089015160608a015160408b01516005959493929190613597565b90508c15610eef576000035b610efd8360c0015182613651565b6001600160801b031660c0840152505b8b610f1c578060200151610f25565b60018160200151035b600290810b900b6060830152610f71565b80600001516001600160a01b031682604001516001600160a01b031614610f7157610f648260400151613707565b600290810b900b60608301525b50610b87565b836020015160020b816060015160020b1461104557600080610fc586604001518660400151886020015188602001518a606001518b608001516008613a22909695949392919063ffffffff16565b604085015160608601516000805461ffff60c81b1916600160c81b61ffff958616021761ffff60b81b1916600160b81b95909416949094029290921762ffffff60a01b1916600160a01b62ffffff60029490940b9390931692909202919091176001600160a01b0319166001600160a01b039091161790555061106a9050565b6040810151600080546001600160a01b0319166001600160a01b039092169190911790555b8060c001516001600160801b031683602001516001600160801b0316146110b05760c0810151600480546001600160801b0319166001600160801b039092169190911790555b8a1561110057608081015160015560a08101516001600160801b0316156110fb5760a0810151600380546001600160801b031981166001600160801b03918216909301169190911790555b611146565b608081015160025560a08101516001600160801b0316156111465760a0810151600380546001600160801b03808216600160801b92839004821690940116029190911790555b8115158b15151461115f57602081015181518b0361116c565b80600001518a0381602001515b90965094508a156113cb5760008512156111ae576111ae7f00000000000000000000000000000000000000000000000000000000000000008d87600003613bbd565b60006111b8613d0b565b9050336001600160a01b031663fa461e3388888c8c6040518563ffffffff1660e01b815260040180858152602001848152602001806020018281038252848482818152602001925080828437600081840152601f19601f82011690508083019250505095505050505050600060405180830381600087803b15801561123c57600080fd5b505af1158015611250573d6000803e3d6000fd5b50506040805160208101859052818152600e818301526d62616c616e6365304265666f726560901b606082015290517f9e1ffd87d0ae2636237c89f32a021f5ad155742322d40797c7844a13cccb58f09350908190036080019150a17f9e1ffd87d0ae2636237c89f32a021f5ad155742322d40797c7844a13cccb58f06112d78289613e44565b6040805160208101929092528082526019828201527f62616c616e6365304265666f7265202b20616d6f756e742030000000000000006060830152519081900360800190a17f9e1ffd87d0ae2636237c89f32a021f5ad155742322d40797c7844a13cccb58f0611345613d0b565b604080516020810192909252808252600d828201526c3130b630b731b29820b33a32b960991b6060830152519081900360800190a1611382613d0b565b61138c8289613e44565b11156113c5576040805162461bcd60e51b815260206004820152600360248201526249494160e81b604482015290519081900360640190fd5b506114f5565b6000861215611402576114027f00000000000000000000000000000000000000000000000000000000000000008d88600003613bbd565b600061140c613e54565b9050336001600160a01b031663fa461e3388888c8c6040518563ffffffff1660e01b815260040180858152602001848152602001806020018281038252848482818152602001925080828437600081840152601f19601f82011690508083019250505095505050505050600060405180830381600087803b15801561149057600080fd5b505af11580156114a4573d6000803e3d6000fd5b505050506114b0613e54565b6114ba8288613e44565b11156114f3576040805162461bcd60e51b815260206004820152600360248201526249494160e81b604482015290519081900360640190fd5b505b60408082015160c083015160608085015184518b8152602081018b90526001600160a01b03948516818701526001600160801b039093169183019190915260020b60808201529151908e169133917fc42079f94a6350d7e6235f29174924f928cc2ac818eb64fed8004e115fbcca679181900360a00190a350506000805460ff60f01b1916600160f01b17905550919890975095505050505050565b6004546001600160801b031681565b6003546001600160801b0380821691600160801b90041682565b60088161ffff81106115cb57600080fd5b015463ffffffff81169150600160201b810460060b90600160581b81046001600160a01b031690600160f81b900460ff1684565b600054600160f01b900460ff16611643576040805162461bcd60e51b81526020600482015260036024820152624c4f4b60e81b604482015290519081900360640190fd5b6000805460ff60f01b19169055611658612c6d565b60008054600160d81b900461ffff169061167460088385613eec565b6000805461ffff808416600160d81b810261ffff60d81b19909316929092179092559192508316146116e1576040805161ffff80851682528316602082015281517fac49e518f90a358f652e4400164f05a5d8f7e35e7747279bc3a93dbf584e125a929181900390910190a15b50506000805460ff60f01b1916600160f01b17905550565b6000546001600160a01b03811690600160a01b810460020b9061ffff600160b81b8204811691600160c81b8104821691600160d81b8204169060ff600160e81b8204811691600160f01b90041687565b600080548190600160f01b900460ff16611790576040805162461bcd60e51b81526020600482015260036024820152624c4f4b60e81b604482015290519081900360640190fd5b6000805460ff60f01b191690556001600160801b0385166117b057600080fd5b6000806117fe60405180608001604052808c6001600160a01b031681526020018b60020b81526020018a60020b81526020016117f48a6001600160801b0316613f8f565b600f0b9052613fa0565b925092505081935080925060008060008611156118205761181d613d0b565b91505b84156118315761182e613e54565b90505b336001600160a01b031663d348799787878b8b6040518563ffffffff1660e01b815260040180858152602001848152602001806020018281038252848482818152602001925080828437600081840152601f19601f82011690508083019250505095505050505050600060405180830381600087803b1580156118b357600080fd5b505af11580156118c7573d6000803e3d6000fd5b50505050600086111561191e576118dc613d0b565b6118e68388613e44565b111561191e576040805162461bcd60e51b815260206004820152600260248201526104d360f41b604482015290519081900360640190fd5b841561196e5761192c613e54565b6119368287613e44565b111561196e576040805162461bcd60e51b81526020600482015260026024820152614d3160f01b604482015290519081900360640190fd5b8960020b8b60020b8d6001600160a01b03167f7a53080ba414158be7ec69b987b5fb7d07dee101fe85488f0853ae16239d0bde338d8b8b60405180856001600160a01b03168152602001846001600160801b0316815260200183815260200182815260200194505050505060405180910390a450506000805460ff60f01b1916600160f01b17905550919890975095505050505050565b60025481565b600054600160f01b900460ff16611a4f576040805162461bcd60e51b81526020600482015260036024820152624c4f4b60e81b604482015290519081900360640190fd5b6000805460ff60f01b19169055611a64612c6d565b6004546001600160801b031680611aa6576040805162461bcd60e51b81526020600482015260016024820152601360fa1b604482015290519081900360640190fd5b6000611adb867f000000000000000000000000000000000000000000000000000000000000000062ffffff16620f42406141e0565b90506000611b12867f000000000000000000000000000000000000000000000000000000000000000062ffffff16620f42406141e0565b90506000611b1e613d0b565b90506000611b2a613e54565b90508815611b5d57611b5d7f00000000000000000000000000000000000000000000000000000000000000008b8b613bbd565b8715611b8e57611b8e7f00000000000000000000000000000000000000000000000000000000000000008b8a613bbd565b336001600160a01b031663e9cbafb085858a8a6040518563ffffffff1660e01b815260040180858152602001848152602001806020018281038252848482818152602001925080828437600081840152601f19601f82011690508083019250505095505050505050600060405180830381600087803b158015611c1057600080fd5b505af1158015611c24573d6000803e3d6000fd5b505050506000611c32613d0b565b90506000611c3e613e54565b905081611c4b8588613e44565b1115611c83576040805162461bcd60e51b8152602060048201526002602482015261046360f41b604482015290519081900360640190fd5b80611c8e8487613e44565b1115611cc6576040805162461bcd60e51b8152602060048201526002602482015261463160f01b604482015290519081900360640190fd5b8382038382038115611d555760008054600160e81b9004600f16908115611cf9578160ff168481611cf357fe5b04611cfc565b60005b90506001600160801b03811615611d2f57600380546001600160801b038082168401166001600160801b03199091161790555b611d49818503600160801b8d6001600160801b0316613355565b60018054909101905550505b8015611de05760008054600160e81b900460041c600f16908115611d85578160ff168381611d7f57fe5b04611d88565b60005b90506001600160801b03811615611dba57600380546001600160801b03600160801b8083048216850182160291161790555b611dd4818403600160801b8d6001600160801b0316613355565b60028054909101905550505b8d6001600160a01b0316336001600160a01b03167fbdbdb71d7860376ba52b25a5028beea23581364a40522f6bcfb86bb1f2dca6338f8f86866040518085815260200184815260200183815260200182815260200194505050505060405180910390a350506000805460ff60f01b1916600160f01b179055505050505050505050505050565b600080548190600160f01b900460ff16611ead576040805162461bcd60e51b81526020600482015260036024820152624c4f4b60e81b604482015290519081900360640190fd5b6000805460ff60f01b19168155611ec7600733898961421a565b60038101549091506001600160801b0390811690861611611ee85784611ef7565b60038101546001600160801b03165b60038201549093506001600160801b03600160801b909104811690851611611f1f5783611f35565b6003810154600160801b90046001600160801b03165b91506001600160801b03831615611f9a576003810180546001600160801b031981166001600160801b03918216869003821617909155611f9a907f0000000000000000000000000000000000000000000000000000000000000000908a908616613bbd565b6001600160801b03821615612000576003810180546001600160801b03600160801b808304821686900382160291811691909117909155612000907f0000000000000000000000000000000000000000000000000000000000000000908a908516613bbd565b604080516001600160a01b038a1681526001600160801b0380861660208301528416818301529051600288810b92908a900b9133917f70935338e69775456a85ddef226c395fb668b63fa0115f5f20610b388e6ca9c0919081900360600190a4506000805460ff60f01b1916600160f01b17905590969095509350505050565b60076020526000908152604090208054600182015460028301546003909301546001600160801b0392831693919281811691600160801b90041685565b60066020526000908152604090205481565b7f000000000000000000000000000000000000000000000000000000000000000081565b600054600160f01b900460ff16612137576040805162461bcd60e51b81526020600482015260036024820152624c4f4b60e81b604482015290519081900360640190fd5b6000805460ff60f01b1916905560408051638da5cb5b60e01b815290516001600160a01b037f00000000000000000000000000000000000000000000000000000000000000001691638da5cb5b916004808301926020929190829003018186803b1580156121a457600080fd5b505afa1580156121b8573d6000803e3d6000fd5b505050506040513d60208110156121ce57600080fd5b50516001600160a01b031633146121e457600080fd5b60ff82161580612207575060048260ff16101580156122075750600a8260ff1611155b8015612231575060ff81161580612231575060048160ff16101580156122315750600a8160ff1611155b61223a57600080fd5b60008054610ff0600484901b16840160ff908116600160e81b90810260ff60e81b19841617909355919004167f973d8d92bb299f4af6ce49b52a8adb85ae46b9f214c4c4fc06ac77401237b1336010826040805160ff9390920683168252600f600486901c16602083015286831682820152918516606082015290519081900360800190a150506000805460ff60f01b1916600160f01b17905550565b600080548190600160f01b900460ff1661231e576040805162461bcd60e51b81526020600482015260036024820152624c4f4b60e81b604482015290519081900360640190fd5b6000805460ff60f01b1916905560408051638da5cb5b60e01b815290516001600160a01b037f00000000000000000000000000000000000000000000000000000000000000001691638da5cb5b916004808301926020929190829003018186803b15801561238b57600080fd5b505afa15801561239f573d6000803e3d6000fd5b505050506040513d60208110156123b557600080fd5b50516001600160a01b031633146123cb57600080fd5b6003546001600160801b03908116908516116123e757836123f4565b6003546001600160801b03165b6003549092506001600160801b03600160801b90910481169084161161241a578261242e565b600354600160801b90046001600160801b03165b90506001600160801b038216156124af576003546001600160801b038381169116141561245d57600019909101905b600380546001600160801b031981166001600160801b039182168590038216179091556124af907f00000000000000000000000000000000000000000000000000000000000000009087908516613bbd565b6001600160801b03811615612535576003546001600160801b03828116600160801b9092041614156124e057600019015b600380546001600160801b03600160801b808304821685900382160291811691909117909155612535907f00000000000000000000000000000000000000000000000000000000000000009087908416613bbd565b604080516001600160801b0380851682528316602082015281516001600160a01b0388169233927f596b573906218d3411850b26a6b437d6c4522fdb43d2d2386263f86d50b8b151929081900390910190a36000805460ff60f01b1916600160f01b1790559094909350915050565b6060806125af612c6d565b6126266125ba612ca4565b858580806020026020016040519081016040528093929190818152602001838360200280828437600092018290525054600454600896959450600160a01b820460020b935061ffff600160b81b8304811693506001600160801b0390911691600160c81b90041661427e565b915091509250929050565b600080548190600160f01b900460ff16612678576040805162461bcd60e51b81526020600482015260036024820152624c4f4b60e81b604482015290519081900360640190fd5b6000805460ff60f01b1916815560408051608081018252338152600288810b602083015287900b91810191909152819081906126d190606081016126c46001600160801b038a16613f8f565b600003600f0b9052613fa0565b92509250925081600003945080600003935060008511806126f25750600084115b15612731576003830180546001600160801b038082168089018216600160801b93849004831689019092169092029091176001600160801b0319161790555b604080516001600160801b0388168152602081018790528082018690529051600289810b92908b900b9133917f0c396cd989a39f4459b5fa1aed6a9a8dcdbc45908acfd67e028cd568da98982c919081900360600190a450506000805460ff60f01b1916600160f01b179055509094909350915050565b60008060006127b5612c6d565b6127bf85856143d8565b600285810b810b60009081526005602052604080822087840b90930b825281206003830154600681900b93600160381b82046001600160a01b0316928492600160d81b810463ffffffff169284929091600160f81b900460ff168061282357600080fd5b6003820154600681900b9850600160381b81046001600160a01b03169650600160d81b810463ffffffff169450600160f81b900460ff168061286457600080fd5b50506040805160e0810182526000546001600160a01b0381168252600160a01b8104600290810b810b810b6020840181905261ffff600160b81b8404811695850195909552600160c81b830485166060850152600160d81b8304909416608084015260ff600160e81b8304811660a0850152600160f01b909204909116151560c08301529093508e810b91900b1215905061290d57509390940396509003935090039050612990565b8a60020b816020015160020b1215612981576000612929612ca4565b602083015160408401516004546060860151939450600093849361295f936008938893879392916001600160801b031690613405565b9a9003989098039b505094909603929092039650909103039250612990915050565b50949093039650039350900390505b9250925092565b7f000000000000000000000000000000000000000000000000000000000000000081565b7f000000000000000000000000000000000000000000000000000000000000000081565b7f000000000000000000000000000000000000000000000000000000000000000081565b7f000000000000000000000000000000000000000000000000000000000000000081565b60015481565b60056020526000908152604090208054600182015460028301546003909301546001600160801b03831693600160801b909304600f0b9290600681900b90600160381b81046001600160a01b031690600160d81b810463ffffffff1690600160f81b900460ff1688565b6000546001600160a01b031615612ada576040805162461bcd60e51b8152602060048201526002602482015261414960f01b604482015290519081900360640190fd5b6000612ae582613707565b9050600080612afd612af5612ca4565b6008906144a1565b6040805160e0810182526001600160a01b038816808252600288810b6020808501829052600085870181905261ffff898116606088018190529089166080880181905260a08801839052600160c0909801979097528154600160f01b6001600160a01b0319909116871762ffffff60a01b1916600160a01b62ffffff9787900b97909716969096029590951763ffffffff60b81b1916600160c81b9091021761ffff60d81b1916600160d81b9096029590951761ffff60e81b191692909217909355835191825281019190915281519395509193507f98636036cb66a9c19a37435efc1e90142190214e8abeb821bdba3f2990dd4c9592918290030190a150505050565b60008082600281900b620d89e71981612c1657fe5b05029050600083600281900b620d89e881612c2d57fe5b0502905060008460020b83830360020b81612c4457fe5b0560010190508062ffffff166001600160801b03801681612c6157fe5b0493505050505b919050565b306001600160a01b037f00000000000000000000000000000000000000000000000000000000000000001614612ca257600080fd5b565b4290565b60008060008460020b8660020b81612cbc57fe5b05905060008660020b128015612ce357508460020b8660020b81612cdc57fe5b0760020b15155b15612ced57600019015b8315612d6257600080612cff836144ed565b600182810b810b600090815260208d9052604090205460ff83169190911b80016000190190811680151597509294509092509085612d4457888360ff16860302612d57565b88612d4e826144ff565b840360ff168603025b965050505050612de0565b600080612d71836001016144ed565b91509150600060018260ff166001901b031990506000818b60008660010b60010b8152602001908152602001600020541690508060001415955085612dc357888360ff0360ff16866001010102612dd9565b8883612dce8361459e565b0360ff168660010101025b9650505050505b5094509492505050565b60008060008360020b12612e01578260020b612e09565b8260020b6000035b9050620d89e8811115612e47576040805162461bcd60e51b81526020600482015260016024820152601560fa1b604482015290519081900360640190fd5b600060018216612e5b57600160801b612e6d565b6ffffcb933bd6fad37aa2d162d1a5940015b70ffffffffffffffffffffffffffffffffff1690506002821615612ea1576ffff97272373d413259a46990580e213a0260801c5b6004821615612ec0576ffff2e50f5f656932ef12357cf3c7fdcc0260801c5b6008821615612edf576fffe5caca7e10e4e61c3624eaa0941cd00260801c5b6010821615612efe576fffcb9843d60f6159c9db58835c9266440260801c5b6020821615612f1d576fff973b41fa98c081472e6896dfb254c00260801c5b6040821615612f3c576fff2ea16466c96a3843ec78b326b528610260801c5b6080821615612f5b576ffe5dee046a99a2a811c461f1969c30530260801c5b610100821615612f7b576ffcbe86c7900a88aedcffc83b479aa3a40260801c5b610200821615612f9b576ff987a7253ac413176f2b074cf7815e540260801c5b610400821615612fbb576ff3392b0822b70005940c7a398e4b70f30260801c5b610800821615612fdb576fe7159475a2c29b7443b29c7fa6e889d90260801c5b611000821615612ffb576fd097f3bdfd2022b8845ad8f792aa58250260801c5b61200082161561301b576fa9f746462d870fdf8a65dc1f90e061e50260801c5b61400082161561303b576f70d869a156d2a1b890bb3df62baf32f70260801c5b61800082161561305b576f31be135f97d08fd981231505542fcfa60260801c5b6201000082161561307c576f09aa508b5b7a84e1c677de54f3e99bc90260801c5b6202000082161561309c576e5d6af8dedb81196699c329225ee6040260801c5b620400008216156130bb576d2216e584f5fa1ea926041bedfe980260801c5b620800008216156130d8576b048a170391f7dc42444e8fa20260801c5b60008460020b13156130f35780600019816130ef57fe5b0490505b600160201b810615613106576001613109565b60005b60ff16602082901c0192505050919050565b60008080806001600160a01b03808916908a1610158187128015906131a05760006131548989620f42400362ffffff16620f4240613355565b90508261316d576131688c8c8c6001614688565b61317a565b61317a8b8d8c6001614703565b955085811061318b578a965061319a565b6131978c8b83866147ae565b96505b506131ea565b816131b7576131b28b8b8b6000614703565b6131c4565b6131c48a8c8b6000614688565b93508388600003106131d8578995506131ea565b6131e78b8a8a600003856147fa565b95505b6001600160a01b038a811690871614821561324d578080156132095750815b61321f5761321a878d8c6001614703565b613221565b855b955080801561322e575081155b6132445761323f878d8c6000614688565b613246565b845b9450613297565b8080156132575750815b61326d576132688c888c6001614688565b61326f565b855b955080801561327c575081155b6132925761328d8c888c6000614703565b613294565b845b94505b811580156132a757508860000385115b156132b3578860000394505b8180156132d257508a6001600160a01b0316876001600160a01b031614155b156132e15785890393506132fe565b6132fb868962ffffff168a620f42400362ffffff166141e0565b93505b50505095509550955095915050565b6000600160ff1b821061331f57600080fd5b5090565b8082038281131560008312151461333957600080fd5b92915050565b8181018281121560008312151461333957600080fd5b600080806000198587098686029250828110908390030390508061338b576000841161338057600080fd5b5082900490506133fe565b80841161339757600080fd5b6000848688096000868103871696879004966002600389028118808a02820302808a02820302808a02820302808a02820302808a02820302808a02909103029181900381900460010186841190950394909402919094039290920491909117919091029150505b9392505050565b60008063ffffffff87166134ab576000898661ffff1661ffff811061342657fe5b60408051608081018252919092015463ffffffff808216808452600160201b8304600690810b810b900b6020850152600160581b83046001600160a01b031694840194909452600160f81b90910460ff16151560608301529092508a161461349757613494818a8988614846565b90505b80602001518160400151925092505061358b565b8688036000806134c08c8c858c8c8c8c6148e9565b91509150816000015163ffffffff168363ffffffff1614156134f257816020015182604001519450945050505061358b565b805163ffffffff8481169116141561351a57806020015181604001519450945050505061358b565b8151815160208085015190840151918390039286039163ffffffff80841692908516910360060b8161354857fe5b05028460200151018263ffffffff168263ffffffff1686604001518660400151036001600160a01b0316028161357a57fe5b048560400151019650965050505050505b97509795505050505050565b600295860b860b60009081526020979097526040909620600181018054909503909455938301805490920390915560038201805463ffffffff600160d81b6001600160a01b03600160381b808504821690960316909402600160381b600160d81b031990921691909117600681810b90960390950b66ffffffffffffff1666ffffffffffffff199095169490941782810485169095039093160263ffffffff60d81b1990931692909217905554600160801b9004600f0b90565b60008082600f0b12156136b657826001600160801b03168260000384039150816001600160801b0316106136b1576040805162461bcd60e51b81526020600482015260026024820152614c5360f01b604482015290519081900360640190fd5b613339565b826001600160801b03168284019150816001600160801b03161015613339576040805162461bcd60e51b81526020600482015260026024820152614c4160f01b604482015290519081900360640190fd5b60006401000276a36001600160a01b03831610801590613743575073fffd8963efd1fc6a506488495d951d5263988d266001600160a01b038316105b613778576040805162461bcd60e51b81526020600482015260016024820152602960f91b604482015290519081900360640190fd5b640100000000600160c01b03602083901b166001600160801b03811160071b81811c67ffffffffffffffff811160061b90811c63ffffffff811160051b90811c61ffff811160041b90811c60ff8111600390811b91821c600f811160021b90811c918211600190811b92831c9790881196179094179092171790911717176080811061380c57607f810383901c9150613816565b80607f0383901b91505b908002607f81811c60ff83811c9190911c800280831c81831c1c800280841c81841c1c800280851c81851c1c800280861c81861c1c800280871c81871c1c800280881c81881c1c800280891c81891c1c8002808a1c818a1c1c8002808b1c818b1c1c8002808c1c818c1c1c8002808d1c818d1c1c8002808e1c9c81901c9c909c1c80029c8d901c9e9d607f198f0160401b60c09190911c678000000000000000161760c19b909b1c674000000000000000169a909a1760c29990991c672000000000000000169890981760c39790971c671000000000000000169690961760c49590951c670800000000000000169490941760c59390931c670400000000000000169290921760c69190911c670200000000000000161760c79190911c600160381b161760c89190911c6680000000000000161760c99190911c6640000000000000161760ca9190911c6620000000000000161760cb9190911c6610000000000000161760cc9190911c6608000000000000161760cd9190911c66040000000000001617693627a301d71055774c8581026f028f6481ab7f045a5af012a19d003aa9198101608090811d906fdb2df09e81959a81455e260799a0632f8301901d600281810b9083900b14613a1357886001600160a01b03166139f782612dea565b6001600160a01b03161115613a0c5781613a0e565b805b613a15565b815b9998505050505050505050565b6000806000898961ffff1661ffff8110613a3857fe5b60408051608081018252919092015463ffffffff808216808452600160201b8304600690810b810b900b6020850152600160581b83046001600160a01b031694840194909452600160f81b90910460ff161515606083015290925089161415613aa7578885925092505061358b565b8461ffff168461ffff16118015613ac857506001850361ffff168961ffff16145b15613ad557839150613ad9565b8491505b8161ffff168960010161ffff1681613aed57fe5b069250613afc81898989614846565b8a8461ffff1661ffff8110613b0d57fe5b825191018054602084015160408501516060909501511515600160f81b026001600160f81b036001600160a01b03909616600160581b027fff0000000000000000000000000000000000000000ffffffffffffffffffffff60069390930b66ffffffffffffff16600160201b026affffffffffffff000000001963ffffffff90971663ffffffff199095169490941795909516929092171692909217929092161790555097509795505050505050565b604080516001600160a01b038481166024830152604480830185905283518084039091018152606490920183526020820180516001600160e01b031663a9059cbb60e01b1781529251825160009485949389169392918291908083835b60208310613c395780518252601f199092019160209182019101613c1a565b6001836020036101000a0380198251168184511680821785525050505050509050019150506000604051808303816000865af19150503d8060008114613c9b576040519150601f19603f3d011682016040523d82523d6000602084013e613ca0565b606091505b5091509150818015613cce575080511580613cce5750808060200190516020811015613ccb57600080fd5b50515b613d04576040805162461bcd60e51b81526020600482015260026024820152612a2360f11b604482015290519081900360640190fd5b5050505050565b604080513060248083019190915282518083039091018152604490910182526020810180516001600160e01b03166370a0823160e01b17815291518151600093849384936001600160a01b037f00000000000000000000000000000000000000000000000000000000000000001693919290918291908083835b60208310613da45780518252601f199092019160209182019101613d85565b6001836020036101000a038019825116818451168082178552505050505050905001915050600060405180830381855afa9150503d8060008114613e04576040519150601f19603f3d011682016040523d82523d6000602084013e613e09565b606091505b5091509150818015613e1d57506020815110155b613e2657600080fd5b808060200190516020811015613e3b57600080fd5b50519250505090565b8082018281101561333957600080fd5b604080513060248083019190915282518083039091018152604490910182526020810180516001600160e01b03166370a0823160e01b17815291518151600093849384936001600160a01b037f000000000000000000000000000000000000000000000000000000000000000016939192909182919080838360208310613da45780518252601f199092019160209182019101613d85565b6000808361ffff1611613f2a576040805162461bcd60e51b81526020600482015260016024820152604960f81b604482015290519081900360640190fd5b8261ffff168261ffff1611613f405750816133fe565b825b8261ffff168161ffff161015613f86576001858261ffff1661ffff8110613f6557fe5b01805463ffffffff191663ffffffff92909216919091179055600101613f42565b50909392505050565b80600f81900b8114612c6857600080fd5b6000806000613fad612c6d565b613fbf846020015185604001516143d8565b6040805160e0810182526000546001600160a01b0381168252600160a01b8104600290810b810b900b602080840182905261ffff600160b81b8404811685870152600160c81b84048116606080870191909152600160d81b8504909116608086015260ff600160e81b8504811660a0870152600160f01b909404909316151560c0850152885190890151948901519289015193946140639491939092909190614ae3565b93508460600151600f0b6000146141d857846020015160020b816020015160020b12156140b8576140b161409a8660200151612dea565b6140a78760400151612dea565b8760600151614c98565b92506141d8565b846040015160020b816020015160020b12156141ae5760045460408201516001600160801b039091169061410a906140ee612ca4565b6020850151606086015160808701516008949392918791613a22565b6000805461ffff60c81b1916600160c81b61ffff938416021761ffff60b81b1916600160b81b93909216929092021790558151604087015161415a919061415090612dea565b8860600151614c98565b935061417861416c8760200151612dea565b83516060890151614cdc565b9250614188818760600151613651565b600480546001600160801b0319166001600160801b0392909216919091179055506141d8565b6141d56141be8660200151612dea565b6141cb8760400151612dea565b8760600151614cdc565b91505b509193909250565b60006141ed848484613355565b9050600082806141f957fe5b84860911156133fe57600019811061421057600080fd5b6001019392505050565b6040805160609490941b6bffffffffffffffffffffffff1916602080860191909152600293840b60e890811b60348701529290930b90911b60378401528051808403601a018152603a90930181528251928201929092206000908152929052902090565b60608060008361ffff16116142be576040805162461bcd60e51b81526020600482015260016024820152604960f81b604482015290519081900360640190fd5b865167ffffffffffffffff811180156142d657600080fd5b50604051908082528060200260200182016040528015614300578160200160208202803683370190505b509150865167ffffffffffffffff8111801561431b57600080fd5b50604051908082528060200260200182016040528015614345578160200160208202803683370190505b50905060005b87518110156143cb576143768a8a8a848151811061436557fe5b60200260200101518a8a8a8a613405565b84838151811061438257fe5b6020026020010184848151811061439557fe5b60200260200101826001600160a01b03166001600160a01b03168152508260060b60060b8152505050808060010191505061434b565b5097509795505050505050565b8060020b8260020b12614418576040805162461bcd60e51b8152602060048201526003602482015262544c5560e81b604482015290519081900360640190fd5b620d89e719600283900b121561445b576040805162461bcd60e51b8152602060048201526003602482015262544c4d60e81b604482015290519081900360640190fd5b620d89e8600282900b131561449d576040805162461bcd60e51b815260206004820152600360248201526254554d60e81b604482015290519081900360640190fd5b5050565b6040805160808101825263ffffffff9283168082526000602083018190529282019290925260016060909101819052835463ffffffff1916909117909116600160f81b17909155908190565b60020b600881901d9161010090910790565b600080821161450d57600080fd5b600160801b821061452057608091821c91015b68010000000000000000821061453857604091821c91015b600160201b821061454b57602091821c91015b62010000821061455d57601091821c91015b610100821061456e57600891821c91015b6010821061457e57600491821c91015b6004821061458e57600291821c91015b60028210612c6857600101919050565b60008082116145ac57600080fd5b5060ff6001600160801b038216156145c757607f19016145cf565b608082901c91505b67ffffffffffffffff8216156145e857603f19016145f0565b604082901c91505b63ffffffff82161561460557601f190161460d565b602082901c91505b61ffff82161561462057600f1901614628565b601082901c91505b60ff82161561463a5760071901614642565b600882901c91505b600f821615614654576003190161465c565b600482901c91505b600382161561466e5760011901614676565b600282901c91505b6001821615612c685760001901919050565b6000836001600160a01b0316856001600160a01b031611156146a8579293925b816146d5576146d0836001600160801b03168686036001600160a01b0316600160601b613355565b6146f8565b6146f8836001600160801b03168686036001600160a01b0316600160601b6141e0565b90505b949350505050565b6000836001600160a01b0316856001600160a01b03161115614723579293925b600160601b600160e01b03606084901b166001600160a01b03868603811690871661474d57600080fd5b8361477d57866001600160a01b03166147708383896001600160a01b0316613355565b8161477757fe5b046147a3565b6147a36147948383896001600160a01b03166141e0565b886001600160a01b0316614d0b565b979650505050505050565b600080856001600160a01b0316116147c557600080fd5b6000846001600160801b0316116147db57600080fd5b816147ed576146d08585856001614d16565b6146f88585856001614df7565b600080856001600160a01b03161161481157600080fd5b6000846001600160801b03161161482757600080fd5b81614839576146d08585856000614df7565b6146f88585856000614d16565b61484e615617565b600085600001518503905060405180608001604052808663ffffffff1681526020018263ffffffff168660020b0288602001510160060b81526020016000856001600160801b0316116148a25760016148a4565b845b6001600160801b031663ffffffff60801b608085901b16816148c257fe5b048860400151016001600160a01b0316815260200160011515815250915050949350505050565b6148f1615617565b6148f9615617565b888561ffff1661ffff811061490a57fe5b60408051608081018252919092015463ffffffff8116808352600160201b8204600690810b810b900b6020840152600160581b82046001600160a01b031693830193909352600160f81b900460ff1615156060820152925061496e90899089614eda565b156149a6578663ffffffff16826000015163ffffffff1614156149905761358b565b8161499d83898988614846565b9150915061358b565b888361ffff168660010161ffff16816149bb57fe5b0661ffff1661ffff81106149cb57fe5b60408051608081018252929091015463ffffffff81168352600160201b8104600690810b810b900b60208401526001600160a01b03600160581b8204169183019190915260ff600160f81b90910416151560608201819052909250614a8057604080516080810182528a5463ffffffff81168252600160201b8104600690810b810b900b6020830152600160581b81046001600160a01b031692820192909252600160f81b90910460ff161515606082015291505b614a8f88836000015189614eda565b614ac6576040805162461bcd60e51b815260206004820152600360248201526213d31160ea1b604482015290519081900360640190fd5b614ad38989898887614f9b565b9150915097509795505050505050565b6000614af2600787878761421a565b60015460025491925090600080600f87900b15614c38576000614b13612ca4565b6000805460045492935090918291614b5d9160089186918591600160a01b810460020b9161ffff600160b81b83048116926001600160801b0390921691600160c81b900416613405565b9092509050614b9760058d8b8d8b8b87898b60007f0000000000000000000000000000000000000000000000000000000000000000615139565b9450614bce60058c8b8d8b8b87898b60017f0000000000000000000000000000000000000000000000000000000000000000615139565b93508415614c0257614c0260068d7f00000000000000000000000000000000000000000000000000000000000000006152f2565b8315614c3457614c3460068c7f00000000000000000000000000000000000000000000000000000000000000006152f2565b5050505b600080614c4a60058c8c8b8a8a615358565b9092509050614c5b878a8484615404565b600089600f0b1215614c89578315614c7857614c7860058c615599565b8215614c8957614c8960058b615599565b50505050505095945050505050565b60008082600f0b12614cbe57614cb9614cb48585856001614703565b61330d565b6146fb565b614cd1614cb48585856000036000614703565b600003949350505050565b60008082600f0b12614cf857614cb9614cb48585856001614688565b614cd1614cb48585856000036000614688565b808204910615150190565b60008115614d895760006001600160a01b03841115614d4c57614d4784600160601b876001600160801b0316613355565b614d64565b6001600160801b038516606085901b81614d6257fe5b045b9050614d81614d7c6001600160a01b03881683613e44565b6155c5565b9150506146fb565b60006001600160a01b03841115614db757614db284600160601b876001600160801b03166141e0565b614dce565b614dce606085901b6001600160801b038716614d0b565b905080866001600160a01b031611614de557600080fd5b6001600160a01b0386160390506146fb565b600082614e055750836146fb565b600160601b600160e01b03606085901b168215614e93576001600160a01b03861684810290858281614e3357fe5b041415614e6457818101828110614e6257614e5883896001600160a01b0316836141e0565b93505050506146fb565b505b614e8a82614e85878a6001600160a01b03168681614e7e57fe5b0490613e44565b614d0b565b925050506146fb565b6001600160a01b03861684810290858281614eaa57fe5b04148015614eb757508082115b614ec057600080fd5b808203614e58614d7c846001600160a01b038b16846141e0565b60008363ffffffff168363ffffffff1611158015614f0457508363ffffffff168263ffffffff1611155b15614f20578163ffffffff168363ffffffff16111590506133fe565b60008463ffffffff168463ffffffff1611614f47578363ffffffff16600160201b01614f4f565b8363ffffffff165b64ffffffffff16905060008563ffffffff168463ffffffff1611614f7f578363ffffffff16600160201b01614f87565b8363ffffffff165b64ffffffffff169091111595945050505050565b614fa3615617565b614fab615617565b60008361ffff168560010161ffff1681614fc157fe5b0661ffff169050600060018561ffff16830103905060005b506002818301048961ffff87168281614fee57fe5b0661ffff8110614ffa57fe5b60408051608081018252929091015463ffffffff81168352600160201b8104600690810b810b900b60208401526001600160a01b03600160581b8204169183019190915260ff600160f81b9091041615156060820181905290955061506457806001019250614fd9565b898661ffff16826001018161507557fe5b0661ffff811061508157fe5b60408051608081018252929091015463ffffffff81168352600160201b8104600690810b810b900b60208401526001600160a01b03600160581b8204169183019190915260ff600160f81b909104161515606082015285519094506000906150eb908b908b614eda565b905080801561510457506151048a8a8760000151614eda565b1561510f575061512c565b8061511f57600182039250615126565b8160010193505b50614fd9565b5050509550959350505050565b60028a810b900b600090815260208c90526040812080546001600160801b031682615164828d613651565b9050846001600160801b0316816001600160801b031611156151b2576040805162461bcd60e51b81526020600482015260026024820152614c4f60f01b604482015290519081900360640190fd5b6001600160801b038281161590821615811415945015615257578c60020b8e60020b1361523f57600183018b9055600283018a9055600383018054600160381b600160d81b031916600160381b6001600160a01b038c16021766ffffffffffffff191666ffffffffffffff60068b900b161763ffffffff60d81b1916600160d81b63ffffffff8a16021790555b6003830180546001600160f81b0316600160f81b1790555b82546001600160801b0319166001600160801b038216178355856152a057825461529b9061529690600160801b9004600f90810b810b908f900b61333f565b613f8f565b6152c1565b82546152c19061529690600160801b9004600f90810b810b908f900b613323565b8354600f9190910b6001600160801b03908116600160801b0291161790925550909c9b505050505050505050505050565b8060020b8260020b8161530157fe5b0760020b1561530f57600080fd5b60008061532a8360020b8560020b8161532457fe5b056144ed565b600191820b820b60009081526020979097526040909620805460ff9097169190911b90951890945550505050565b600285810b80820b60009081526020899052604080822088850b850b83529082209193849391929184918291908a900b1261539e575050600182015460028301546153b1565b8360010154880391508360020154870390505b6000808b60020b8b60020b12156153d3575050600183015460028401546153e6565b84600101548a0391508460020154890390505b92909803979097039b96909503949094039850939650505050505050565b6040805160a08101825285546001600160801b0390811682526001870154602083015260028701549282019290925260038601548083166060830152600160801b900490911660808201526000600f85900b6154a35781516001600160801b031661549b576040805162461bcd60e51b815260206004820152600260248201526104e560f41b604482015290519081900360640190fd5b5080516154b2565b81516154af9086613651565b90505b60006154d68360200151860384600001516001600160801b0316600160801b613355565b905060006154fc8460400151860385600001516001600160801b0316600160801b613355565b905086600f0b6000146155235787546001600160801b0319166001600160801b0384161788555b60018801869055600288018590556001600160801b03821615158061555157506000816001600160801b0316115b1561558f576003880180546001600160801b031981166001600160801b039182168501821617808216600160801b9182900483168501909216021790555b5050505050505050565b600290810b810b6000908152602092909252604082208281556001810183905590810182905560030155565b806001600160a01b0381168114612c6857600080fd5b6040805160e081018252600080825260208201819052918101829052606081018290526080810182905260a0810182905260c081019190915290565b6040805160808101825260008082526020820181905291810182905260608101919091529056fea2646970667358221220f17b59a2e2d4c201832fb8d2b15702a375985d42f9866d50b6d1d1b66ae88f3b64736f6c63430007060033a26469706673582212205bc84759e2a2f1116b0a2ffcba31ff203e2e9a00cdbeb7349d05822e1b73244164736f6c63430007060033c66a3fdf07232cdd185febcc6579d408c241b47ae2f9907d84be655141eeaecc60806040523480156200001157600080fd5b506040516200291f3803806200291f8339810160408190526200003491620000bc565b6000805460018054600a65ffffff0000001990911664012c0000001763ffffffff60301b1916670e100000000000001762ffffff19161790556001600160a01b0319166001600160a01b03929092169190911762ffffff60a01b191660e160a31b1762ffffff60b81b191660e160bb1b176001600160e81b0316600f60e91b179055620000ec565b600060208284031215620000ce578081fd5b81516001600160a01b0381168114620000e5578182fd5b9392505050565b61282380620000fc6000396000f3fe608060405234801561001057600080fd5b50600436106101375760003560e01c8063963f0bb6116100b8578063c433c80a1161007c578063c433c80a1461027c578063d4f9b7a71461028f578063d60a0955146102a2578063e7c7cb91146102aa578063f8806a13146102b2578063fd0679e9146102d257610137565b8063963f0bb61461021d578063ab033ea914610230578063ab24f52614610243578063b0a42a5114610256578063b7ab92e81461026957610137565b80634ed8cf27116100ff5780634ed8cf27146101aa57806357159a2e146101bd5780635aa6e675146101d0578063802036f5146101e55780638df2345e1461020a57610137565b8063051bb8331461013c5780631ca6aede1461015157806326d895451461016f5780633cbff3fe146101845780633d47d22714610197575b600080fd5b61014f61014a3660046120c2565b6102da565b005b61015961036c565b604051610166919061253b565b60405180910390f35b61017761037c565b604051610166919061273a565b61014f61019236600461231b565b61038f565b6101596101a53660046120c2565b610441565b6101596101b83660046120c2565b6105ce565b61014f6101cb366004612260565b6105f9565b6101d861068d565b604051610166919061250d565b6101f86101f33660046120c2565b61069c565b6040516101669695949392919061255d565b61014f61021836600461217e565b610ae5565b61014f61022b366004612353565b610bd2565b61014f61023e3660046120c2565b610e5b565b61014f61025136600461211d565b610f14565b6101596102643660046120e5565b610fe1565b61014f61027736600461231b565b611010565b61014f61028a366004612441565b6110cc565b61014f61029d36600461231b565b611179565b610159611212565b610159611222565b6102c56102c03660046120c2565b611232565b60405161016691906126b0565b6101596112ca565b60006102e5826112da565b905060006102f2836113fc565b50905060008260020b8260020b1361030c57818303610310565b8282035b6001600160a01b038516600090815260026020819052604090912054919250600160301b909104810b810b9082900b13156103665760405162461bcd60e51b815260040161035d90612622565b60405180910390fd5b50505050565b600054600160a01b900460020b81565b600154600160301b900463ffffffff1681565b6000546001600160a01b031633146103b95760405162461bcd60e51b815260040161035d9061263f565b60148160020b12156103dd5760405162461bcd60e51b815260040161035d906125cc565b60018054600283810b62ffffff16630100000090810265ffffff000000198416179093556040517fb32bf5279c25f60e729f297567e5882813fe72a29dec91009962465b6a98a15f93610436930490910b908490612549565b60405180910390a150565b600080829050600080826001600160a01b0316633850c7bd6040518163ffffffff1660e01b815260040160e06040518083038186803b15801561048357600080fd5b505afa158015610497573d6000803e3d6000fd5b505050506040513d601f19601f820116820180604052508101906104bb91906123a6565b5050509350935050506000836001600160a01b031663252c09d78361ffff168560010161ffff16816104e957fe5b066040518263ffffffff1660e01b8152600401610506919061272b565b60806040518083038186803b15801561051e57600080fd5b505afa158015610532573d6000803e3d6000fd5b505050506040513d601f19601f82011682018060405250810190610556919061245d565b5050506001600160a01b0387166000908152600260205260409020549091504282900390600160601b900463ffffffff168061059e5750600154600160301b900463ffffffff165b6105c2888263ffffffff168463ffffffff16116105bb57836105bd565b825b6114f9565b98975050505050505050565b6001600160a01b038116600090815260026020819052604090912054600160481b9004900b5b919050565b6000546001600160a01b031633146106235760405162461bcd60e51b815260040161035d9061263f565b80518251146106445760405162461bcd60e51b815260040161035d906125e8565b60005b82518110156106885761068083828151811061065f57fe5b602002602001015183838151811061067357fe5b6020026020010151610bd2565b600101610647565b505050565b6000546001600160a01b031681565b6000806000806000806000806106b1896113fc565b6001600160a01b038b1660009081526002602081905260409091205492945090925090810b900b158061070857506001600160a01b03891660009081526002602081905260409091205463010000009004810b900b155b156108d4576000805461072590600160b81b900460020b836117f9565b90506040518060c001604052808260020b8152602001610754600060149054906101000a900460020b856117f9565b600290810b825260015463010000008104820b820b602084015260409092019160649190810b8502900b0560020b8152602001600160069054906101000a900463ffffffff1663ffffffff1681526020016000601d9054906101000a900460020b60020b815250600260008c6001600160a01b03166001600160a01b0316815260200190815260200160002060008201518160000160006101000a81548162ffffff021916908360020b62ffffff16021790555060208201518160000160036101000a81548162ffffff021916908360020b62ffffff16021790555060408201518160000160066101000a81548162ffffff021916908360020b62ffffff16021790555060608201518160000160096101000a81548162ffffff021916908360020b62ffffff160217905550608082015181600001600c6101000a81548163ffffffff021916908363ffffffff16021790555060a08201518160000160106101000a81548162ffffff021916908360020b62ffffff160217905550905050505b6001600160a01b038916600090815260026020819052604082208054835462ffffff60d01b1916600160d01b62ffffff6301000000909304850b850b9290921682021780855591549104820b820b90820b90910b1361093f57600054600160d01b900460020b61095e565b6001600160a01b038a16600090815260026020819052604090912054900b5b90508181620d89e719010160020b8360020b13801561098d57508181620d89e719600003030360020b8360020b125b6109a95760405162461bcd60e51b815260040161035d9061265b565b60006109b48b6112da565b905060008160020b8560020b136109cd578482036109d1565b8185035b6001600160a01b038d16600090815260026020819052604090912054919250600160301b909104810b810b9082900b1315610a1e5760405162461bcd60e51b815260040161035d90612622565b6000610a2a86866117f9565b905060008582019050600260008f6001600160a01b03166001600160a01b0316815260200190815260200160002060000160009054906101000a900460020b82039c50600260008f6001600160a01b03166001600160a01b0316815260200190815260200160002060000160009054906101000a900460020b82019b506000601a9054906101000a900460020b82039a508199508098506000601a9054906101000a900460020b810197505050505050505091939550919395565b6000546001600160a01b03163314610b0f5760405162461bcd60e51b815260040161035d9061263f565b8051835114610b1d57600080fd5b8151835114610b2b57600080fd5b60005b835181101561036657818181518110610b4357fe5b602002602001015160036000868481518110610b5b57fe5b60200260200101516001600160a01b03166001600160a01b031681526020019081526020016000206000858481518110610b9157fe5b60209081029190910181015161ffff168252810191909152604001600020805460029290920b62ffffff1662ffffff19909216919091179055600101610b2e565b6000546001600160a01b03163314610bfc5760405162461bcd60e51b815260040161035d9061263f565b6001600160a01b038116600081815260026020818152604092839020835160c081018552905480840b840b840b825263010000008104840b840b840b82840152600160301b8104840b840b840b82860152600160481b8104840b840b840b606083015263ffffffff600160601b8204166080830152600160801b9004830b830b90920b60a0830152855183516334324e9f60e21b815293519294610cfc949193909263d0c93a7c9260048082019391829003018186803b158015610cbf57600080fd5b505afa158015610cd3573d6000803e3d6000fd5b505050506040513d601f19601f82011682018060405250810190610cf79190612337565b611847565b6040805160c0810182528451600290810b8252602080870151820b81840190815287850151830b8486019081526060808a0151850b9086019081526080808b015163ffffffff90811691880191825260a0808d0151880b9089019081526001600160a01b038c16600090815296889052958990209751885495519451935192519651880b62ffffff908116600160801b0262ffffff60801b1998909316600160601b0263ffffffff60601b19948a0b8216600160481b026bffffff00000000000000000019968b0b8316600160301b0268ffffff00000000000019988c0b841663010000000265ffffff0000001995909c0b90931662ffffff199099169890981792909216989098179490941696909617919091169290921791909116171617815590517fe748bf5f6cb4a1bc33a8d0ec9893c62ea767c51450d362551972251729e9cd3f91610e4e918491906126be565b60405180910390a1505050565b6000546001600160a01b03163314610e855760405162461bcd60e51b815260040161035d9061263f565b6001600160a01b038116610eab5760405162461bcd60e51b815260040161035d90612605565b6000546040517f434a2db650703b36c824e745330d6397cdaa9ee2cc891a4938ae853e1c50b68d91610eea916001600160a01b03909116908490612521565b60405180910390a1600080546001600160a01b0319166001600160a01b0392909216919091179055565b6000546001600160a01b03163314610f3e5760405162461bcd60e51b815260040161035d9061263f565b8051825114610f5f5760405162461bcd60e51b815260040161035d906125e8565b60005b825181101561068857818181518110610f7757fe5b602002602001015160026000858481518110610f8f57fe5b6020908102919091018101516001600160a01b03168252810191909152604001600020805460029290920b62ffffff16600160301b0268ffffff00000000000019909216919091179055600101610f62565b6001600160a01b03909116600090815260036020908152604080832061ffff9094168352929052205460020b90565b6000546001600160a01b0316331461103a5760405162461bcd60e51b815260040161035d9061263f565b60008160020b1361105d5760405162461bcd60e51b815260040161035d90612693565b6000546040517f5d57c30988c079327c7a2866b4ec81c1eb83dca7d6ecd954093458c50034c9389161109c91600160a01b90910460020b908490612549565b60405180910390a16000805460029290920b62ffffff16600160a01b0262ffffff60a01b19909216919091179055565b6000546001600160a01b031633146110f65760405162461bcd60e51b815260040161035d9061263f565b60648163ffffffff16101561111d5760405162461bcd60e51b815260040161035d90612677565b6001805463ffffffff838116600160301b90810269ffffffff000000000000198416179093556040517f1c373b0a9b89049c835cfc0851faad1f23dbb7e5bd46cf58eb88da4dd760378b9361043693049190911690849061274b565b6000546001600160a01b031633146111a35760405162461bcd60e51b815260040161035d9061263f565b60008160020b136111c65760405162461bcd60e51b815260040161035d906125ae565b60018054600283810b62ffffff1662ffffff198316179092556040517f6970a7f31fee92e8ced74d8833776ba308b9d4259e72a19b40ea53bdce8c8c489261043692900b908490612549565b600054600160e81b900460020b81565b6001546301000000900460020b81565b61123a611eee565b506001600160a01b0316600090815260026020818152604092839020835160c081018552905480840b840b840b825263010000008104840b840b840b92820192909252600160301b8204830b830b830b93810193909352600160481b8104820b820b820b606084015263ffffffff600160601b8204166080840152600160801b9004810b810b900b60a082015290565b600054600160b81b900460020b81565b600080826001600160a01b0316631a6865026040518163ffffffff1660e01b815260040160206040518083038186803b15801561131657600080fd5b505afa15801561132a573d6000803e3d6000fd5b505050506040513d601f19601f8201168201806040525081019061134e919061237f565b90506001600160801b0381166113ea576000836001600160a01b0316633850c7bd6040518163ffffffff1660e01b815260040160e06040518083038186803b15801561139957600080fd5b505afa1580156113ad573d6000803e3d6000fd5b505050506040513d601f19601f820116820180604052508101906113d191906123a6565b50505050505090506113e28161189d565b9250506113f6565b6113f383610441565b91505b50919050565b600080826001600160a01b0316633850c7bd6040518163ffffffff1660e01b815260040160e06040518083038186803b15801561143857600080fd5b505afa15801561144c573d6000803e3d6000fd5b505050506040513d601f19601f8201168201806040525081019061147091906123a6565b5050604080516334324e9f60e21b815290519497506001600160a01b038916955063d0c93a7c94600480830195506020945090925090829003018186803b1580156114ba57600080fd5b505afa1580156114ce573d6000803e3d6000fd5b505050506040513d601f19601f820116820180604052508101906114f29190612337565b9050915091565b600063ffffffff8216611538576040805162461bcd60e51b8152602060048201526002602482015261042560f41b604482015290519081900360640190fd5b604080516002808252606082018352600092602083019080368337019050509050828160008151811061156757fe5b602002602001019063ffffffff16908163ffffffff168152505060008160018151811061159057fe5b63ffffffff90921660209283029190910182015260405163883bdbfd60e01b8152600481018281528351602483015283516000936001600160a01b0389169363883bdbfd938793909283926044019185820191028083838b5b838110156116015781810151838201526020016115e9565b505050509050019250505060006040518083038186803b15801561162457600080fd5b505afa158015611638573d6000803e3d6000fd5b505050506040513d6000823e601f3d908101601f19168201604090815281101561166157600080fd5b810190808051604051939291908464010000000082111561168157600080fd5b90830190602082018581111561169657600080fd5b82518660208202830111640100000000821117156116b357600080fd5b82525081516020918201928201910280838360005b838110156116e05781810151838201526020016116c8565b505050509050016040526020018051604051939291908464010000000082111561170957600080fd5b90830190602082018581111561171e57600080fd5b825186602082028301116401000000008211171561173b57600080fd5b82525081516020918201928201910280838360005b83811015611768578181015183820152602001611750565b5050505090500160405250505050905060008160008151811061178757fe5b60200260200101518260018151811061179c57fe5b60200260200101510390508463ffffffff168160060b816117b957fe5b05935060008160060b1280156117e357508463ffffffff168160060b816117dc57fe5b0760060b15155b156117f057600019909301925b50505092915050565b6000808260020b8460020b8161180b57fe5b05905060008460020b12801561183257508260020b8460020b8161182b57fe5b0760020b15155b1561183c57600019015b820290505b92915050565b620d89e8600283900b1380159061186e57508060020b8260020b8161186857fe5b0760020b155b801561187d575060008260020b135b6118995760405162461bcd60e51b815260040161035d90612591565b5050565b60006401000276a36001600160a01b038316108015906118d9575073fffd8963efd1fc6a506488495d951d5263988d266001600160a01b038316105b61190e576040805162461bcd60e51b81526020600482015260016024820152602960f91b604482015290519081900360640190fd5b640100000000600160c01b03602083901b166001600160801b03811160071b81811c67ffffffffffffffff811160061b90811c63ffffffff811160051b90811c61ffff811160041b90811c60ff8111600390811b91821c600f811160021b90811c918211600190811b92831c979088119617909417909217179091171717608081106119a257607f810383901c91506119ac565b80607f0383901b91505b908002607f81811c60ff83811c9190911c800280831c81831c1c800280841c81841c1c800280851c81851c1c800280861c81861c1c800280871c81871c1c800280881c81881c1c800280891c81891c1c8002808a1c818a1c1c8002808b1c818b1c1c8002808c1c818c1c1c8002808d1c818d1c1c8002808e1c9c81901c9c909c1c80029c8d901c9e9d607f198f0160401b60c09190911c678000000000000000161760c19b909b1c674000000000000000169a909a1760c29990991c672000000000000000169890981760c39790971c671000000000000000169690961760c49590951c670800000000000000169490941760c59390931c670400000000000000169290921760c69190911c670200000000000000161760c79190911c670100000000000000161760c89190911c6680000000000000161760c99190911c6640000000000000161760ca9190911c6620000000000000161760cb9190911c6610000000000000161760cc9190911c6608000000000000161760cd9190911c66040000000000001617693627a301d71055774c8581026f028f6481ab7f045a5af012a19d003aa9198101608090811d906fdb2df09e81959a81455e260799a0632f8301901d600281810b9083900b14611bad57886001600160a01b0316611b9182611bbc565b6001600160a01b03161115611ba65781611ba8565b805b611baf565b815b9998505050505050505050565b60008060008360020b12611bd3578260020b611bdb565b8260020b6000035b9050620d89e8811115611c19576040805162461bcd60e51b81526020600482015260016024820152601560fa1b604482015290519081900360640190fd5b600060018216611c2d57600160801b611c3f565b6ffffcb933bd6fad37aa2d162d1a5940015b70ffffffffffffffffffffffffffffffffff1690506002821615611c73576ffff97272373d413259a46990580e213a0260801c5b6004821615611c92576ffff2e50f5f656932ef12357cf3c7fdcc0260801c5b6008821615611cb1576fffe5caca7e10e4e61c3624eaa0941cd00260801c5b6010821615611cd0576fffcb9843d60f6159c9db58835c9266440260801c5b6020821615611cef576fff973b41fa98c081472e6896dfb254c00260801c5b6040821615611d0e576fff2ea16466c96a3843ec78b326b528610260801c5b6080821615611d2d576ffe5dee046a99a2a811c461f1969c30530260801c5b610100821615611d4d576ffcbe86c7900a88aedcffc83b479aa3a40260801c5b610200821615611d6d576ff987a7253ac413176f2b074cf7815e540260801c5b610400821615611d8d576ff3392b0822b70005940c7a398e4b70f30260801c5b610800821615611dad576fe7159475a2c29b7443b29c7fa6e889d90260801c5b611000821615611dcd576fd097f3bdfd2022b8845ad8f792aa58250260801c5b612000821615611ded576fa9f746462d870fdf8a65dc1f90e061e50260801c5b614000821615611e0d576f70d869a156d2a1b890bb3df62baf32f70260801c5b618000821615611e2d576f31be135f97d08fd981231505542fcfa60260801c5b62010000821615611e4e576f09aa508b5b7a84e1c677de54f3e99bc90260801c5b62020000821615611e6e576e5d6af8dedb81196699c329225ee6040260801c5b62040000821615611e8d576d2216e584f5fa1ea926041bedfe980260801c5b62080000821615611eaa576b048a170391f7dc42444e8fa20260801c5b60008460020b1315611ec5578060001981611ec157fe5b0490505b640100000000810615611ed9576001611edc565b60005b60ff16602082901c0192505050919050565b6040805160c081018252600080825260208201819052918101829052606081018290526080810182905260a081019190915290565b600082601f830112611f33578081fd5b81356020611f48611f4383612786565b612762565b8281528181019085830183850287018401881015611f64578586fd5b855b85811015611f8b578135611f79816127a4565b84529284019290840190600101611f66565b5090979650505050505050565b600082601f830112611fa8578081fd5b81356020611fb8611f4383612786565b8281528181019085830183850287018401881015611fd4578586fd5b855b85811015611f8b578135611fe9816127bc565b84529284019290840190600101611fd6565b805180151581146105f457600080fd5b80356105f4816127bc565b600060c08284031215612027578081fd5b60405160c0810181811067ffffffffffffffff8211171561204457fe5b6040529050808235612055816127bc565b81526020830135612065816127bc565b60208201526040830135612078816127bc565b60408201526120896060840161200b565b606082015261209a608084016120b7565b60808201526120ab60a0840161200b565b60a08201525092915050565b80356105f4816127db565b6000602082840312156120d3578081fd5b81356120de816127a4565b9392505050565b600080604083850312156120f7578081fd5b8235612102816127a4565b91506020830135612112816127cb565b809150509250929050565b6000806040838503121561212f578182fd5b823567ffffffffffffffff80821115612146578384fd5b61215286838701611f23565b93506020850135915080821115612167578283fd5b5061217485828601611f98565b9150509250929050565b600080600060608486031215612192578081fd5b833567ffffffffffffffff808211156121a9578283fd5b6121b587838801611f23565b94506020915081860135818111156121cb578384fd5b8601601f810188136121db578384fd5b80356121e9611f4382612786565b81815284810190838601868402850187018c1015612205578788fd5b8794505b8385101561223057803561221c816127cb565b835260019490940193918601918601612209565b5096505050506040860135915080821115612249578283fd5b5061225686828701611f98565b9150509250925092565b60008060408385031215612272578182fd5b823567ffffffffffffffff80821115612289578384fd5b818501915085601f83011261229c578384fd5b813560206122ac611f4383612786565b8281528181019085830160c0808602880185018c10156122ca57898afd5b8997505b858810156122f6576122e08c83612016565b84526001979097019692840192908101906122ce565b5090975050508601359250508082111561230e578283fd5b5061217485828601611f23565b60006020828403121561232c578081fd5b81356120de816127bc565b600060208284031215612348578081fd5b81516120de816127bc565b60008060e08385031215612365578182fd5b61236f8484612016565b915060c0830135612112816127a4565b600060208284031215612390578081fd5b81516001600160801b03811681146120de578182fd5b600080600080600080600060e0888a0312156123c0578485fd5b87516123cb816127a4565b60208901519097506123dc816127bc565b60408901519096506123ed816127cb565b60608901519095506123fe816127cb565b608089015190945061240f816127cb565b60a089015190935060ff81168114612425578283fd5b915061243360c08901611ffb565b905092959891949750929550565b600060208284031215612452578081fd5b81356120de816127db565b60008060008060808587031215612472578182fd5b845161247d816127db565b8094505060208501518060060b8114612494578283fd5b60408601519093506124a5816127a4565b91506124b360608601611ffb565b905092959194509250565b805160020b8252602081015160020b6020830152604081015160020b6040830152606081015160020b606083015263ffffffff608082015116608083015260a081015160020b60a08301525050565b6001600160a01b0391909116815260200190565b6001600160a01b0392831681529116602082015260400190565b60029190910b815260200190565b600292830b8152910b602082015260400190565b600296870b815294860b602086015292850b604085015290840b6060840152830b608083015290910b60a082015260c00190565b602080825260039082015262494e5360e81b604082015260600190565b6020808252600490820152634952454d60e01b604082015260600190565b602080825260029082015261282360f11b604082015260600190565b60208082526003908201526249564960e81b604082015260600190565b60208082526003908201526249474160e81b604082015260600190565b60208082526003908201526226aa2360e91b604082015260600190565b6020808252600290820152614e4760f01b604082015260600190565b602080825260029082015261125560f21b604082015260600190565b602080825260029082015261151160f21b604082015260600190565b60208082526003908201526249524d60e81b604082015260600190565b60c0810161184182846124be565b61018081016126cd82856124be565b8254600281810b810b60c08501528160181c810b810b60e08501528160301c810b810b6101008501528160481c810b810b61012085015263ffffffff8260601c166101408501528160801c810b810b61016085015250509392505050565b61ffff91909116815260200190565b63ffffffff91909116815260200190565b63ffffffff92831681529116602082015260400190565b60405181810167ffffffffffffffff8111828210171561277e57fe5b604052919050565b600067ffffffffffffffff82111561279a57fe5b5060209081020190565b6001600160a01b03811681146127b957600080fd5b50565b8060020b81146127b957600080fd5b61ffff811681146127b957600080fd5b63ffffffff811681146127b957600080fdfea264697066735822122015d4b0f1f0330c8bd7377748cd39d802c70f8d573de4155bcad5fde2d429f76164736f6c634300070600336080604052348015600f57600080fd5b50603f80601d6000396000f3fe6080604052600080fdfea264697066735822122094beac145357cbfdf89cf4176db4a89a3cbe0d84741094a20e6b057aafc9f7c864736f6c6343000706003360c0604052600d60808190526c2bb930b83832b21022ba3432b960991b60a090815261002e916000919061007a565b50604080518082019091526004808252630ae8aa8960e31b602090920191825261005a9160019161007a565b506002805460ff1916601217905534801561007457600080fd5b5061011b565b828054600181600116156101000203166002900490600052602060002090601f0160209004810192826100b057600085556100f6565b82601f106100c957805160ff19168380011785556100f6565b828001600101855582156100f6579182015b828111156100f65782518255916020019190600101906100db565b50610102929150610106565b5090565b5b808211156101025760008155600101610107565b6106e98061012a6000396000f3fe60806040526004361061009c5760003560e01c8063313ce56711610064578063313ce5671461020e57806370a082311461023957806395d89b411461026c578063a9059cbb14610281578063d0e30db0146102ba578063dd62ed3e146102c25761009c565b806306fdde03146100a1578063095ea7b31461012b57806318160ddd1461017857806323b872dd1461019f5780632e1a7d4d146101e2575b600080fd5b3480156100ad57600080fd5b506100b66102fd565b6040805160208082528351818301528351919283929083019185019080838360005b838110156100f05781810151838201526020016100d8565b50505050905090810190601f16801561011d5780820380516001836020036101000a031916815260200191505b509250505060405180910390f35b34801561013757600080fd5b506101646004803603604081101561014e57600080fd5b506001600160a01b03813516906020013561038b565b604080519115158252519081900360200190f35b34801561018457600080fd5b5061018d6103f1565b60408051918252519081900360200190f35b3480156101ab57600080fd5b50610164600480360360608110156101c257600080fd5b506001600160a01b038135811691602081013590911690604001356103f5565b3480156101ee57600080fd5b5061020c6004803603602081101561020557600080fd5b5035610529565b005b34801561021a57600080fd5b506102236105be565b6040805160ff9092168252519081900360200190f35b34801561024557600080fd5b5061018d6004803603602081101561025c57600080fd5b50356001600160a01b03166105c7565b34801561027857600080fd5b506100b66105d9565b34801561028d57600080fd5b50610164600480360360408110156102a457600080fd5b506001600160a01b038135169060200135610633565b61020c610647565b3480156102ce57600080fd5b5061018d600480360360408110156102e557600080fd5b506001600160a01b0381358116916020013516610696565b6000805460408051602060026001851615610100026000190190941693909304601f810184900484028201840190925281815292918301828280156103835780601f1061035857610100808354040283529160200191610383565b820191906000526020600020905b81548152906001019060200180831161036657829003601f168201915b505050505081565b3360008181526004602090815260408083206001600160a01b038716808552908352818420869055815186815291519394909390927f8c5be1e5ebec7d5bd14f71427d1e84f3dd0314c0f7b2291e5b200ac8c7c3b925928290030190a350600192915050565b4790565b6001600160a01b03831660009081526003602052604081205482111561041a57600080fd5b6001600160a01b038416331480159061045857506001600160a01b038416600090815260046020908152604080832033845290915290205460001914155b156104b8576001600160a01b038416600090815260046020908152604080832033845290915290205482111561048d57600080fd5b6001600160a01b03841660009081526004602090815260408083203384529091529020805483900390555b6001600160a01b03808516600081815260036020908152604080832080548890039055938716808352918490208054870190558351868152935191937fddf252ad1be2c89b69c2b068fc378daa952ba7f163c4a11628f55a4df523b3ef929081900390910190a35060019392505050565b3360009081526003602052604090205481111561054557600080fd5b33600081815260036020526040808220805485900390555183156108fc0291849190818181858888f19350505050158015610584573d6000803e3d6000fd5b5060408051828152905133917f7fcf532c15f0a6db0bd6d0e038bea71d30d808c7d98cb3bf7268a95bf5081b65919081900360200190a250565b60025460ff1681565b60036020526000908152604090205481565b60018054604080516020600284861615610100026000190190941693909304601f810184900484028201840190925281815292918301828280156103835780601f1061035857610100808354040283529160200191610383565b60006106403384846103f5565b9392505050565b33600081815260036020908152604091829020805434908101909155825190815291517fe1fffcc4923d04b559f4d29a8bfc6cda04eb5b0d3c460751c2402c5c5cc9109c9281900390910190a2565b60046020908152600092835260408084209091529082529020548156fea2646970667358221220dd274c1a6c79c0be9aaa070248b9f65f84f7a2b203c6f713da24d44ff0fe94c364736f6c63430007060033608060405234801561001057600080fd5b5060405161627a38038061627a833981810160405260c081101561003357600080fd5b508051602082015160408301516060840151608085015160a090950151600080546001600160a01b039586166001600160a01b03199182161790915560018054948616948216949094179093556004805495851695841695909517909455600280549184169183169190911790556003805460ff909416600160a81b0260ff60a81b19939095169390911692909217169190911790556161a2806100d86000396000f3fe60806040523480156200001157600080fd5b50600436106200005e5760003560e01c806338d7728014620000635780633f1e478b14620000ad578063517d6c3c14620000ec578063859e3fad1462000151578063ab033ea914620002bd575b600080fd5b6200006d620002e6565b604080516001600160a01b0396871681529486166020860152929094168383015260ff908116606084015292909216608082015290519081900360a00190f35b620000ea60048036036060811015620000c557600080fd5b5080356001600160a01b03908116916020810135909116906040013560ff166200031d565b005b62000135600480360360808110156200010457600080fd5b5080356001600160a01b0390811691602081013590911690604081013562ffffff16906060013561ffff16620003a6565b604080516001600160a01b039092168252519081900360200190f35b62000135600480360360e08110156200016957600080fd5b6001600160a01b038235811692602081013582169262ffffff6040830135169261ffff6060840135169260808101359091169181019060c0810160a0820135640100000000811115620001bb57600080fd5b820183602082011115620001ce57600080fd5b80359060200191846001830284011164010000000083111715620001f157600080fd5b91908080601f01602080910402602001604051908101604052809392919081815260200183838082843760009201919091525092959493602081019350359150506401000000008111156200024557600080fd5b8201836020820111156200025857600080fd5b803590602001918460018302840111640100000000831117156200027b57600080fd5b91908080601f016020809104026020016040519081016040528093929190818152602001838380828437600092019190915250929550620003db945050505050565b620000ea60048036036020811015620002d557600080fd5b50356001600160a01b0316620009a0565b6000546001546002546003546001600160a01b0393841694928416939091169160ff600160a81b8304811692600160a01b90041690565b6000546001600160a01b031633146200033557600080fd5b60008160ff161180156200034c575060648160ff16105b6200035657600080fd5b600180546001600160a01b039485166001600160a01b03199182161790915560028054939094169216919091179091556003805460ff909216600160a81b0260ff60a81b19909216919091179055565b60056020908152600094855260408086208252938552838520815291845282842090915282529020546001600160a01b031681565b600080546001600160a01b03163314620003f457600080fd5b866001600160a01b0316886001600160a01b031614156200041457600080fd5b600080886001600160a01b03168a6001600160a01b0316106200043957888a6200043c565b89895b6004805460408051630b4c774160e11b81526001600160a01b0380871694820194909452838516602482015262ffffff8e1660448201529051949650929450600093911691631698ee82916064808301926020929190829003018186803b158015620004a757600080fd5b505afa158015620004bc573d6000803e3d6000fd5b505050506040513d6020811015620004d357600080fd5b505190506001600160a01b0381161562000535576001600160a01b0383811660009081526005602090815260408083208685168452825280832062ffffff8e168452825280832083805290915290205416156200052f57600080fd5b62000633565b600480546040805163a167129560e01b81526001600160a01b0387811694820194909452858416602482015262ffffff8d1660448201529051929091169163a1671295916064808201926020929091908290030181600087803b1580156200059c57600080fd5b505af1158015620005b1573d6000803e3d6000fd5b505050506040513d6020811015620005c857600080fd5b50516040805163f637731d60e01b81526001600160a01b038a8116600483015291519293509083169163f637731d9160248082019260009290919082900301818387803b1580156200061957600080fd5b505af11580156200062e573d6000803e3d6000fd5b505050505b8a8a8a60405160200180846001600160a01b031660601b8152601401836001600160a01b031660601b81526014018262ffffff1660e81b81526003019350505050604051602081830303815290604052805190602001208130600360009054906101000a90046001600160a01b03168b8a8a604051620006b39062000a27565b80876001600160a01b03168152602001866001600160a01b03168152602001856001600160a01b031681526020018461ffff1681526020018060200180602001838103835285818151815260200191508051906020019080838360005b838110156200072a57818101518382015260200162000710565b50505050905090810190601f168015620007585780820380516001836020036101000a031916815260200191505b50838103825284518152845160209182019186019080838360005b838110156200078d57818101518382015260200162000773565b50505050905090810190601f168015620007bb5780820380516001836020036101000a031916815260200191505b50985050505050505050508190604051809103906000f5905080158015620007e7573d6000803e3d6000fd5b5093508360056000856001600160a01b03166001600160a01b031681526020019081526020016000206000846001600160a01b03166001600160a01b0316815260200190815260200160002060008b62ffffff1662ffffff16815260200190815260200160002060008a61ffff1661ffff16815260200190815260200160002060006101000a8154816001600160a01b0302191690836001600160a01b031602179055508360056000846001600160a01b03166001600160a01b031681526020019081526020016000206000856001600160a01b03166001600160a01b0316815260200190815260200160002060008b62ffffff1662ffffff16815260200190815260200160002060008a61ffff1661ffff16815260200190815260200160002060006101000a8154816001600160a01b0302191690836001600160a01b03160217905550836001600160a01b0316826001600160a01b0316846001600160a01b03167fe551e4179838a57090f0386dca8e982f6a8f74f80922cbf508d9bad5cce10fc88b8d604051808361ffff1681526020018262ffffff1681526020019250505060405180910390a4505050979650505050505050565b6000546001600160a01b03163314620009b857600080fd5b6001600160a01b038116620009cc57600080fd5b600080546040516001600160a01b03808516939216917f3aaaebeb4821d6a7e5c77ece53cff0afcc56c82add2c978dbbb7f73e84cbcfd291a3600080546001600160a01b0319166001600160a01b0392909216919091179055565b6157378062000a368339019056fe6101406040527f6e71edae12b1b97f4d1f60370fef10105fa2faae0126114a169c64845d6126c961012052600c805463ffffffff60d01b1963ffffffff60b01b19909116600160b01b1716600160d01b1790553480156200005f57600080fd5b506040516200573738038062005737833981016040819052620000829162000647565b8180604051806040016040528060018152602001603160f81b81525084848160039080519060200190620000b8929190620004bf565b508051620000ce906004906020840190620004bf565b50506005805460ff1916601217905550815160208084019190912082519183019190912060c082905260e08190527f8b73c3c69bb8fe3d512ecc4cf759cc79239f7b179b0ffacaa9a75d522b39400f6200012762000457565b60a052620001378184846200045b565b6080526101005250505050506001600160a01b0386166200015757600080fd5b6001600160a01b0384166200016b57600080fd5b6001600160a01b0385166200017f57600080fd5b600a80546001600160a01b038089166001600160a01b03199283161792839055600b8054898316908416179055600c805488831693169290921790915560408051630dfe168160e01b815290519290911691630dfe168191600480820192602092909190829003018186803b158015620001f857600080fd5b505afa1580156200020d573d6000803e3d6000fd5b505050506040513d601f19601f8201168201806040525081019062000233919062000623565b600780546001600160a01b0319166001600160a01b03928316179055600a546040805163d21220a760e01b81529051919092169163d21220a7916004808301926020929190829003018186803b1580156200028d57600080fd5b505afa158015620002a2573d6000803e3d6000fd5b505050506040513d601f19601f82011682018060405250810190620002c8919062000623565b600880546001600160a01b0319166001600160a01b03928316179055600a546040805163ddca3f4360e01b81529051919092169163ddca3f43916004808301926020929190829003018186803b1580156200032257600080fd5b505afa15801562000337573d6000803e3d6000fd5b505050506040513d601f19601f820116820180604052508101906200035d919062000722565b600860146101000a81548162ffffff021916908362ffffff160217905550600a60009054906101000a90046001600160a01b03166001600160a01b031663d0c93a7c6040518163ffffffff1660e01b815260040160206040518083038186803b158015620003ca57600080fd5b505afa158015620003df573d6000803e3d6000fd5b505050506040513d601f19601f82011682018060405250810190620004059190620006ff565b6008805460029290920b62ffffff16600160b81b0262ffffff60b81b199092169190911790555050600c805461ffff909216600160a01b0261ffff60a01b199092169190911790555062000747915050565b4690565b60008383836200046a62000457565b3060405160200180868152602001858152602001848152602001838152602001826001600160a01b03168152602001955050505050506040516020818303038152906040528051906020012090509392505050565b828054600181600116156101000203166002900490600052602060002090601f016020900481019282620004f7576000855562000542565b82601f106200051257805160ff191683800117855562000542565b8280016001018555821562000542579182015b828111156200054257825182559160200191906001019062000525565b506200055092915062000554565b5090565b5b8082111562000550576000815560010162000555565b80516001600160a01b03811681146200058357600080fd5b919050565b600082601f83011262000599578081fd5b81516001600160401b0380821115620005ae57fe5b6040516020601f8401601f1916820181018381118382101715620005ce57fe5b6040528382528584018101871015620005e5578485fd5b8492505b83831015620006085785830181015182840182015291820191620005e9565b838311156200061957848185840101525b5095945050505050565b60006020828403121562000635578081fd5b62000640826200056b565b9392505050565b60008060008060008060c0878903121562000660578182fd5b6200066b876200056b565b95506200067b602088016200056b565b94506200068b604088016200056b565b9350606087015161ffff81168114620006a2578283fd5b60808801519093506001600160401b0380821115620006bf578384fd5b620006cd8a838b0162000588565b935060a0890151915080821115620006e3578283fd5b50620006f289828a0162000588565b9150509295509295509295565b60006020828403121562000711578081fd5b81518060020b811462000640578182fd5b60006020828403121562000734578081fd5b815162ffffff8116811462000640578182fd5b60805160a05160c05160e0516101005161012051614fa662000791600039806116f4525080612d55525080612d97525080612d76525080612cfc525080612d2c5250614fa66000f3fe6080604052600436106101c55760003560e01c80637f98aa71116100f7578063b2f9f57111610095578063d505accf11610064578063d505accf146104f4578063dd62ed3e14610514578063f8e35be714610534578063fa461e3314610549576101cc565b8063b2f9f57114610478578063c86962321461048d578063cb81da2e146104b4578063d3487997146104d4576101cc565b8063a457c2d7116100d1578063a457c2d7146103fe578063a9059cbb1461041e578063ac2dc5621461043e578063adcc377914610463576101cc565b80637f98aa71146103a25780638dbdbe6d146103c757806395d89b41146103e9576101cc565b80633644e515116101645780633fe529f01161013e5780633fe529f0146103225780636d70f7ae1461034257806370a08231146103625780637ecebe0014610382576101cc565b80633644e515146102d857806339509351146102ed5780633eaaf86b1461030d576101cc565b806318160ddd116101a057806318160ddd146102545780631a87e87d1461027657806323b872dd14610296578063313ce567146102b6576101cc565b8062ebf5dd146101ce57806306fdde0314610205578063095ea7b314610227576101cc565b366101cc57005b005b3480156101da57600080fd5b506101ee6101e9366004614af4565b610569565b6040516101fc929190614cd4565b60405180910390f35b34801561021157600080fd5b5061021a610873565b6040516101fc9190614c49565b34801561023357600080fd5b506102476102423660046149ba565b61090a565b6040516101fc9190614bf8565b34801561026057600080fd5b50610269610928565b6040516101fc9190614c1b565b34801561028257600080fd5b506101cc610291366004614b62565b61092e565b3480156102a257600080fd5b506102476102b136600461490a565b610d4e565b3480156102c257600080fd5b506102cb610dd6565b6040516101fc9190614d47565b3480156102e457600080fd5b50610269610ddf565b3480156102f957600080fd5b506102476103083660046149ba565b610dee565b34801561031957600080fd5b50610269610e3c565b34801561032e57600080fd5b506101cc61033d366004614842565b610e42565b34801561034e57600080fd5b5061024761035d366004614842565b610e9a565b34801561036e57600080fd5b5061026961037d366004614842565b610ebc565b34801561038e57600080fd5b5061026961039d366004614842565b610ed7565b3480156103ae57600080fd5b506103b7610ef8565b6040516101fc9493929190614b92565b6103da6103d5366004614b35565b610f25565b6040516101fc93929190614ce2565b3480156103f557600080fd5b5061021a611270565b34801561040a57600080fd5b506102476104193660046149ba565b6112d1565b34801561042a57600080fd5b506102476104393660046149ba565b611339565b34801561044a57600080fd5b5061045361134d565b6040516101fc9493929190614c24565b34801561046f57600080fd5b50610269611376565b34801561048457600080fd5b506102696113f7565b34801561049957600080fd5b506104a2611428565b6040516101fc96959493929190614d13565b3480156104c057600080fd5b506101cc6104cf366004614a39565b6114b4565b3480156104e057600080fd5b506101cc6104ef366004614a8b565b61161f565b34801561050057600080fd5b506101cc61050f36600461494a565b611685565b34801561052057600080fd5b5061026961052f36600461485e565b61183c565b34801561054057600080fd5b506101cc611867565b34801561055557600080fd5b506101cc610564366004614a8b565b61191b565b600080600c601a9054906101000a900463ffffffff1663ffffffff1660011461059157600080fd5b600c805463ffffffff60d01b1916600160d11b17905560006105b1611999565b5050600a5460405163051bb83360e01b81529294506001600160a01b03808616945063051bb833936105e99350911690600401614b7e565b60006040518083038186803b15801561060157600080fd5b505afa158015610615573d6000803e3d6000fd5b505050506000861161062657600080fd5b6000610630610928565b600c54909150600160b01b900463ffffffff16600114156106d657600061066088670de0b6b3a764000084611a38565b600954600a5491925061068d916001600160a01b031690600281810b9163010000009004900b8430611ae7565b600954600a5492975090955060009182916106c2916001600160a01b0316903090600281810b9163010000009004900b611cb4565b915091506106d260008383611d7b565b5050505b60006106f46106ed866106e7611376565b90611e2a565b8984611a38565b9050600061070e610707866106e76113f7565b8a85611a38565b905061071a8683611e3a565b95506107268582611e3a565b94508515610748576007546107489088908a906001600160a01b031689611e4a565b8415610768576008546107689088908a906001600160a01b031688611e4a565b610772338a611eeb565b876001600160a01b03167f02f25270a4d87bea75db541cdfe559334a275b4a233520ed6c0a2429667cca948a88886040516107af93929190614ce2565b60405180910390a2600c54600160b01b900463ffffffff166001141561084f57600954600090819061080f90600281810b9163010000009004900b6107f2611376565b6107fa6113f7565b600a546001600160a01b031693929190611fe7565b915091507f2fb985eb745b9e89bb1ab82e0f8ceb6bf94d4d60aed7e8196540c50161a5fe918282604051610844929190614cd4565b60405180910390a150505b5050600c805463ffffffff60d01b1916600160d01b17905550919590945092505050565b60038054604080516020601f60026000196101006001881615020190951694909404938401819004810282018101909252828152606093909290918301828280156108ff5780601f106108d4576101008083540402835291602001916108ff565b820191906000526020600020905b8154815290600101906020018083116108e257829003601f168201915b505050505090505b90565b600061091e610917612149565b848461214d565b5060015b92915050565b60025490565b336000908152600d602052604090205460ff1661094a57600080fd5b6000610954611999565b5050600a5460405163051bb83360e01b81529294506001600160a01b03808616945063051bb8339361098c9350911690600401614b7e565b60006040518083038186803b1580156109a457600080fd5b505afa1580156109b8573d6000803e3d6000fd5b5050600c805463ffffffff60b01b1916600160b01b179055506109db9050614766565b600954600a54600091610a06916001600160a01b031690600281810b9163010000009004900b612239565b5050600954600a54919250610a34916001600160a01b031690600281810b9163010000009004900b306122d7565b6020860181905281865260c086019290925260a0850192909252610a5a91600191611d7b565b6000610a6461248b565b600854600a54600160b81b90910460020b919091029150610a8d906001600160a01b0316612534565b50600290810b810b60408601819052600854610ab6935090918491600160b81b9004900b6125b6565b600290810b810b608086015290810b900b60608401526001600160801b03821615801590610af2575060a08301511580610af2575060c0830151155b15610b6f576000808460a0015111610b0b576000610b0e565b60015b9050600081610b3757610b32610b2d8660c001518960ff166064611a38565b6125d3565b610b4d565b610b4d610b2d8660a001518960ff166064611a38565b600a54909150610b68906001600160a01b031630848461261b565b5050610c95565b610b77611376565b60a0840152610b846113f7565b60c0840181905260a084015160608501516080860151600a54610bb5946001600160a01b0390911693929091612797565b6001600160801b031660e0840181905260608401516080850151600a54610be9936001600160a01b0390911692909161282b565b6101208501819052610100850182905260a085015160c0860151610c119391929091906128c2565b15156101408401819052610c4e57610c49610c3e8461012001518560c00151611e2a90919063ffffffff16565b8660ff166064611a38565b610c6d565b610c6d610c3e8461010001518560a00151611e2a90919063ffffffff16565b6101608401819052610140840151600a54610c95926001600160a01b0390911691309161261b565b610c9d611376565b60a0840152610caa6113f7565b60c0840181905260a0840151600854600a54610cde936001600160a01b0390911692918590600160b81b900460020b6128fd565b6009805465ffffff00000019166301000000600293840b62ffffff90811682029290921762ffffff191694840b91909116939093179081905560a086015160c0870151600a54610d45956001600160a01b039091169484810b9491909104900b9190611fe7565b50505050505050565b6000610d5b848484612b06565b610dcb84610d67612149565b610dc685604051806060016040528060288152602001614e92602891396001600160a01b038a16600090815260016020526040812090610da5612149565b6001600160a01b031681526020810191909152604001600020549190612c61565b61214d565b5060015b9392505050565b60055460ff1690565b6000610de9612cf8565b905090565b600061091e610dfb612149565b84610dc68560016000610e0c612149565b6001600160a01b03908116825260208083019390935260409182016000908120918c168152925290205490612dc2565b60025481565b6000610e4c611999565b505050509050806001600160a01b0316336001600160a01b031614610e7057600080fd5b506001600160a01b03166000908152600d60205260409020805460ff19811660ff90911615179055565b6001600160a01b0381166000908152600d602052604090205460ff165b919050565b6001600160a01b031660009081526020819052604090205490565b6001600160a01b038116600090815260066020526040812061092290612e1c565b600754600854600a546001600160a01b039283169383831693600160a01b90930462ffffff169290911690565b6000806000600c601a9054906101000a900463ffffffff1663ffffffff16600114610f4f57600080fd5b600c805463ffffffff60d01b1916600160d11b1790556000610f6f611999565b5050600a5460405163051bb83360e01b81529294506001600160a01b03808616945063051bb83393610fa79350911690600401614b7e565b60006040518083038186803b158015610fbf57600080fd5b505afa158015610fd3573d6000803e3d6000fd5b505050506001600160a01b038516610fea57600080fd5b600087118015610ffa5750600086115b61100357600080fd5b600061100d612149565b90506000611019610928565b905061109c60018a8a61102a611376565b6110326113f7565b60408051608081018252600954600281810b810b810b835263010000008204810b810b810b6020840152600160301b8204810b810b810b93830193909352600160481b9004820b820b90910b6060820152600a546001600160a01b03169594939291908890612e20565b919750955093507f47bb89f0fc234008e53c79bc3e3dab90e27502d1380a4b3cc35038d57fa03d2a6110cc611376565b6040516110d99190614c1b565b60405180910390a17f47bb89f0fc234008e53c79bc3e3dab90e27502d1380a4b3cc35038d57fa03d2a61110a6113f7565b6040516111179190614c1b565b60405180910390a18061114e576103e8861161114e5760405162461bcd60e51b815260040161114590614c9c565b60405180910390fd5b8561116b5760405162461bcd60e51b815260040161114590614cb8565b600754611183906001600160a01b0316833088612ebc565b60085461119b906001600160a01b0316833087612ebc565b600c54600160b01b900463ffffffff16600114156111e257600954600a546111df916001600160a01b0390911690600281810b9163010000009004900b8888611fe7565b50505b47156111f2576111f28247612ff9565b6111fc87876130ed565b866001600160a01b0316826001600160a01b03167f4e2ca0515ed1aef1395f66b5303bb5d6f1bf9d61a353fa53f73f8ac9973fa9f687878a60405161124393929190614ce2565b60405180910390a35050600c805463ffffffff60d01b1916600160d01b1790555091959094509092509050565b60048054604080516020601f60026000196101006001881615020190951694909404938401819004810282018101909252828152606093909290918301828280156108ff5780601f106108d4576101008083540402835291602001916108ff565b600061091e6112de612149565b84610dc685604051806060016040528060258152602001614f4c6025913960016000611308612149565b6001600160a01b03908116825260208083019390935260409182016000908120918d16815292529020549190612c61565b600061091e611346612149565b8484612b06565b600954600281810b9163010000008104820b91600160301b8204810b91600160481b9004900b84565b6007546040516370a0823160e01b81526000916001600160a01b0316906370a08231906113a7903090600401614b7e565b60206040518083038186803b1580156113bf57600080fd5b505afa1580156113d3573d6000803e3d6000fd5b505050506040513d601f19601f82011682018060405250810190610de99190614adc565b6008546040516370a0823160e01b81526000916001600160a01b0316906370a08231906113a7903090600401614b7e565b60408051608081018252600954600281810b810b810b835263010000008204810b810b810b6020840152600160301b8204810b810b810b93830193909352600160481b9004820b820b90910b6060820152600a54600091829182918291829182916114a1916001600160a01b03909116906001906131dd565b949b939a50919850965094509092509050565b336000908152600d602052604090205460ff166114d057600080fd5b60006114da611999565b5050600a5460405163051bb83360e01b81529294506001600160a01b03808616945063051bb833936115129350911690600401614b7e565b60006040518083038186803b15801561152a57600080fd5b505afa15801561153e573d6000803e3d6000fd5b5050600c805463ffffffff60b01b1916600160b01b17905550506008546115729084908490600160b81b900460020b613274565b600954600a5460009182916115a2916001600160a01b0390911690600281810b9163010000009004900b306122d7565b9350935050506115b460018383611d7b565b86156115d257600a546115d2906001600160a01b031630888a61261b565b6115df85856107f2611376565b505060098054600296870b62ffffff90811662ffffff199790980b1663010000000265ffffff000000199091161794909416949094179092555050505050565b6116276133cf565b6000611631612149565b9050600061164183850185614842565b9050851561166057600754611660906001600160a01b031683886133e8565b841561167d5760085461167d906001600160a01b031683876133e8565b505050505050565b834211156116da576040805162461bcd60e51b815260206004820152601d60248201527f45524332305065726d69743a206578706972656420646561646c696e65000000604482015290519081900360640190fd5b6001600160a01b03871660009081526006602052604081207f00000000000000000000000000000000000000000000000000000000000000009089908990899061172390612e1c565b8960405160200180878152602001866001600160a01b03168152602001856001600160a01b031681526020018481526020018381526020018281526020019650505050505050604051602081830303815290604052805190602001209050600061178c8261352f565b9050600061179c8287878761357b565b9050896001600160a01b0316816001600160a01b031614611804576040805162461bcd60e51b815260206004820152601e60248201527f45524332305065726d69743a20696e76616c6964207369676e61747572650000604482015290519081900360640190fd5b6001600160a01b038a166000908152600660205260409020611825906136fb565b6118308a8a8a61214d565b50505050505050505050565b6001600160a01b03918216600090815260016020908152604080832093909416825291909152205490565b336000908152600d602052604090205460ff1661188357600080fd5b600954600a546000918291829182916118b7916001600160a01b0390911690600281810b9163010000009004900b306122d7565b600c805463ffffffff60b01b1916600160b11b179055604051939750919550935091507f0b807fda608508350274d5da730325b52bb86f7ba43085d327059ed4b2fc84049061190d908690869086908690614cf8565b60405180910390a150505050565b6119236133cf565b60008413806119325750600083135b61193b57600080fd5b6000611949828401846149e5565b905080156119745760075461196f906001600160a01b0316611969612149565b876133e8565b611992565b600854611992906001600160a01b031661198c612149565b866133e8565b5050505050565b6000806000806000600b60009054906101000a90046001600160a01b03166001600160a01b03166338d772806040518163ffffffff1660e01b815260040160a06040518083038186803b1580156119ef57600080fd5b505afa158015611a03573d6000803e3d6000fd5b505050506040513d601f19601f82011682018060405250810190611a279190614896565b945094509450945094509091929394565b6000808060001985870986860292508281109083900303905080611a6e5760008411611a6357600080fd5b508290049050610dcf565b808411611a7a57600080fd5b6000848688096000868103871696879004966002600389028118808a02820302808a02820302808a02820302808a02820302808a02820302808a02909103029181900381900460010186841190950394909402919094039290920491909117919091029150509392505050565b60008080611aff6001600160a01b0389168888612239565b505090506000611b21826001600160801b031687670de0b6b3a7640000611a38565b9050886001600160a01b031663a34123a78989611b3d85613704565b6040518463ffffffff1660e01b8152600401808460020b81526020018360020b8152602001826001600160801b0316815260200193505050506040805180830381600087803b158015611b8f57600080fd5b505af1158015611ba3573d6000803e3d6000fd5b505050506040513d6040811015611bb957600080fd5b508051602090910151909450925083151580611bd55750600083115b15611ca857886001600160a01b0316634f1eb3d8868a8a611bf589613704565b611bfe89613704565b6040518663ffffffff1660e01b815260040180866001600160a01b031681526020018560020b81526020018460020b8152602001836001600160801b03168152602001826001600160801b03168152602001955050505050506040805180830381600087803b158015611c7057600080fd5b505af1158015611c84573d6000803e3d6000fd5b505050506040513d6040811015611c9a57600080fd5b50516001600160801b031693505b50509550959350505050565b600080611cc2868585613748565b50604080516309e3d67b60e31b81526001600160a01b038781166004830152600287810b602484015286900b60448301526001600160801b03606483018190526084830152825190891692634f1eb3d89260a480820193918290030181600087803b158015611d3057600080fd5b505af1158015611d44573d6000803e3d6000fd5b505050506040513d6040811015611d5a57600080fd5b5080516020909101516001600160801b039182169891169650945050505050565b600080611d86611999565b509094509250505060ff811615611992578315611dc257600754611dc2906001600160a01b031683611dbd8760ff86166064611a38565b6133e8565b8215611de857600854611de8906001600160a01b031683611dbd8660ff86166064611a38565b7ff8994d9c768d599c5c6e92d52cd9cc24762cd773384c7a4612796773c56a86a6858585604051611e1b93929190614c03565b60405180910390a15050505050565b8082038281111561092257600080fd5b8082018281101561092257600080fd5b838015611e645750600c546001600160a01b038381169116145b15611eda57600c54604051632e1a7d4d60e01b81526001600160a01b0390911690632e1a7d4d90611e99908490600401614c1b565b600060405180830381600087803b158015611eb357600080fd5b505af1158015611ec7573d6000803e3d6000fd5b50505050611ed58382612ff9565b611ee5565b611ee58284836133e8565b50505050565b6001600160a01b038216611f305760405162461bcd60e51b8152600401808060200182810382526021815260200180614eba6021913960400191505060405180910390fd5b611f3c826000836130e8565b611f7981604051806060016040528060228152602001614dbd602291396001600160a01b0385166000908152602081905260409020549190612c61565b6001600160a01b038316600090815260208190526040902055600254611f9f9082613801565b6002556040805182815290516000916001600160a01b038516917fddf252ad1be2c89b69c2b068fc378daa952ba7f163c4a11628f55a4df523b3ef9181900360200190a35050565b600080806120016001600160a01b03891686868a8a612797565b90506001600160801b0381161561213e576040805130602080830182905283518084038201815283850194859052633c8a7d8d60e01b9094526044830182815260028c810b60648601528b900b60848501526001600160801b03861660a485015260a060c48501908152855160e486015285516001600160a01b038f1696633c8a7d8d968f958f958b959394909392610104019185019080838360005b838110156120b657818101518382015260200161209e565b50505050905090810190601f1680156120e35780820380516001836020036101000a031916815260200191505b5096505050505050506040805180830381600087803b15801561210557600080fd5b505af1158015612119573d6000803e3d6000fd5b505050506040513d604081101561212f57600080fd5b50805160209091015190935091505b509550959350505050565b3390565b6001600160a01b0383166121925760405162461bcd60e51b8152600401808060200182810382526024815260200180614f006024913960400191505060405180910390fd5b6001600160a01b0382166121d75760405162461bcd60e51b8152600401808060200182810382526022815260200180614ddf6022913960400191505060405180910390fd5b6001600160a01b03808416600081815260016020908152604080832094871680845294825291829020859055815185815291517f8c5be1e5ebec7d5bd14f71427d1e84f3dd0314c0f7b2291e5b200ac8c7c3b9259281900390910190a3505050565b60008060008061224a30878761385e565b9050866001600160a01b031663514ea4bf826040518263ffffffff1660e01b81526004018082815260200191505060a06040518083038186803b15801561229057600080fd5b505afa1580156122a4573d6000803e3d6000fd5b505050506040513d60a08110156122ba57600080fd5b508051606082015160809092015190999198509650945050505050565b6000808080806122f16001600160a01b038a168989612239565b50909150506001600160801b0381161561247f576040805163a34123a760e01b815260028a810b600483015289900b60248201526001600160801b038316604482015281516001600160a01b038c169263a34123a792606480820193918290030181600087803b15801561236457600080fd5b505af1158015612378573d6000803e3d6000fd5b505050506040513d604081101561238e57600080fd5b5080516020909101519095509350841515806123aa5750600084115b1561247f57604080516309e3d67b60e31b81526001600160a01b03888116600483015260028b810b60248401528a900b60448301526001600160801b0360648301819052608483015282516000938493928e1692634f1eb3d89260a4808301939282900301818787803b15801561242057600080fd5b505af1158015612434573d6000803e3d6000fd5b505050506040513d604081101561244a57600080fd5b5080516020909101516001600160801b03918216935016905061246d8288611e2a565b6124778288611e2a565b909550935050505b50945094509450949050565b600080612496611999565b5050600a54600c5460405163b0a42a5160e01b81529395506001600160a01b03808716955063b0a42a51946124de9450921691600160a01b90910461ffff1690600401614bc2565b60206040518083038186803b1580156124f657600080fd5b505afa15801561250a573d6000803e3d6000fd5b505050506040513d601f19601f8201168201806040525081019061252e9190614a1d565b91505090565b6000806000836001600160a01b0316633850c7bd6040518163ffffffff1660e01b815260040160e06040518083038186803b15801561257257600080fd5b505afa158015612586573d6000803e3d6000fd5b505050506040513d60e081101561259c57600080fd5b508051602082015160609092015190969195509350915050565b60008060006125c586856138b4565b858103979501955050505050565b6000600160ff1b82106126175760405162461bcd60e51b8152600401808060200182810382526028815260200180614f246028913960400191505060405180910390fd5b5090565b600061262f856001600160a01b0316612534565b505090506000620f42408261c350026001600160a01b03168161264e57fe5b04905060008461266057818301612664565b8183035b9050866001600160a01b031663128acb08878787858a6040516020018082151581526020019150506040516020818303038152906040526040518663ffffffff1660e01b815260040180866001600160a01b031681526020018515158152602001848152602001836001600160a01b0316815260200180602001828103825283818151815260200191508051906020019080838360005b838110156127135781810151838201526020016126fb565b50505050905090810190601f1680156127405780820380516001836020036101000a031916815260200191505b5096505050505050506040805180830381600087803b15801561276257600080fd5b505af1158015612776573d6000803e3d6000fd5b505050506040513d604081101561278c57600080fd5b505050505050505050565b600080866001600160a01b0316633850c7bd6040518163ffffffff1660e01b815260040160e06040518083038186803b1580156127d357600080fd5b505afa1580156127e7573d6000803e3d6000fd5b505050506040513d60e08110156127fd57600080fd5b5051905061281e8161280e86613900565b61281786613900565b8989613c32565b9150505b95945050505050565b6000806000866001600160a01b0316633850c7bd6040518163ffffffff1660e01b815260040160e06040518083038186803b15801561286957600080fd5b505afa15801561287d573d6000803e3d6000fd5b505050506040513d60e081101561289357600080fd5b505190506128b3816128a487613900565b6128ad87613900565b89613cf4565b92509250505b94509492505050565b60006128d8856128d28685611e2a565b90613d8f565b6128e6856128d28887611e2a565b116128f2576000612822565b600195945050505050565b60008060006040518060e00160405280888152602001878152602001600081526020016000815260200160006001600160801b03168152602001600060020b8152602001600060020b8152509050600080896001600160a01b0316633850c7bd6040518163ffffffff1660e01b815260040160e06040518083038186803b15801561298757600080fd5b505afa15801561299b573d6000803e3d6000fd5b505050506040513d60e08110156129b157600080fd5b50805160209091015190925090506129ca8188886125b6565b600290810b810b60c0860181905291810b900b60a08501819052845160208601516129f7938e9390613db3565b606085018190526040850182905260a085015160c0860151612a1e938e9390929091612797565b6001600160801b031660808401528251602084015160408501516060860151600093612a4d93909290916128c2565b90508015612a92576000612a6c84866080015187600001516000613de2565b9050612a80612a7a82613ed3565b896138b4565b600290810b900b60c086015250612ac5565b6000612aa9848660800151876020015160006141f2565b9050612ab7612a7a82613ed3565b600290810b900b60a0860152505b612ad88460a001518560c0015189613274565b612ae68460a00151886138b4565b9550612af68460c00151886138b4565b9450505050509550959350505050565b6001600160a01b038316612b4b5760405162461bcd60e51b8152600401808060200182810382526025815260200180614edb6025913960400191505060405180910390fd5b6001600160a01b038216612b905760405162461bcd60e51b8152600401808060200182810382526023815260200180614d9a6023913960400191505060405180910390fd5b612b9b8383836130e8565b612bd881604051806060016040528060268152602001614e01602691396001600160a01b0386166000908152602081905260409020549190612c61565b6001600160a01b038085166000908152602081905260408082209390935590841681522054612c079082612dc2565b6001600160a01b038084166000818152602081815260409182902094909455805185815290519193928716927fddf252ad1be2c89b69c2b068fc378daa952ba7f163c4a11628f55a4df523b3ef92918290030190a3505050565b60008184841115612cf05760405162461bcd60e51b81526004018080602001828103825283818151815260200191508051906020019080838360005b83811015612cb5578181015183820152602001612c9d565b50505050905090810190601f168015612ce25780820380516001836020036101000a031916815260200191505b509250505060405180910390fd5b505050900390565b60007f0000000000000000000000000000000000000000000000000000000000000000612d236142ce565b1415612d5057507f0000000000000000000000000000000000000000000000000000000000000000610907565b612dbb7f00000000000000000000000000000000000000000000000000000000000000007f00000000000000000000000000000000000000000000000000000000000000007f00000000000000000000000000000000000000000000000000000000000000006142d2565b9050610907565b600082820183811015610dcf576040805162461bcd60e51b815260206004820152601b60248201527f536166654d6174683a206164646974696f6e206f766572666c6f770000000000604482015290519081900360640190fd5b5490565b6000806000806000806000612e368f8f8a6131dd565b505093509350935093506000612e5f8c612e598588611e3a90919063ffffffff16565b90611e3a565b90506000612e718c612e598786611e3a565b90508a1580612e7f57508115155b80612e8957508015155b612e8f57fe5b612e9c8f8f84848f614334565b809950819a50829b50505050505050505050985098509895505050505050565b600c546001600160a01b038581169116148015612ed95750804710155b15612fd157600c60009054906101000a90046001600160a01b03166001600160a01b031663d0e30db0826040518263ffffffff1660e01b81526004016000604051808303818588803b158015612f2e57600080fd5b505af1158015612f42573d6000803e3d6000fd5b5050600c5460405163a9059cbb60e01b81526001600160a01b03909116935063a9059cbb9250612f79915085908590600401614bdf565b602060405180830381600087803b158015612f9357600080fd5b505af1158015612fa7573d6000803e3d6000fd5b505050506040513d601f19601f82011682018060405250810190612fcb9190614a01565b50611ee5565b6001600160a01b038316301415612fed57611ed58483836133e8565b611ee5848484846143c8565b604080516000808252602082019092526001600160a01b0384169083906040518082805190602001908083835b602083106130455780518252601f199092019160209182019101613026565b6001836020036101000a03801982511681845116808217855250505050505090500191505060006040518083038185875af1925050503d80600081146130a7576040519150601f19603f3d011682016040523d82523d6000602084013e6130ac565b606091505b50509050806130e8576040805162461bcd60e51b815260206004820152600360248201526253544560e81b604482015290519081900360640190fd5b505050565b6001600160a01b038216613148576040805162461bcd60e51b815260206004820152601f60248201527f45524332303a206d696e7420746f20746865207a65726f206164647265737300604482015290519081900360640190fd5b613154600083836130e8565b6002546131619082612dc2565b6002556001600160a01b0382166000908152602081905260409020546131879082612dc2565b6001600160a01b0383166000818152602081815260408083209490945583518581529351929391927fddf252ad1be2c89b69c2b068fc378daa952ba7f163c4a11628f55a4df523b3ef9281900390910190a35050565b6000806000806000806131f98988600001518960200151614518565b939950919750955093509150876132685760008060008060006132258e8d604001518e60600151614518565b93985091965094509250905061323b8b86611e3a565b9a506132478a85611e3a565b99506132538984611e3a565b985061325f8883611e3a565b97509450505050505b93975093979195509350565b8160020b8360020b126132b4576040805162461bcd60e51b8152602060048201526003602482015262544c5560e81b604482015290519081900360640190fd5b620d89e719600284900b12156132f7576040805162461bcd60e51b8152602060048201526003602482015262544c4d60e81b604482015290519081900360640190fd5b620d89e8600283900b1315613339576040805162461bcd60e51b815260206004820152600360248201526254554d60e81b604482015290519081900360640190fd5b8060020b8360020b8161334857fe5b0760020b15613384576040805162461bcd60e51b8152602060048201526003602482015262544c4960e81b604482015290519081900360640190fd5b8060020b8260020b8161339357fe5b0760020b156130e8576040805162461bcd60e51b815260206004820152600360248201526254554960e81b604482015290519081900360640190fd5b600a546001600160a01b031633146133e657600080fd5b565b604080516001600160a01b038481166024830152604480830185905283518084039091018152606490920183526020820180516001600160e01b031663a9059cbb60e01b1781529251825160009485949389169392918291908083835b602083106134645780518252601f199092019160209182019101613445565b6001836020036101000a0380198251168184511680821785525050505050509050019150506000604051808303816000865af19150503d80600081146134c6576040519150601f19603f3d011682016040523d82523d6000602084013e6134cb565b606091505b50915091508180156134f95750805115806134f957508080602001905160208110156134f657600080fd5b50515b611992576040805162461bcd60e51b815260206004820152600260248201526114d560f21b604482015290519081900360640190fd5b6000613539612cf8565b82604051602001808061190160f01b81525060020183815260200182815260200192505050604051602081830303815290604052805190602001209050919050565b60007f7fffffffffffffffffffffffffffffff5d576e7357a4501ddfe92f46681b20a08211156135dc5760405162461bcd60e51b8152600401808060200182810382526022815260200180614e4e6022913960400191505060405180910390fd5b8360ff16601b14806135f157508360ff16601c145b61362c5760405162461bcd60e51b8152600401808060200182810382526022815260200180614e706022913960400191505060405180910390fd5b600060018686868660405160008152602001604052604051808581526020018460ff1681526020018381526020018281526020019450505050506020604051602081039080840390855afa158015613688573d6000803e3d6000fd5b5050604051601f1901519150506001600160a01b0381166136f0576040805162461bcd60e51b815260206004820152601860248201527f45434453413a20696e76616c6964207369676e61747572650000000000000000604482015290519081900360640190fd5b90505b949350505050565b80546001019055565b6000600160801b82106126175760405162461bcd60e51b8152600401808060200182810382526027815260200180614e276027913960400191505060405180910390fd5b600061375e6001600160a01b0385168484612239565b50909150506001600160801b03811615610dcf57836001600160a01b031663a34123a7848460006040518463ffffffff1660e01b8152600401808460020b81526020018360020b815260200182815260200193505050506040805180830381600087803b1580156137ce57600080fd5b505af11580156137e2573d6000803e3d6000fd5b505050506040513d60408110156137f857600080fd5b50509392505050565b600082821115613858576040805162461bcd60e51b815260206004820152601e60248201527f536166654d6174683a207375627472616374696f6e206f766572666c6f770000604482015290519081900360640190fd5b50900390565b6040805160609490941b6bffffffffffffffffffffffff1916602080860191909152600293840b60e890811b60348701529290930b90911b60378401528051808403601a018152603a9093019052815191012090565b6000808260020b8460020b816138c657fe5b05905060008460020b1280156138ed57508260020b8460020b816138e657fe5b0760020b15155b156138f757600019015b90910292915050565b60008060008360020b12613917578260020b61391f565b8260020b6000035b9050620d89e881111561395d576040805162461bcd60e51b81526020600482015260016024820152601560fa1b604482015290519081900360640190fd5b60006001821661397157600160801b613983565b6ffffcb933bd6fad37aa2d162d1a5940015b70ffffffffffffffffffffffffffffffffff16905060028216156139b7576ffff97272373d413259a46990580e213a0260801c5b60048216156139d6576ffff2e50f5f656932ef12357cf3c7fdcc0260801c5b60088216156139f5576fffe5caca7e10e4e61c3624eaa0941cd00260801c5b6010821615613a14576fffcb9843d60f6159c9db58835c9266440260801c5b6020821615613a33576fff973b41fa98c081472e6896dfb254c00260801c5b6040821615613a52576fff2ea16466c96a3843ec78b326b528610260801c5b6080821615613a71576ffe5dee046a99a2a811c461f1969c30530260801c5b610100821615613a91576ffcbe86c7900a88aedcffc83b479aa3a40260801c5b610200821615613ab1576ff987a7253ac413176f2b074cf7815e540260801c5b610400821615613ad1576ff3392b0822b70005940c7a398e4b70f30260801c5b610800821615613af1576fe7159475a2c29b7443b29c7fa6e889d90260801c5b611000821615613b11576fd097f3bdfd2022b8845ad8f792aa58250260801c5b612000821615613b31576fa9f746462d870fdf8a65dc1f90e061e50260801c5b614000821615613b51576f70d869a156d2a1b890bb3df62baf32f70260801c5b618000821615613b71576f31be135f97d08fd981231505542fcfa60260801c5b62010000821615613b92576f09aa508b5b7a84e1c677de54f3e99bc90260801c5b62020000821615613bb2576e5d6af8dedb81196699c329225ee6040260801c5b62040000821615613bd1576d2216e584f5fa1ea926041bedfe980260801c5b62080000821615613bee576b048a170391f7dc42444e8fa20260801c5b60008460020b1315613c09578060001981613c0557fe5b0490505b640100000000810615613c1d576001613c20565b60005b60ff16602082901c0192505050919050565b6000836001600160a01b0316856001600160a01b03161115613c52579293925b846001600160a01b0316866001600160a01b031611613c7d57613c7685858561455d565b9050612822565b836001600160a01b0316866001600160a01b03161015613cdf576000613ca487868661455d565b90506000613cb38789866145c0565b9050806001600160801b0316826001600160801b031610613cd45780613cd6565b815b92505050612822565b613cea8585846145c0565b9695505050505050565b600080836001600160a01b0316856001600160a01b03161115613d15579293925b846001600160a01b0316866001600160a01b031611613d4057613d398585856145fd565b91506128b9565b836001600160a01b0316866001600160a01b03161015613d7957613d658685856145fd565b9150613d72858785614666565b90506128b9565b613d84858585614666565b905094509492505050565b6000821580613daa57505081810281838281613da757fe5b04145b61092257600080fd5b6000806000613dc58888888888612797565b9050613dd38882878761282b565b90999098509650505050505050565b600082613df05750836136f3565b6fffffffffffffffffffffffffffffffff60601b606085901b168215613e87576001600160a01b03861684810290858281613e2757fe5b041415613e5857818101828110613e5657613e4c83896001600160a01b0316836146a9565b93505050506136f3565b505b613e7e82613e79878a6001600160a01b03168681613e7257fe5b0490611e3a565b6146e3565b925050506136f3565b6001600160a01b03861684810290858281613e9e57fe5b04148015613eab57508082115b613eb457600080fd5b808203613e4c613ece846001600160a01b038b16846146a9565b6146ee565b60006401000276a36001600160a01b03831610801590613f0f575073fffd8963efd1fc6a506488495d951d5263988d266001600160a01b038316105b613f44576040805162461bcd60e51b81526020600482015260016024820152602960f91b604482015290519081900360640190fd5b640100000000600160c01b03602083901b166001600160801b03811160071b81811c67ffffffffffffffff811160061b90811c63ffffffff811160051b90811c61ffff811160041b90811c60ff8111600390811b91821c600f811160021b90811c918211600190811b92831c97908811961790941790921717909117171760808110613fd857607f810383901c9150613fe2565b80607f0383901b91505b908002607f81811c60ff83811c9190911c800280831c81831c1c800280841c81841c1c800280851c81851c1c800280861c81861c1c800280871c81871c1c800280881c81881c1c800280891c81891c1c8002808a1c818a1c1c8002808b1c818b1c1c8002808c1c818c1c1c8002808d1c818d1c1c8002808e1c9c81901c9c909c1c80029c8d901c9e9d607f198f0160401b60c09190911c678000000000000000161760c19b909b1c674000000000000000169a909a1760c29990991c672000000000000000169890981760c39790971c671000000000000000169690961760c49590951c670800000000000000169490941760c59390931c670400000000000000169290921760c69190911c670200000000000000161760c79190911c670100000000000000161760c89190911c6680000000000000161760c99190911c6640000000000000161760ca9190911c6620000000000000161760cb9190911c6610000000000000161760cc9190911c6608000000000000161760cd9190911c66040000000000001617693627a301d71055774c8581026f028f6481ab7f045a5af012a19d003aa9198101608090811d906fdb2df09e81959a81455e260799a0632f8301901d600281810b9083900b146141e357886001600160a01b03166141c782613900565b6001600160a01b031611156141dc57816141de565b805b6141e5565b815b9998505050505050505050565b600081156142605760006001600160a01b038411156142285761422384600160601b876001600160801b0316611a38565b614240565b6001600160801b038516606085901b8161423e57fe5b045b9050614258613ece6001600160a01b03881683611e3a565b9150506136f3565b60006001600160a01b0384111561428e5761428984600160601b876001600160801b03166146a9565b6142a5565b6142a5606085901b6001600160801b0387166146e3565b905080866001600160a01b0316116142bc57600080fd5b6001600160a01b0386160390506136f3565b4690565b60008383836142df6142ce565b3060405160200180868152602001858152602001848152602001838152602001826001600160a01b03168152602001955050505050506040516020818303038152906040528051906020012090509392505050565b600080808361435857508690508580821161434f5780614351565b815b92506143bd565b8561436a575085614351818587611a38565b8461437d57879150614351828588611a38565b614388878787611a38565b91508782101561439f575085614351818587611a38565b8791506143ad828688611a38565b90506143ba828588611a38565b92505b955095509592505050565b604080516001600160a01b0385811660248301528481166044830152606480830185905283518084039091018152608490920183526020820180516001600160e01b03166323b872dd60e01b178152925182516000948594938a169392918291908083835b6020831061444c5780518252601f19909201916020918201910161442d565b6001836020036101000a0380198251168184511680821785525050505050509050019150506000604051808303816000865af19150503d80600081146144ae576040519150601f19603f3d011682016040523d82523d6000602084013e6144b3565b606091505b50915091508180156144e15750805115806144e157508080602001905160208110156144de57600080fd5b50515b61167d576040805162461bcd60e51b815260206004820152600360248201526229aa2360e91b604482015290519081900360640190fd5b600080600080600061452b888888613748565b90506001600160801b0381161561455257614547888888614704565b929750909550935091505b939792965093509350565b6000826001600160a01b0316846001600160a01b0316111561457d579192915b60006145a0856001600160a01b0316856001600160a01b0316600160601b611a38565b90506128226145bb84838888036001600160a01b0316611a38565b614750565b6000826001600160a01b0316846001600160a01b031611156145e0579192915b6136f36145bb83600160601b8787036001600160a01b0316611a38565b6000826001600160a01b0316846001600160a01b0316111561461d579192915b836001600160a01b0316614656606060ff16846001600160801b0316901b8686036001600160a01b0316866001600160a01b0316611a38565b8161465d57fe5b04949350505050565b6000826001600160a01b0316846001600160a01b03161115614686579192915b6136f3826001600160801b03168585036001600160a01b0316600160601b611a38565b60006146b6848484611a38565b9050600082806146c257fe5b8486091115610dcf5760001981106146d957600080fd5b6001019392505050565b808204910615150190565b806001600160a01b0381168114610eb757600080fd5b600080600080600080600061471a8a8a8a612239565b92509250925060008061472f8c868d8d61282b565b9099509750506001600160801b039283169550501691505093509350935093565b806001600160801b0381168114610eb757600080fd5b604051806101c001604052806000815260200160008152602001600060020b8152602001600060020b8152602001600060020b8152602001600081526020016000815260200160006001600160801b0316815260200160008152602001600081526020016000151581526020016000815260200160006001600160a01b0316815260200160006001600160a01b031681525090565b60008083601f84011261480c578182fd5b50813567ffffffffffffffff811115614823578182fd5b60208301915083602082850101111561483b57600080fd5b9250929050565b600060208284031215614853578081fd5b8135610dcf81614d55565b60008060408385031215614870578081fd5b823561487b81614d55565b9150602083013561488b81614d55565b809150509250929050565b600080600080600060a086880312156148ad578081fd5b85516148b881614d55565b60208701519095506148c981614d55565b60408701519094506148da81614d55565b60608701519093506148eb81614d8a565b60808701519092506148fc81614d8a565b809150509295509295909350565b60008060006060848603121561491e578283fd5b833561492981614d55565b9250602084013561493981614d55565b929592945050506040919091013590565b600080600080600080600060e0888a031215614964578182fd5b873561496f81614d55565b9650602088013561497f81614d55565b95506040880135945060608801359350608088013561499d81614d8a565b9699959850939692959460a0840135945060c09093013592915050565b600080604083850312156149cc578182fd5b82356149d781614d55565b946020939093013593505050565b6000602082840312156149f6578081fd5b8135610dcf81614d6d565b600060208284031215614a12578081fd5b8151610dcf81614d6d565b600060208284031215614a2e578081fd5b8151610dcf81614d7b565b60008060008060808587031215614a4e578182fd5b843593506020850135614a6081614d6d565b92506040850135614a7081614d7b565b91506060850135614a8081614d7b565b939692955090935050565b60008060008060608587031215614aa0578182fd5b8435935060208501359250604085013567ffffffffffffffff811115614ac4578283fd5b614ad0878288016147fb565b95989497509550505050565b600060208284031215614aed578081fd5b5051919050565b600080600060608486031215614b08578081fd5b833592506020840135614b1a81614d55565b91506040840135614b2a81614d6d565b809150509250925092565b600080600060608486031215614b49578081fd5b83359250602084013591506040840135614b2a81614d55565b600060208284031215614b73578081fd5b8135610dcf81614d8a565b6001600160a01b0391909116815260200190565b6001600160a01b039485168152928416602084015262ffffff919091166040830152909116606082015260800190565b6001600160a01b0392909216825261ffff16602082015260400190565b6001600160a01b03929092168252602082015260400190565b901515815260200190565b92151583526020830191909152604082015260600190565b90815260200190565b600294850b815292840b602084015290830b604083015290910b606082015260800190565b6000602080835283518082850152825b81811015614c7557858101830151858201604001528201614c59565b81811115614c865783604083870101525b50601f01601f1916929092016040019392505050565b602080825260029082015261135360f21b604082015260600190565b602080825260029082015261495360f01b604082015260600190565b918252602082015260400190565b9283526020830191909152604082015260600190565b93845260208401929092526040830152606082015260800190565b9586526020860194909452604085019290925260608401526001600160801b0390811660808401521660a082015260c00190565b60ff91909116815260200190565b6001600160a01b0381168114614d6a57600080fd5b50565b8015158114614d6a57600080fd5b8060020b8114614d6a57600080fd5b60ff81168114614d6a57600080fdfe45524332303a207472616e7366657220746f20746865207a65726f206164647265737345524332303a206275726e20616d6f756e7420657863656564732062616c616e636545524332303a20617070726f766520746f20746865207a65726f206164647265737345524332303a207472616e7366657220616d6f756e7420657863656564732062616c616e636553616665436173743a2076616c756520646f65736e27742066697420696e20313238206269747345434453413a20696e76616c6964207369676e6174757265202773272076616c756545434453413a20696e76616c6964207369676e6174757265202776272076616c756545524332303a207472616e7366657220616d6f756e74206578636565647320616c6c6f77616e636545524332303a206275726e2066726f6d20746865207a65726f206164647265737345524332303a207472616e736665722066726f6d20746865207a65726f206164647265737345524332303a20617070726f76652066726f6d20746865207a65726f206164647265737353616665436173743a2076616c756520646f65736e27742066697420696e20616e20696e7432353645524332303a2064656372656173656420616c6c6f77616e63652062656c6f77207a65726fa2646970667358221220865d490fe59b97de1a97e67d4f48f3305a7991ce5b782b2853084ba8902d06db64736f6c63430007060033a2646970667358221220c36eb6274f8b3c0b46e20ed5ff0eb728511dfa536e304a7fa274240abeb0c17c64736f6c6343000706003360c060405234801561001057600080fd5b506040516114f03803806114f083398101604081905261002f9161004a565b60609190911b6001600160601b03191660805260a052610082565b6000806040838503121561005c578182fd5b82516001600160a01b0381168114610072578283fd5b6020939093015192949293505050565b60805160601c60a0516114306100c06000398061027f52806102b3528061034f52508060f7528061013c52806105f2528061064652506114306000f3fe608060405234801561001057600080fd5b50600436106100625760003560e01c80634aa4a4fc146100675780637e5af771146100855780639d7b0ea8146100a5578063a18246e2146100c5578063b7af3cdc146100cd578063e9dc6375146100e2575b600080fd5b61006f6100f5565b60405161007c9190611259565b60405180910390f35b610098610093366004610f5f565b610119565b60405161007c919061126d565b6100b86100b3366004610f9f565b610138565b60405161007c9190611278565b6100b861027d565b6100d56102a1565b60405161007c9190611281565b6100d56100f0366004610f9f565b6103af565b7f000000000000000000000000000000000000000000000000000000000000000081565b60006101258383610138565b61012f8584610138565b13949350505050565b60007f00000000000000000000000000000000000000000000000000000000000000006001600160a01b0316836001600160a01b0316141561017d5750606319610277565b8160011415610273576001600160a01b03831673a0b86991c6218b36c1d19d4a2e9eb0ce3606eb4814156101b4575061012c610277565b6001600160a01b03831673dac17f958d2ee523a2206206994597c13d831ec714156101e1575060c8610277565b6001600160a01b038316736b175474e89094c44da98b954eedeac495271d0f141561020e57506064610277565b6001600160a01b038316738daebade922df735c38c80c7ebd708af50815faa141561023c575060c719610277565b6001600160a01b038316732260fac5e5542a773aa44fbcfedf7c193bc2c599141561026b575061012b19610277565b506000610277565b5060005b92915050565b7f000000000000000000000000000000000000000000000000000000000000000081565b606060005b6020811080156102ee57507f000000000000000000000000000000000000000000000000000000000000000081602081106102dd57fe5b1a60f81b6001600160f81b03191615155b156102fb576001016102a6565b60008167ffffffffffffffff8111801561031457600080fd5b506040519080825280601f01601f19166020018201604052801561033f576020820181803683370190505b50905060005b828110156103a8577f0000000000000000000000000000000000000000000000000000000000000000816020811061037957fe5b1a60f81b82828151811061038957fe5b60200101906001600160f81b031916908160001a905350600101610345565b5091505090565b60606000806000806000876001600160a01b03166399fbab88886040518263ffffffff1660e01b81526004016103e59190611278565b6101806040518083038186803b1580156103fe57600080fd5b505afa158015610412573d6000803e3d6000fd5b505050506040513d601f19601f820116820180604052508101906104369190611124565b505050505096509650965096509650505060006104f4896001600160a01b031663c45a01556040518163ffffffff1660e01b815260040160206040518083038186803b15801561048557600080fd5b505afa158015610499573d6000803e3d6000fd5b505050506040513d601f19601f820116820180604052508101906104bd9190610f3c565b6040518060600160405280896001600160a01b03168152602001886001600160a01b031681526020018762ffffff168152506108bf565b9050600061050587876100936109a3565b9050600081156105155787610517565b865b9050600082156105275787610529565b885b90506000846001600160a01b0316633850c7bd6040518163ffffffff1660e01b815260040160e06040518083038186803b15801561056657600080fd5b505afa15801561057a573d6000803e3d6000fd5b505050506040513d601f19601f8201168201806040525081019061059e919061107b565b505050505091505073__$c787ee6af76f3020f7bf05ca68c011e33a$__63c49917d7604051806101c001604052808f8152602001866001600160a01b03168152602001856001600160a01b031681526020017f00000000000000000000000000000000000000000000000000000000000000006001600160a01b0316876001600160a01b03161461063757610632876109a7565b61063f565b61063f6102a1565b81526020017f00000000000000000000000000000000000000000000000000000000000000006001600160a01b0316866001600160a01b03161461068b57610686866109a7565b610693565b6106936102a1565b8152602001866001600160a01b031663313ce5676040518163ffffffff1660e01b815260040160206040518083038186803b1580156106d157600080fd5b505afa1580156106e5573d6000803e3d6000fd5b505050506040513d601f19601f82011682018060405250810190610709919061110a565b60ff168152602001856001600160a01b031663313ce5676040518163ffffffff1660e01b815260040160206040518083038186803b15801561074a57600080fd5b505afa15801561075e573d6000803e3d6000fd5b505050506040513d601f19601f82011682018060405250810190610782919061110a565b60ff16815260200187151581526020018a60020b81526020018960020b81526020018460020b8152602001886001600160a01b031663d0c93a7c6040518163ffffffff1660e01b815260040160206040518083038186803b1580156107e657600080fd5b505afa1580156107fa573d6000803e3d6000fd5b505050506040513d601f19601f8201168201806040525081019061081e9190610fca565b60020b81526020018b62ffffff168152602001886001600160a01b03168152506040518263ffffffff1660e01b815260040161085a9190611294565b60006040518083038186803b15801561087257600080fd5b505af4158015610886573d6000803e3d6000fd5b505050506040513d6000823e601f3d908101601f191682016040526108ae9190810190610fe4565b9d9c50505050505050505050505050565b600081602001516001600160a01b031682600001516001600160a01b0316106108e757600080fd5b50805160208083015160409384015184516001600160a01b0394851681850152939091168385015262ffffff166060808401919091528351808403820181526080840185528051908301206001600160f81b031960a085015294901b6bffffffffffffffffffffffff191660a183015260b58201939093527fe34f199b19b2b4f47f68442619d555527d244f78a3297ea89325f843f87b8b5460d5808301919091528251808303909101815260f5909101909152805191012090565b4690565b606060006109bc836395d89b4160e01b6109e1565b90508051600014156109d9576109d183610c09565b9150506109dc565b90505b919050565b60408051600481526024810182526020810180516001600160e01b03166001600160e01b031985161781529151815160609360009384936001600160a01b03891693919290918291908083835b60208310610a4d5780518252601f199092019160209182019101610a2e565b6001836020036101000a038019825116818451168082178552505050505050905001915050600060405180830381855afa9150503d8060008114610aad576040519150601f19603f3d011682016040523d82523d6000602084013e610ab2565b606091505b5091509150811580610ac357508051155b15610ae1576040518060200160405280600081525092505050610277565b805160201415610b19576000818060200190516020811015610b0257600080fd5b50519050610b0f81610c16565b9350505050610277565b604081511115610bf157808060200190516020811015610b3857600080fd5b8101908080516040519392919084640100000000821115610b5857600080fd5b908301906020820185811115610b6d57600080fd5b8251640100000000811182820188101715610b8757600080fd5b82525081516020918201929091019080838360005b83811015610bb4578181015183820152602001610b9c565b50505050905090810190601f168015610be15780820380516001836020036101000a031916815260200191505b5060405250505092505050610277565b50506040805160208101909152600081529392505050565b60606109d9826006610d3e565b604080516020808252818301909252606091600091906020820181803683370190505090506000805b6020811015610ca0576000858260208110610c5657fe5b1a60f81b90506001600160f81b0319811615610c975780848481518110610c7957fe5b60200101906001600160f81b031916908160001a9053506001909201915b50600101610c3f565b5060008167ffffffffffffffff81118015610cba57600080fd5b506040519080825280601f01601f191660200182016040528015610ce5576020820181803683370190505b50905060005b82811015610d3557838181518110610cff57fe5b602001015160f81c60f81b828281518110610d1657fe5b60200101906001600160f81b031916908160001a905350600101610ceb565b50949350505050565b606060028206158015610d515750600082115b8015610d5e575060288211155b610daf576040805162461bcd60e51b815260206004820152601e60248201527f41646472657373537472696e675574696c3a20494e56414c49445f4c454e0000604482015290519081900360640190fd5b60008267ffffffffffffffff81118015610dc857600080fd5b506040519080825280601f01601f191660200182016040528015610df3576020820181803683370190505b5090506001600160a01b03841660005b60028504811015610e9757600860138290030282901c600f600482901c1660f082168203610e3082610ea1565b868560020281518110610e3f57fe5b60200101906001600160f81b031916908160001a905350610e5f81610ea1565b868560020260010181518110610e7157fe5b60200101906001600160f81b031916908160001a9053505060019092019150610e039050565b5090949350505050565b6000600a8260ff161015610ebc57506030810160f81b6109dc565b506037810160f81b6109dc565b80516109dc816113e2565b8051600281900b81146109dc57600080fd5b80516fffffffffffffffffffffffffffffffff811681146109dc57600080fd5b805161ffff811681146109dc57600080fd5b805162ffffff811681146109dc57600080fd5b805160ff811681146109dc57600080fd5b600060208284031215610f4d578081fd5b8151610f58816113e2565b9392505050565b600080600060608486031215610f73578182fd5b8335610f7e816113e2565b92506020840135610f8e816113e2565b929592945050506040919091013590565b60008060408385031215610fb1578182fd5b8235610fbc816113e2565b946020939093013593505050565b600060208284031215610fdb578081fd5b610f5882610ed4565b600060208284031215610ff5578081fd5b815167ffffffffffffffff8082111561100c578283fd5b818401915084601f83011261101f578283fd5b81518181111561102b57fe5b604051601f8201601f19168101602001838111828210171561104957fe5b604052818152838201602001871015611060578485fd5b6110718260208301602087016113b2565b9695505050505050565b600080600080600080600060e0888a031215611095578283fd5b87516110a0816113e2565b96506110ae60208901610ed4565b95506110bc60408901610f06565b94506110ca60608901610f06565b93506110d860808901610f06565b92506110e660a08901610f2b565b915060c088015180151581146110fa578182fd5b8091505092959891949750929550565b60006020828403121561111b578081fd5b610f5882610f2b565b6000806000806000806000806000806000806101808d8f031215611146578485fd5b8c516bffffffffffffffffffffffff81168114611161578586fd5b9b5061116f60208e01610ec9565b9a5061117d60408e01610ec9565b995061118b60608e01610ec9565b985061119960808e01610f18565b97506111a760a08e01610ed4565b96506111b560c08e01610ed4565b95506111c360e08e01610ee6565b94506101008d015193506101208d015192506111e26101408e01610ee6565b91506111f16101608e01610ee6565b90509295989b509295989b509295989b565b6001600160a01b03169052565b15159052565b60020b9052565b600081518084526112358160208601602086016113b2565b601f01601f19169290920160200192915050565b62ffffff169052565b60ff169052565b6001600160a01b0391909116815260200190565b901515815260200190565b90815260200190565b600060208252610f58602083018461121d565b6000602082528251602083015260208301516112b36040840182611203565b5060408301516112c66060840182611203565b5060608301516101c08060808501526112e36101e085018361121d565b91506080850151601f198584030160a0860152611300838261121d565b92505060a085015161131560c0860182611252565b5060c085015161132860e0860182611252565b5060e085015161010061133d81870183611210565b860151905061012061135186820183611216565b860151905061014061136586820183611216565b860151905061016061137986820183611216565b860151905061018061138d86820183611216565b86015190506101a06113a186820183611249565b8601519050610e9785830182611203565b60005b838110156113cd5781810151838201526020016113b5565b838111156113dc576000848401525b50505050565b6001600160a01b03811681146113f757600080fd5b5056fea264697066735822122083861855546826aad746b64ba7e4236a8423ff7f99c74dd11edee9b5b2c53d4964736f6c63430007060033610120604052600d80546001600160b01b0319166001176001600160b01b0316600160b01b1790553480156200003457600080fd5b5060405162005db538038062005db58339810160408190526200005791620002db565b82826040518060400160405280601b81526020017f556e697377617020563320506f736974696f6e73204e46542d563100000000008152506040518060400160405280600a815260200169554e492d56332d504f5360b01b815250604051806040016040528060018152602001603160f81b8152508282620000e66301ffc9a760e01b6200018d60201b60201c565b8151620000fb90600690602085019062000212565b5080516200011190600790602084019062000212565b50620001246380ac58cd60e01b6200018d565b62000136635b5e139f60e01b6200018d565b6200014863780e9d6360e01b6200018d565b50508251602093840120608052805192019190912060a052506001600160601b0319606092831b811660c05290821b811660e05291901b166101005250620003249050565b6001600160e01b03198082161415620001ed576040805162461bcd60e51b815260206004820152601c60248201527f4552433136353a20696e76616c696420696e7465726661636520696400000000604482015290519081900360640190fd5b6001600160e01b0319166000908152602081905260409020805460ff19166001179055565b828054600181600116156101000203166002900490600052602060002090601f0160209004810192826200024a576000855562000295565b82601f106200026557805160ff191683800117855562000295565b8280016001018555821562000295579182015b828111156200029557825182559160200191906001019062000278565b50620002a3929150620002a7565b5090565b5b80821115620002a35760008155600101620002a8565b80516001600160a01b0381168114620002d657600080fd5b919050565b600080600060608486031215620002f0578283fd5b620002fb84620002be565b92506200030b60208501620002be565b91506200031b60408501620002be565b90509250925092565b60805160a05160c05160601c60e05160601c6101005160601c615a0c620003a960003980612815525080610239528061160952806116f4528061177c5280613ab65280613afc5280613b70525080610a055280610d255280610dec52806127c852806128b55280612baf52806133b25250806114095250806113e85250615a0c6000f3fe6080604052600436106102295760003560e01c80636352211e11610123578063ac9650d8116100ab578063d34879971161006f578063d34879971461064e578063df2ab5bb1461066e578063e985e9c514610681578063f3995c67146106a1578063fc6f7865146106b457610299565b8063ac9650d8146105c6578063b88d4fde146105e6578063c2e3140a14610606578063c45a015514610619578063c87b56dd1461062e57610299565b806388316456116100f2578063883164561461052357806395d89b411461054657806399fbab881461055b578063a22cb46514610593578063a4a78f0c146105b357610299565b80636352211e146104bb5780636c0360eb146104db57806370a08231146104f05780637ac2ff7b1461051057610299565b806323b872dd116101b157806342966c681161017557806342966c681461044d5780634659a4941461046057806349404b7c146104735780634aa4a4fc146104865780634f6ccce71461049b57610299565b806323b872dd146103c35780632f745c59146103e357806330adf81f146104035780633644e5151461041857806342842e0e1461042d57610299565b80630c49ccbe116101f85780630c49ccbe1461034357806312210e8a1461036457806313ead5621461036c57806318160ddd1461037f578063219f5d17146103a157610299565b806301ffc9a71461029e57806306fdde03146102d4578063081812fc146102f6578063095ea7b31461032357610299565b3661029957336001600160a01b037f00000000000000000000000000000000000000000000000000000000000000001614610297576040805162461bcd60e51b81526020600482015260096024820152684e6f7420574554483960b81b604482015290519081900360640190fd5b005b600080fd5b3480156102aa57600080fd5b506102be6102b9366004614ecc565b6106c7565b6040516102cb919061540d565b60405180910390f35b3480156102e057600080fd5b506102e96106ea565b6040516102cb9190615460565b34801561030257600080fd5b506103166103113660046151c6565b610780565b6040516102cb91906152f0565b34801561032f57600080fd5b5061029761033e366004614d96565b6107d3565b610356610351366004614f91565b6108a9565b6040516102cb929190615608565b610297610cf1565b61031661037a366004614c29565b610d03565b34801561038b57600080fd5b50610394610ff7565b6040516102cb9190615418565b6103b46103af366004614fa2565b611008565b6040516102cb939291906155c3565b3480156103cf57600080fd5b506102976103de366004614c82565b61131d565b3480156103ef57600080fd5b506103946103fe366004614d96565b611374565b34801561040f57600080fd5b5061039461139f565b34801561042457600080fd5b506103946113c3565b34801561043957600080fd5b50610297610448366004614c82565b611481565b61029761045b3660046151c6565b61149c565b61029761046e366004614e02565b61156b565b6102976104813660046151de565b611605565b34801561049257600080fd5b5061031661177a565b3480156104a757600080fd5b506103946104b63660046151c6565b61179e565b3480156104c757600080fd5b506103166104d63660046151c6565b6117b4565b3480156104e757600080fd5b506102e96117dc565b3480156104fc57600080fd5b5061039461050b366004614bd5565b6117e1565b61029761051e366004614e02565b611849565b61053661053136600461505e565b611c3b565b6040516102cb94939291906155e4565b34801561055257600080fd5b506102e9612189565b34801561056757600080fd5b5061057b6105763660046151c6565b6121ea565b6040516102cb9c9b9a99989796959493929190615616565b34801561059f57600080fd5b506102976105ae366004614d69565b6123fb565b6102976105c1366004614e02565b612500565b6105d96105d4366004614e5d565b612599565b6040516102cb91906153ad565b3480156105f257600080fd5b50610297610601366004614cc2565b6126d9565b610297610614366004614e02565b612737565b34801561062557600080fd5b506103166127c6565b34801561063a57600080fd5b506102e96106493660046151c6565b6127ea565b34801561065a57600080fd5b50610297610669366004615225565b6128a0565b61029761067c366004614dc1565b61291e565b34801561068d57600080fd5b506102be61069c366004614bf1565b6129f6565b6102976106af366004614e02565b612a24565b6103566106c2366004614f7a565b612a96565b6001600160e01b0319811660009081526020819052604090205460ff165b919050565b60068054604080516020601f60026000196101006001881615020190951694909404938401819004810282018101909252828152606093909290918301828280156107765780601f1061074b57610100808354040283529160200191610776565b820191906000526020600020905b81548152906001019060200180831161075957829003601f168201915b5050505050905090565b600061078b82612f61565b6107b05760405162461bcd60e51b81526004016107a790615499565b60405180910390fd5b506000908152600c6020526040902054600160601b90046001600160a01b031690565b60006107de826117b4565b9050806001600160a01b0316836001600160a01b031614156108315760405162461bcd60e51b81526004018080602001828103825260218152602001806159856021913960400191505060405180910390fd5b806001600160a01b0316610843612f6e565b6001600160a01b0316148061085f575061085f8161069c612f6e565b61089a5760405162461bcd60e51b81526004018080602001828103825260388152602001806158af6038913960400191505060405180910390fd5b6108a48383612f72565b505050565b60008082356108b83382612fe8565b6108d45760405162461bcd60e51b81526004016107a790615473565b8360800135806108e2613084565b111561092b576040805162461bcd60e51b8152602060048201526013602482015272151c985b9cd858dd1a5bdb881d1bdbc81bdb19606a1b604482015290519081900360640190fd5b600061093d6040870160208801615070565b6001600160801b03161161095057600080fd5b84356000908152600c602090815260409182902060018101549092600160801b9091046001600160801b03169161098b918901908901615070565b6001600160801b0316816001600160801b031610156109a957600080fd5b6001828101546001600160501b03166000908152600b60209081526040808320815160608101835281546001600160a01b039081168252919095015490811692850192909252600160a01b90910462ffffff1690830152610a2a7f000000000000000000000000000000000000000000000000000000000000000083613088565b60018501549091506001600160a01b0382169063a34123a790600160501b8104600290810b91600160681b9004900b610a6960408e0160208f01615070565b6040518463ffffffff1660e01b8152600401610a879392919061543a565b6040805180830381600087803b158015610aa057600080fd5b505af1158015610ab4573d6000803e3d6000fd5b505050506040513d601f19601f82011682018060405250810190610ad89190615202565b909850965060408901358810801590610af5575088606001358710155b610b115760405162461bcd60e51b81526004016107a7906154e5565b6001840154600090610b3a903090600160501b8104600290810b91600160681b9004900b613167565b9050600080836001600160a01b031663514ea4bf846040518263ffffffff1660e01b8152600401610b6b9190615418565b60a06040518083038186803b158015610b8357600080fd5b505afa158015610b97573d6000803e3d6000fd5b505050506040513d601f19601f82011682018060405250810190610bbb91906150ba565b50509250925050610be087600201548303876001600160801b0316600160801b6131bc565b6004880180546001600160801b03198116928e016001600160801b039182160181169290921790556003880154610c2191908303908816600160801b6131bc565b6004880180546001600160801b03808216938e01600160801b9283900482160116029190911790556002870182905560038701819055610c6760408d0160208e01615070565b86038760010160106101000a8154816001600160801b0302191690836001600160801b031602179055508b600001357f26f6a048ee9138f2c0ce266f322cb99228e8d619ae2bff30c67f8dcf9d2377b48d6020016020810190610cca9190615070565b8d8d604051610cdb939291906155c3565b60405180910390a2505050505050505050915091565b4715610d0157610d01334761326b565b565b6000836001600160a01b0316856001600160a01b031610610d2357600080fd5b7f00000000000000000000000000000000000000000000000000000000000000006001600160a01b0316631698ee828686866040518463ffffffff1660e01b815260040180846001600160a01b03168152602001836001600160a01b031681526020018262ffffff168152602001935050505060206040518083038186803b158015610dae57600080fd5b505afa158015610dc2573d6000803e3d6000fd5b505050506040513d6020811015610dd857600080fd5b505190506001600160a01b038116610f0e577f00000000000000000000000000000000000000000000000000000000000000006001600160a01b031663a16712958686866040518463ffffffff1660e01b815260040180846001600160a01b03168152602001836001600160a01b031681526020018262ffffff1681526020019350505050602060405180830381600087803b158015610e7757600080fd5b505af1158015610e8b573d6000803e3d6000fd5b505050506040513d6020811015610ea157600080fd5b50516040805163f637731d60e01b81526001600160a01b03858116600483015291519293509083169163f637731d9160248082019260009290919082900301818387803b158015610ef157600080fd5b505af1158015610f05573d6000803e3d6000fd5b50505050610fef565b6000816001600160a01b0316633850c7bd6040518163ffffffff1660e01b815260040160e06040518083038186803b158015610f4957600080fd5b505afa158015610f5d573d6000803e3d6000fd5b505050506040513d60e0811015610f7357600080fd5b505190506001600160a01b038116610fed57816001600160a01b031663f637731d846040518263ffffffff1660e01b815260040180826001600160a01b03168152602001915050600060405180830381600087803b158015610fd457600080fd5b505af1158015610fe8573d6000803e3d6000fd5b505050505b505b949350505050565b6000611003600261335a565b905090565b60008060008360a001358061101b613084565b1115611064576040805162461bcd60e51b8152602060048201526013602482015272151c985b9cd858dd1a5bdb881d1bdbc81bdb19606a1b604482015290519081900360640190fd5b84356000908152600c602090815260408083206001808201546001600160501b0381168652600b855283862084516060808201875282546001600160a01b039081168352929094015480831682890190815262ffffff600160a01b9092048216838901908152885161014081018a528451861681529151909416818a0152925116828701523082850152600160501b8304600290810b810b608080850191909152600160681b909404810b900b60a0830152958c013560c0820152938b013560e0850152908a0135610100840152890135610120830152929061114690613365565b6001870154939a5091985096509150600090611179903090600160501b8104600290810b91600160681b9004900b613167565b9050600080836001600160a01b031663514ea4bf846040518263ffffffff1660e01b81526004016111aa9190615418565b60a06040518083038186803b1580156111c257600080fd5b505afa1580156111d6573d6000803e3d6000fd5b505050506040513d601f19601f820116820180604052508101906111fa91906150ba565b50509250925050611236866002015483038760010160109054906101000a90046001600160801b03166001600160801b0316600160801b6131bc565b6004870180546001600160801b0380821690930183166001600160801b03199091161790556003870154600188015461127d9291840391600160801b9182900416906131bc565b6004870180546001600160801b03600160801b80830482169094018116840291811691909117909155600288018490556003880183905560018801805483810483168e018316909302929091169190911790556040518b35907f3067048beee31b25b2f1681f88dac838c8bba36af25bfb2b7cf7473a5847e35f90611307908d908d908d906155c3565b60405180910390a2505050505050509193909250565b61132e611328612f6e565b82612fe8565b6113695760405162461bcd60e51b81526004018080602001828103825260318152602001806159a66031913960400191505060405180910390fd5b6108a48383836135a0565b6001600160a01b038216600090815260016020526040812061139690836136ec565b90505b92915050565b7f49ecf333e5b8c95c40fdafc95c1ad136e8914a8fb55e9dc8bb01eaa83a2df9ad81565b60007f8b73c3c69bb8fe3d512ecc4cf759cc79239f7b179b0ffacaa9a75d522b39400f7f00000000000000000000000000000000000000000000000000000000000000007f00000000000000000000000000000000000000000000000000000000000000006114306136f8565b3060405160200180868152602001858152602001848152602001838152602001826001600160a01b031681526020019550505050505060405160208183030381529060405280519060200120905090565b6108a4838383604051806020016040528060008152506126d9565b806114a73382612fe8565b6114c35760405162461bcd60e51b81526004016107a790615473565b6000828152600c602052604090206001810154600160801b90046001600160801b03161580156114fe575060048101546001600160801b0316155b801561151c57506004810154600160801b90046001600160801b0316155b6115385760405162461bcd60e51b81526004016107a79061555e565b6000838152600c60205260408120818155600181018290556002810182905560038101829055600401556108a4836136fc565b604080516323f2ebc360e21b815233600482015230602482015260448101879052606481018690526001608482015260ff851660a482015260c4810184905260e4810183905290516001600160a01b03881691638fcbaf0c9161010480830192600092919082900301818387803b1580156115e557600080fd5b505af11580156115f9573d6000803e3d6000fd5b50505050505050505050565b60007f00000000000000000000000000000000000000000000000000000000000000006001600160a01b03166370a08231306040518263ffffffff1660e01b815260040180826001600160a01b0316815260200191505060206040518083038186803b15801561167457600080fd5b505afa158015611688573d6000803e3d6000fd5b505050506040513d602081101561169e57600080fd5b50519050828110156116ec576040805162461bcd60e51b8152602060048201526012602482015271496e73756666696369656e7420574554483960701b604482015290519081900360640190fd5b80156108a4577f00000000000000000000000000000000000000000000000000000000000000006001600160a01b0316632e1a7d4d826040518263ffffffff1660e01b815260040180828152602001915050600060405180830381600087803b15801561175857600080fd5b505af115801561176c573d6000803e3d6000fd5b505050506108a4828261326b565b7f000000000000000000000000000000000000000000000000000000000000000081565b6000806117ac6002846137c9565b509392505050565b60006113998260405180606001604052806029815260200161591160299139600291906137e7565b606090565b60006001600160a01b0382166118285760405162461bcd60e51b815260040180806020018281038252602a8152602001806158e7602a913960400191505060405180910390fd5b6001600160a01b03821660009081526001602052604090206113999061335a565b83611852613084565b1115611896576040805162461bcd60e51b815260206004820152600e60248201526d14195c9b5a5d08195e1c1a5c995960921b604482015290519081900360640190fd5b60006118a06113c3565b7f49ecf333e5b8c95c40fdafc95c1ad136e8914a8fb55e9dc8bb01eaa83a2df9ad88886118cc816137f4565b604080516020808201969096526001600160a01b03909416848201526060840192909252608083015260a08083018a90528151808403909101815260c08301825280519084012061190160f01b60e084015260e283019490945261010280830194909452805180830390940184526101229091019052815191012090506000611954876117b4565b9050806001600160a01b0316886001600160a01b031614156119a75760405162461bcd60e51b81526004018080602001828103825260278152602001806158126027913960400191505060405180910390fd5b6119b081613829565b15611b18576040805160208082018790528183018690526001600160f81b031960f889901b1660608301528251604181840301815260618301808552630b135d3f60e11b90526065830186815260858401948552815160a585015281516001600160a01b03871695631626ba7e958995919260c59091019185019080838360005b83811015611a49578181015183820152602001611a31565b50505050905090810190601f168015611a765780820380516001836020036101000a031916815260200191505b50935050505060206040518083038186803b158015611a9457600080fd5b505afa158015611aa8573d6000803e3d6000fd5b505050506040513d6020811015611abe57600080fd5b50516001600160e01b031916630b135d3f60e11b14611b13576040805162461bcd60e51b815260206004820152600c60248201526b155b985d5d1a1bdc9a5e995960a21b604482015290519081900360640190fd5b611c27565b600060018387878760405160008152602001604052604051808581526020018460ff1681526020018381526020018281526020019450505050506020604051602081039080840390855afa158015611b74573d6000803e3d6000fd5b5050604051601f1901519150506001600160a01b038116611bd0576040805162461bcd60e51b8152602060048201526011602482015270496e76616c6964207369676e617475726560781b604482015290519081900360640190fd5b816001600160a01b0316816001600160a01b031614611c25576040805162461bcd60e51b815260206004820152600c60248201526b155b985d5d1a1bdc9a5e995960a21b604482015290519081900360640190fd5b505b611c318888612f72565b5050505050505050565b60008060008084610140013580611c50613084565b1115611c99576040805162461bcd60e51b8152602060048201526013602482015272151c985b9cd858dd1a5bdb881d1bdbc81bdb19606a1b604482015290519081900360640190fd5b604080516101408101909152600090611d659080611cba60208b018b614bd5565b6001600160a01b03168152602001896020016020810190611cdb9190614bd5565b6001600160a01b03168152602001611cf960608b0160408c016151ac565b62ffffff168152306020820152604001611d1960808b0160608c01614ef4565b60020b8152602001611d3160a08b0160808c01614ef4565b60020b81526020018960a0013581526020018960c0013581526020018960e001358152602001896101000135815250613365565b604051939850919650945091507f13dfcca188a6fed4191bef3f5aee844b8e807ecef38bd393201d7fe5774ff3f490611d9d9061553d565b60405180910390a1611de8611dba61014089016101208a01614bd5565b600d80546001600160b01b0319811660016001600160b01b039283169081019092161790915597508761382f565b6000611e1330611dfe60808b0160608c01614ef4565b611e0e60a08c0160808d01614ef4565b613167565b9050600080836001600160a01b031663514ea4bf846040518263ffffffff1660e01b8152600401611e449190615418565b60a06040518083038186803b158015611e5c57600080fd5b505afa158015611e70573d6000803e3d6000fd5b505050506040513d601f19601f82011682018060405250810190611e9491906150ba565b505092509250506000611f0d8560405180606001604052808e6000016020810190611ebf9190614bd5565b6001600160a01b031681526020018e6020016020810190611ee09190614bd5565b6001600160a01b031681526020018e6040016020810190611f0191906151ac565b62ffffff16905261395d565b905060405180610140016040528060006001600160601b0316815260200160006001600160a01b03168152602001826001600160501b031681526020018c6060016020810190611f5d9190614ef4565b60020b8152602001611f7560a08e0160808f01614ef4565b60020b81526020018a6001600160801b0316815260200184815260200183815260200160006001600160801b0316815260200160006001600160801b0316815250600c60008c815260200190815260200160002060008201518160000160006101000a8154816001600160601b0302191690836001600160601b03160217905550602082015181600001600c6101000a8154816001600160a01b0302191690836001600160a01b0316021790555060408201518160010160006101000a8154816001600160501b0302191690836001600160501b03160217905550606082015181600101600a6101000a81548162ffffff021916908360020b62ffffff160217905550608082015181600101600d6101000a81548162ffffff021916908360020b62ffffff16021790555060a08201518160010160106101000a8154816001600160801b0302191690836001600160801b0316021790555060c0820151816002015560e082015181600301556101008201518160040160006101000a8154816001600160801b0302191690836001600160801b031602179055506101208201518160040160106101000a8154816001600160801b0302191690836001600160801b03160217905550905050897f3067048beee31b25b2f1681f88dac838c8bba36af25bfb2b7cf7473a5847e35f8a8a8a604051612174939291906155c3565b60405180910390a25050505050509193509193565b60078054604080516020601f60026000196101006001881615020190951694909404938401819004810282018101909252828152606093909290918301828280156107765780601f1061074b57610100808354040283529160200191610776565b6000818152600c6020908152604080832081516101408101835281546001600160601b03811682526001600160a01b03600160601b909104169381019390935260018101546001600160501b038116928401839052600160501b8104600290810b810b810b6060860152600160681b8204810b810b810b60808601526001600160801b03600160801b92839004811660a08701529083015460c0860152600383015460e0860152600490920154808316610100860152041661012083015282918291829182918291829182918291829182918291906122db5760405162461bcd60e51b81526004016107a790615513565b6000600b600083604001516001600160501b03166001600160501b031681526020019081526020016000206040518060600160405290816000820160009054906101000a90046001600160a01b03166001600160a01b03166001600160a01b031681526020016001820160009054906101000a90046001600160a01b03166001600160a01b03166001600160a01b031681526020016001820160149054906101000a900462ffffff1662ffffff1662ffffff1681525050905081600001518260200151826000015183602001518460400151866060015187608001518860a001518960c001518a60e001518b61010001518c61012001519d509d509d509d509d509d509d509d509d509d509d509d50505091939597999b5091939597999b565b612403612f6e565b6001600160a01b0316826001600160a01b03161415612469576040805162461bcd60e51b815260206004820152601960248201527f4552433732313a20617070726f766520746f2063616c6c657200000000000000604482015290519081900360640190fd5b8060056000612476612f6e565b6001600160a01b03908116825260208083019390935260409182016000908120918716808252919093529120805460ff1916921515929092179091556124ba612f6e565b6001600160a01b03167f17307eab39ab6107e8899845ad3d59bd9653f200f220920489ca2b5937696c318360405180821515815260200191505060405180910390a35050565b60408051636eb1769f60e11b81523360048201523060248201529051600019916001600160a01b0389169163dd62ed3e91604480820192602092909190829003018186803b15801561255157600080fd5b505afa158015612565573d6000803e3d6000fd5b505050506040513d602081101561257b57600080fd5b505110156125915761259186868686868661156b565b505050505050565b60608167ffffffffffffffff811180156125b257600080fd5b506040519080825280602002602001820160405280156125e657816020015b60608152602001906001900390816125d15790505b50905060005b828110156126d2576000803086868581811061260457fe5b905060200281019061261691906156b0565b6040516126249291906152e0565b600060405180830381855af49150503d806000811461265f576040519150601f19603f3d011682016040523d82523d6000602084013e612664565b606091505b5091509150816126b05760448151101561267d57600080fd5b600481019050808060200190518101906126979190614f10565b60405162461bcd60e51b81526004016107a79190615460565b808484815181106126bd57fe5b602090810291909101015250506001016125ec565b5092915050565b6126ea6126e4612f6e565b83612fe8565b6127255760405162461bcd60e51b81526004018080602001828103825260318152602001806159a66031913960400191505060405180910390fd5b61273184848484613a3f565b50505050565b60408051636eb1769f60e11b8152336004820152306024820152905186916001600160a01b0389169163dd62ed3e91604480820192602092909190829003018186803b15801561278657600080fd5b505afa15801561279a573d6000803e3d6000fd5b505050506040513d60208110156127b057600080fd5b5051101561259157612591868686868686612a24565b7f000000000000000000000000000000000000000000000000000000000000000081565b60606127f582612f61565b6127fe57600080fd5b60405163e9dc637560e01b81526001600160a01b037f0000000000000000000000000000000000000000000000000000000000000000169063e9dc63759061284c9030908690600401615421565b60006040518083038186803b15801561286457600080fd5b505afa158015612878573d6000803e3d6000fd5b505050506040513d6000823e601f3d908101601f191682016040526113999190810190614f10565b60006128ae82840184614fb3565b90506128de7f00000000000000000000000000000000000000000000000000000000000000008260000151613a91565b5084156128f95780515160208201516128f991903388613ab4565b83156129175761291781600001516020015182602001513387613ab4565b5050505050565b6000836001600160a01b03166370a08231306040518263ffffffff1660e01b815260040180826001600160a01b0316815260200191505060206040518083038186803b15801561296d57600080fd5b505afa158015612981573d6000803e3d6000fd5b505050506040513d602081101561299757600080fd5b50519050828110156129e5576040805162461bcd60e51b815260206004820152601260248201527124b739bab33334b1b4b2b73a103a37b5b2b760711b604482015290519081900360640190fd5b801561273157612731848383613c44565b6001600160a01b03918216600090815260056020908152604080832093909416825291909152205460ff1690565b6040805163d505accf60e01b8152336004820152306024820152604481018790526064810186905260ff8516608482015260a4810184905260c4810183905290516001600160a01b0388169163d505accf9160e480830192600092919082900301818387803b1580156115e557600080fd5b6000808235612aa53382612fe8565b612ac15760405162461bcd60e51b81526004016107a790615473565b6000612ad36060860160408701615070565b6001600160801b03161180612b0057506000612af56080860160608701615070565b6001600160801b0316115b612b0957600080fd5b600080612b1c6040870160208801614bd5565b6001600160a01b031614612b3f57612b3a6040860160208701614bd5565b612b41565b305b85356000908152600c602090815260408083206001808201546001600160501b03168552600b8452828520835160608101855281546001600160a01b039081168252919092015490811694820194909452600160a01b90930462ffffff169183019190915292935090612bd47f000000000000000000000000000000000000000000000000000000000000000083613088565b600484015460018501549192506001600160801b0380821692600160801b9283900482169290041615612dca57600185015460405163a34123a760e01b81526001600160a01b0385169163a34123a791612c4b91600160501b8104600290810b92600160681b909204900b9060009060040161543a565b6040805180830381600087803b158015612c6457600080fd5b505af1158015612c78573d6000803e3d6000fd5b505050506040513d601f19601f82011682018060405250810190612c9c9190615202565b5050600185015460009081906001600160a01b0386169063514ea4bf90612cda903090600160501b8104600290810b91600160681b9004900b613167565b6040518263ffffffff1660e01b8152600401612cf69190615418565b60a06040518083038186803b158015612d0e57600080fd5b505afa158015612d22573d6000803e3d6000fd5b505050506040513d601f19601f82011682018060405250810190612d4691906150ba565b50509250925050612d82876002015483038860010160109054906101000a90046001600160801b03166001600160801b0316600160801b6131bc565b84019350612dbb876003015482038860010160109054906101000a90046001600160801b03166001600160801b0316600160801b6131bc565b60028801929092556003870155015b6000806001600160801b038416612de760608e0160408f01615070565b6001600160801b031611612e0a57612e0560608d0160408e01615070565b612e0c565b835b836001600160801b03168d6060016020810190612e299190615070565b6001600160801b031611612e4c57612e4760808e0160608f01615070565b612e4e565b835b60018901546040516309e3d67b60e31b81529294509092506001600160a01b03871691634f1eb3d891612ea1918c91600160501b8104600290810b92600160681b909204900b9088908890600401615346565b6040805180830381600087803b158015612eba57600080fd5b505af1158015612ece573d6000803e3d6000fd5b505050506040513d601f19601f82011682018060405250810190612ef2919061508c565b6004890180546001600160801b03196001600160801b03918216600160801b878a0384160217168689038216179091556040519281169d50169a508c35907f40d0efd1a53d60ecbf40971b9daf7dc90178c3aadc7aab1765632738fa8b8f0190610cdb908b9086908690615383565b6000611399600283613d8b565b3390565b6000818152600c6020526040902080546001600160601b0316600160601b6001600160a01b038516908102919091179091558190612faf826117b4565b6001600160a01b03167f8c5be1e5ebec7d5bd14f71427d1e84f3dd0314c0f7b2291e5b200ac8c7c3b92560405160405180910390a45050565b6000612ff382612f61565b61302e5760405162461bcd60e51b815260040180806020018281038252602c815260200180615883602c913960400191505060405180910390fd5b6000613039836117b4565b9050806001600160a01b0316846001600160a01b031614806130745750836001600160a01b031661306984610780565b6001600160a01b0316145b80610fef5750610fef81856129f6565b4290565b600081602001516001600160a01b031682600001516001600160a01b0316106130b057600080fd5b50805160208083015160409384015184516001600160a01b0394851681850152939091168385015262ffffff166060808401919091528351808403820181526080840185528051908301206001600160f81b031960a085015294901b6001600160601b03191660a183015260b58201939093527fe34f199b19b2b4f47f68442619d555527d244f78a3297ea89325f843f87b8b5460d5808301919091528251808303909101815260f5909101909152805191012090565b604080516001600160601b0319606086901b16602080830191909152600285810b60e890811b60348501529085900b901b60378301528251601a818403018152603a90920190925280519101205b9392505050565b60008080600019858709868602925082811090839003039050806131f257600084116131e757600080fd5b5082900490506131b5565b8084116131fe57600080fd5b6000848688096000868103871696879004966002600389028118808a02820302808a02820302808a02820302808a02820302808a02820302808a02909103029181900381900460010186841190950394909402919094039290920491909117919091029150509392505050565b604080516000808252602082019092526001600160a01b0384169083906040518082805190602001908083835b602083106132b75780518252601f199092019160209182019101613298565b6001836020036101000a03801982511681845116808217855250505050505090500191505060006040518083038185875af1925050503d8060008114613319576040519150601f19603f3d011682016040523d82523d6000602084013e61331e565b606091505b50509050806108a4576040805162461bcd60e51b815260206004820152600360248201526253544560e81b604482015290519081900360640190fd5b600061139982613d97565b6000806000806000604051806060016040528087600001516001600160a01b0316815260200187602001516001600160a01b03168152602001876040015162ffffff1681525090506133d77f000000000000000000000000000000000000000000000000000000000000000082613088565b91506000826001600160a01b0316633850c7bd6040518163ffffffff1660e01b815260040160e06040518083038186803b15801561341457600080fd5b505afa158015613428573d6000803e3d6000fd5b505050506040513d601f19601f8201168201806040525081019061344c919061511b565b505050505050905060006134638860800151613d9b565b905060006134748960a00151613d9b565b905061348b8383838c60c001518d60e001516140cd565b9750505050816001600160a01b0316633c8a7d8d876060015188608001518960a00151896040518060400160405280888152602001336001600160a01b03168152506040516020016134dd9190615583565b6040516020818303038152906040526040518663ffffffff1660e01b815260040161350c959493929190615304565b6040805180830381600087803b15801561352557600080fd5b505af1158015613539573d6000803e3d6000fd5b505050506040513d601f19601f8201168201806040525081019061355d9190615202565b6101008801519195509350841080159061357c57508561012001518310155b6135985760405162461bcd60e51b81526004016107a7906154e5565b509193509193565b826001600160a01b03166135b3826117b4565b6001600160a01b0316146135f85760405162461bcd60e51b815260040180806020018281038252602981526020018061595c6029913960400191505060405180910390fd5b6001600160a01b03821661363d5760405162461bcd60e51b81526004018080602001828103825260248152602001806158396024913960400191505060405180910390fd5b6136488383836108a4565b613653600082612f72565b6001600160a01b03831660009081526001602052604090206136759082614191565b506001600160a01b0382166000908152600160205260409020613698908261419d565b506136a5600282846141a9565b5080826001600160a01b0316846001600160a01b03167fddf252ad1be2c89b69c2b068fc378daa952ba7f163c4a11628f55a4df523b3ef60405160405180910390a4505050565b600061139683836141bf565b4690565b6000613707826117b4565b9050613715816000846108a4565b613720600083612f72565b600082815260086020526040902054600260001961010060018416150201909116041561375e57600082815260086020526040812061375e91614b45565b6001600160a01b03811660009081526001602052604090206137809083614191565b5061378c600283614223565b5060405182906000906001600160a01b038416907fddf252ad1be2c89b69c2b068fc378daa952ba7f163c4a11628f55a4df523b3ef908390a45050565b60008080806137d8868661422f565b909450925050505b9250929050565b6000610fef8484846142aa565b6000908152600c6020526040902080546001600160601b0319811660016001600160601b039283169081019092161790915590565b3b151590565b6001600160a01b03821661388a576040805162461bcd60e51b815260206004820181905260248201527f4552433732313a206d696e7420746f20746865207a65726f2061646472657373604482015290519081900360640190fd5b61389381612f61565b156138e5576040805162461bcd60e51b815260206004820152601c60248201527f4552433732313a20746f6b656e20616c7265616479206d696e74656400000000604482015290519081900360640190fd5b6138f1600083836108a4565b6001600160a01b0382166000908152600160205260409020613913908261419d565b50613920600282846141a9565b5060405181906001600160a01b038416906000907fddf252ad1be2c89b69c2b068fc378daa952ba7f163c4a11628f55a4df523b3ef908290a45050565b6001600160a01b0382166000908152600a60205260409020546001600160501b0316806113995750600d805460016001600160501b03600160b01b8084048216838101909216026001600160b01b03909316929092179092556001600160a01b038085166000908152600a60209081526040808320805469ffffffffffffffffffff191686179055848352600b825291829020865181549085166001600160a01b031991821617825591870151950180549287015162ffffff16600160a01b0262ffffff60a01b19969094169290911691909117939093161790915592915050565b613a4a8484846135a0565b613a5684848484614374565b6127315760405162461bcd60e51b81526004018080602001828103825260328152602001806157e06032913960400191505060405180910390fd5b6000613a9d8383613088565b9050336001600160a01b0382161461139957600080fd5b7f00000000000000000000000000000000000000000000000000000000000000006001600160a01b0316846001600160a01b0316148015613af55750804710155b15613c17577f00000000000000000000000000000000000000000000000000000000000000006001600160a01b031663d0e30db0826040518263ffffffff1660e01b81526004016000604051808303818588803b158015613b5557600080fd5b505af1158015613b69573d6000803e3d6000fd5b50505050507f00000000000000000000000000000000000000000000000000000000000000006001600160a01b031663a9059cbb83836040518363ffffffff1660e01b815260040180836001600160a01b0316815260200182815260200192505050602060405180830381600087803b158015613be557600080fd5b505af1158015613bf9573d6000803e3d6000fd5b505050506040513d6020811015613c0f57600080fd5b506127319050565b6001600160a01b038316301415613c3857613c33848383613c44565b612731565b612731848484846144dc565b604080516001600160a01b038481166024830152604480830185905283518084039091018152606490920183526020820180516001600160e01b031663a9059cbb60e01b1781529251825160009485949389169392918291908083835b60208310613cc05780518252601f199092019160209182019101613ca1565b6001836020036101000a0380198251168184511680821785525050505050509050019150506000604051808303816000865af19150503d8060008114613d22576040519150601f19603f3d011682016040523d82523d6000602084013e613d27565b606091505b5091509150818015613d55575080511580613d555750808060200190516020811015613d5257600080fd5b50515b612917576040805162461bcd60e51b815260206004820152600260248201526114d560f21b604482015290519081900360640190fd5b6000611396838361462c565b5490565b60008060008360020b12613db2578260020b613dba565b8260020b6000035b9050620d89e8811115613df8576040805162461bcd60e51b81526020600482015260016024820152601560fa1b604482015290519081900360640190fd5b600060018216613e0c57600160801b613e1e565b6ffffcb933bd6fad37aa2d162d1a5940015b70ffffffffffffffffffffffffffffffffff1690506002821615613e52576ffff97272373d413259a46990580e213a0260801c5b6004821615613e71576ffff2e50f5f656932ef12357cf3c7fdcc0260801c5b6008821615613e90576fffe5caca7e10e4e61c3624eaa0941cd00260801c5b6010821615613eaf576fffcb9843d60f6159c9db58835c9266440260801c5b6020821615613ece576fff973b41fa98c081472e6896dfb254c00260801c5b6040821615613eed576fff2ea16466c96a3843ec78b326b528610260801c5b6080821615613f0c576ffe5dee046a99a2a811c461f1969c30530260801c5b610100821615613f2c576ffcbe86c7900a88aedcffc83b479aa3a40260801c5b610200821615613f4c576ff987a7253ac413176f2b074cf7815e540260801c5b610400821615613f6c576ff3392b0822b70005940c7a398e4b70f30260801c5b610800821615613f8c576fe7159475a2c29b7443b29c7fa6e889d90260801c5b611000821615613fac576fd097f3bdfd2022b8845ad8f792aa58250260801c5b612000821615613fcc576fa9f746462d870fdf8a65dc1f90e061e50260801c5b614000821615613fec576f70d869a156d2a1b890bb3df62baf32f70260801c5b61800082161561400c576f31be135f97d08fd981231505542fcfa60260801c5b6201000082161561402d576f09aa508b5b7a84e1c677de54f3e99bc90260801c5b6202000082161561404d576e5d6af8dedb81196699c329225ee6040260801c5b6204000082161561406c576d2216e584f5fa1ea926041bedfe980260801c5b62080000821615614089576b048a170391f7dc42444e8fa20260801c5b60008460020b13156140a45780600019816140a057fe5b0490505b6401000000008106156140b85760016140bb565b60005b60ff16602082901c0192505050919050565b6000836001600160a01b0316856001600160a01b031611156140ed579293925b846001600160a01b0316866001600160a01b03161161411857614111858585614644565b9050614188565b836001600160a01b0316866001600160a01b0316101561417a57600061413f878686614644565b9050600061414e8789866146a7565b9050806001600160801b0316826001600160801b03161061416f5780614171565b815b92505050614188565b6141858585846146a7565b90505b95945050505050565b600061139683836146e4565b600061139683836147aa565b6000610fef84846001600160a01b0385166147f4565b815460009082106142015760405162461bcd60e51b81526004018080602001828103825260228152602001806157be6022913960400191505060405180910390fd5b82600001828154811061421057fe5b9060005260206000200154905092915050565b6000611396838361488b565b8154600090819083106142735760405162461bcd60e51b815260040180806020018281038252602281526020018061593a6022913960400191505060405180910390fd5b600084600001848154811061428457fe5b906000526020600020906002020190508060000154816001015492509250509250929050565b600082815260018401602052604081205482816143455760405162461bcd60e51b81526004018080602001828103825283818151815260200191508051906020019080838360005b8381101561430a5781810151838201526020016142f2565b50505050905090810190601f1680156143375780820380516001836020036101000a031916815260200191505b509250505060405180910390fd5b5084600001600182038154811061435857fe5b9060005260206000209060020201600101549150509392505050565b6000614388846001600160a01b0316613829565b61439457506001610fef565b60006144a2630a85bd0160e11b6143a9612f6e565b88878760405160240180856001600160a01b03168152602001846001600160a01b0316815260200183815260200180602001828103825283818151815260200191508051906020019080838360005b838110156144105781810151838201526020016143f8565b50505050905090810190601f16801561443d5780820380516001836020036101000a031916815260200191505b5095505050505050604051602081830303815290604052906001600160e01b0319166020820180516001600160e01b0383818316178352505050506040518060600160405280603281526020016157e0603291396001600160a01b038816919061495f565b905060008180602001905160208110156144bb57600080fd5b50516001600160e01b031916630a85bd0160e11b1492505050949350505050565b604080516001600160a01b0385811660248301528481166044830152606480830185905283518084039091018152608490920183526020820180516001600160e01b03166323b872dd60e01b178152925182516000948594938a169392918291908083835b602083106145605780518252601f199092019160209182019101614541565b6001836020036101000a0380198251168184511680821785525050505050509050019150506000604051808303816000865af19150503d80600081146145c2576040519150601f19603f3d011682016040523d82523d6000602084013e6145c7565b606091505b50915091508180156145f55750805115806145f557508080602001905160208110156145f257600080fd5b50515b612591576040805162461bcd60e51b815260206004820152600360248201526229aa2360e91b604482015290519081900360640190fd5b60009081526001919091016020526040902054151590565b6000826001600160a01b0316846001600160a01b03161115614664579192915b6000614687856001600160a01b0316856001600160a01b0316600160601b6131bc565b90506141886146a284838888036001600160a01b03166131bc565b61496e565b6000826001600160a01b0316846001600160a01b031611156146c7579192915b610fef6146a283600160601b8787036001600160a01b03166131bc565b600081815260018301602052604081205480156147a0578354600019808301919081019060009087908390811061471757fe5b906000526020600020015490508087600001848154811061473457fe5b60009182526020808320909101929092558281526001898101909252604090209084019055865487908061476457fe5b60019003818190600052602060002001600090559055866001016000878152602001908152602001600020600090556001945050505050611399565b6000915050611399565b60006147b6838361462c565b6147ec57508154600181810184556000848152602080822090930184905584548482528286019093526040902091909155611399565b506000611399565b6000828152600184016020526040812054806148595750506040805180820182528381526020808201848152865460018181018955600089815284812095516002909302909501918255915190820155865486845281880190925292909120556131b5565b8285600001600183038154811061486c57fe5b90600052602060002090600202016001018190555060009150506131b5565b600081815260018301602052604081205480156147a057835460001980830191908101906000908790839081106148be57fe5b90600052602060002090600202019050808760000184815481106148de57fe5b60009182526020808320845460029093020191825560019384015491840191909155835482528983019052604090209084019055865487908061491d57fe5b60008281526020808220600260001990940193840201828155600190810183905592909355888152898201909252604082209190915594506113999350505050565b6060610fef8484600085614984565b806001600160801b03811681146106e557600080fd5b6060824710156149c55760405162461bcd60e51b815260040180806020018281038252602681526020018061585d6026913960400191505060405180910390fd5b6149ce85613829565b614a1f576040805162461bcd60e51b815260206004820152601d60248201527f416464726573733a2063616c6c20746f206e6f6e2d636f6e7472616374000000604482015290519081900360640190fd5b600080866001600160a01b031685876040518082805190602001908083835b60208310614a5d5780518252601f199092019160209182019101614a3e565b6001836020036101000a03801982511681845116808217855250505050505090500191505060006040518083038185875af1925050503d8060008114614abf576040519150601f19603f3d011682016040523d82523d6000602084013e614ac4565b606091505b5091509150614ad4828286614adf565b979650505050505050565b60608315614aee5750816131b5565b825115614afe5782518084602001fd5b60405162461bcd60e51b815260206004820181815284516024840152845185939192839260440191908501908083836000831561430a5781810151838201526020016142f2565b50805460018160011615610100020316600290046000825580601f10614b6b5750614b89565b601f016020900490600052602060002090810190614b899190614b8c565b50565b5b80821115614ba15760008155600101614b8d565b5090565b80356106e581615767565b805161ffff811681146106e557600080fd5b803562ffffff811681146106e557600080fd5b600060208284031215614be6578081fd5b81356131b581615767565b60008060408385031215614c03578081fd5b8235614c0e81615767565b91506020830135614c1e81615767565b809150509250929050565b60008060008060808587031215614c3e578182fd5b8435614c4981615767565b93506020850135614c5981615767565b9250614c6760408601614bc2565b91506060850135614c7781615767565b939692955090935050565b600080600060608486031215614c96578081fd5b8335614ca181615767565b92506020840135614cb181615767565b929592945050506040919091013590565b60008060008060808587031215614cd7578182fd5b8435614ce281615767565b93506020850135614cf281615767565b925060408501359150606085013567ffffffffffffffff811115614d14578182fd5b8501601f81018713614d24578182fd5b8035614d37614d3282615719565b6156f5565b818152886020838501011115614d4b578384fd5b81602084016020830137908101602001929092525092959194509250565b60008060408385031215614d7b578182fd5b8235614d8681615767565b91506020830135614c1e8161577c565b60008060408385031215614da8578182fd5b8235614db381615767565b946020939093013593505050565b600080600060608486031215614dd5578081fd5b8335614de081615767565b9250602084013591506040840135614df781615767565b809150509250925092565b60008060008060008060c08789031215614e1a578384fd5b8635614e2581615767565b955060208701359450604087013593506060870135614e43816157ae565b9598949750929560808101359460a0909101359350915050565b60008060208385031215614e6f578182fd5b823567ffffffffffffffff80821115614e86578384fd5b818501915085601f830112614e99578384fd5b813581811115614ea7578485fd5b8660208083028501011115614eba578485fd5b60209290920196919550909350505050565b600060208284031215614edd578081fd5b81356001600160e01b0319811681146131b5578182fd5b600060208284031215614f05578081fd5b81356131b58161578a565b600060208284031215614f21578081fd5b815167ffffffffffffffff811115614f37578182fd5b8201601f81018413614f47578182fd5b8051614f55614d3282615719565b818152856020838501011115614f69578384fd5b61418882602083016020860161573b565b600060808284031215614f8b578081fd5b50919050565b600060a08284031215614f8b578081fd5b600060c08284031215614f8b578081fd5b60008183036080811215614fc5578182fd5b6040516040810167ffffffffffffffff8282108183111715614fe357fe5b816040526060841215614ff4578485fd5b60a083019350818410818511171561500857fe5b50826040528435925061501a83615767565b91825260208401359161502c83615767565b82606083015261503e60408601614bc2565b6080830152815261505160608501614ba5565b6020820152949350505050565b60006101608284031215614f8b578081fd5b600060208284031215615081578081fd5b81356131b581615799565b6000806040838503121561509e578182fd5b82516150a981615799565b6020840151909250614c1e81615799565b600080600080600060a086880312156150d1578283fd5b85516150dc81615799565b80955050602086015193506040860151925060608601516150fc81615799565b608087015190925061510d81615799565b809150509295509295909350565b600080600080600080600060e0888a031215615135578485fd5b875161514081615767565b60208901519097506151518161578a565b955061515f60408901614bb0565b945061516d60608901614bb0565b935061517b60808901614bb0565b925060a088015161518b816157ae565b60c089015190925061519c8161577c565b8091505092959891949750929550565b6000602082840312156151bd578081fd5b61139682614bc2565b6000602082840312156151d7578081fd5b5035919050565b600080604083850312156151f0578182fd5b823591506020830135614c1e81615767565b60008060408385031215615214578182fd5b505080516020909101519092909150565b6000806000806060858703121561523a578182fd5b8435935060208501359250604085013567ffffffffffffffff8082111561525f578384fd5b818701915087601f830112615272578384fd5b813581811115615280578485fd5b886020828501011115615291578485fd5b95989497505060200194505050565b600081518084526152b881602086016020860161573b565b601f01601f19169290920160200192915050565b60020b9052565b6001600160801b03169052565b6000828483379101908152919050565b6001600160a01b0391909116815260200190565b600060018060a01b03871682528560020b60208301528460020b60408301526001600160801b038416606083015260a06080830152614ad460a08301846152a0565b6001600160a01b03959095168552600293840b60208601529190920b60408401526001600160801b03918216606084015216608082015260a00190565b6001600160a01b039390931683526001600160801b03918216602084015216604082015260600190565b6000602080830181845280855180835260408601915060408482028701019250838701855b8281101561540057603f198886030184526153ee8583516152a0565b945092850192908501906001016153d2565b5092979650505050505050565b901515815260200190565b90815260200190565b6001600160a01b03929092168252602082015260400190565b600293840b81529190920b60208201526001600160801b03909116604082015260600190565b60006020825261139660208301846152a0565b6020808252600c908201526b139bdd08185c1c1c9bdd995960a21b604082015260600190565b6020808252602c908201527f4552433732313a20617070726f76656420717565727920666f72206e6f6e657860408201526b34b9ba32b73a103a37b5b2b760a11b606082015260800190565b602080825260149082015273507269636520736c69707061676520636865636b60601b604082015260600190565b60208082526010908201526f125b9d985b1a59081d1bdad95b88125160821b604082015260600190565b602080825260079082015266706f686e63686f60c81b604082015260600190565b6020808252600b908201526a139bdd0818db19585c995960aa1b604082015260600190565b815180516001600160a01b03908116835260208083015182168185015260409283015162ffffff1692840192909252920151909116606082015260800190565b6001600160801b039390931683526020830191909152604082015260600190565b9384526001600160801b039290921660208401526040830152606082015260800190565b918252602082015260400190565b6001600160601b038d1681526001600160a01b038c811660208301528b811660408301528a16606082015262ffffff89166080820152600288900b60a0820152610180810161566860c08301896152cc565b61567560e08301886152d3565b85610100830152846101208301526156916101408301856152d3565b61569f6101608301846152d3565b9d9c50505050505050505050505050565b6000808335601e198436030181126156c6578283fd5b83018035915067ffffffffffffffff8211156156e0578283fd5b6020019150368190038213156137e057600080fd5b60405181810167ffffffffffffffff8111828210171561571157fe5b604052919050565b600067ffffffffffffffff82111561572d57fe5b50601f01601f191660200190565b60005b8381101561575657818101518382015260200161573e565b838111156127315750506000910152565b6001600160a01b0381168114614b8957600080fd5b8015158114614b8957600080fd5b8060020b8114614b8957600080fd5b6001600160801b0381168114614b8957600080fd5b60ff81168114614b8957600080fdfe456e756d657261626c655365743a20696e646578206f7574206f6620626f756e64734552433732313a207472616e7366657220746f206e6f6e20455243373231526563656976657220696d706c656d656e7465724552433732315065726d69743a20617070726f76616c20746f2063757272656e74206f776e65724552433732313a207472616e7366657220746f20746865207a65726f2061646472657373416464726573733a20696e73756666696369656e742062616c616e636520666f722063616c6c4552433732313a206f70657261746f7220717565727920666f72206e6f6e6578697374656e7420746f6b656e4552433732313a20617070726f76652063616c6c6572206973206e6f74206f776e6572206e6f7220617070726f76656420666f7220616c6c4552433732313a2062616c616e636520717565727920666f7220746865207a65726f20616464726573734552433732313a206f776e657220717565727920666f72206e6f6e6578697374656e7420746f6b656e456e756d657261626c654d61703a20696e646578206f7574206f6620626f756e64734552433732313a207472616e73666572206f6620746f6b656e2074686174206973206e6f74206f776e4552433732313a20617070726f76616c20746f2063757272656e74206f776e65724552433732313a207472616e736665722063616c6c6572206973206e6f74206f776e6572206e6f7220617070726f766564a2646970667358221220e1916c59ec0de23483d443fa9b87507126de8c732bbefdb6b47e7bb8bd172edf64736f6c63430007060033",
    "linkReferences": {
      "contracts/dependencies/periphery/contracts/libraries/NFTDescriptor.sol": {
        "NFTDescriptor": [
          {
            "start": 68413,
            "length": 20
          }
        ]
      }
    }
  },
  "methodIdentifiers": {
    "PositionManager()": "ca1e1db4",
    "ST()": "08f3c30c",
    "UAF()": "4affa2c1",
    "UAV()": "ae0e76d5",
    "factory()": "c45a0155",
    "fees()": "9af1d35a",
    "getCurrentTick()": "53aad1d9",
    "pool()": "16f0115b",
    "testInit(address,address,uint256,uint256,uint16)": "e3dd9ffc",
    "weth()": "3fc8cef3"
  },
  "id": 72
}