{
  "abi": [
    {
      "inputs": [
        {
          "internalType": "address",
          "name": "_timelock",
          "type": "address"
        },
        {
          "internalType": "address[]",
          "name": "vestingAddresses",
          "type": "address[]"
        },
        {
          "internalType": "uint256[]",
          "name": "vestingAmounts",
          "type": "uint256[]"
        }
      ],
      "stateMutability": "nonpayable",
      "type": "constructor"
    },
    {
      "anonymous": false,
      "inputs": [
        {
          "indexed": true,
          "internalType": "address",
          "name": "owner",
          "type": "address"
        },
        {
          "indexed": true,
          "internalType": "address",
          "name": "spender",
          "type": "address"
        },
        {
          "indexed": false,
          "internalType": "uint256",
          "name": "value",
          "type": "uint256"
        }
      ],
      "name": "Approval",
      "type": "event"
    },
    {
      "anonymous": false,
      "inputs": [
        {
          "indexed": true,
          "internalType": "address",
          "name": "authorizer",
          "type": "address"
        },
        {
          "indexed": true,
          "internalType": "bytes32",
          "name": "nonce",
          "type": "bytes32"
        }
      ],
      "name": "AuthorizationUsed",
      "type": "event"
    },
    {
      "anonymous": false,
      "inputs": [
        {
          "indexed": true,
          "internalType": "address",
          "name": "from",
          "type": "address"
        },
        {
          "indexed": true,
          "internalType": "address",
          "name": "to",
          "type": "address"
        },
        {
          "indexed": false,
          "internalType": "uint256",
          "name": "value",
          "type": "uint256"
        }
      ],
      "name": "Transfer",
      "type": "event"
    },
    {
      "inputs": [],
      "name": "PERMIT_TYPEHASH",
      "outputs": [
        {
          "internalType": "bytes32",
          "name": "",
          "type": "bytes32"
        }
      ],
      "stateMutability": "view",
      "type": "function"
    },
    {
      "inputs": [],
      "name": "TRANSFER_WITH_AUTHORIZATION_TYPEHASH",
      "outputs": [
        {
          "internalType": "bytes32",
          "name": "",
          "type": "bytes32"
        }
      ],
      "stateMutability": "view",
      "type": "function"
    },
    {
      "inputs": [],
      "name": "_totalSupply",
      "outputs": [
        {
          "internalType": "uint256",
          "name": "",
          "type": "uint256"
        }
      ],
      "stateMutability": "view",
      "type": "function"
    },
    {
      "inputs": [
        {
          "internalType": "address",
          "name": "owner",
          "type": "address"
        },
        {
          "internalType": "address",
          "name": "spender",
          "type": "address"
        }
      ],
      "name": "allowance",
      "outputs": [
        {
          "internalType": "uint256",
          "name": "",
          "type": "uint256"
        }
      ],
      "stateMutability": "view",
      "type": "function"
    },
    {
      "inputs": [
        {
          "internalType": "address",
          "name": "spender",
          "type": "address"
        },
        {
          "internalType": "uint256",
          "name": "amount",
          "type": "uint256"
        }
      ],
      "name": "approve",
      "outputs": [
        {
          "internalType": "bool",
          "name": "",
          "type": "bool"
        }
      ],
      "stateMutability": "nonpayable",
      "type": "function"
    },
    {
      "inputs": [
        {
          "internalType": "address",
          "name": "",
          "type": "address"
        },
        {
          "internalType": "bytes32",
          "name": "",
          "type": "bytes32"
        }
      ],
      "name": "authorizationState",
      "outputs": [
        {
          "internalType": "bool",
          "name": "",
          "type": "bool"
        }
      ],
      "stateMutability": "view",
      "type": "function"
    },
    {
      "inputs": [
        {
          "internalType": "address",
          "name": "account",
          "type": "address"
        }
      ],
      "name": "balanceOf",
      "outputs": [
        {
          "internalType": "uint256",
          "name": "",
          "type": "uint256"
        }
      ],
      "stateMutability": "view",
      "type": "function"
    },
    {
      "inputs": [
        {
          "internalType": "uint256",
          "name": "amount",
          "type": "uint256"
        }
      ],
      "name": "burn",
      "outputs": [],
      "stateMutability": "nonpayable",
      "type": "function"
    },
    {
      "inputs": [
        {
          "internalType": "address",
          "name": "account",
          "type": "address"
        },
        {
          "internalType": "uint256",
          "name": "amount",
          "type": "uint256"
        }
      ],
      "name": "burnFrom",
      "outputs": [],
      "stateMutability": "nonpayable",
      "type": "function"
    },
    {
      "inputs": [],
      "name": "decimals",
      "outputs": [
        {
          "internalType": "uint8",
          "name": "",
          "type": "uint8"
        }
      ],
      "stateMutability": "view",
      "type": "function"
    },
    {
      "inputs": [
        {
          "internalType": "address",
          "name": "spender",
          "type": "address"
        },
        {
          "internalType": "uint256",
          "name": "subtractedValue",
          "type": "uint256"
        }
      ],
      "name": "decreaseAllowance",
      "outputs": [
        {
          "internalType": "bool",
          "name": "",
          "type": "bool"
        }
      ],
      "stateMutability": "nonpayable",
      "type": "function"
    },
    {
      "inputs": [],
      "name": "getChainId",
      "outputs": [
        {
          "internalType": "uint256",
          "name": "chainId",
          "type": "uint256"
        }
      ],
      "stateMutability": "pure",
      "type": "function"
    },
    {
      "inputs": [],
      "name": "getDomainSeparator",
      "outputs": [
        {
          "internalType": "bytes32",
          "name": "",
          "type": "bytes32"
        }
      ],
      "stateMutability": "view",
      "type": "function"
    },
    {
      "inputs": [
        {
          "internalType": "address",
          "name": "spender",
          "type": "address"
        },
        {
          "internalType": "uint256",
          "name": "addedValue",
          "type": "uint256"
        }
      ],
      "name": "increaseAllowance",
      "outputs": [
        {
          "internalType": "bool",
          "name": "",
          "type": "bool"
        }
      ],
      "stateMutability": "nonpayable",
      "type": "function"
    },
    {
      "inputs": [
        {
          "internalType": "address",
          "name": "to",
          "type": "address"
        },
        {
          "internalType": "uint256",
          "name": "value",
          "type": "uint256"
        }
      ],
      "name": "mint",
      "outputs": [],
      "stateMutability": "nonpayable",
      "type": "function"
    },
    {
      "inputs": [],
      "name": "name",
      "outputs": [
        {
          "internalType": "string",
          "name": "",
          "type": "string"
        }
      ],
      "stateMutability": "view",
      "type": "function"
    },
    {
      "inputs": [
        {
          "internalType": "address",
          "name": "",
          "type": "address"
        }
      ],
      "name": "nonces",
      "outputs": [
        {
          "internalType": "uint256",
          "name": "",
          "type": "uint256"
        }
      ],
      "stateMutability": "view",
      "type": "function"
    },
    {
      "inputs": [
        {
          "internalType": "address",
          "name": "owner",
          "type": "address"
        },
        {
          "internalType": "address",
          "name": "spender",
          "type": "address"
        },
        {
          "internalType": "uint256",
          "name": "value",
          "type": "uint256"
        },
        {
          "internalType": "uint256",
          "name": "deadline",
          "type": "uint256"
        },
        {
          "internalType": "uint8",
          "name": "v",
          "type": "uint8"
        },
        {
          "internalType": "bytes32",
          "name": "r",
          "type": "bytes32"
        },
        {
          "internalType": "bytes32",
          "name": "s",
          "type": "bytes32"
        }
      ],
      "name": "permit",
      "outputs": [],
      "stateMutability": "nonpayable",
      "type": "function"
    },
    {
      "inputs": [],
      "name": "symbol",
      "outputs": [
        {
          "internalType": "string",
          "name": "",
          "type": "string"
        }
      ],
      "stateMutability": "view",
      "type": "function"
    },
    {
      "inputs": [],
      "name": "timelock",
      "outputs": [
        {
          "internalType": "address",
          "name": "",
          "type": "address"
        }
      ],
      "stateMutability": "view",
      "type": "function"
    },
    {
      "inputs": [],
      "name": "totalSupply",
      "outputs": [
        {
          "internalType": "uint256",
          "name": "",
          "type": "uint256"
        }
      ],
      "stateMutability": "view",
      "type": "function"
    },
    {
      "inputs": [
        {
          "internalType": "address",
          "name": "recipient",
          "type": "address"
        },
        {
          "internalType": "uint256",
          "name": "amount",
          "type": "uint256"
        }
      ],
      "name": "transfer",
      "outputs": [
        {
          "internalType": "bool",
          "name": "",
          "type": "bool"
        }
      ],
      "stateMutability": "nonpayable",
      "type": "function"
    },
    {
      "inputs": [
        {
          "internalType": "address",
          "name": "sender",
          "type": "address"
        },
        {
          "internalType": "address",
          "name": "recipient",
          "type": "address"
        },
        {
          "internalType": "uint256",
          "name": "amount",
          "type": "uint256"
        }
      ],
      "name": "transferFrom",
      "outputs": [
        {
          "internalType": "bool",
          "name": "",
          "type": "bool"
        }
      ],
      "stateMutability": "nonpayable",
      "type": "function"
    },
    {
      "inputs": [
        {
          "internalType": "address",
          "name": "from",
          "type": "address"
        },
        {
          "internalType": "address",
          "name": "to",
          "type": "address"
        },
        {
          "internalType": "uint256",
          "name": "value",
          "type": "uint256"
        },
        {
          "internalType": "uint256",
          "name": "validAfter",
          "type": "uint256"
        },
        {
          "internalType": "uint256",
          "name": "validBefore",
          "type": "uint256"
        },
        {
          "internalType": "bytes32",
          "name": "nonce",
          "type": "bytes32"
        },
        {
          "internalType": "uint8",
          "name": "v",
          "type": "uint8"
        },
        {
          "internalType": "bytes32",
          "name": "r",
          "type": "bytes32"
        },
        {
          "internalType": "bytes32",
          "name": "s",
          "type": "bytes32"
        }
      ],
      "name": "transferWithAuthorization",
      "outputs": [],
      "stateMutability": "nonpayable",
      "type": "function"
    },
    {
      "inputs": [
        {
          "internalType": "address",
          "name": "newMinter",
          "type": "address"
        }
      ],
      "name": "updateMinter",
      "outputs": [],
      "stateMutability": "nonpayable",
      "type": "function"
    }
  ],
  "bytecode": {
    "object": "0x60806040523480156200001157600080fd5b5060405162001ade38038062001ade833981810160405260608110156200003757600080fd5b8151602083018051604051929492938301929190846401000000008211156200005f57600080fd5b9083019060208201858111156200007557600080fd5b82518660208202830111640100000000821117156200009357600080fd5b82525081516020918201928201910280838360005b83811015620000c2578181015183820152602001620000a8565b5050505090500160405260200180516040519392919084640100000000821115620000ec57600080fd5b9083019060208201858111156200010257600080fd5b82518660208202830111640100000000821117156200012057600080fd5b82525081516020918201928201910280838360005b838110156200014f57818101518382015260200162000135565b50505050909101604081810181526008825267155b9a5c1a5b1bdd60c21b60208084019182528251808401909352600583526414125313d560da1b908301528251929650909450620001a793506003925090620003cd565b508051620001bd906004906020840190620003cd565b50506005805460ff1916601217905550620001d9828262000207565b5050600580546001600160a01b0390921661010002610100600160a81b031990921691909117905562000479565b60005b825181101562000257576200024e8382815181106200022557fe5b60200260200101518383815181106200023a57fe5b60200260200101516200025c60201b60201c565b6001016200020a565b505050565b6001600160a01b038216620002b8576040805162461bcd60e51b815260206004820152601f60248201527f45524332303a206d696e7420746f20746865207a65726f206164647265737300604482015290519081900360640190fd5b620002c66000838362000257565b620002e2816002546200036b60201b62000dd61790919060201c565b6002556001600160a01b038216600090815260208181526040909120546200031591839062000dd66200036b821b17901c565b6001600160a01b0383166000818152602081815260408083209490945583518581529351929391927fddf252ad1be2c89b69c2b068fc378daa952ba7f163c4a11628f55a4df523b3ef9281900390910190a35050565b600082820183811015620003c6576040805162461bcd60e51b815260206004820152601b60248201527f536166654d6174683a206164646974696f6e206f766572666c6f770000000000604482015290519081900360640190fd5b9392505050565b828054600181600116156101000203166002900490600052602060002090601f01602090048101928262000405576000855562000450565b82601f106200042057805160ff191683800117855562000450565b8280016001018555821562000450579182015b828111156200045057825182559160200191906001019062000433565b506200045e92915062000462565b5090565b5b808211156200045e576000815560010162000463565b61165580620004896000396000f3fe608060405234801561001057600080fd5b50600436106101735760003560e01c806370a08231116100de578063a9059cbb11610097578063dd62ed3e11610071578063dd62ed3e146104ad578063e3ee160e146104db578063e94a01021461053a578063ed24911d1461056657610173565b8063a9059cbb1461040c578063d33219b414610438578063d505accf1461045c57610173565b806370a082311461035857806379cc67901461037e5780637ecebe00146103aa57806395d89b41146103d0578063a0cc6a68146103d8578063a457c2d7146103e057610173565b80633408e470116101305780633408e470146102ab57806339509351146102b35780633eaaf86b146102df57806340c10f19146102e757806342966c68146103155780634eb03f6e1461033257610173565b806306fdde0314610178578063095ea7b3146101f557806318160ddd1461023557806323b872dd1461024f57806330adf81f14610285578063313ce5671461028d575b600080fd5b61018061056e565b6040805160208082528351818301528351919283929083019185019080838360005b838110156101ba5781810151838201526020016101a2565b50505050905090810190601f1680156101e75780820380516001836020036101000a031916815260200191505b509250505060405180910390f35b6102216004803603604081101561020b57600080fd5b506001600160a01b038135169060200135610604565b604080519115158252519081900360200190f35b61023d610621565b60408051918252519081900360200190f35b6102216004803603606081101561026557600080fd5b506001600160a01b03813581169160208101359091169060400135610627565b61023d6106ae565b6102956106d2565b6040805160ff9092168252519081900360200190f35b61023d6106db565b610221600480360360408110156102c957600080fd5b506001600160a01b0381351690602001356106df565b61023d61072d565b610313600480360360408110156102fd57600080fd5b506001600160a01b038135169060200135610733565b005b6103136004803603602081101561032b57600080fd5b5035610741565b6103136004803603602081101561034857600080fd5b50356001600160a01b0316610755565b61023d6004803603602081101561036e57600080fd5b50356001600160a01b0316610829565b6103136004803603604081101561039457600080fd5b506001600160a01b038135169060200135610844565b61023d600480360360208110156103c057600080fd5b50356001600160a01b031661089e565b6101806108b0565b61023d610911565b610221600480360360408110156103f657600080fd5b506001600160a01b038135169060200135610935565b6102216004803603604081101561042257600080fd5b506001600160a01b03813516906020013561099d565b6104406109b1565b604080516001600160a01b039092168252519081900360200190f35b610313600480360360e081101561047257600080fd5b506001600160a01b03813581169160208101359091169060408101359060608101359060ff6080820135169060a08101359060c001356109c5565b61023d600480360360408110156104c357600080fd5b506001600160a01b0381358116916020013516610ac2565b61031360048036036101208110156104f257600080fd5b506001600160a01b03813581169160208101359091169060408101359060608101359060808101359060a08101359060ff60c0820135169060e0810135906101000135610aed565b6102216004803603604081101561055057600080fd5b506001600160a01b038135169060200135610cf8565b61023d610d18565b60038054604080516020601f60026000196101006001881615020190951694909404938401819004810282018101909252828152606093909290918301828280156105fa5780601f106105cf576101008083540402835291602001916105fa565b820191906000526020600020905b8154815290600101906020018083116105dd57829003601f168201915b5050505050905090565b6000610618610611610e37565b8484610e3b565b50600192915050565b60025490565b6000610634848484610f27565b6106a484610640610e37565b61069f85604051806060016040528060288152602001611523602891396001600160a01b038a1660009081526001602052604081209061067e610e37565b6001600160a01b031681526020810191909152604001600020549190611082565b610e3b565b5060019392505050565b7f6e71edae12b1b97f4d1f60370fef10105fa2faae0126114a169c64845d6126c981565b60055460ff1690565b4690565b60006106186106ec610e37565b8461069f85600160006106fd610e37565b6001600160a01b03908116825260208083019390935260409182016000908120918c168152925290205490610dd6565b60025481565b61073d8282611119565b5050565b61075261074c610e37565b82611209565b50565b600654600160a01b900460ff161561079e5760405162461bcd60e51b815260040180806020018281038252602281526020018061156f6022913960400191505060405180910390fd5b6001600160a01b0381166107f9576040805162461bcd60e51b815260206004820152601e60248201527f50494c4f543a3a20494e56414c49445f4d494e5445525f414444524553530000604482015290519081900360640190fd5b6006805460ff60a01b196001600160a01b039093166001600160a01b03199091161791909116600160a01b179055565b6001600160a01b031660009081526020819052604090205490565b600061087b8260405180606001604052806024815260200161154b602491396108748661086f610e37565b610ac2565b9190611082565b905061088f83610889610e37565b83610e3b565b6108998383611209565b505050565b60076020526000908152604090205481565b60048054604080516020601f60026000196101006001881615020190951694909404938401819004810282018101909252828152606093909290918301828280156105fa5780601f106105cf576101008083540402835291602001916105fa565b7f7c7c6cdb67a18743f49ec6fa9b35f50d52ed05cbed4cc592e13b44501c1a226781565b6000610618610942610e37565b8461069f856040518060600160405280602581526020016115fb602591396001600061096c610e37565b6001600160a01b03908116825260208083019390935260409182016000908120918d16815292529020549190611082565b60006106186109aa610e37565b8484610f27565b60055461010090046001600160a01b031681565b42841015610a11576040805162461bcd60e51b815260206004820152601460248201527314125313d50e8e881055551217d156141254915160621b604482015290519081900360640190fd5b6001600160a01b038088166000818152600760208181526040808420805482517f6e71edae12b1b97f4d1f60370fef10105fa2faae0126114a169c64845d6126c981860152808401889052978e166060890152608088018d905260a0880181905260c08089018d90528351808a03909101815260e09098019092528651968301969096209490935252600101909155610aad8882868686611305565b610ab8888888610e3b565b5050505050505050565b6001600160a01b03918216600090815260016020908152604080832093909416825291909152205490565b854211610b41576040805162461bcd60e51b815260206004820152601a60248201527f50494c4f543a3a20415554485f4e4f545f5945545f56414c4944000000000000604482015290519081900360640190fd5b844210610b8c576040805162461bcd60e51b815260206004820152601460248201527314125313d50e8e881055551217d156141254915160621b604482015290519081900360640190fd5b6001600160a01b038916600090815260086020908152604080832087845290915290205460ff1615610c05576040805162461bcd60e51b815260206004820152601960248201527f50494c4f543a3a20415554485f414c52454144595f5553454400000000000000604482015290519081900360640190fd5b604080517f7c7c6cdb67a18743f49ec6fa9b35f50d52ed05cbed4cc592e13b44501c1a22676020808301919091526001600160a01b03808d16838501528b166060830152608082018a905260a0820189905260c0820188905260e0808301889052835180840390910181526101009092019092528051910120610c8b8a82868686611305565b6001600160a01b038a166000818152600860209081526040808320898452909152808220805460ff19166001179055518792917f98de503528ee59b575ef0c0a2576a82497bfc029a5685b209e9ec333479b10a591a3610cec8a8a8a610f27565b50505050505050505050565b600860209081526000928352604080842090915290825290205460ff1681565b60007f8b73c3c69bb8fe3d512ecc4cf759cc79239f7b179b0ffacaa9a75d522b39400f7f96f8699b9d60ee03e2ae096e7ed75448335015f6b0f67e4f1540d650607f9ed97fc89efdaa54c0f20c7adf612882df0950f5a951637e0307cdcb4c672f298b8bc6610d856106db565b3060405160200180868152602001858152602001848152602001838152602001826001600160a01b031681526020019550505050505060405160208183030381529060405280519060200120905090565b600082820183811015610e30576040805162461bcd60e51b815260206004820152601b60248201527f536166654d6174683a206164646974696f6e206f766572666c6f770000000000604482015290519081900360640190fd5b9392505050565b3390565b6001600160a01b038316610e805760405162461bcd60e51b81526004018080602001828103825260248152602001806115d76024913960400191505060405180910390fd5b6001600160a01b038216610ec55760405162461bcd60e51b81526004018080602001828103825260228152602001806114db6022913960400191505060405180910390fd5b6001600160a01b03808416600081815260016020908152604080832094871680845294825291829020859055815185815291517f8c5be1e5ebec7d5bd14f71427d1e84f3dd0314c0f7b2291e5b200ac8c7c3b9259281900390910190a3505050565b6001600160a01b038316610f6c5760405162461bcd60e51b81526004018080602001828103825260258152602001806115b26025913960400191505060405180910390fd5b6001600160a01b038216610fb15760405162461bcd60e51b81526004018080602001828103825260238152602001806114966023913960400191505060405180910390fd5b610fbc838383610899565b610ff9816040518060600160405280602681526020016114fd602691396001600160a01b0386166000908152602081905260409020549190611082565b6001600160a01b0380851660009081526020819052604080822093909355908416815220546110289082610dd6565b6001600160a01b038084166000818152602081815260409182902094909455805185815290519193928716927fddf252ad1be2c89b69c2b068fc378daa952ba7f163c4a11628f55a4df523b3ef92918290030190a3505050565b600081848411156111115760405162461bcd60e51b81526004018080602001828103825283818151815260200191508051906020019080838360005b838110156110d65781810151838201526020016110be565b50505050905090810190601f1680156111035780820380516001836020036101000a031916815260200191505b509250505060405180910390fd5b505050900390565b6001600160a01b038216611174576040805162461bcd60e51b815260206004820152601f60248201527f45524332303a206d696e7420746f20746865207a65726f206164647265737300604482015290519081900360640190fd5b61118060008383610899565b60025461118d9082610dd6565b6002556001600160a01b0382166000908152602081905260409020546111b39082610dd6565b6001600160a01b0383166000818152602081815260408083209490945583518581529351929391927fddf252ad1be2c89b69c2b068fc378daa952ba7f163c4a11628f55a4df523b3ef9281900390910190a35050565b6001600160a01b03821661124e5760405162461bcd60e51b81526004018080602001828103825260218152602001806115916021913960400191505060405180910390fd5b61125a82600083610899565b611297816040518060600160405280602281526020016114b9602291396001600160a01b0385166000908152602081905260409020549190611082565b6001600160a01b0383166000908152602081905260409020556002546112bd9082611438565b6002556040805182815290516000916001600160a01b038516917fddf252ad1be2c89b69c2b068fc378daa952ba7f163c4a11628f55a4df523b3ef9181900360200190a35050565b600061130f610d18565b85604051602001808061190160f01b81525060020183815260200182815260200192505050604051602081830303815290604052805190602001209050600060018286868660405160008152602001604052604051808581526020018460ff1681526020018381526020018281526020019450505050506020604051602081039080840390855afa1580156113a8573d6000803e3d6000fd5b5050604051601f1901519150506001600160a01b038116158015906113de5750866001600160a01b0316816001600160a01b0316145b61142f576040805162461bcd60e51b815260206004820152601960248201527f50494c4f543a3a20494e56414c49445f5349474e415455524500000000000000604482015290519081900360640190fd5b50505050505050565b60008282111561148f576040805162461bcd60e51b815260206004820152601e60248201527f536166654d6174683a207375627472616374696f6e206f766572666c6f770000604482015290519081900360640190fd5b5090039056fe45524332303a207472616e7366657220746f20746865207a65726f206164647265737345524332303a206275726e20616d6f756e7420657863656564732062616c616e636545524332303a20617070726f766520746f20746865207a65726f206164647265737345524332303a207472616e7366657220616d6f756e7420657863656564732062616c616e636545524332303a207472616e7366657220616d6f756e74206578636565647320616c6c6f77616e636545524332303a206275726e20616d6f756e74206578636565647320616c6c6f77616e636550494c4f543a3a204d494e5445525f414c52454144595f494e495449414c495a454445524332303a206275726e2066726f6d20746865207a65726f206164647265737345524332303a207472616e736665722066726f6d20746865207a65726f206164647265737345524332303a20617070726f76652066726f6d20746865207a65726f206164647265737345524332303a2064656372656173656420616c6c6f77616e63652062656c6f77207a65726fa26469706673582212203a1f829014fdc18db4d8a09c609d19376285c4f3a63c2176b5eb5dad3d267e2264736f6c63430007060033",
    "linkReferences": {}
  },
  "methodIdentifiers": {
    "PERMIT_TYPEHASH()": "30adf81f",
    "TRANSFER_WITH_AUTHORIZATION_TYPEHASH()": "a0cc6a68",
    "_totalSupply()": "3eaaf86b",
    "allowance(address,address)": "dd62ed3e",
    "approve(address,uint256)": "095ea7b3",
    "authorizationState(address,bytes32)": "e94a0102",
    "balanceOf(address)": "70a08231",
    "burn(uint256)": "42966c68",
    "burnFrom(address,uint256)": "79cc6790",
    "decimals()": "313ce567",
    "decreaseAllowance(address,uint256)": "a457c2d7",
    "getChainId()": "3408e470",
    "getDomainSeparator()": "ed24911d",
    "increaseAllowance(address,uint256)": "39509351",
    "mint(address,uint256)": "40c10f19",
    "name()": "06fdde03",
    "nonces(address)": "7ecebe00",
    "permit(address,address,uint256,uint256,uint8,bytes32,bytes32)": "d505accf",
    "symbol()": "95d89b41",
    "timelock()": "d33219b4",
    "totalSupply()": "18160ddd",
    "transfer(address,uint256)": "a9059cbb",
    "transferFrom(address,address,uint256)": "23b872dd",
    "transferWithAuthorization(address,address,uint256,uint256,uint256,bytes32,uint8,bytes32,bytes32)": "e3ee160e",
    "updateMinter(address)": "4eb03f6e"
  },
  "id": 80
}