{
  "abi": [
    {
      "inputs": [],
      "stateMutability": "nonpayable",
      "type": "constructor"
    },
    {
      "anonymous": false,
      "inputs": [
        {
          "indexed": true,
          "internalType": "address",
          "name": "owner",
          "type": "address"
        },
        {
          "indexed": true,
          "internalType": "int24",
          "name": "tickLower",
          "type": "int24"
        },
        {
          "indexed": true,
          "internalType": "int24",
          "name": "tickUpper",
          "type": "int24"
        },
        {
          "indexed": false,
          "internalType": "uint128",
          "name": "amount",
          "type": "uint128"
        },
        {
          "indexed": false,
          "internalType": "uint256",
          "name": "amount0",
          "type": "uint256"
        },
        {
          "indexed": false,
          "internalType": "uint256",
          "name": "amount1",
          "type": "uint256"
        }
      ],
      "name": "Burn",
      "type": "event"
    },
    {
      "anonymous": false,
      "inputs": [
        {
          "indexed": true,
          "internalType": "address",
          "name": "owner",
          "type": "address"
        },
        {
          "indexed": false,
          "internalType": "address",
          "name": "recipient",
          "type": "address"
        },
        {
          "indexed": true,
          "internalType": "int24",
          "name": "tickLower",
          "type": "int24"
        },
        {
          "indexed": true,
          "internalType": "int24",
          "name": "tickUpper",
          "type": "int24"
        },
        {
          "indexed": false,
          "internalType": "uint128",
          "name": "amount0",
          "type": "uint128"
        },
        {
          "indexed": false,
          "internalType": "uint128",
          "name": "amount1",
          "type": "uint128"
        }
      ],
      "name": "Collect",
      "type": "event"
    },
    {
      "anonymous": false,
      "inputs": [
        {
          "indexed": true,
          "internalType": "address",
          "name": "sender",
          "type": "address"
        },
        {
          "indexed": true,
          "internalType": "address",
          "name": "recipient",
          "type": "address"
        },
        {
          "indexed": false,
          "internalType": "uint128",
          "name": "amount0",
          "type": "uint128"
        },
        {
          "indexed": false,
          "internalType": "uint128",
          "name": "amount1",
          "type": "uint128"
        }
      ],
      "name": "CollectProtocol",
      "type": "event"
    },
    {
      "anonymous": false,
      "inputs": [
        {
          "indexed": true,
          "internalType": "address",
          "name": "sender",
          "type": "address"
        },
        {
          "indexed": true,
          "internalType": "address",
          "name": "recipient",
          "type": "address"
        },
        {
          "indexed": false,
          "internalType": "uint256",
          "name": "amount0",
          "type": "uint256"
        },
        {
          "indexed": false,
          "internalType": "uint256",
          "name": "amount1",
          "type": "uint256"
        },
        {
          "indexed": false,
          "internalType": "uint256",
          "name": "paid0",
          "type": "uint256"
        },
        {
          "indexed": false,
          "internalType": "uint256",
          "name": "paid1",
          "type": "uint256"
        }
      ],
      "name": "Flash",
      "type": "event"
    },
    {
      "anonymous": false,
      "inputs": [
        {
          "indexed": false,
          "internalType": "uint16",
          "name": "observationCardinalityNextOld",
          "type": "uint16"
        },
        {
          "indexed": false,
          "internalType": "uint16",
          "name": "observationCardinalityNextNew",
          "type": "uint16"
        }
      ],
      "name": "IncreaseObservationCardinalityNext",
      "type": "event"
    },
    {
      "anonymous": false,
      "inputs": [
        {
          "indexed": false,
          "internalType": "uint160",
          "name": "sqrtPriceX96",
          "type": "uint160"
        },
        {
          "indexed": false,
          "internalType": "int24",
          "name": "tick",
          "type": "int24"
        }
      ],
      "name": "Initialize",
      "type": "event"
    },
    {
      "anonymous": false,
      "inputs": [
        {
          "indexed": false,
          "internalType": "address",
          "name": "sender",
          "type": "address"
        },
        {
          "indexed": true,
          "internalType": "address",
          "name": "owner",
          "type": "address"
        },
        {
          "indexed": true,
          "internalType": "int24",
          "name": "tickLower",
          "type": "int24"
        },
        {
          "indexed": true,
          "internalType": "int24",
          "name": "tickUpper",
          "type": "int24"
        },
        {
          "indexed": false,
          "internalType": "uint128",
          "name": "amount",
          "type": "uint128"
        },
        {
          "indexed": false,
          "internalType": "uint256",
          "name": "amount0",
          "type": "uint256"
        },
        {
          "indexed": false,
          "internalType": "uint256",
          "name": "amount1",
          "type": "uint256"
        }
      ],
      "name": "Mint",
      "type": "event"
    },
    {
      "anonymous": false,
      "inputs": [
        {
          "indexed": false,
          "internalType": "uint8",
          "name": "feeProtocol0Old",
          "type": "uint8"
        },
        {
          "indexed": false,
          "internalType": "uint8",
          "name": "feeProtocol1Old",
          "type": "uint8"
        },
        {
          "indexed": false,
          "internalType": "uint8",
          "name": "feeProtocol0New",
          "type": "uint8"
        },
        {
          "indexed": false,
          "internalType": "uint8",
          "name": "feeProtocol1New",
          "type": "uint8"
        }
      ],
      "name": "SetFeeProtocol",
      "type": "event"
    },
    {
      "anonymous": false,
      "inputs": [
        {
          "indexed": true,
          "internalType": "address",
          "name": "sender",
          "type": "address"
        },
        {
          "indexed": true,
          "internalType": "address",
          "name": "recipient",
          "type": "address"
        },
        {
          "indexed": false,
          "internalType": "int256",
          "name": "amount0",
          "type": "int256"
        },
        {
          "indexed": false,
          "internalType": "int256",
          "name": "amount1",
          "type": "int256"
        },
        {
          "indexed": false,
          "internalType": "uint160",
          "name": "sqrtPriceX96",
          "type": "uint160"
        },
        {
          "indexed": false,
          "internalType": "uint128",
          "name": "liquidity",
          "type": "uint128"
        },
        {
          "indexed": false,
          "internalType": "int24",
          "name": "tick",
          "type": "int24"
        }
      ],
      "name": "Swap",
      "type": "event"
    },
    {
      "anonymous": false,
      "inputs": [
        {
          "indexed": false,
          "internalType": "string",
          "name": "",
          "type": "string"
        },
        {
          "indexed": false,
          "internalType": "uint256",
          "name": "",
          "type": "uint256"
        }
      ],
      "name": "balance",
      "type": "event"
    },
    {
      "inputs": [
        {
          "internalType": "int24",
          "name": "tickLower",
          "type": "int24"
        },
        {
          "internalType": "int24",
          "name": "tickUpper",
          "type": "int24"
        },
        {
          "internalType": "uint128",
          "name": "amount",
          "type": "uint128"
        }
      ],
      "name": "burn",
      "outputs": [
        {
          "internalType": "uint256",
          "name": "amount0",
          "type": "uint256"
        },
        {
          "internalType": "uint256",
          "name": "amount1",
          "type": "uint256"
        }
      ],
      "stateMutability": "nonpayable",
      "type": "function"
    },
    {
      "inputs": [
        {
          "internalType": "address",
          "name": "recipient",
          "type": "address"
        },
        {
          "internalType": "int24",
          "name": "tickLower",
          "type": "int24"
        },
        {
          "internalType": "int24",
          "name": "tickUpper",
          "type": "int24"
        },
        {
          "internalType": "uint128",
          "name": "amount0Requested",
          "type": "uint128"
        },
        {
          "internalType": "uint128",
          "name": "amount1Requested",
          "type": "uint128"
        }
      ],
      "name": "collect",
      "outputs": [
        {
          "internalType": "uint128",
          "name": "amount0",
          "type": "uint128"
        },
        {
          "internalType": "uint128",
          "name": "amount1",
          "type": "uint128"
        }
      ],
      "stateMutability": "nonpayable",
      "type": "function"
    },
    {
      "inputs": [
        {
          "internalType": "address",
          "name": "recipient",
          "type": "address"
        },
        {
          "internalType": "uint128",
          "name": "amount0Requested",
          "type": "uint128"
        },
        {
          "internalType": "uint128",
          "name": "amount1Requested",
          "type": "uint128"
        }
      ],
      "name": "collectProtocol",
      "outputs": [
        {
          "internalType": "uint128",
          "name": "amount0",
          "type": "uint128"
        },
        {
          "internalType": "uint128",
          "name": "amount1",
          "type": "uint128"
        }
      ],
      "stateMutability": "nonpayable",
      "type": "function"
    },
    {
      "inputs": [],
      "name": "factory",
      "outputs": [
        {
          "internalType": "address",
          "name": "",
          "type": "address"
        }
      ],
      "stateMutability": "view",
      "type": "function"
    },
    {
      "inputs": [],
      "name": "fee",
      "outputs": [
        {
          "internalType": "uint24",
          "name": "",
          "type": "uint24"
        }
      ],
      "stateMutability": "view",
      "type": "function"
    },
    {
      "inputs": [],
      "name": "feeGrowthGlobal0X128",
      "outputs": [
        {
          "internalType": "uint256",
          "name": "",
          "type": "uint256"
        }
      ],
      "stateMutability": "view",
      "type": "function"
    },
    {
      "inputs": [],
      "name": "feeGrowthGlobal1X128",
      "outputs": [
        {
          "internalType": "uint256",
          "name": "",
          "type": "uint256"
        }
      ],
      "stateMutability": "view",
      "type": "function"
    },
    {
      "inputs": [
        {
          "internalType": "address",
          "name": "recipient",
          "type": "address"
        },
        {
          "internalType": "uint256",
          "name": "amount0",
          "type": "uint256"
        },
        {
          "internalType": "uint256",
          "name": "amount1",
          "type": "uint256"
        },
        {
          "internalType": "bytes",
          "name": "data",
          "type": "bytes"
        }
      ],
      "name": "flash",
      "outputs": [],
      "stateMutability": "nonpayable",
      "type": "function"
    },
    {
      "inputs": [
        {
          "internalType": "uint16",
          "name": "observationCardinalityNext",
          "type": "uint16"
        }
      ],
      "name": "increaseObservationCardinalityNext",
      "outputs": [],
      "stateMutability": "nonpayable",
      "type": "function"
    },
    {
      "inputs": [
        {
          "internalType": "uint160",
          "name": "sqrtPriceX96",
          "type": "uint160"
        }
      ],
      "name": "initialize",
      "outputs": [],
      "stateMutability": "nonpayable",
      "type": "function"
    },
    {
      "inputs": [],
      "name": "liquidity",
      "outputs": [
        {
          "internalType": "uint128",
          "name": "",
          "type": "uint128"
        }
      ],
      "stateMutability": "view",
      "type": "function"
    },
    {
      "inputs": [],
      "name": "maxLiquidityPerTick",
      "outputs": [
        {
          "internalType": "uint128",
          "name": "",
          "type": "uint128"
        }
      ],
      "stateMutability": "view",
      "type": "function"
    },
    {
      "inputs": [
        {
          "internalType": "address",
          "name": "recipient",
          "type": "address"
        },
        {
          "internalType": "int24",
          "name": "tickLower",
          "type": "int24"
        },
        {
          "internalType": "int24",
          "name": "tickUpper",
          "type": "int24"
        },
        {
          "internalType": "uint128",
          "name": "amount",
          "type": "uint128"
        },
        {
          "internalType": "bytes",
          "name": "data",
          "type": "bytes"
        }
      ],
      "name": "mint",
      "outputs": [
        {
          "internalType": "uint256",
          "name": "amount0",
          "type": "uint256"
        },
        {
          "internalType": "uint256",
          "name": "amount1",
          "type": "uint256"
        }
      ],
      "stateMutability": "nonpayable",
      "type": "function"
    },
    {
      "inputs": [
        {
          "internalType": "uint256",
          "name": "",
          "type": "uint256"
        }
      ],
      "name": "observations",
      "outputs": [
        {
          "internalType": "uint32",
          "name": "blockTimestamp",
          "type": "uint32"
        },
        {
          "internalType": "int56",
          "name": "tickCumulative",
          "type": "int56"
        },
        {
          "internalType": "uint160",
          "name": "secondsPerLiquidityCumulativeX128",
          "type": "uint160"
        },
        {
          "internalType": "bool",
          "name": "initialized",
          "type": "bool"
        }
      ],
      "stateMutability": "view",
      "type": "function"
    },
    {
      "inputs": [
        {
          "internalType": "uint32[]",
          "name": "secondsAgos",
          "type": "uint32[]"
        }
      ],
      "name": "observe",
      "outputs": [
        {
          "internalType": "int56[]",
          "name": "tickCumulatives",
          "type": "int56[]"
        },
        {
          "internalType": "uint160[]",
          "name": "secondsPerLiquidityCumulativeX128s",
          "type": "uint160[]"
        }
      ],
      "stateMutability": "view",
      "type": "function"
    },
    {
      "inputs": [
        {
          "internalType": "bytes32",
          "name": "",
          "type": "bytes32"
        }
      ],
      "name": "positions",
      "outputs": [
        {
          "internalType": "uint128",
          "name": "liquidity",
          "type": "uint128"
        },
        {
          "internalType": "uint256",
          "name": "feeGrowthInside0LastX128",
          "type": "uint256"
        },
        {
          "internalType": "uint256",
          "name": "feeGrowthInside1LastX128",
          "type": "uint256"
        },
        {
          "internalType": "uint128",
          "name": "tokensOwed0",
          "type": "uint128"
        },
        {
          "internalType": "uint128",
          "name": "tokensOwed1",
          "type": "uint128"
        }
      ],
      "stateMutability": "view",
      "type": "function"
    },
    {
      "inputs": [],
      "name": "protocolFees",
      "outputs": [
        {
          "internalType": "uint128",
          "name": "token0",
          "type": "uint128"
        },
        {
          "internalType": "uint128",
          "name": "token1",
          "type": "uint128"
        }
      ],
      "stateMutability": "view",
      "type": "function"
    },
    {
      "inputs": [
        {
          "internalType": "uint8",
          "name": "feeProtocol0",
          "type": "uint8"
        },
        {
          "internalType": "uint8",
          "name": "feeProtocol1",
          "type": "uint8"
        }
      ],
      "name": "setFeeProtocol",
      "outputs": [],
      "stateMutability": "nonpayable",
      "type": "function"
    },
    {
      "inputs": [],
      "name": "slot0",
      "outputs": [
        {
          "internalType": "uint160",
          "name": "sqrtPriceX96",
          "type": "uint160"
        },
        {
          "internalType": "int24",
          "name": "tick",
          "type": "int24"
        },
        {
          "internalType": "uint16",
          "name": "observationIndex",
          "type": "uint16"
        },
        {
          "internalType": "uint16",
          "name": "observationCardinality",
          "type": "uint16"
        },
        {
          "internalType": "uint16",
          "name": "observationCardinalityNext",
          "type": "uint16"
        },
        {
          "internalType": "uint8",
          "name": "feeProtocol",
          "type": "uint8"
        },
        {
          "internalType": "bool",
          "name": "unlocked",
          "type": "bool"
        }
      ],
      "stateMutability": "view",
      "type": "function"
    },
    {
      "inputs": [
        {
          "internalType": "int24",
          "name": "tickLower",
          "type": "int24"
        },
        {
          "internalType": "int24",
          "name": "tickUpper",
          "type": "int24"
        }
      ],
      "name": "snapshotCumulativesInside",
      "outputs": [
        {
          "internalType": "int56",
          "name": "tickCumulativeInside",
          "type": "int56"
        },
        {
          "internalType": "uint160",
          "name": "secondsPerLiquidityInsideX128",
          "type": "uint160"
        },
        {
          "internalType": "uint32",
          "name": "secondsInside",
          "type": "uint32"
        }
      ],
      "stateMutability": "view",
      "type": "function"
    },
    {
      "inputs": [
        {
          "internalType": "address",
          "name": "recipient",
          "type": "address"
        },
        {
          "internalType": "bool",
          "name": "zeroForOne",
          "type": "bool"
        },
        {
          "internalType": "int256",
          "name": "amountSpecified",
          "type": "int256"
        },
        {
          "internalType": "uint160",
          "name": "sqrtPriceLimitX96",
          "type": "uint160"
        },
        {
          "internalType": "bytes",
          "name": "data",
          "type": "bytes"
        }
      ],
      "name": "swap",
      "outputs": [
        {
          "internalType": "int256",
          "name": "amount0",
          "type": "int256"
        },
        {
          "internalType": "int256",
          "name": "amount1",
          "type": "int256"
        }
      ],
      "stateMutability": "nonpayable",
      "type": "function"
    },
    {
      "inputs": [
        {
          "internalType": "int16",
          "name": "",
          "type": "int16"
        }
      ],
      "name": "tickBitmap",
      "outputs": [
        {
          "internalType": "uint256",
          "name": "",
          "type": "uint256"
        }
      ],
      "stateMutability": "view",
      "type": "function"
    },
    {
      "inputs": [],
      "name": "tickSpacing",
      "outputs": [
        {
          "internalType": "int24",
          "name": "",
          "type": "int24"
        }
      ],
      "stateMutability": "view",
      "type": "function"
    },
    {
      "inputs": [
        {
          "internalType": "int24",
          "name": "",
          "type": "int24"
        }
      ],
      "name": "ticks",
      "outputs": [
        {
          "internalType": "uint128",
          "name": "liquidityGross",
          "type": "uint128"
        },
        {
          "internalType": "int128",
          "name": "liquidityNet",
          "type": "int128"
        },
        {
          "internalType": "uint256",
          "name": "feeGrowthOutside0X128",
          "type": "uint256"
        },
        {
          "internalType": "uint256",
          "name": "feeGrowthOutside1X128",
          "type": "uint256"
        },
        {
          "internalType": "int56",
          "name": "tickCumulativeOutside",
          "type": "int56"
        },
        {
          "internalType": "uint160",
          "name": "secondsPerLiquidityOutsideX128",
          "type": "uint160"
        },
        {
          "internalType": "uint32",
          "name": "secondsOutside",
          "type": "uint32"
        },
        {
          "internalType": "bool",
          "name": "initialized",
          "type": "bool"
        }
      ],
      "stateMutability": "view",
      "type": "function"
    },
    {
      "inputs": [],
      "name": "token0",
      "outputs": [
        {
          "internalType": "address",
          "name": "",
          "type": "address"
        }
      ],
      "stateMutability": "view",
      "type": "function"
    },
    {
      "inputs": [],
      "name": "token1",
      "outputs": [
        {
          "internalType": "address",
          "name": "",
          "type": "address"
        }
      ],
      "stateMutability": "view",
      "type": "function"
    }
  ],
  "bytecode": {
    "object": "0x6101606040523480156200001257600080fd5b503060601b60805260408051630890357360e41b81529051600091339163890357309160048082019260a092909190829003018186803b1580156200005657600080fd5b505afa1580156200006b573d6000803e3d6000fd5b505050506040513d60a08110156200008257600080fd5b508051602080830151604084015160608086015160809096015160e896871b6001600160e81b0319166101005291811b6001600160601b031990811660e05292811b831660c0529390931b1660a052600282810b900b90921b610120529150620000f79082906200010f811b62002bfe17901c565b60801b6001600160801b03191661014052506200017d565b60008082600281900b620d89e719816200012557fe5b05029050600083600281900b620d89e8816200013d57fe5b0502905060008460020b83830360020b816200015557fe5b0560010190508062ffffff166001600160801b038016816200017357fe5b0495945050505050565b60805160601c60a05160601c60c05160601c60e05160601c6101005160e81c6101205160e81c6101405160801c6156716200024a600039806120ce5280614b705280614ba7525080610bd852806129ba5280614bdb5280614c0d525080610cc75280611aab5280611ae25280612a025250806111855280611b655280611fd4528061250952806129de5280613e9f5250806108aa52806113d65280611b345280611f6e52806124835280613d5652508061215b52806123425280612996525080612c7552506156716000f3fe608060405234801561001057600080fd5b506004361061018e5760003560e01c806370cf754a116100de578063c45a015511610097578063ddca3f4311610071578063ddca3f43146107d8578063f3058399146107f8578063f30dba9314610800578063f637731d146108825761018e565b8063c45a0155146107a9578063d0c93a7c146107b1578063d21220a7146107d05761018e565b806370cf754a146105a05780638206a4d1146105a857806385b66729146105d0578063883bdbfd1461060d578063a34123a714610714578063a38807f21461074e5761018e565b80633850c7bd1161014b578063490e6cbc11610125578063490e6cbc1461044c5780634f1eb3d8146104d6578063514ea4bf146105275780635339c296146105805761018e565b80633850c7bd146103395780633c8a7d8d1461039257806346141319146104325761018e565b80630dfe168114610193578063128acb08146101b75780631a686502146102645780631ad8b03b14610288578063252c09d7146102bf57806332148f6714610316575b600080fd5b61019b6108a8565b604080516001600160a01b039092168252519081900360200190f35b61024b600480360360a08110156101cd57600080fd5b6001600160a01b0382358116926020810135151592604082013592606083013516919081019060a081016080820135600160201b81111561020d57600080fd5b82018360208201111561021f57600080fd5b803590602001918460018302840111600160201b8311171561024057600080fd5b5090925090506108cc565b6040805192835260208301919091528051918290030190f35b61026c61158e565b604080516001600160801b039092168252519081900360200190f35b61029061159d565b60405180836001600160801b03168152602001826001600160801b031681526020019250505060405180910390f35b6102dc600480360360208110156102d557600080fd5b50356115b7565b6040805163ffffffff909516855260069390930b60208501526001600160a01b039091168383015215156060830152519081900360800190f35b6103376004803603602081101561032c57600080fd5b503561ffff166115fc565b005b6103416116f6565b604080516001600160a01b03909816885260029690960b602088015261ffff9485168787015292841660608701529216608085015260ff90911660a0840152151560c0830152519081900360e00190f35b61024b600480360360a08110156103a857600080fd5b6001600160a01b03823516916020810135600290810b92604083013590910b916001600160801b036060820135169181019060a081016080820135600160201b8111156103f457600080fd5b82018360208201111561040657600080fd5b803590602001918460018302840111600160201b8311171561042757600080fd5b509092509050611746565b61043a611a02565b60408051918252519081900360200190f35b6103376004803603608081101561046257600080fd5b6001600160a01b038235169160208101359160408201359190810190608081016060820135600160201b81111561049857600080fd5b8201836020820111156104aa57600080fd5b803590602001918460018302840111600160201b831117156104cb57600080fd5b509092509050611a08565b610290600480360360a08110156104ec57600080fd5b506001600160a01b03813516906020810135600290810b91604081013590910b906001600160801b0360608201358116916080013516611e63565b6105446004803603602081101561053d57600080fd5b503561207d565b604080516001600160801b0396871681526020810195909552848101939093529084166060840152909216608082015290519081900360a00190f35b61043a6004803603602081101561059657600080fd5b503560010b6120ba565b61026c6120cc565b610337600480360360408110156105be57600080fd5b5060ff813581169160200135166120f0565b610290600480360360608110156105e657600080fd5b506001600160a01b03813516906001600160801b03602082013581169160400135166122d4565b61067b6004803603602081101561062357600080fd5b810190602081018135600160201b81111561063d57600080fd5b82018360208201111561064f57600080fd5b803590602001918460208302840111600160201b8311171561067057600080fd5b5090925090506125a1565b604051808060200180602001838103835285818151815260200191508051906020019060200280838360005b838110156106bf5781810151838201526020016106a7565b50505050905001838103825284818151815260200191508051906020019060200280838360005b838110156106fe5781810151838201526020016106e6565b5050505090500194505050505060405180910390f35b61024b6004803603606081101561072a57600080fd5b508035600290810b91602081013590910b90604001356001600160801b031661262e565b6107786004803603604081101561076457600080fd5b508035600290810b9160200135900b6127a5565b6040805160069490940b84526001600160a01b03909216602084015263ffffffff1682820152519081900360600190f35b61019b612994565b6107b96129b8565b6040805160029290920b8252519081900360200190f35b61019b6129dc565b6107e0612a00565b6040805162ffffff9092168252519081900360200190f35b61043a612a24565b6108206004803603602081101561081657600080fd5b503560020b612a2a565b604080516001600160801b039099168952600f9790970b602089015287870195909552606087019390935260069190910b60808601526001600160a01b031660a085015263ffffffff1660c0840152151560e083015251908190036101000190f35b6103376004803603602081101561089857600080fd5b50356001600160a01b0316612a94565b7f000000000000000000000000000000000000000000000000000000000000000081565b6000806108d7612c6a565b8561090e576040805162461bcd60e51b8152602060048201526002602482015261415360f01b604482015290519081900360640190fd5b6040805160e0810182526000546001600160a01b0381168252600160a01b8104600290810b810b900b602083015261ffff600160b81b8204811693830193909352600160c81b810483166060830152600160d81b8104909216608082015260ff600160e81b8304811660a0830152600160f01b909204909116151560c082018190526109c7576040805162461bcd60e51b81526020600482015260036024820152624c4f4b60e81b604482015290519081900360640190fd5b87610a125780600001516001600160a01b0316866001600160a01b0316118015610a0d575073fffd8963efd1fc6a506488495d951d5263988d266001600160a01b038716105b610a44565b80600001516001600160a01b0316866001600160a01b0316108015610a4457506401000276a36001600160a01b038716115b610a7b576040805162461bcd60e51b815260206004820152600360248201526214d41360ea1b604482015290519081900360640190fd5b6000805460ff60f01b191681556040805160c08101909152808a610aaa5760048460a0015160ff16901c610abd565b60108460a0015160ff1681610abb57fe5b065b60ff1681526004546001600160801b03166020820152604001610ade612ca1565b63ffffffff168152602001600060060b815260200160006001600160a01b031681526020016000151581525090506000808913905060006040518060e001604052808b81526020016000815260200185600001516001600160a01b03168152602001856020015160020b81526020018c610b5a57600254610b5e565b6001545b815260200160006001600160801b0316815260200184602001516001600160801b031681525090505b805115801590610bad5750886001600160a01b031681604001516001600160a01b031614155b15610f7757610bba6155d8565b60408201516001600160a01b031681526060820151610bfd906006907f00000000000000000000000000000000000000000000000000000000000000008f612ca5565b15156040830152600290810b810b60208301819052620d89e719910b1215610c2e57620d89e7196020820152610c4d565b6020810151620d89e860029190910b1315610c4d57620d89e860208201525b610c5a8160200151612de7565b6001600160a01b031660608201526040820151610ceb908d610c94578b6001600160a01b031683606001516001600160a01b031611610cae565b8b6001600160a01b031683606001516001600160a01b0316105b610cbc578260600151610cbe565b8b5b60c085015185517f0000000000000000000000000000000000000000000000000000000000000000613118565b60c085015260a084015260808301526001600160a01b031660408301528215610d4d57610d218160c0015182608001510161330a565b825103825260a0810151610d4390610d389061330a565b602084015190613320565b6020830152610d88565b610d5a8160a0015161330a565b825101825260c08101516080820151610d8291610d77910161330a565b60208401519061333c565b60208301525b835160ff1615610dce576000846000015160ff168260c0015181610da857fe5b60c0840180519290910491829003905260a0840180519091016001600160801b03169052505b60c08201516001600160801b031615610e0d57610e018160c00151600160801b8460c001516001600160801b0316613352565b60808301805190910190525b80606001516001600160a01b031682604001516001600160a01b03161415610f3657806040015115610f0d578360a00151610e9757610e75846040015160008760200151886040015188602001518a606001516008613402909695949392919063ffffffff16565b6001600160a01b03166080860152600690810b900b6060850152600160a08501525b6000610ee382602001518e610eae57600154610eb4565b84608001515b8f610ec3578560800151610ec7565b6002545b608089015160608a015160408b01516005959493929190613594565b90508c15610eef576000035b610efd8360c001518261364e565b6001600160801b031660c0840152505b8b610f1c578060200151610f25565b60018160200151035b600290810b900b6060830152610f71565b80600001516001600160a01b031682604001516001600160a01b031614610f7157610f648260400151613704565b600290810b900b60608301525b50610b87565b836020015160020b816060015160020b1461104557600080610fc586604001518660400151886020015188602001518a606001518b608001516008613a1f909695949392919063ffffffff16565b604085015160608601516000805461ffff60c81b1916600160c81b61ffff958616021761ffff60b81b1916600160b81b95909416949094029290921762ffffff60a01b1916600160a01b62ffffff60029490940b9390931692909202919091176001600160a01b0319166001600160a01b039091161790555061106a9050565b6040810151600080546001600160a01b0319166001600160a01b039092169190911790555b8060c001516001600160801b031683602001516001600160801b0316146110b05760c0810151600480546001600160801b0319166001600160801b039092169190911790555b8a1561110057608081015160015560a08101516001600160801b0316156110fb5760a0810151600380546001600160801b031981166001600160801b03918216909301169190911790555b611146565b608081015160025560a08101516001600160801b0316156111465760a0810151600380546001600160801b03808216600160801b92839004821690940116029190911790555b8115158b15151461115f57602081015181518b0361116c565b80600001518a0381602001515b90965094508a156113c85760008512156111ae576111ae7f00000000000000000000000000000000000000000000000000000000000000008d87600003613bba565b60006111b8613d08565b9050336001600160a01b031663fa461e3388888c8c6040518563ffffffff1660e01b815260040180858152602001848152602001806020018281038252848482818152602001925080828437600081840152601f19601f82011690508083019250505095505050505050600060405180830381600087803b15801561123c57600080fd5b505af1158015611250573d6000803e3d6000fd5b50506040805160208101859052818152600e818301526d62616c616e6365304265666f726560901b606082015290517f9e1ffd87d0ae2636237c89f32a021f5ad155742322d40797c7844a13cccb58f09350908190036080019150a17f9e1ffd87d0ae2636237c89f32a021f5ad155742322d40797c7844a13cccb58f06112d78289613e41565b6040805160208101929092528082526019828201527f62616c616e6365304265666f7265202b20616d6f756e742030000000000000006060830152519081900360800190a17f9e1ffd87d0ae2636237c89f32a021f5ad155742322d40797c7844a13cccb58f0611345613d08565b604080516020810192909252808252600a828201526962616c616e636530282960b01b6060830152519081900360800190a161137f613d08565b6113898289613e41565b11156113c2576040805162461bcd60e51b815260206004820152600360248201526249494160e81b604482015290519081900360640190fd5b506114f2565b60008612156113ff576113ff7f00000000000000000000000000000000000000000000000000000000000000008d88600003613bba565b6000611409613e51565b9050336001600160a01b031663fa461e3388888c8c6040518563ffffffff1660e01b815260040180858152602001848152602001806020018281038252848482818152602001925080828437600081840152601f19601f82011690508083019250505095505050505050600060405180830381600087803b15801561148d57600080fd5b505af11580156114a1573d6000803e3d6000fd5b505050506114ad613e51565b6114b78288613e41565b11156114f0576040805162461bcd60e51b815260206004820152600360248201526249494160e81b604482015290519081900360640190fd5b505b60408082015160c083015160608085015184518b8152602081018b90526001600160a01b03948516818701526001600160801b039093169183019190915260020b60808201529151908e169133917fc42079f94a6350d7e6235f29174924f928cc2ac818eb64fed8004e115fbcca679181900360a00190a350506000805460ff60f01b1916600160f01b17905550919890975095505050505050565b6004546001600160801b031681565b6003546001600160801b0380821691600160801b90041682565b60088161ffff81106115c857600080fd5b015463ffffffff81169150600160201b810460060b90600160581b81046001600160a01b031690600160f81b900460ff1684565b600054600160f01b900460ff16611640576040805162461bcd60e51b81526020600482015260036024820152624c4f4b60e81b604482015290519081900360640190fd5b6000805460ff60f01b19169055611655612c6a565b60008054600160d81b900461ffff169061167160088385613ee9565b6000805461ffff808416600160d81b810261ffff60d81b19909316929092179092559192508316146116de576040805161ffff80851682528316602082015281517fac49e518f90a358f652e4400164f05a5d8f7e35e7747279bc3a93dbf584e125a929181900390910190a15b50506000805460ff60f01b1916600160f01b17905550565b6000546001600160a01b03811690600160a01b810460020b9061ffff600160b81b8204811691600160c81b8104821691600160d81b8204169060ff600160e81b8204811691600160f01b90041687565b600080548190600160f01b900460ff1661178d576040805162461bcd60e51b81526020600482015260036024820152624c4f4b60e81b604482015290519081900360640190fd5b6000805460ff60f01b191690556001600160801b0385166117ad57600080fd5b6000806117fb60405180608001604052808c6001600160a01b031681526020018b60020b81526020018a60020b81526020016117f18a6001600160801b0316613f8c565b600f0b9052613f9d565b9250925050819350809250600080600086111561181d5761181a613d08565b91505b841561182e5761182b613e51565b90505b336001600160a01b031663d348799787878b8b6040518563ffffffff1660e01b815260040180858152602001848152602001806020018281038252848482818152602001925080828437600081840152601f19601f82011690508083019250505095505050505050600060405180830381600087803b1580156118b057600080fd5b505af11580156118c4573d6000803e3d6000fd5b50505050600086111561191b576118d9613d08565b6118e38388613e41565b111561191b576040805162461bcd60e51b815260206004820152600260248201526104d360f41b604482015290519081900360640190fd5b841561196b57611929613e51565b6119338287613e41565b111561196b576040805162461bcd60e51b81526020600482015260026024820152614d3160f01b604482015290519081900360640190fd5b8960020b8b60020b8d6001600160a01b03167f7a53080ba414158be7ec69b987b5fb7d07dee101fe85488f0853ae16239d0bde338d8b8b60405180856001600160a01b03168152602001846001600160801b0316815260200183815260200182815260200194505050505060405180910390a450506000805460ff60f01b1916600160f01b17905550919890975095505050505050565b60025481565b600054600160f01b900460ff16611a4c576040805162461bcd60e51b81526020600482015260036024820152624c4f4b60e81b604482015290519081900360640190fd5b6000805460ff60f01b19169055611a61612c6a565b6004546001600160801b031680611aa3576040805162461bcd60e51b81526020600482015260016024820152601360fa1b604482015290519081900360640190fd5b6000611ad8867f000000000000000000000000000000000000000000000000000000000000000062ffffff16620f42406141dd565b90506000611b0f867f000000000000000000000000000000000000000000000000000000000000000062ffffff16620f42406141dd565b90506000611b1b613d08565b90506000611b27613e51565b90508815611b5a57611b5a7f00000000000000000000000000000000000000000000000000000000000000008b8b613bba565b8715611b8b57611b8b7f00000000000000000000000000000000000000000000000000000000000000008b8a613bba565b336001600160a01b031663e9cbafb085858a8a6040518563ffffffff1660e01b815260040180858152602001848152602001806020018281038252848482818152602001925080828437600081840152601f19601f82011690508083019250505095505050505050600060405180830381600087803b158015611c0d57600080fd5b505af1158015611c21573d6000803e3d6000fd5b505050506000611c2f613d08565b90506000611c3b613e51565b905081611c488588613e41565b1115611c80576040805162461bcd60e51b8152602060048201526002602482015261046360f41b604482015290519081900360640190fd5b80611c8b8487613e41565b1115611cc3576040805162461bcd60e51b8152602060048201526002602482015261463160f01b604482015290519081900360640190fd5b8382038382038115611d525760008054600160e81b9004600f16908115611cf6578160ff168481611cf057fe5b04611cf9565b60005b90506001600160801b03811615611d2c57600380546001600160801b038082168401166001600160801b03199091161790555b611d46818503600160801b8d6001600160801b0316613352565b60018054909101905550505b8015611ddd5760008054600160e81b900460041c600f16908115611d82578160ff168381611d7c57fe5b04611d85565b60005b90506001600160801b03811615611db757600380546001600160801b03600160801b8083048216850182160291161790555b611dd1818403600160801b8d6001600160801b0316613352565b60028054909101905550505b8d6001600160a01b0316336001600160a01b03167fbdbdb71d7860376ba52b25a5028beea23581364a40522f6bcfb86bb1f2dca6338f8f86866040518085815260200184815260200183815260200182815260200194505050505060405180910390a350506000805460ff60f01b1916600160f01b179055505050505050505050505050565b600080548190600160f01b900460ff16611eaa576040805162461bcd60e51b81526020600482015260036024820152624c4f4b60e81b604482015290519081900360640190fd5b6000805460ff60f01b19168155611ec46007338989614217565b60038101549091506001600160801b0390811690861611611ee55784611ef4565b60038101546001600160801b03165b60038201549093506001600160801b03600160801b909104811690851611611f1c5783611f32565b6003810154600160801b90046001600160801b03165b91506001600160801b03831615611f97576003810180546001600160801b031981166001600160801b03918216869003821617909155611f97907f0000000000000000000000000000000000000000000000000000000000000000908a908616613bba565b6001600160801b03821615611ffd576003810180546001600160801b03600160801b808304821686900382160291811691909117909155611ffd907f0000000000000000000000000000000000000000000000000000000000000000908a908516613bba565b604080516001600160a01b038a1681526001600160801b0380861660208301528416818301529051600288810b92908a900b9133917f70935338e69775456a85ddef226c395fb668b63fa0115f5f20610b388e6ca9c0919081900360600190a4506000805460ff60f01b1916600160f01b17905590969095509350505050565b60076020526000908152604090208054600182015460028301546003909301546001600160801b0392831693919281811691600160801b90041685565b60066020526000908152604090205481565b7f000000000000000000000000000000000000000000000000000000000000000081565b600054600160f01b900460ff16612134576040805162461bcd60e51b81526020600482015260036024820152624c4f4b60e81b604482015290519081900360640190fd5b6000805460ff60f01b1916905560408051638da5cb5b60e01b815290516001600160a01b037f00000000000000000000000000000000000000000000000000000000000000001691638da5cb5b916004808301926020929190829003018186803b1580156121a157600080fd5b505afa1580156121b5573d6000803e3d6000fd5b505050506040513d60208110156121cb57600080fd5b50516001600160a01b031633146121e157600080fd5b60ff82161580612204575060048260ff16101580156122045750600a8260ff1611155b801561222e575060ff8116158061222e575060048160ff161015801561222e5750600a8160ff1611155b61223757600080fd5b60008054610ff0600484901b16840160ff908116600160e81b90810260ff60e81b19841617909355919004167f973d8d92bb299f4af6ce49b52a8adb85ae46b9f214c4c4fc06ac77401237b1336010826040805160ff9390920683168252600f600486901c16602083015286831682820152918516606082015290519081900360800190a150506000805460ff60f01b1916600160f01b17905550565b600080548190600160f01b900460ff1661231b576040805162461bcd60e51b81526020600482015260036024820152624c4f4b60e81b604482015290519081900360640190fd5b6000805460ff60f01b1916905560408051638da5cb5b60e01b815290516001600160a01b037f00000000000000000000000000000000000000000000000000000000000000001691638da5cb5b916004808301926020929190829003018186803b15801561238857600080fd5b505afa15801561239c573d6000803e3d6000fd5b505050506040513d60208110156123b257600080fd5b50516001600160a01b031633146123c857600080fd5b6003546001600160801b03908116908516116123e457836123f1565b6003546001600160801b03165b6003549092506001600160801b03600160801b909104811690841611612417578261242b565b600354600160801b90046001600160801b03165b90506001600160801b038216156124ac576003546001600160801b038381169116141561245a57600019909101905b600380546001600160801b031981166001600160801b039182168590038216179091556124ac907f00000000000000000000000000000000000000000000000000000000000000009087908516613bba565b6001600160801b03811615612532576003546001600160801b03828116600160801b9092041614156124dd57600019015b600380546001600160801b03600160801b808304821685900382160291811691909117909155612532907f00000000000000000000000000000000000000000000000000000000000000009087908416613bba565b604080516001600160801b0380851682528316602082015281516001600160a01b0388169233927f596b573906218d3411850b26a6b437d6c4522fdb43d2d2386263f86d50b8b151929081900390910190a36000805460ff60f01b1916600160f01b1790559094909350915050565b6060806125ac612c6a565b6126236125b7612ca1565b858580806020026020016040519081016040528093929190818152602001838360200280828437600092018290525054600454600896959450600160a01b820460020b935061ffff600160b81b8304811693506001600160801b0390911691600160c81b90041661427b565b915091509250929050565b600080548190600160f01b900460ff16612675576040805162461bcd60e51b81526020600482015260036024820152624c4f4b60e81b604482015290519081900360640190fd5b6000805460ff60f01b1916815560408051608081018252338152600288810b602083015287900b91810191909152819081906126ce90606081016126c16001600160801b038a16613f8c565b600003600f0b9052613f9d565b92509250925081600003945080600003935060008511806126ef5750600084115b1561272e576003830180546001600160801b038082168089018216600160801b93849004831689019092169092029091176001600160801b0319161790555b604080516001600160801b0388168152602081018790528082018690529051600289810b92908b900b9133917f0c396cd989a39f4459b5fa1aed6a9a8dcdbc45908acfd67e028cd568da98982c919081900360600190a450506000805460ff60f01b1916600160f01b179055509094909350915050565b60008060006127b2612c6a565b6127bc85856143d5565b600285810b810b60009081526005602052604080822087840b90930b825281206003830154600681900b93600160381b82046001600160a01b0316928492600160d81b810463ffffffff169284929091600160f81b900460ff168061282057600080fd5b6003820154600681900b9850600160381b81046001600160a01b03169650600160d81b810463ffffffff169450600160f81b900460ff168061286157600080fd5b50506040805160e0810182526000546001600160a01b0381168252600160a01b8104600290810b810b810b6020840181905261ffff600160b81b8404811695850195909552600160c81b830485166060850152600160d81b8304909416608084015260ff600160e81b8304811660a0850152600160f01b909204909116151560c08301529093508e810b91900b1215905061290a5750939094039650900393509003905061298d565b8a60020b816020015160020b121561297e576000612926612ca1565b602083015160408401516004546060860151939450600093849361295c936008938893879392916001600160801b031690613402565b9a9003989098039b50509490960392909203965090910303925061298d915050565b50949093039650039350900390505b9250925092565b7f000000000000000000000000000000000000000000000000000000000000000081565b7f000000000000000000000000000000000000000000000000000000000000000081565b7f000000000000000000000000000000000000000000000000000000000000000081565b7f000000000000000000000000000000000000000000000000000000000000000081565b60015481565b60056020526000908152604090208054600182015460028301546003909301546001600160801b03831693600160801b909304600f0b9290600681900b90600160381b81046001600160a01b031690600160d81b810463ffffffff1690600160f81b900460ff1688565b6000546001600160a01b031615612ad7576040805162461bcd60e51b8152602060048201526002602482015261414960f01b604482015290519081900360640190fd5b6000612ae282613704565b9050600080612afa612af2612ca1565b60089061449e565b6040805160e0810182526001600160a01b038816808252600288810b6020808501829052600085870181905261ffff898116606088018190529089166080880181905260a08801839052600160c0909801979097528154600160f01b6001600160a01b0319909116871762ffffff60a01b1916600160a01b62ffffff9787900b97909716969096029590951763ffffffff60b81b1916600160c81b9091021761ffff60d81b1916600160d81b9096029590951761ffff60e81b191692909217909355835191825281019190915281519395509193507f98636036cb66a9c19a37435efc1e90142190214e8abeb821bdba3f2990dd4c9592918290030190a150505050565b60008082600281900b620d89e71981612c1357fe5b05029050600083600281900b620d89e881612c2a57fe5b0502905060008460020b83830360020b81612c4157fe5b0560010190508062ffffff166001600160801b03801681612c5e57fe5b0493505050505b919050565b306001600160a01b037f00000000000000000000000000000000000000000000000000000000000000001614612c9f57600080fd5b565b4290565b60008060008460020b8660020b81612cb957fe5b05905060008660020b128015612ce057508460020b8660020b81612cd957fe5b0760020b15155b15612cea57600019015b8315612d5f57600080612cfc836144ea565b600182810b810b600090815260208d9052604090205460ff83169190911b80016000190190811680151597509294509092509085612d4157888360ff16860302612d54565b88612d4b826144fc565b840360ff168603025b965050505050612ddd565b600080612d6e836001016144ea565b91509150600060018260ff166001901b031990506000818b60008660010b60010b8152602001908152602001600020541690508060001415955085612dc057888360ff0360ff16866001010102612dd6565b8883612dcb8361459b565b0360ff168660010101025b9650505050505b5094509492505050565b60008060008360020b12612dfe578260020b612e06565b8260020b6000035b9050620d89e8811115612e44576040805162461bcd60e51b81526020600482015260016024820152601560fa1b604482015290519081900360640190fd5b600060018216612e5857600160801b612e6a565b6ffffcb933bd6fad37aa2d162d1a5940015b70ffffffffffffffffffffffffffffffffff1690506002821615612e9e576ffff97272373d413259a46990580e213a0260801c5b6004821615612ebd576ffff2e50f5f656932ef12357cf3c7fdcc0260801c5b6008821615612edc576fffe5caca7e10e4e61c3624eaa0941cd00260801c5b6010821615612efb576fffcb9843d60f6159c9db58835c9266440260801c5b6020821615612f1a576fff973b41fa98c081472e6896dfb254c00260801c5b6040821615612f39576fff2ea16466c96a3843ec78b326b528610260801c5b6080821615612f58576ffe5dee046a99a2a811c461f1969c30530260801c5b610100821615612f78576ffcbe86c7900a88aedcffc83b479aa3a40260801c5b610200821615612f98576ff987a7253ac413176f2b074cf7815e540260801c5b610400821615612fb8576ff3392b0822b70005940c7a398e4b70f30260801c5b610800821615612fd8576fe7159475a2c29b7443b29c7fa6e889d90260801c5b611000821615612ff8576fd097f3bdfd2022b8845ad8f792aa58250260801c5b612000821615613018576fa9f746462d870fdf8a65dc1f90e061e50260801c5b614000821615613038576f70d869a156d2a1b890bb3df62baf32f70260801c5b618000821615613058576f31be135f97d08fd981231505542fcfa60260801c5b62010000821615613079576f09aa508b5b7a84e1c677de54f3e99bc90260801c5b62020000821615613099576e5d6af8dedb81196699c329225ee6040260801c5b620400008216156130b8576d2216e584f5fa1ea926041bedfe980260801c5b620800008216156130d5576b048a170391f7dc42444e8fa20260801c5b60008460020b13156130f05780600019816130ec57fe5b0490505b600160201b810615613103576001613106565b60005b60ff16602082901c0192505050919050565b60008080806001600160a01b03808916908a16101581871280159061319d5760006131518989620f42400362ffffff16620f4240613352565b90508261316a576131658c8c8c6001614685565b613177565b6131778b8d8c6001614700565b9550858110613188578a9650613197565b6131948c8b83866147ab565b96505b506131e7565b816131b4576131af8b8b8b6000614700565b6131c1565b6131c18a8c8b6000614685565b93508388600003106131d5578995506131e7565b6131e48b8a8a600003856147f7565b95505b6001600160a01b038a811690871614821561324a578080156132065750815b61321c57613217878d8c6001614700565b61321e565b855b955080801561322b575081155b6132415761323c878d8c6000614685565b613243565b845b9450613294565b8080156132545750815b61326a576132658c888c6001614685565b61326c565b855b9550808015613279575081155b61328f5761328a8c888c6000614700565b613291565b845b94505b811580156132a457508860000385115b156132b0578860000394505b8180156132cf57508a6001600160a01b0316876001600160a01b031614155b156132de5785890393506132fb565b6132f8868962ffffff168a620f42400362ffffff166141dd565b93505b50505095509550955095915050565b6000600160ff1b821061331c57600080fd5b5090565b8082038281131560008312151461333657600080fd5b92915050565b8181018281121560008312151461333657600080fd5b6000808060001985870986860292508281109083900303905080613388576000841161337d57600080fd5b5082900490506133fb565b80841161339457600080fd5b6000848688096000868103871696879004966002600389028118808a02820302808a02820302808a02820302808a02820302808a02820302808a02909103029181900381900460010186841190950394909402919094039290920491909117919091029150505b9392505050565b60008063ffffffff87166134a8576000898661ffff1661ffff811061342357fe5b60408051608081018252919092015463ffffffff808216808452600160201b8304600690810b810b900b6020850152600160581b83046001600160a01b031694840194909452600160f81b90910460ff16151560608301529092508a161461349457613491818a8988614843565b90505b806020015181604001519250925050613588565b8688036000806134bd8c8c858c8c8c8c6148e6565b91509150816000015163ffffffff168363ffffffff1614156134ef578160200151826040015194509450505050613588565b805163ffffffff84811691161415613517578060200151816040015194509450505050613588565b8151815160208085015190840151918390039286039163ffffffff80841692908516910360060b8161354557fe5b05028460200151018263ffffffff168263ffffffff1686604001518660400151036001600160a01b0316028161357757fe5b048560400151019650965050505050505b97509795505050505050565b600295860b860b60009081526020979097526040909620600181018054909503909455938301805490920390915560038201805463ffffffff600160d81b6001600160a01b03600160381b808504821690960316909402600160381b600160d81b031990921691909117600681810b90960390950b66ffffffffffffff1666ffffffffffffff199095169490941782810485169095039093160263ffffffff60d81b1990931692909217905554600160801b9004600f0b90565b60008082600f0b12156136b357826001600160801b03168260000384039150816001600160801b0316106136ae576040805162461bcd60e51b81526020600482015260026024820152614c5360f01b604482015290519081900360640190fd5b613336565b826001600160801b03168284019150816001600160801b03161015613336576040805162461bcd60e51b81526020600482015260026024820152614c4160f01b604482015290519081900360640190fd5b60006401000276a36001600160a01b03831610801590613740575073fffd8963efd1fc6a506488495d951d5263988d266001600160a01b038316105b613775576040805162461bcd60e51b81526020600482015260016024820152602960f91b604482015290519081900360640190fd5b640100000000600160c01b03602083901b166001600160801b03811160071b81811c67ffffffffffffffff811160061b90811c63ffffffff811160051b90811c61ffff811160041b90811c60ff8111600390811b91821c600f811160021b90811c918211600190811b92831c9790881196179094179092171790911717176080811061380957607f810383901c9150613813565b80607f0383901b91505b908002607f81811c60ff83811c9190911c800280831c81831c1c800280841c81841c1c800280851c81851c1c800280861c81861c1c800280871c81871c1c800280881c81881c1c800280891c81891c1c8002808a1c818a1c1c8002808b1c818b1c1c8002808c1c818c1c1c8002808d1c818d1c1c8002808e1c9c81901c9c909c1c80029c8d901c9e9d607f198f0160401b60c09190911c678000000000000000161760c19b909b1c674000000000000000169a909a1760c29990991c672000000000000000169890981760c39790971c671000000000000000169690961760c49590951c670800000000000000169490941760c59390931c670400000000000000169290921760c69190911c670200000000000000161760c79190911c600160381b161760c89190911c6680000000000000161760c99190911c6640000000000000161760ca9190911c6620000000000000161760cb9190911c6610000000000000161760cc9190911c6608000000000000161760cd9190911c66040000000000001617693627a301d71055774c8581026f028f6481ab7f045a5af012a19d003aa9198101608090811d906fdb2df09e81959a81455e260799a0632f8301901d600281810b9083900b14613a1057886001600160a01b03166139f482612de7565b6001600160a01b03161115613a095781613a0b565b805b613a12565b815b9998505050505050505050565b6000806000898961ffff1661ffff8110613a3557fe5b60408051608081018252919092015463ffffffff808216808452600160201b8304600690810b810b900b6020850152600160581b83046001600160a01b031694840194909452600160f81b90910460ff161515606083015290925089161415613aa45788859250925050613588565b8461ffff168461ffff16118015613ac557506001850361ffff168961ffff16145b15613ad257839150613ad6565b8491505b8161ffff168960010161ffff1681613aea57fe5b069250613af981898989614843565b8a8461ffff1661ffff8110613b0a57fe5b825191018054602084015160408501516060909501511515600160f81b026001600160f81b036001600160a01b03909616600160581b027fff0000000000000000000000000000000000000000ffffffffffffffffffffff60069390930b66ffffffffffffff16600160201b026affffffffffffff000000001963ffffffff90971663ffffffff199095169490941795909516929092171692909217929092161790555097509795505050505050565b604080516001600160a01b038481166024830152604480830185905283518084039091018152606490920183526020820180516001600160e01b031663a9059cbb60e01b1781529251825160009485949389169392918291908083835b60208310613c365780518252601f199092019160209182019101613c17565b6001836020036101000a0380198251168184511680821785525050505050509050019150506000604051808303816000865af19150503d8060008114613c98576040519150601f19603f3d011682016040523d82523d6000602084013e613c9d565b606091505b5091509150818015613ccb575080511580613ccb5750808060200190516020811015613cc857600080fd5b50515b613d01576040805162461bcd60e51b81526020600482015260026024820152612a2360f11b604482015290519081900360640190fd5b5050505050565b604080513060248083019190915282518083039091018152604490910182526020810180516001600160e01b03166370a0823160e01b17815291518151600093849384936001600160a01b037f00000000000000000000000000000000000000000000000000000000000000001693919290918291908083835b60208310613da15780518252601f199092019160209182019101613d82565b6001836020036101000a038019825116818451168082178552505050505050905001915050600060405180830381855afa9150503d8060008114613e01576040519150601f19603f3d011682016040523d82523d6000602084013e613e06565b606091505b5091509150818015613e1a57506020815110155b613e2357600080fd5b808060200190516020811015613e3857600080fd5b50519250505090565b8082018281101561333657600080fd5b604080513060248083019190915282518083039091018152604490910182526020810180516001600160e01b03166370a0823160e01b17815291518151600093849384936001600160a01b037f000000000000000000000000000000000000000000000000000000000000000016939192909182919080838360208310613da15780518252601f199092019160209182019101613d82565b6000808361ffff1611613f27576040805162461bcd60e51b81526020600482015260016024820152604960f81b604482015290519081900360640190fd5b8261ffff168261ffff1611613f3d5750816133fb565b825b8261ffff168161ffff161015613f83576001858261ffff1661ffff8110613f6257fe5b01805463ffffffff191663ffffffff92909216919091179055600101613f3f565b50909392505050565b80600f81900b8114612c6557600080fd5b6000806000613faa612c6a565b613fbc846020015185604001516143d5565b6040805160e0810182526000546001600160a01b0381168252600160a01b8104600290810b810b900b602080840182905261ffff600160b81b8404811685870152600160c81b84048116606080870191909152600160d81b8504909116608086015260ff600160e81b8504811660a0870152600160f01b909404909316151560c0850152885190890151948901519289015193946140609491939092909190614ae0565b93508460600151600f0b6000146141d557846020015160020b816020015160020b12156140b5576140ae6140978660200151612de7565b6140a48760400151612de7565b8760600151614c95565b92506141d5565b846040015160020b816020015160020b12156141ab5760045460408201516001600160801b0390911690614107906140eb612ca1565b6020850151606086015160808701516008949392918791613a1f565b6000805461ffff60c81b1916600160c81b61ffff938416021761ffff60b81b1916600160b81b939092169290920217905581516040870151614157919061414d90612de7565b8860600151614c95565b93506141756141698760200151612de7565b83516060890151614cd9565b925061418581876060015161364e565b600480546001600160801b0319166001600160801b0392909216919091179055506141d5565b6141d26141bb8660200151612de7565b6141c88760400151612de7565b8760600151614cd9565b91505b509193909250565b60006141ea848484613352565b9050600082806141f657fe5b84860911156133fb57600019811061420d57600080fd5b6001019392505050565b6040805160609490941b6bffffffffffffffffffffffff1916602080860191909152600293840b60e890811b60348701529290930b90911b60378401528051808403601a018152603a90930181528251928201929092206000908152929052902090565b60608060008361ffff16116142bb576040805162461bcd60e51b81526020600482015260016024820152604960f81b604482015290519081900360640190fd5b865167ffffffffffffffff811180156142d357600080fd5b506040519080825280602002602001820160405280156142fd578160200160208202803683370190505b509150865167ffffffffffffffff8111801561431857600080fd5b50604051908082528060200260200182016040528015614342578160200160208202803683370190505b50905060005b87518110156143c8576143738a8a8a848151811061436257fe5b60200260200101518a8a8a8a613402565b84838151811061437f57fe5b6020026020010184848151811061439257fe5b60200260200101826001600160a01b03166001600160a01b03168152508260060b60060b81525050508080600101915050614348565b5097509795505050505050565b8060020b8260020b12614415576040805162461bcd60e51b8152602060048201526003602482015262544c5560e81b604482015290519081900360640190fd5b620d89e719600283900b1215614458576040805162461bcd60e51b8152602060048201526003602482015262544c4d60e81b604482015290519081900360640190fd5b620d89e8600282900b131561449a576040805162461bcd60e51b815260206004820152600360248201526254554d60e81b604482015290519081900360640190fd5b5050565b6040805160808101825263ffffffff9283168082526000602083018190529282019290925260016060909101819052835463ffffffff1916909117909116600160f81b17909155908190565b60020b600881901d9161010090910790565b600080821161450a57600080fd5b600160801b821061451d57608091821c91015b68010000000000000000821061453557604091821c91015b600160201b821061454857602091821c91015b62010000821061455a57601091821c91015b610100821061456b57600891821c91015b6010821061457b57600491821c91015b6004821061458b57600291821c91015b60028210612c6557600101919050565b60008082116145a957600080fd5b5060ff6001600160801b038216156145c457607f19016145cc565b608082901c91505b67ffffffffffffffff8216156145e557603f19016145ed565b604082901c91505b63ffffffff82161561460257601f190161460a565b602082901c91505b61ffff82161561461d57600f1901614625565b601082901c91505b60ff821615614637576007190161463f565b600882901c91505b600f8216156146515760031901614659565b600482901c91505b600382161561466b5760011901614673565b600282901c91505b6001821615612c655760001901919050565b6000836001600160a01b0316856001600160a01b031611156146a5579293925b816146d2576146cd836001600160801b03168686036001600160a01b0316600160601b613352565b6146f5565b6146f5836001600160801b03168686036001600160a01b0316600160601b6141dd565b90505b949350505050565b6000836001600160a01b0316856001600160a01b03161115614720579293925b600160601b600160e01b03606084901b166001600160a01b03868603811690871661474a57600080fd5b8361477a57866001600160a01b031661476d8383896001600160a01b0316613352565b8161477457fe5b046147a0565b6147a06147918383896001600160a01b03166141dd565b886001600160a01b0316614d08565b979650505050505050565b600080856001600160a01b0316116147c257600080fd5b6000846001600160801b0316116147d857600080fd5b816147ea576146cd8585856001614d13565b6146f58585856001614df4565b600080856001600160a01b03161161480e57600080fd5b6000846001600160801b03161161482457600080fd5b81614836576146cd8585856000614df4565b6146f58585856000614d13565b61484b615614565b600085600001518503905060405180608001604052808663ffffffff1681526020018263ffffffff168660020b0288602001510160060b81526020016000856001600160801b03161161489f5760016148a1565b845b6001600160801b031663ffffffff60801b608085901b16816148bf57fe5b048860400151016001600160a01b0316815260200160011515815250915050949350505050565b6148ee615614565b6148f6615614565b888561ffff1661ffff811061490757fe5b60408051608081018252919092015463ffffffff8116808352600160201b8204600690810b810b900b6020840152600160581b82046001600160a01b031693830193909352600160f81b900460ff1615156060820152925061496b90899089614ed7565b156149a3578663ffffffff16826000015163ffffffff16141561498d57613588565b8161499a83898988614843565b91509150613588565b888361ffff168660010161ffff16816149b857fe5b0661ffff1661ffff81106149c857fe5b60408051608081018252929091015463ffffffff81168352600160201b8104600690810b810b900b60208401526001600160a01b03600160581b8204169183019190915260ff600160f81b90910416151560608201819052909250614a7d57604080516080810182528a5463ffffffff81168252600160201b8104600690810b810b900b6020830152600160581b81046001600160a01b031692820192909252600160f81b90910460ff161515606082015291505b614a8c88836000015189614ed7565b614ac3576040805162461bcd60e51b815260206004820152600360248201526213d31160ea1b604482015290519081900360640190fd5b614ad08989898887614f98565b9150915097509795505050505050565b6000614aef6007878787614217565b60015460025491925090600080600f87900b15614c35576000614b10612ca1565b6000805460045492935090918291614b5a9160089186918591600160a01b810460020b9161ffff600160b81b83048116926001600160801b0390921691600160c81b900416613402565b9092509050614b9460058d8b8d8b8b87898b60007f0000000000000000000000000000000000000000000000000000000000000000615136565b9450614bcb60058c8b8d8b8b87898b60017f0000000000000000000000000000000000000000000000000000000000000000615136565b93508415614bff57614bff60068d7f00000000000000000000000000000000000000000000000000000000000000006152ef565b8315614c3157614c3160068c7f00000000000000000000000000000000000000000000000000000000000000006152ef565b5050505b600080614c4760058c8c8b8a8a615355565b9092509050614c58878a8484615401565b600089600f0b1215614c86578315614c7557614c7560058c615596565b8215614c8657614c8660058b615596565b50505050505095945050505050565b60008082600f0b12614cbb57614cb6614cb18585856001614700565b61330a565b6146f8565b614cce614cb18585856000036000614700565b600003949350505050565b60008082600f0b12614cf557614cb6614cb18585856001614685565b614cce614cb18585856000036000614685565b808204910615150190565b60008115614d865760006001600160a01b03841115614d4957614d4484600160601b876001600160801b0316613352565b614d61565b6001600160801b038516606085901b81614d5f57fe5b045b9050614d7e614d796001600160a01b03881683613e41565b6155c2565b9150506146f8565b60006001600160a01b03841115614db457614daf84600160601b876001600160801b03166141dd565b614dcb565b614dcb606085901b6001600160801b038716614d08565b905080866001600160a01b031611614de257600080fd5b6001600160a01b0386160390506146f8565b600082614e025750836146f8565b600160601b600160e01b03606085901b168215614e90576001600160a01b03861684810290858281614e3057fe5b041415614e6157818101828110614e5f57614e5583896001600160a01b0316836141dd565b93505050506146f8565b505b614e8782614e82878a6001600160a01b03168681614e7b57fe5b0490613e41565b614d08565b925050506146f8565b6001600160a01b03861684810290858281614ea757fe5b04148015614eb457508082115b614ebd57600080fd5b808203614e55614d79846001600160a01b038b16846141dd565b60008363ffffffff168363ffffffff1611158015614f0157508363ffffffff168263ffffffff1611155b15614f1d578163ffffffff168363ffffffff16111590506133fb565b60008463ffffffff168463ffffffff1611614f44578363ffffffff16600160201b01614f4c565b8363ffffffff165b64ffffffffff16905060008563ffffffff168463ffffffff1611614f7c578363ffffffff16600160201b01614f84565b8363ffffffff165b64ffffffffff169091111595945050505050565b614fa0615614565b614fa8615614565b60008361ffff168560010161ffff1681614fbe57fe5b0661ffff169050600060018561ffff16830103905060005b506002818301048961ffff87168281614feb57fe5b0661ffff8110614ff757fe5b60408051608081018252929091015463ffffffff81168352600160201b8104600690810b810b900b60208401526001600160a01b03600160581b8204169183019190915260ff600160f81b9091041615156060820181905290955061506157806001019250614fd6565b898661ffff16826001018161507257fe5b0661ffff811061507e57fe5b60408051608081018252929091015463ffffffff81168352600160201b8104600690810b810b900b60208401526001600160a01b03600160581b8204169183019190915260ff600160f81b909104161515606082015285519094506000906150e8908b908b614ed7565b905080801561510157506151018a8a8760000151614ed7565b1561510c5750615129565b8061511c57600182039250615123565b8160010193505b50614fd6565b5050509550959350505050565b60028a810b900b600090815260208c90526040812080546001600160801b031682615161828d61364e565b9050846001600160801b0316816001600160801b031611156151af576040805162461bcd60e51b81526020600482015260026024820152614c4f60f01b604482015290519081900360640190fd5b6001600160801b038281161590821615811415945015615254578c60020b8e60020b1361523c57600183018b9055600283018a9055600383018054600160381b600160d81b031916600160381b6001600160a01b038c16021766ffffffffffffff191666ffffffffffffff60068b900b161763ffffffff60d81b1916600160d81b63ffffffff8a16021790555b6003830180546001600160f81b0316600160f81b1790555b82546001600160801b0319166001600160801b0382161783558561529d5782546152989061529390600160801b9004600f90810b810b908f900b61333c565b613f8c565b6152be565b82546152be9061529390600160801b9004600f90810b810b908f900b613320565b8354600f9190910b6001600160801b03908116600160801b0291161790925550909c9b505050505050505050505050565b8060020b8260020b816152fe57fe5b0760020b1561530c57600080fd5b6000806153278360020b8560020b8161532157fe5b056144ea565b600191820b820b60009081526020979097526040909620805460ff9097169190911b90951890945550505050565b600285810b80820b60009081526020899052604080822088850b850b83529082209193849391929184918291908a900b1261539b575050600182015460028301546153ae565b8360010154880391508360020154870390505b6000808b60020b8b60020b12156153d0575050600183015460028401546153e3565b84600101548a0391508460020154890390505b92909803979097039b96909503949094039850939650505050505050565b6040805160a08101825285546001600160801b0390811682526001870154602083015260028701549282019290925260038601548083166060830152600160801b900490911660808201526000600f85900b6154a05781516001600160801b0316615498576040805162461bcd60e51b815260206004820152600260248201526104e560f41b604482015290519081900360640190fd5b5080516154af565b81516154ac908661364e565b90505b60006154d38360200151860384600001516001600160801b0316600160801b613352565b905060006154f98460400151860385600001516001600160801b0316600160801b613352565b905086600f0b6000146155205787546001600160801b0319166001600160801b0384161788555b60018801869055600288018590556001600160801b03821615158061554e57506000816001600160801b0316115b1561558c576003880180546001600160801b031981166001600160801b039182168501821617808216600160801b9182900483168501909216021790555b5050505050505050565b600290810b810b6000908152602092909252604082208281556001810183905590810182905560030155565b806001600160a01b0381168114612c6557600080fd5b6040805160e081018252600080825260208201819052918101829052606081018290526080810182905260a0810182905260c081019190915290565b6040805160808101825260008082526020820181905291810182905260608101919091529056fea26469706673582212204d03988b669788aab4fcccc44a6ffacda63b2ab39eb3a9db3f3295067138162864736f6c63430007060033",
    "linkReferences": {}
  },
  "methodIdentifiers": {
    "burn(int24,int24,uint128)": "a34123a7",
    "collect(address,int24,int24,uint128,uint128)": "4f1eb3d8",
    "collectProtocol(address,uint128,uint128)": "85b66729",
    "factory()": "c45a0155",
    "fee()": "ddca3f43",
    "feeGrowthGlobal0X128()": "f3058399",
    "feeGrowthGlobal1X128()": "46141319",
    "flash(address,uint256,uint256,bytes)": "490e6cbc",
    "increaseObservationCardinalityNext(uint16)": "32148f67",
    "initialize(uint160)": "f637731d",
    "liquidity()": "1a686502",
    "maxLiquidityPerTick()": "70cf754a",
    "mint(address,int24,int24,uint128,bytes)": "3c8a7d8d",
    "observations(uint256)": "252c09d7",
    "observe(uint32[])": "883bdbfd",
    "positions(bytes32)": "514ea4bf",
    "protocolFees()": "1ad8b03b",
    "setFeeProtocol(uint8,uint8)": "8206a4d1",
    "slot0()": "3850c7bd",
    "snapshotCumulativesInside(int24,int24)": "a38807f2",
    "swap(address,bool,int256,uint160,bytes)": "128acb08",
    "tickBitmap(int16)": "5339c296",
    "tickSpacing()": "d0c93a7c",
    "ticks(int24)": "f30dba93",
    "token0()": "0dfe1681",
    "token1()": "d21220a7"
  },
  "id": 6
}