{
  "abi": [
    {
      "inputs": [
        {
          "internalType": "address",
          "name": "_governance",
          "type": "address"
        }
      ],
      "stateMutability": "nonpayable",
      "type": "constructor"
    },
    {
      "anonymous": false,
      "inputs": [
        {
          "indexed": false,
          "internalType": "int24",
          "name": "oldBaseTicks",
          "type": "int24"
        },
        {
          "indexed": false,
          "internalType": "int24",
          "name": "newBaseTicks",
          "type": "int24"
        }
      ],
      "name": "BaseTicksUpdated",
      "type": "event"
    },
    {
      "anonymous": false,
      "inputs": [
        {
          "indexed": false,
          "internalType": "address",
          "name": "oldGovernance",
          "type": "address"
        },
        {
          "indexed": false,
          "internalType": "address",
          "name": "newGovernance",
          "type": "address"
        }
      ],
      "name": "GovernanceUpdated",
      "type": "event"
    },
    {
      "anonymous": false,
      "inputs": [
        {
          "indexed": false,
          "internalType": "int24",
          "name": "oldDeviation",
          "type": "int24"
        },
        {
          "indexed": false,
          "internalType": "int24",
          "name": "newDeviation",
          "type": "int24"
        }
      ],
      "name": "MaxTwapDeviationUpdated",
      "type": "event"
    },
    {
      "anonymous": false,
      "inputs": [
        {
          "indexed": false,
          "internalType": "int24",
          "name": "oldRangeTicks",
          "type": "int24"
        },
        {
          "indexed": false,
          "internalType": "int24",
          "name": "newRangeTicks",
          "type": "int24"
        }
      ],
      "name": "RangeTicksUpdated",
      "type": "event"
    },
    {
      "anonymous": false,
      "inputs": [
        {
          "indexed": false,
          "internalType": "int24",
          "name": "oldMultiplier",
          "type": "int24"
        },
        {
          "indexed": false,
          "internalType": "int24",
          "name": "newMultiplier",
          "type": "int24"
        }
      ],
      "name": "ReadjustMultiplierUpdated",
      "type": "event"
    },
    {
      "anonymous": false,
      "inputs": [
        {
          "components": [
            {
              "internalType": "int24",
              "name": "baseThreshold",
              "type": "int24"
            },
            {
              "internalType": "int24",
              "name": "rangeThreshold",
              "type": "int24"
            },
            {
              "internalType": "int24",
              "name": "maxTwapDeviation",
              "type": "int24"
            },
            {
              "internalType": "int24",
              "name": "readjustThreshold",
              "type": "int24"
            },
            {
              "internalType": "uint32",
              "name": "twapDuration",
              "type": "uint32"
            },
            {
              "internalType": "int24",
              "name": "baseMultiplier",
              "type": "int24"
            }
          ],
          "indexed": false,
          "internalType": "struct IUnipilotStrategy.PoolStrategy",
          "name": "oldStrategy",
          "type": "tuple"
        },
        {
          "components": [
            {
              "internalType": "int24",
              "name": "baseThreshold",
              "type": "int24"
            },
            {
              "internalType": "int24",
              "name": "rangeThreshold",
              "type": "int24"
            },
            {
              "internalType": "int24",
              "name": "maxTwapDeviation",
              "type": "int24"
            },
            {
              "internalType": "int24",
              "name": "readjustThreshold",
              "type": "int24"
            },
            {
              "internalType": "uint32",
              "name": "twapDuration",
              "type": "uint32"
            },
            {
              "internalType": "int24",
              "name": "baseMultiplier",
              "type": "int24"
            }
          ],
          "indexed": false,
          "internalType": "struct IUnipilotStrategy.PoolStrategy",
          "name": "newStrategy",
          "type": "tuple"
        }
      ],
      "name": "StrategyUpdated",
      "type": "event"
    },
    {
      "anonymous": false,
      "inputs": [
        {
          "indexed": false,
          "internalType": "uint32",
          "name": "oldDuration",
          "type": "uint32"
        },
        {
          "indexed": false,
          "internalType": "uint32",
          "name": "newDuration",
          "type": "uint32"
        }
      ],
      "name": "TwapDurationUpdated",
      "type": "event"
    },
    {
      "inputs": [],
      "name": "baseMultiplier",
      "outputs": [
        {
          "internalType": "int24",
          "name": "",
          "type": "int24"
        }
      ],
      "stateMutability": "view",
      "type": "function"
    },
    {
      "inputs": [],
      "name": "baseTicks",
      "outputs": [
        {
          "internalType": "int24",
          "name": "",
          "type": "int24"
        }
      ],
      "stateMutability": "view",
      "type": "function"
    },
    {
      "inputs": [
        {
          "components": [
            {
              "internalType": "int24",
              "name": "baseThreshold",
              "type": "int24"
            },
            {
              "internalType": "int24",
              "name": "rangeThreshold",
              "type": "int24"
            },
            {
              "internalType": "int24",
              "name": "maxTwapDeviation",
              "type": "int24"
            },
            {
              "internalType": "int24",
              "name": "readjustThreshold",
              "type": "int24"
            },
            {
              "internalType": "uint32",
              "name": "twapDuration",
              "type": "uint32"
            },
            {
              "internalType": "int24",
              "name": "baseMultiplier",
              "type": "int24"
            }
          ],
          "internalType": "struct IUnipilotStrategy.PoolStrategy",
          "name": "params",
          "type": "tuple"
        },
        {
          "internalType": "address",
          "name": "_pool",
          "type": "address"
        }
      ],
      "name": "changeStrategy",
      "outputs": [],
      "stateMutability": "nonpayable",
      "type": "function"
    },
    {
      "inputs": [
        {
          "internalType": "address",
          "name": "pool",
          "type": "address"
        }
      ],
      "name": "checkDeviation",
      "outputs": [],
      "stateMutability": "view",
      "type": "function"
    },
    {
      "inputs": [
        {
          "internalType": "address",
          "name": "_pool",
          "type": "address"
        },
        {
          "internalType": "uint16",
          "name": "_strategyType",
          "type": "uint16"
        }
      ],
      "name": "getBaseThreshold",
      "outputs": [
        {
          "internalType": "int24",
          "name": "baseThreshold",
          "type": "int24"
        }
      ],
      "stateMutability": "view",
      "type": "function"
    },
    {
      "inputs": [
        {
          "internalType": "address",
          "name": "_pool",
          "type": "address"
        }
      ],
      "name": "getReadjustThreshold",
      "outputs": [
        {
          "internalType": "int24",
          "name": "readjustThreshold",
          "type": "int24"
        }
      ],
      "stateMutability": "view",
      "type": "function"
    },
    {
      "inputs": [
        {
          "internalType": "address",
          "name": "_pool",
          "type": "address"
        }
      ],
      "name": "getStrategy",
      "outputs": [
        {
          "components": [
            {
              "internalType": "int24",
              "name": "baseThreshold",
              "type": "int24"
            },
            {
              "internalType": "int24",
              "name": "rangeThreshold",
              "type": "int24"
            },
            {
              "internalType": "int24",
              "name": "maxTwapDeviation",
              "type": "int24"
            },
            {
              "internalType": "int24",
              "name": "readjustThreshold",
              "type": "int24"
            },
            {
              "internalType": "uint32",
              "name": "twapDuration",
              "type": "uint32"
            },
            {
              "internalType": "int24",
              "name": "baseMultiplier",
              "type": "int24"
            }
          ],
          "internalType": "struct IUnipilotStrategy.PoolStrategy",
          "name": "strategy",
          "type": "tuple"
        }
      ],
      "stateMutability": "view",
      "type": "function"
    },
    {
      "inputs": [
        {
          "internalType": "address",
          "name": "_pool",
          "type": "address"
        }
      ],
      "name": "getTicks",
      "outputs": [
        {
          "internalType": "int24",
          "name": "baseLower",
          "type": "int24"
        },
        {
          "internalType": "int24",
          "name": "baseUpper",
          "type": "int24"
        },
        {
          "internalType": "int24",
          "name": "bidLower",
          "type": "int24"
        },
        {
          "internalType": "int24",
          "name": "bidUpper",
          "type": "int24"
        },
        {
          "internalType": "int24",
          "name": "askLower",
          "type": "int24"
        },
        {
          "internalType": "int24",
          "name": "askUpper",
          "type": "int24"
        }
      ],
      "stateMutability": "nonpayable",
      "type": "function"
    },
    {
      "inputs": [
        {
          "internalType": "address",
          "name": "_pool",
          "type": "address"
        }
      ],
      "name": "getTwap",
      "outputs": [
        {
          "internalType": "int24",
          "name": "twap",
          "type": "int24"
        }
      ],
      "stateMutability": "view",
      "type": "function"
    },
    {
      "inputs": [],
      "name": "governance",
      "outputs": [
        {
          "internalType": "address",
          "name": "",
          "type": "address"
        }
      ],
      "stateMutability": "view",
      "type": "function"
    },
    {
      "inputs": [],
      "name": "maxTwapDeviation",
      "outputs": [
        {
          "internalType": "int24",
          "name": "",
          "type": "int24"
        }
      ],
      "stateMutability": "view",
      "type": "function"
    },
    {
      "inputs": [],
      "name": "rangeTicks",
      "outputs": [
        {
          "internalType": "int24",
          "name": "",
          "type": "int24"
        }
      ],
      "stateMutability": "view",
      "type": "function"
    },
    {
      "inputs": [
        {
          "components": [
            {
              "internalType": "int24",
              "name": "baseThreshold",
              "type": "int24"
            },
            {
              "internalType": "int24",
              "name": "rangeThreshold",
              "type": "int24"
            },
            {
              "internalType": "int24",
              "name": "maxTwapDeviation",
              "type": "int24"
            },
            {
              "internalType": "int24",
              "name": "readjustThreshold",
              "type": "int24"
            },
            {
              "internalType": "uint32",
              "name": "twapDuration",
              "type": "uint32"
            },
            {
              "internalType": "int24",
              "name": "baseMultiplier",
              "type": "int24"
            }
          ],
          "internalType": "struct IUnipilotStrategy.PoolStrategy[]",
          "name": "params",
          "type": "tuple[]"
        },
        {
          "internalType": "address[]",
          "name": "pools",
          "type": "address[]"
        }
      ],
      "name": "setAllStrategies",
      "outputs": [],
      "stateMutability": "nonpayable",
      "type": "function"
    },
    {
      "inputs": [
        {
          "internalType": "address[]",
          "name": "_pools",
          "type": "address[]"
        },
        {
          "internalType": "uint16[]",
          "name": "_strategyType",
          "type": "uint16[]"
        },
        {
          "internalType": "int24[]",
          "name": "_baseMultiplier",
          "type": "int24[]"
        }
      ],
      "name": "setBaseTicks",
      "outputs": [],
      "stateMutability": "nonpayable",
      "type": "function"
    },
    {
      "inputs": [
        {
          "internalType": "address",
          "name": "_governance",
          "type": "address"
        }
      ],
      "name": "setGovernance",
      "outputs": [],
      "stateMutability": "nonpayable",
      "type": "function"
    },
    {
      "inputs": [
        {
          "internalType": "int24",
          "name": "_twapDeviation",
          "type": "int24"
        }
      ],
      "name": "setMaxTwapDeviation",
      "outputs": [],
      "stateMutability": "nonpayable",
      "type": "function"
    },
    {
      "inputs": [
        {
          "internalType": "address[]",
          "name": "_pools",
          "type": "address[]"
        },
        {
          "internalType": "int24[]",
          "name": "_twapDeviations",
          "type": "int24[]"
        }
      ],
      "name": "setPoolTwapDeviation",
      "outputs": [],
      "stateMutability": "nonpayable",
      "type": "function"
    },
    {
      "inputs": [
        {
          "internalType": "int24",
          "name": "_rangeTicks",
          "type": "int24"
        }
      ],
      "name": "setRangeTicks",
      "outputs": [],
      "stateMutability": "nonpayable",
      "type": "function"
    },
    {
      "inputs": [
        {
          "internalType": "int24",
          "name": "_readjustMultipier",
          "type": "int24"
        }
      ],
      "name": "setReadjustMultiplier",
      "outputs": [],
      "stateMutability": "nonpayable",
      "type": "function"
    },
    {
      "inputs": [
        {
          "internalType": "uint32",
          "name": "_twapDuration",
          "type": "uint32"
        }
      ],
      "name": "setTwapDuration",
      "outputs": [],
      "stateMutability": "nonpayable",
      "type": "function"
    },
    {
      "inputs": [],
      "name": "twapDuration",
      "outputs": [
        {
          "internalType": "uint32",
          "name": "",
          "type": "uint32"
        }
      ],
      "stateMutability": "view",
      "type": "function"
    }
  ],
  "bytecode": {
    "object": "0x60806040523480156200001157600080fd5b506040516200291f3803806200291f8339810160408190526200003491620000bc565b6000805460018054600a65ffffff0000001990911664012c0000001763ffffffff60301b1916670e100000000000001762ffffff19161790556001600160a01b0319166001600160a01b03929092169190911762ffffff60a01b191660e160a31b1762ffffff60b81b191660e160bb1b176001600160e81b0316600f60e91b179055620000ec565b600060208284031215620000ce578081fd5b81516001600160a01b0381168114620000e5578182fd5b9392505050565b61282380620000fc6000396000f3fe608060405234801561001057600080fd5b50600436106101375760003560e01c8063963f0bb6116100b8578063c433c80a1161007c578063c433c80a1461027c578063d4f9b7a71461028f578063d60a0955146102a2578063e7c7cb91146102aa578063f8806a13146102b2578063fd0679e9146102d257610137565b8063963f0bb61461021d578063ab033ea914610230578063ab24f52614610243578063b0a42a5114610256578063b7ab92e81461026957610137565b80634ed8cf27116100ff5780634ed8cf27146101aa57806357159a2e146101bd5780635aa6e675146101d0578063802036f5146101e55780638df2345e1461020a57610137565b8063051bb8331461013c5780631ca6aede1461015157806326d895451461016f5780633cbff3fe146101845780633d47d22714610197575b600080fd5b61014f61014a3660046120c2565b6102da565b005b61015961036c565b604051610166919061253b565b60405180910390f35b61017761037c565b604051610166919061273a565b61014f61019236600461231b565b61038f565b6101596101a53660046120c2565b610441565b6101596101b83660046120c2565b6105ce565b61014f6101cb366004612260565b6105f9565b6101d861068d565b604051610166919061250d565b6101f86101f33660046120c2565b61069c565b6040516101669695949392919061255d565b61014f61021836600461217e565b610ae5565b61014f61022b366004612353565b610bd2565b61014f61023e3660046120c2565b610e5b565b61014f61025136600461211d565b610f14565b6101596102643660046120e5565b610fe1565b61014f61027736600461231b565b611010565b61014f61028a366004612441565b6110cc565b61014f61029d36600461231b565b611179565b610159611212565b610159611222565b6102c56102c03660046120c2565b611232565b60405161016691906126b0565b6101596112ca565b60006102e5826112da565b905060006102f2836113fc565b50905060008260020b8260020b1361030c57818303610310565b8282035b6001600160a01b038516600090815260026020819052604090912054919250600160301b909104810b810b9082900b13156103665760405162461bcd60e51b815260040161035d90612622565b60405180910390fd5b50505050565b600054600160a01b900460020b81565b600154600160301b900463ffffffff1681565b6000546001600160a01b031633146103b95760405162461bcd60e51b815260040161035d9061263f565b60148160020b12156103dd5760405162461bcd60e51b815260040161035d906125cc565b60018054600283810b62ffffff16630100000090810265ffffff000000198416179093556040517fb32bf5279c25f60e729f297567e5882813fe72a29dec91009962465b6a98a15f93610436930490910b908490612549565b60405180910390a150565b600080829050600080826001600160a01b0316633850c7bd6040518163ffffffff1660e01b815260040160e06040518083038186803b15801561048357600080fd5b505afa158015610497573d6000803e3d6000fd5b505050506040513d601f19601f820116820180604052508101906104bb91906123a6565b5050509350935050506000836001600160a01b031663252c09d78361ffff168560010161ffff16816104e957fe5b066040518263ffffffff1660e01b8152600401610506919061272b565b60806040518083038186803b15801561051e57600080fd5b505afa158015610532573d6000803e3d6000fd5b505050506040513d601f19601f82011682018060405250810190610556919061245d565b5050506001600160a01b0387166000908152600260205260409020549091504282900390600160601b900463ffffffff168061059e5750600154600160301b900463ffffffff165b6105c2888263ffffffff168463ffffffff16116105bb57836105bd565b825b6114f9565b98975050505050505050565b6001600160a01b038116600090815260026020819052604090912054600160481b9004900b5b919050565b6000546001600160a01b031633146106235760405162461bcd60e51b815260040161035d9061263f565b80518251146106445760405162461bcd60e51b815260040161035d906125e8565b60005b82518110156106885761068083828151811061065f57fe5b602002602001015183838151811061067357fe5b6020026020010151610bd2565b600101610647565b505050565b6000546001600160a01b031681565b6000806000806000806000806106b1896113fc565b6001600160a01b038b1660009081526002602081905260409091205492945090925090810b900b158061070857506001600160a01b03891660009081526002602081905260409091205463010000009004810b900b155b156108d4576000805461072590600160b81b900460020b836117f9565b90506040518060c001604052808260020b8152602001610754600060149054906101000a900460020b856117f9565b600290810b825260015463010000008104820b820b602084015260409092019160649190810b8502900b0560020b8152602001600160069054906101000a900463ffffffff1663ffffffff1681526020016000601d9054906101000a900460020b60020b815250600260008c6001600160a01b03166001600160a01b0316815260200190815260200160002060008201518160000160006101000a81548162ffffff021916908360020b62ffffff16021790555060208201518160000160036101000a81548162ffffff021916908360020b62ffffff16021790555060408201518160000160066101000a81548162ffffff021916908360020b62ffffff16021790555060608201518160000160096101000a81548162ffffff021916908360020b62ffffff160217905550608082015181600001600c6101000a81548163ffffffff021916908363ffffffff16021790555060a08201518160000160106101000a81548162ffffff021916908360020b62ffffff160217905550905050505b6001600160a01b038916600090815260026020819052604082208054835462ffffff60d01b1916600160d01b62ffffff6301000000909304850b850b9290921682021780855591549104820b820b90820b90910b1361093f57600054600160d01b900460020b61095e565b6001600160a01b038a16600090815260026020819052604090912054900b5b90508181620d89e719010160020b8360020b13801561098d57508181620d89e719600003030360020b8360020b125b6109a95760405162461bcd60e51b815260040161035d9061265b565b60006109b48b6112da565b905060008160020b8560020b136109cd578482036109d1565b8185035b6001600160a01b038d16600090815260026020819052604090912054919250600160301b909104810b810b9082900b1315610a1e5760405162461bcd60e51b815260040161035d90612622565b6000610a2a86866117f9565b905060008582019050600260008f6001600160a01b03166001600160a01b0316815260200190815260200160002060000160009054906101000a900460020b82039c50600260008f6001600160a01b03166001600160a01b0316815260200190815260200160002060000160009054906101000a900460020b82019b506000601a9054906101000a900460020b82039a508199508098506000601a9054906101000a900460020b810197505050505050505091939550919395565b6000546001600160a01b03163314610b0f5760405162461bcd60e51b815260040161035d9061263f565b8051835114610b1d57600080fd5b8151835114610b2b57600080fd5b60005b835181101561036657818181518110610b4357fe5b602002602001015160036000868481518110610b5b57fe5b60200260200101516001600160a01b03166001600160a01b031681526020019081526020016000206000858481518110610b9157fe5b60209081029190910181015161ffff168252810191909152604001600020805460029290920b62ffffff1662ffffff19909216919091179055600101610b2e565b6000546001600160a01b03163314610bfc5760405162461bcd60e51b815260040161035d9061263f565b6001600160a01b038116600081815260026020818152604092839020835160c081018552905480840b840b840b825263010000008104840b840b840b82840152600160301b8104840b840b840b82860152600160481b8104840b840b840b606083015263ffffffff600160601b8204166080830152600160801b9004830b830b90920b60a0830152855183516334324e9f60e21b815293519294610cfc949193909263d0c93a7c9260048082019391829003018186803b158015610cbf57600080fd5b505afa158015610cd3573d6000803e3d6000fd5b505050506040513d601f19601f82011682018060405250810190610cf79190612337565b611847565b6040805160c0810182528451600290810b8252602080870151820b81840190815287850151830b8486019081526060808a0151850b9086019081526080808b015163ffffffff90811691880191825260a0808d0151880b9089019081526001600160a01b038c16600090815296889052958990209751885495519451935192519651880b62ffffff908116600160801b0262ffffff60801b1998909316600160601b0263ffffffff60601b19948a0b8216600160481b026bffffff00000000000000000019968b0b8316600160301b0268ffffff00000000000019988c0b841663010000000265ffffff0000001995909c0b90931662ffffff199099169890981792909216989098179490941696909617919091169290921791909116171617815590517fe748bf5f6cb4a1bc33a8d0ec9893c62ea767c51450d362551972251729e9cd3f91610e4e918491906126be565b60405180910390a1505050565b6000546001600160a01b03163314610e855760405162461bcd60e51b815260040161035d9061263f565b6001600160a01b038116610eab5760405162461bcd60e51b815260040161035d90612605565b6000546040517f434a2db650703b36c824e745330d6397cdaa9ee2cc891a4938ae853e1c50b68d91610eea916001600160a01b03909116908490612521565b60405180910390a1600080546001600160a01b0319166001600160a01b0392909216919091179055565b6000546001600160a01b03163314610f3e5760405162461bcd60e51b815260040161035d9061263f565b8051825114610f5f5760405162461bcd60e51b815260040161035d906125e8565b60005b825181101561068857818181518110610f7757fe5b602002602001015160026000858481518110610f8f57fe5b6020908102919091018101516001600160a01b03168252810191909152604001600020805460029290920b62ffffff16600160301b0268ffffff00000000000019909216919091179055600101610f62565b6001600160a01b03909116600090815260036020908152604080832061ffff9094168352929052205460020b90565b6000546001600160a01b0316331461103a5760405162461bcd60e51b815260040161035d9061263f565b60008160020b1361105d5760405162461bcd60e51b815260040161035d90612693565b6000546040517f5d57c30988c079327c7a2866b4ec81c1eb83dca7d6ecd954093458c50034c9389161109c91600160a01b90910460020b908490612549565b60405180910390a16000805460029290920b62ffffff16600160a01b0262ffffff60a01b19909216919091179055565b6000546001600160a01b031633146110f65760405162461bcd60e51b815260040161035d9061263f565b60648163ffffffff16101561111d5760405162461bcd60e51b815260040161035d90612677565b6001805463ffffffff838116600160301b90810269ffffffff000000000000198416179093556040517f1c373b0a9b89049c835cfc0851faad1f23dbb7e5bd46cf58eb88da4dd760378b9361043693049190911690849061274b565b6000546001600160a01b031633146111a35760405162461bcd60e51b815260040161035d9061263f565b60008160020b136111c65760405162461bcd60e51b815260040161035d906125ae565b60018054600283810b62ffffff1662ffffff198316179092556040517f6970a7f31fee92e8ced74d8833776ba308b9d4259e72a19b40ea53bdce8c8c489261043692900b908490612549565b600054600160e81b900460020b81565b6001546301000000900460020b81565b61123a611eee565b506001600160a01b0316600090815260026020818152604092839020835160c081018552905480840b840b840b825263010000008104840b840b840b92820192909252600160301b8204830b830b830b93810193909352600160481b8104820b820b820b606084015263ffffffff600160601b8204166080840152600160801b9004810b810b900b60a082015290565b600054600160b81b900460020b81565b600080826001600160a01b0316631a6865026040518163ffffffff1660e01b815260040160206040518083038186803b15801561131657600080fd5b505afa15801561132a573d6000803e3d6000fd5b505050506040513d601f19601f8201168201806040525081019061134e919061237f565b90506001600160801b0381166113ea576000836001600160a01b0316633850c7bd6040518163ffffffff1660e01b815260040160e06040518083038186803b15801561139957600080fd5b505afa1580156113ad573d6000803e3d6000fd5b505050506040513d601f19601f820116820180604052508101906113d191906123a6565b50505050505090506113e28161189d565b9250506113f6565b6113f383610441565b91505b50919050565b600080826001600160a01b0316633850c7bd6040518163ffffffff1660e01b815260040160e06040518083038186803b15801561143857600080fd5b505afa15801561144c573d6000803e3d6000fd5b505050506040513d601f19601f8201168201806040525081019061147091906123a6565b5050604080516334324e9f60e21b815290519497506001600160a01b038916955063d0c93a7c94600480830195506020945090925090829003018186803b1580156114ba57600080fd5b505afa1580156114ce573d6000803e3d6000fd5b505050506040513d601f19601f820116820180604052508101906114f29190612337565b9050915091565b600063ffffffff8216611538576040805162461bcd60e51b8152602060048201526002602482015261042560f41b604482015290519081900360640190fd5b604080516002808252606082018352600092602083019080368337019050509050828160008151811061156757fe5b602002602001019063ffffffff16908163ffffffff168152505060008160018151811061159057fe5b63ffffffff90921660209283029190910182015260405163883bdbfd60e01b8152600481018281528351602483015283516000936001600160a01b0389169363883bdbfd938793909283926044019185820191028083838b5b838110156116015781810151838201526020016115e9565b505050509050019250505060006040518083038186803b15801561162457600080fd5b505afa158015611638573d6000803e3d6000fd5b505050506040513d6000823e601f3d908101601f19168201604090815281101561166157600080fd5b810190808051604051939291908464010000000082111561168157600080fd5b90830190602082018581111561169657600080fd5b82518660208202830111640100000000821117156116b357600080fd5b82525081516020918201928201910280838360005b838110156116e05781810151838201526020016116c8565b505050509050016040526020018051604051939291908464010000000082111561170957600080fd5b90830190602082018581111561171e57600080fd5b825186602082028301116401000000008211171561173b57600080fd5b82525081516020918201928201910280838360005b83811015611768578181015183820152602001611750565b5050505090500160405250505050905060008160008151811061178757fe5b60200260200101518260018151811061179c57fe5b60200260200101510390508463ffffffff168160060b816117b957fe5b05935060008160060b1280156117e357508463ffffffff168160060b816117dc57fe5b0760060b15155b156117f057600019909301925b50505092915050565b6000808260020b8460020b8161180b57fe5b05905060008460020b12801561183257508260020b8460020b8161182b57fe5b0760020b15155b1561183c57600019015b820290505b92915050565b620d89e8600283900b1380159061186e57508060020b8260020b8161186857fe5b0760020b155b801561187d575060008260020b135b6118995760405162461bcd60e51b815260040161035d90612591565b5050565b60006401000276a36001600160a01b038316108015906118d9575073fffd8963efd1fc6a506488495d951d5263988d266001600160a01b038316105b61190e576040805162461bcd60e51b81526020600482015260016024820152602960f91b604482015290519081900360640190fd5b640100000000600160c01b03602083901b166001600160801b03811160071b81811c67ffffffffffffffff811160061b90811c63ffffffff811160051b90811c61ffff811160041b90811c60ff8111600390811b91821c600f811160021b90811c918211600190811b92831c979088119617909417909217179091171717608081106119a257607f810383901c91506119ac565b80607f0383901b91505b908002607f81811c60ff83811c9190911c800280831c81831c1c800280841c81841c1c800280851c81851c1c800280861c81861c1c800280871c81871c1c800280881c81881c1c800280891c81891c1c8002808a1c818a1c1c8002808b1c818b1c1c8002808c1c818c1c1c8002808d1c818d1c1c8002808e1c9c81901c9c909c1c80029c8d901c9e9d607f198f0160401b60c09190911c678000000000000000161760c19b909b1c674000000000000000169a909a1760c29990991c672000000000000000169890981760c39790971c671000000000000000169690961760c49590951c670800000000000000169490941760c59390931c670400000000000000169290921760c69190911c670200000000000000161760c79190911c670100000000000000161760c89190911c6680000000000000161760c99190911c6640000000000000161760ca9190911c6620000000000000161760cb9190911c6610000000000000161760cc9190911c6608000000000000161760cd9190911c66040000000000001617693627a301d71055774c8581026f028f6481ab7f045a5af012a19d003aa9198101608090811d906fdb2df09e81959a81455e260799a0632f8301901d600281810b9083900b14611bad57886001600160a01b0316611b9182611bbc565b6001600160a01b03161115611ba65781611ba8565b805b611baf565b815b9998505050505050505050565b60008060008360020b12611bd3578260020b611bdb565b8260020b6000035b9050620d89e8811115611c19576040805162461bcd60e51b81526020600482015260016024820152601560fa1b604482015290519081900360640190fd5b600060018216611c2d57600160801b611c3f565b6ffffcb933bd6fad37aa2d162d1a5940015b70ffffffffffffffffffffffffffffffffff1690506002821615611c73576ffff97272373d413259a46990580e213a0260801c5b6004821615611c92576ffff2e50f5f656932ef12357cf3c7fdcc0260801c5b6008821615611cb1576fffe5caca7e10e4e61c3624eaa0941cd00260801c5b6010821615611cd0576fffcb9843d60f6159c9db58835c9266440260801c5b6020821615611cef576fff973b41fa98c081472e6896dfb254c00260801c5b6040821615611d0e576fff2ea16466c96a3843ec78b326b528610260801c5b6080821615611d2d576ffe5dee046a99a2a811c461f1969c30530260801c5b610100821615611d4d576ffcbe86c7900a88aedcffc83b479aa3a40260801c5b610200821615611d6d576ff987a7253ac413176f2b074cf7815e540260801c5b610400821615611d8d576ff3392b0822b70005940c7a398e4b70f30260801c5b610800821615611dad576fe7159475a2c29b7443b29c7fa6e889d90260801c5b611000821615611dcd576fd097f3bdfd2022b8845ad8f792aa58250260801c5b612000821615611ded576fa9f746462d870fdf8a65dc1f90e061e50260801c5b614000821615611e0d576f70d869a156d2a1b890bb3df62baf32f70260801c5b618000821615611e2d576f31be135f97d08fd981231505542fcfa60260801c5b62010000821615611e4e576f09aa508b5b7a84e1c677de54f3e99bc90260801c5b62020000821615611e6e576e5d6af8dedb81196699c329225ee6040260801c5b62040000821615611e8d576d2216e584f5fa1ea926041bedfe980260801c5b62080000821615611eaa576b048a170391f7dc42444e8fa20260801c5b60008460020b1315611ec5578060001981611ec157fe5b0490505b640100000000810615611ed9576001611edc565b60005b60ff16602082901c0192505050919050565b6040805160c081018252600080825260208201819052918101829052606081018290526080810182905260a081019190915290565b600082601f830112611f33578081fd5b81356020611f48611f4383612786565b612762565b8281528181019085830183850287018401881015611f64578586fd5b855b85811015611f8b578135611f79816127a4565b84529284019290840190600101611f66565b5090979650505050505050565b600082601f830112611fa8578081fd5b81356020611fb8611f4383612786565b8281528181019085830183850287018401881015611fd4578586fd5b855b85811015611f8b578135611fe9816127bc565b84529284019290840190600101611fd6565b805180151581146105f457600080fd5b80356105f4816127bc565b600060c08284031215612027578081fd5b60405160c0810181811067ffffffffffffffff8211171561204457fe5b6040529050808235612055816127bc565b81526020830135612065816127bc565b60208201526040830135612078816127bc565b60408201526120896060840161200b565b606082015261209a608084016120b7565b60808201526120ab60a0840161200b565b60a08201525092915050565b80356105f4816127db565b6000602082840312156120d3578081fd5b81356120de816127a4565b9392505050565b600080604083850312156120f7578081fd5b8235612102816127a4565b91506020830135612112816127cb565b809150509250929050565b6000806040838503121561212f578182fd5b823567ffffffffffffffff80821115612146578384fd5b61215286838701611f23565b93506020850135915080821115612167578283fd5b5061217485828601611f98565b9150509250929050565b600080600060608486031215612192578081fd5b833567ffffffffffffffff808211156121a9578283fd5b6121b587838801611f23565b94506020915081860135818111156121cb578384fd5b8601601f810188136121db578384fd5b80356121e9611f4382612786565b81815284810190838601868402850187018c1015612205578788fd5b8794505b8385101561223057803561221c816127cb565b835260019490940193918601918601612209565b5096505050506040860135915080821115612249578283fd5b5061225686828701611f98565b9150509250925092565b60008060408385031215612272578182fd5b823567ffffffffffffffff80821115612289578384fd5b818501915085601f83011261229c578384fd5b813560206122ac611f4383612786565b8281528181019085830160c0808602880185018c10156122ca57898afd5b8997505b858810156122f6576122e08c83612016565b84526001979097019692840192908101906122ce565b5090975050508601359250508082111561230e578283fd5b5061217485828601611f23565b60006020828403121561232c578081fd5b81356120de816127bc565b600060208284031215612348578081fd5b81516120de816127bc565b60008060e08385031215612365578182fd5b61236f8484612016565b915060c0830135612112816127a4565b600060208284031215612390578081fd5b81516001600160801b03811681146120de578182fd5b600080600080600080600060e0888a0312156123c0578485fd5b87516123cb816127a4565b60208901519097506123dc816127bc565b60408901519096506123ed816127cb565b60608901519095506123fe816127cb565b608089015190945061240f816127cb565b60a089015190935060ff81168114612425578283fd5b915061243360c08901611ffb565b905092959891949750929550565b600060208284031215612452578081fd5b81356120de816127db565b60008060008060808587031215612472578182fd5b845161247d816127db565b8094505060208501518060060b8114612494578283fd5b60408601519093506124a5816127a4565b91506124b360608601611ffb565b905092959194509250565b805160020b8252602081015160020b6020830152604081015160020b6040830152606081015160020b606083015263ffffffff608082015116608083015260a081015160020b60a08301525050565b6001600160a01b0391909116815260200190565b6001600160a01b0392831681529116602082015260400190565b60029190910b815260200190565b600292830b8152910b602082015260400190565b600296870b815294860b602086015292850b604085015290840b6060840152830b608083015290910b60a082015260c00190565b602080825260039082015262494e5360e81b604082015260600190565b6020808252600490820152634952454d60e01b604082015260600190565b602080825260029082015261282360f11b604082015260600190565b60208082526003908201526249564960e81b604082015260600190565b60208082526003908201526249474160e81b604082015260600190565b60208082526003908201526226aa2360e91b604082015260600190565b6020808252600290820152614e4760f01b604082015260600190565b602080825260029082015261125560f21b604082015260600190565b602080825260029082015261151160f21b604082015260600190565b60208082526003908201526249524d60e81b604082015260600190565b60c0810161184182846124be565b61018081016126cd82856124be565b8254600281810b810b60c08501528160181c810b810b60e08501528160301c810b810b6101008501528160481c810b810b61012085015263ffffffff8260601c166101408501528160801c810b810b61016085015250509392505050565b61ffff91909116815260200190565b63ffffffff91909116815260200190565b63ffffffff92831681529116602082015260400190565b60405181810167ffffffffffffffff8111828210171561277e57fe5b604052919050565b600067ffffffffffffffff82111561279a57fe5b5060209081020190565b6001600160a01b03811681146127b957600080fd5b50565b8060020b81146127b957600080fd5b61ffff811681146127b957600080fd5b63ffffffff811681146127b957600080fdfea264697066735822122015d4b0f1f0330c8bd7377748cd39d802c70f8d573de4155bcad5fde2d429f76164736f6c63430007060033",
    "linkReferences": {}
  },
  "methodIdentifiers": {
    "baseMultiplier()": "d60a0955",
    "baseTicks()": "fd0679e9",
    "changeStrategy((int24,int24,int24,int24,uint32,int24),address)": "963f0bb6",
    "checkDeviation(address)": "051bb833",
    "getBaseThreshold(address,uint16)": "b0a42a51",
    "getReadjustThreshold(address)": "4ed8cf27",
    "getStrategy(address)": "f8806a13",
    "getTicks(address)": "802036f5",
    "getTwap(address)": "3d47d227",
    "governance()": "5aa6e675",
    "maxTwapDeviation()": "e7c7cb91",
    "rangeTicks()": "1ca6aede",
    "setAllStrategies((int24,int24,int24,int24,uint32,int24)[],address[])": "57159a2e",
    "setBaseTicks(address[],uint16[],int24[])": "8df2345e",
    "setGovernance(address)": "ab033ea9",
    "setMaxTwapDeviation(int24)": "3cbff3fe",
    "setPoolTwapDeviation(address[],int24[])": "ab24f526",
    "setRangeTicks(int24)": "b7ab92e8",
    "setReadjustMultiplier(int24)": "d4f9b7a7",
    "setTwapDuration(uint32)": "c433c80a",
    "twapDuration()": "26d89545"
  },
  "id": 2
}