{
  "abi": [
    {
      "inputs": [
        {
          "internalType": "address",
          "name": "_uniswapFactory",
          "type": "address"
        },
        {
          "internalType": "address",
          "name": "_governance",
          "type": "address"
        },
        {
          "internalType": "address",
          "name": "_uniStrategy",
          "type": "address"
        },
        {
          "internalType": "address",
          "name": "_indexFund",
          "type": "address"
        },
        {
          "internalType": "address",
          "name": "_WETH",
          "type": "address"
        },
        {
          "internalType": "uint8",
          "name": "percentage",
          "type": "uint8"
        }
      ],
      "stateMutability": "nonpayable",
      "type": "constructor"
    },
    {
      "anonymous": false,
      "inputs": [
        {
          "indexed": true,
          "internalType": "address",
          "name": "_oldGovernance",
          "type": "address"
        },
        {
          "indexed": true,
          "internalType": "address",
          "name": "_newGovernance",
          "type": "address"
        }
      ],
      "name": "GovernanceChanged",
      "type": "event"
    },
    {
      "anonymous": false,
      "inputs": [
        {
          "indexed": true,
          "internalType": "address",
          "name": "_tokenA",
          "type": "address"
        },
        {
          "indexed": true,
          "internalType": "address",
          "name": "_tokenB",
          "type": "address"
        },
        {
          "indexed": false,
          "internalType": "uint16",
          "name": "_strategyType",
          "type": "uint16"
        },
        {
          "indexed": false,
          "internalType": "uint24",
          "name": "_fee",
          "type": "uint24"
        },
        {
          "indexed": true,
          "internalType": "address",
          "name": "_vault",
          "type": "address"
        }
      ],
      "name": "VaultCreated",
      "type": "event"
    },
    {
      "inputs": [
        {
          "internalType": "address",
          "name": "_tokenA",
          "type": "address"
        },
        {
          "internalType": "address",
          "name": "_tokenB",
          "type": "address"
        },
        {
          "internalType": "uint24",
          "name": "_fee",
          "type": "uint24"
        },
        {
          "internalType": "uint16",
          "name": "_vaultStrategy",
          "type": "uint16"
        },
        {
          "internalType": "uint160",
          "name": "_sqrtPriceX96",
          "type": "uint160"
        },
        {
          "internalType": "string",
          "name": "_name",
          "type": "string"
        },
        {
          "internalType": "string",
          "name": "_symbol",
          "type": "string"
        }
      ],
      "name": "createVault",
      "outputs": [
        {
          "internalType": "address",
          "name": "_vault",
          "type": "address"
        }
      ],
      "stateMutability": "nonpayable",
      "type": "function"
    },
    {
      "inputs": [],
      "name": "getUnipilotDetails",
      "outputs": [
        {
          "internalType": "address",
          "name": "",
          "type": "address"
        },
        {
          "internalType": "address",
          "name": "",
          "type": "address"
        },
        {
          "internalType": "address",
          "name": "",
          "type": "address"
        },
        {
          "internalType": "uint8",
          "name": "",
          "type": "uint8"
        },
        {
          "internalType": "uint8",
          "name": "",
          "type": "uint8"
        }
      ],
      "stateMutability": "view",
      "type": "function"
    },
    {
      "inputs": [
        {
          "internalType": "address",
          "name": "_newGovernance",
          "type": "address"
        }
      ],
      "name": "setGovernance",
      "outputs": [],
      "stateMutability": "nonpayable",
      "type": "function"
    },
    {
      "inputs": [
        {
          "internalType": "address",
          "name": "_strategy",
          "type": "address"
        },
        {
          "internalType": "address",
          "name": "_indexFund",
          "type": "address"
        },
        {
          "internalType": "uint8",
          "name": "_indexFundPercentage",
          "type": "uint8"
        }
      ],
      "name": "setUnipilotDetails",
      "outputs": [],
      "stateMutability": "nonpayable",
      "type": "function"
    },
    {
      "inputs": [
        {
          "internalType": "address",
          "name": "",
          "type": "address"
        },
        {
          "internalType": "address",
          "name": "",
          "type": "address"
        },
        {
          "internalType": "uint24",
          "name": "",
          "type": "uint24"
        },
        {
          "internalType": "uint16",
          "name": "",
          "type": "uint16"
        }
      ],
      "name": "vaults",
      "outputs": [
        {
          "internalType": "address",
          "name": "",
          "type": "address"
        }
      ],
      "stateMutability": "view",
      "type": "function"
    }
  ],
  "bytecode": {
    "object": "0x608060405234801561001057600080fd5b5060405161627a38038061627a833981810160405260c081101561003357600080fd5b508051602082015160408301516060840151608085015160a090950151600080546001600160a01b039586166001600160a01b03199182161790915560018054948616948216949094179093556004805495851695841695909517909455600280549184169183169190911790556003805460ff909416600160a81b0260ff60a81b19939095169390911692909217169190911790556161a2806100d86000396000f3fe60806040523480156200001157600080fd5b50600436106200005e5760003560e01c806338d7728014620000635780633f1e478b14620000ad578063517d6c3c14620000ec578063859e3fad1462000151578063ab033ea914620002bd575b600080fd5b6200006d620002e6565b604080516001600160a01b0396871681529486166020860152929094168383015260ff908116606084015292909216608082015290519081900360a00190f35b620000ea60048036036060811015620000c557600080fd5b5080356001600160a01b03908116916020810135909116906040013560ff166200031d565b005b62000135600480360360808110156200010457600080fd5b5080356001600160a01b0390811691602081013590911690604081013562ffffff16906060013561ffff16620003a6565b604080516001600160a01b039092168252519081900360200190f35b62000135600480360360e08110156200016957600080fd5b6001600160a01b038235811692602081013582169262ffffff6040830135169261ffff6060840135169260808101359091169181019060c0810160a0820135640100000000811115620001bb57600080fd5b820183602082011115620001ce57600080fd5b80359060200191846001830284011164010000000083111715620001f157600080fd5b91908080601f01602080910402602001604051908101604052809392919081815260200183838082843760009201919091525092959493602081019350359150506401000000008111156200024557600080fd5b8201836020820111156200025857600080fd5b803590602001918460018302840111640100000000831117156200027b57600080fd5b91908080601f016020809104026020016040519081016040528093929190818152602001838380828437600092019190915250929550620003db945050505050565b620000ea60048036036020811015620002d557600080fd5b50356001600160a01b0316620009a0565b6000546001546002546003546001600160a01b0393841694928416939091169160ff600160a81b8304811692600160a01b90041690565b6000546001600160a01b031633146200033557600080fd5b60008160ff161180156200034c575060648160ff16105b6200035657600080fd5b600180546001600160a01b039485166001600160a01b03199182161790915560028054939094169216919091179091556003805460ff909216600160a81b0260ff60a81b19909216919091179055565b60056020908152600094855260408086208252938552838520815291845282842090915282529020546001600160a01b031681565b600080546001600160a01b03163314620003f457600080fd5b866001600160a01b0316886001600160a01b031614156200041457600080fd5b600080886001600160a01b03168a6001600160a01b0316106200043957888a6200043c565b89895b6004805460408051630b4c774160e11b81526001600160a01b0380871694820194909452838516602482015262ffffff8e1660448201529051949650929450600093911691631698ee82916064808301926020929190829003018186803b158015620004a757600080fd5b505afa158015620004bc573d6000803e3d6000fd5b505050506040513d6020811015620004d357600080fd5b505190506001600160a01b0381161562000535576001600160a01b0383811660009081526005602090815260408083208685168452825280832062ffffff8e168452825280832083805290915290205416156200052f57600080fd5b62000633565b600480546040805163a167129560e01b81526001600160a01b0387811694820194909452858416602482015262ffffff8d1660448201529051929091169163a1671295916064808201926020929091908290030181600087803b1580156200059c57600080fd5b505af1158015620005b1573d6000803e3d6000fd5b505050506040513d6020811015620005c857600080fd5b50516040805163f637731d60e01b81526001600160a01b038a8116600483015291519293509083169163f637731d9160248082019260009290919082900301818387803b1580156200061957600080fd5b505af11580156200062e573d6000803e3d6000fd5b505050505b8a8a8a60405160200180846001600160a01b031660601b8152601401836001600160a01b031660601b81526014018262ffffff1660e81b81526003019350505050604051602081830303815290604052805190602001208130600360009054906101000a90046001600160a01b03168b8a8a604051620006b39062000a27565b80876001600160a01b03168152602001866001600160a01b03168152602001856001600160a01b031681526020018461ffff1681526020018060200180602001838103835285818151815260200191508051906020019080838360005b838110156200072a57818101518382015260200162000710565b50505050905090810190601f168015620007585780820380516001836020036101000a031916815260200191505b50838103825284518152845160209182019186019080838360005b838110156200078d57818101518382015260200162000773565b50505050905090810190601f168015620007bb5780820380516001836020036101000a031916815260200191505b50985050505050505050508190604051809103906000f5905080158015620007e7573d6000803e3d6000fd5b5093508360056000856001600160a01b03166001600160a01b031681526020019081526020016000206000846001600160a01b03166001600160a01b0316815260200190815260200160002060008b62ffffff1662ffffff16815260200190815260200160002060008a61ffff1661ffff16815260200190815260200160002060006101000a8154816001600160a01b0302191690836001600160a01b031602179055508360056000846001600160a01b03166001600160a01b031681526020019081526020016000206000856001600160a01b03166001600160a01b0316815260200190815260200160002060008b62ffffff1662ffffff16815260200190815260200160002060008a61ffff1661ffff16815260200190815260200160002060006101000a8154816001600160a01b0302191690836001600160a01b03160217905550836001600160a01b0316826001600160a01b0316846001600160a01b03167fe551e4179838a57090f0386dca8e982f6a8f74f80922cbf508d9bad5cce10fc88b8d604051808361ffff1681526020018262ffffff1681526020019250505060405180910390a4505050979650505050505050565b6000546001600160a01b03163314620009b857600080fd5b6001600160a01b038116620009cc57600080fd5b600080546040516001600160a01b03808516939216917f3aaaebeb4821d6a7e5c77ece53cff0afcc56c82add2c978dbbb7f73e84cbcfd291a3600080546001600160a01b0319166001600160a01b0392909216919091179055565b6157378062000a368339019056fe6101406040527f6e71edae12b1b97f4d1f60370fef10105fa2faae0126114a169c64845d6126c961012052600c805463ffffffff60d01b1963ffffffff60b01b19909116600160b01b1716600160d01b1790553480156200005f57600080fd5b506040516200573738038062005737833981016040819052620000829162000647565b8180604051806040016040528060018152602001603160f81b81525084848160039080519060200190620000b8929190620004bf565b508051620000ce906004906020840190620004bf565b50506005805460ff1916601217905550815160208084019190912082519183019190912060c082905260e08190527f8b73c3c69bb8fe3d512ecc4cf759cc79239f7b179b0ffacaa9a75d522b39400f6200012762000457565b60a052620001378184846200045b565b6080526101005250505050506001600160a01b0386166200015757600080fd5b6001600160a01b0384166200016b57600080fd5b6001600160a01b0385166200017f57600080fd5b600a80546001600160a01b038089166001600160a01b03199283161792839055600b8054898316908416179055600c805488831693169290921790915560408051630dfe168160e01b815290519290911691630dfe168191600480820192602092909190829003018186803b158015620001f857600080fd5b505afa1580156200020d573d6000803e3d6000fd5b505050506040513d601f19601f8201168201806040525081019062000233919062000623565b600780546001600160a01b0319166001600160a01b03928316179055600a546040805163d21220a760e01b81529051919092169163d21220a7916004808301926020929190829003018186803b1580156200028d57600080fd5b505afa158015620002a2573d6000803e3d6000fd5b505050506040513d601f19601f82011682018060405250810190620002c8919062000623565b600880546001600160a01b0319166001600160a01b03928316179055600a546040805163ddca3f4360e01b81529051919092169163ddca3f43916004808301926020929190829003018186803b1580156200032257600080fd5b505afa15801562000337573d6000803e3d6000fd5b505050506040513d601f19601f820116820180604052508101906200035d919062000722565b600860146101000a81548162ffffff021916908362ffffff160217905550600a60009054906101000a90046001600160a01b03166001600160a01b031663d0c93a7c6040518163ffffffff1660e01b815260040160206040518083038186803b158015620003ca57600080fd5b505afa158015620003df573d6000803e3d6000fd5b505050506040513d601f19601f82011682018060405250810190620004059190620006ff565b6008805460029290920b62ffffff16600160b81b0262ffffff60b81b199092169190911790555050600c805461ffff909216600160a01b0261ffff60a01b199092169190911790555062000747915050565b4690565b60008383836200046a62000457565b3060405160200180868152602001858152602001848152602001838152602001826001600160a01b03168152602001955050505050506040516020818303038152906040528051906020012090509392505050565b828054600181600116156101000203166002900490600052602060002090601f016020900481019282620004f7576000855562000542565b82601f106200051257805160ff191683800117855562000542565b8280016001018555821562000542579182015b828111156200054257825182559160200191906001019062000525565b506200055092915062000554565b5090565b5b8082111562000550576000815560010162000555565b80516001600160a01b03811681146200058357600080fd5b919050565b600082601f83011262000599578081fd5b81516001600160401b0380821115620005ae57fe5b6040516020601f8401601f1916820181018381118382101715620005ce57fe5b6040528382528584018101871015620005e5578485fd5b8492505b83831015620006085785830181015182840182015291820191620005e9565b838311156200061957848185840101525b5095945050505050565b60006020828403121562000635578081fd5b62000640826200056b565b9392505050565b60008060008060008060c0878903121562000660578182fd5b6200066b876200056b565b95506200067b602088016200056b565b94506200068b604088016200056b565b9350606087015161ffff81168114620006a2578283fd5b60808801519093506001600160401b0380821115620006bf578384fd5b620006cd8a838b0162000588565b935060a0890151915080821115620006e3578283fd5b50620006f289828a0162000588565b9150509295509295509295565b60006020828403121562000711578081fd5b81518060020b811462000640578182fd5b60006020828403121562000734578081fd5b815162ffffff8116811462000640578182fd5b60805160a05160c05160e0516101005161012051614fa662000791600039806116f4525080612d55525080612d97525080612d76525080612cfc525080612d2c5250614fa66000f3fe6080604052600436106101c55760003560e01c80637f98aa71116100f7578063b2f9f57111610095578063d505accf11610064578063d505accf146104f4578063dd62ed3e14610514578063f8e35be714610534578063fa461e3314610549576101cc565b8063b2f9f57114610478578063c86962321461048d578063cb81da2e146104b4578063d3487997146104d4576101cc565b8063a457c2d7116100d1578063a457c2d7146103fe578063a9059cbb1461041e578063ac2dc5621461043e578063adcc377914610463576101cc565b80637f98aa71146103a25780638dbdbe6d146103c757806395d89b41146103e9576101cc565b80633644e515116101645780633fe529f01161013e5780633fe529f0146103225780636d70f7ae1461034257806370a08231146103625780637ecebe0014610382576101cc565b80633644e515146102d857806339509351146102ed5780633eaaf86b1461030d576101cc565b806318160ddd116101a057806318160ddd146102545780631a87e87d1461027657806323b872dd14610296578063313ce567146102b6576101cc565b8062ebf5dd146101ce57806306fdde0314610205578063095ea7b314610227576101cc565b366101cc57005b005b3480156101da57600080fd5b506101ee6101e9366004614af4565b610569565b6040516101fc929190614cd4565b60405180910390f35b34801561021157600080fd5b5061021a610873565b6040516101fc9190614c49565b34801561023357600080fd5b506102476102423660046149ba565b61090a565b6040516101fc9190614bf8565b34801561026057600080fd5b50610269610928565b6040516101fc9190614c1b565b34801561028257600080fd5b506101cc610291366004614b62565b61092e565b3480156102a257600080fd5b506102476102b136600461490a565b610d4e565b3480156102c257600080fd5b506102cb610dd6565b6040516101fc9190614d47565b3480156102e457600080fd5b50610269610ddf565b3480156102f957600080fd5b506102476103083660046149ba565b610dee565b34801561031957600080fd5b50610269610e3c565b34801561032e57600080fd5b506101cc61033d366004614842565b610e42565b34801561034e57600080fd5b5061024761035d366004614842565b610e9a565b34801561036e57600080fd5b5061026961037d366004614842565b610ebc565b34801561038e57600080fd5b5061026961039d366004614842565b610ed7565b3480156103ae57600080fd5b506103b7610ef8565b6040516101fc9493929190614b92565b6103da6103d5366004614b35565b610f25565b6040516101fc93929190614ce2565b3480156103f557600080fd5b5061021a611270565b34801561040a57600080fd5b506102476104193660046149ba565b6112d1565b34801561042a57600080fd5b506102476104393660046149ba565b611339565b34801561044a57600080fd5b5061045361134d565b6040516101fc9493929190614c24565b34801561046f57600080fd5b50610269611376565b34801561048457600080fd5b506102696113f7565b34801561049957600080fd5b506104a2611428565b6040516101fc96959493929190614d13565b3480156104c057600080fd5b506101cc6104cf366004614a39565b6114b4565b3480156104e057600080fd5b506101cc6104ef366004614a8b565b61161f565b34801561050057600080fd5b506101cc61050f36600461494a565b611685565b34801561052057600080fd5b5061026961052f36600461485e565b61183c565b34801561054057600080fd5b506101cc611867565b34801561055557600080fd5b506101cc610564366004614a8b565b61191b565b600080600c601a9054906101000a900463ffffffff1663ffffffff1660011461059157600080fd5b600c805463ffffffff60d01b1916600160d11b17905560006105b1611999565b5050600a5460405163051bb83360e01b81529294506001600160a01b03808616945063051bb833936105e99350911690600401614b7e565b60006040518083038186803b15801561060157600080fd5b505afa158015610615573d6000803e3d6000fd5b505050506000861161062657600080fd5b6000610630610928565b600c54909150600160b01b900463ffffffff16600114156106d657600061066088670de0b6b3a764000084611a38565b600954600a5491925061068d916001600160a01b031690600281810b9163010000009004900b8430611ae7565b600954600a5492975090955060009182916106c2916001600160a01b0316903090600281810b9163010000009004900b611cb4565b915091506106d260008383611d7b565b5050505b60006106f46106ed866106e7611376565b90611e2a565b8984611a38565b9050600061070e610707866106e76113f7565b8a85611a38565b905061071a8683611e3a565b95506107268582611e3a565b94508515610748576007546107489088908a906001600160a01b031689611e4a565b8415610768576008546107689088908a906001600160a01b031688611e4a565b610772338a611eeb565b876001600160a01b03167f02f25270a4d87bea75db541cdfe559334a275b4a233520ed6c0a2429667cca948a88886040516107af93929190614ce2565b60405180910390a2600c54600160b01b900463ffffffff166001141561084f57600954600090819061080f90600281810b9163010000009004900b6107f2611376565b6107fa6113f7565b600a546001600160a01b031693929190611fe7565b915091507f2fb985eb745b9e89bb1ab82e0f8ceb6bf94d4d60aed7e8196540c50161a5fe918282604051610844929190614cd4565b60405180910390a150505b5050600c805463ffffffff60d01b1916600160d01b17905550919590945092505050565b60038054604080516020601f60026000196101006001881615020190951694909404938401819004810282018101909252828152606093909290918301828280156108ff5780601f106108d4576101008083540402835291602001916108ff565b820191906000526020600020905b8154815290600101906020018083116108e257829003601f168201915b505050505090505b90565b600061091e610917612149565b848461214d565b5060015b92915050565b60025490565b336000908152600d602052604090205460ff1661094a57600080fd5b6000610954611999565b5050600a5460405163051bb83360e01b81529294506001600160a01b03808616945063051bb8339361098c9350911690600401614b7e565b60006040518083038186803b1580156109a457600080fd5b505afa1580156109b8573d6000803e3d6000fd5b5050600c805463ffffffff60b01b1916600160b01b179055506109db9050614766565b600954600a54600091610a06916001600160a01b031690600281810b9163010000009004900b612239565b5050600954600a54919250610a34916001600160a01b031690600281810b9163010000009004900b306122d7565b6020860181905281865260c086019290925260a0850192909252610a5a91600191611d7b565b6000610a6461248b565b600854600a54600160b81b90910460020b919091029150610a8d906001600160a01b0316612534565b50600290810b810b60408601819052600854610ab6935090918491600160b81b9004900b6125b6565b600290810b810b608086015290810b900b60608401526001600160801b03821615801590610af2575060a08301511580610af2575060c0830151155b15610b6f576000808460a0015111610b0b576000610b0e565b60015b9050600081610b3757610b32610b2d8660c001518960ff166064611a38565b6125d3565b610b4d565b610b4d610b2d8660a001518960ff166064611a38565b600a54909150610b68906001600160a01b031630848461261b565b5050610c95565b610b77611376565b60a0840152610b846113f7565b60c0840181905260a084015160608501516080860151600a54610bb5946001600160a01b0390911693929091612797565b6001600160801b031660e0840181905260608401516080850151600a54610be9936001600160a01b0390911692909161282b565b6101208501819052610100850182905260a085015160c0860151610c119391929091906128c2565b15156101408401819052610c4e57610c49610c3e8461012001518560c00151611e2a90919063ffffffff16565b8660ff166064611a38565b610c6d565b610c6d610c3e8461010001518560a00151611e2a90919063ffffffff16565b6101608401819052610140840151600a54610c95926001600160a01b0390911691309161261b565b610c9d611376565b60a0840152610caa6113f7565b60c0840181905260a0840151600854600a54610cde936001600160a01b0390911692918590600160b81b900460020b6128fd565b6009805465ffffff00000019166301000000600293840b62ffffff90811682029290921762ffffff191694840b91909116939093179081905560a086015160c0870151600a54610d45956001600160a01b039091169484810b9491909104900b9190611fe7565b50505050505050565b6000610d5b848484612b06565b610dcb84610d67612149565b610dc685604051806060016040528060288152602001614e92602891396001600160a01b038a16600090815260016020526040812090610da5612149565b6001600160a01b031681526020810191909152604001600020549190612c61565b61214d565b5060015b9392505050565b60055460ff1690565b6000610de9612cf8565b905090565b600061091e610dfb612149565b84610dc68560016000610e0c612149565b6001600160a01b03908116825260208083019390935260409182016000908120918c168152925290205490612dc2565b60025481565b6000610e4c611999565b505050509050806001600160a01b0316336001600160a01b031614610e7057600080fd5b506001600160a01b03166000908152600d60205260409020805460ff19811660ff90911615179055565b6001600160a01b0381166000908152600d602052604090205460ff165b919050565b6001600160a01b031660009081526020819052604090205490565b6001600160a01b038116600090815260066020526040812061092290612e1c565b600754600854600a546001600160a01b039283169383831693600160a01b90930462ffffff169290911690565b6000806000600c601a9054906101000a900463ffffffff1663ffffffff16600114610f4f57600080fd5b600c805463ffffffff60d01b1916600160d11b1790556000610f6f611999565b5050600a5460405163051bb83360e01b81529294506001600160a01b03808616945063051bb83393610fa79350911690600401614b7e565b60006040518083038186803b158015610fbf57600080fd5b505afa158015610fd3573d6000803e3d6000fd5b505050506001600160a01b038516610fea57600080fd5b600087118015610ffa5750600086115b61100357600080fd5b600061100d612149565b90506000611019610928565b905061109c60018a8a61102a611376565b6110326113f7565b60408051608081018252600954600281810b810b810b835263010000008204810b810b810b6020840152600160301b8204810b810b810b93830193909352600160481b9004820b820b90910b6060820152600a546001600160a01b03169594939291908890612e20565b919750955093507f47bb89f0fc234008e53c79bc3e3dab90e27502d1380a4b3cc35038d57fa03d2a6110cc611376565b6040516110d99190614c1b565b60405180910390a17f47bb89f0fc234008e53c79bc3e3dab90e27502d1380a4b3cc35038d57fa03d2a61110a6113f7565b6040516111179190614c1b565b60405180910390a18061114e576103e8861161114e5760405162461bcd60e51b815260040161114590614c9c565b60405180910390fd5b8561116b5760405162461bcd60e51b815260040161114590614cb8565b600754611183906001600160a01b0316833088612ebc565b60085461119b906001600160a01b0316833087612ebc565b600c54600160b01b900463ffffffff16600114156111e257600954600a546111df916001600160a01b0390911690600281810b9163010000009004900b8888611fe7565b50505b47156111f2576111f28247612ff9565b6111fc87876130ed565b866001600160a01b0316826001600160a01b03167f4e2ca0515ed1aef1395f66b5303bb5d6f1bf9d61a353fa53f73f8ac9973fa9f687878a60405161124393929190614ce2565b60405180910390a35050600c805463ffffffff60d01b1916600160d01b1790555091959094509092509050565b60048054604080516020601f60026000196101006001881615020190951694909404938401819004810282018101909252828152606093909290918301828280156108ff5780601f106108d4576101008083540402835291602001916108ff565b600061091e6112de612149565b84610dc685604051806060016040528060258152602001614f4c6025913960016000611308612149565b6001600160a01b03908116825260208083019390935260409182016000908120918d16815292529020549190612c61565b600061091e611346612149565b8484612b06565b600954600281810b9163010000008104820b91600160301b8204810b91600160481b9004900b84565b6007546040516370a0823160e01b81526000916001600160a01b0316906370a08231906113a7903090600401614b7e565b60206040518083038186803b1580156113bf57600080fd5b505afa1580156113d3573d6000803e3d6000fd5b505050506040513d601f19601f82011682018060405250810190610de99190614adc565b6008546040516370a0823160e01b81526000916001600160a01b0316906370a08231906113a7903090600401614b7e565b60408051608081018252600954600281810b810b810b835263010000008204810b810b810b6020840152600160301b8204810b810b810b93830193909352600160481b9004820b820b90910b6060820152600a54600091829182918291829182916114a1916001600160a01b03909116906001906131dd565b949b939a50919850965094509092509050565b336000908152600d602052604090205460ff166114d057600080fd5b60006114da611999565b5050600a5460405163051bb83360e01b81529294506001600160a01b03808616945063051bb833936115129350911690600401614b7e565b60006040518083038186803b15801561152a57600080fd5b505afa15801561153e573d6000803e3d6000fd5b5050600c805463ffffffff60b01b1916600160b01b17905550506008546115729084908490600160b81b900460020b613274565b600954600a5460009182916115a2916001600160a01b0390911690600281810b9163010000009004900b306122d7565b9350935050506115b460018383611d7b565b86156115d257600a546115d2906001600160a01b031630888a61261b565b6115df85856107f2611376565b505060098054600296870b62ffffff90811662ffffff199790980b1663010000000265ffffff000000199091161794909416949094179092555050505050565b6116276133cf565b6000611631612149565b9050600061164183850185614842565b9050851561166057600754611660906001600160a01b031683886133e8565b841561167d5760085461167d906001600160a01b031683876133e8565b505050505050565b834211156116da576040805162461bcd60e51b815260206004820152601d60248201527f45524332305065726d69743a206578706972656420646561646c696e65000000604482015290519081900360640190fd5b6001600160a01b03871660009081526006602052604081207f00000000000000000000000000000000000000000000000000000000000000009089908990899061172390612e1c565b8960405160200180878152602001866001600160a01b03168152602001856001600160a01b031681526020018481526020018381526020018281526020019650505050505050604051602081830303815290604052805190602001209050600061178c8261352f565b9050600061179c8287878761357b565b9050896001600160a01b0316816001600160a01b031614611804576040805162461bcd60e51b815260206004820152601e60248201527f45524332305065726d69743a20696e76616c6964207369676e61747572650000604482015290519081900360640190fd5b6001600160a01b038a166000908152600660205260409020611825906136fb565b6118308a8a8a61214d565b50505050505050505050565b6001600160a01b03918216600090815260016020908152604080832093909416825291909152205490565b336000908152600d602052604090205460ff1661188357600080fd5b600954600a546000918291829182916118b7916001600160a01b0390911690600281810b9163010000009004900b306122d7565b600c805463ffffffff60b01b1916600160b11b179055604051939750919550935091507f0b807fda608508350274d5da730325b52bb86f7ba43085d327059ed4b2fc84049061190d908690869086908690614cf8565b60405180910390a150505050565b6119236133cf565b60008413806119325750600083135b61193b57600080fd5b6000611949828401846149e5565b905080156119745760075461196f906001600160a01b0316611969612149565b876133e8565b611992565b600854611992906001600160a01b031661198c612149565b866133e8565b5050505050565b6000806000806000600b60009054906101000a90046001600160a01b03166001600160a01b03166338d772806040518163ffffffff1660e01b815260040160a06040518083038186803b1580156119ef57600080fd5b505afa158015611a03573d6000803e3d6000fd5b505050506040513d601f19601f82011682018060405250810190611a279190614896565b945094509450945094509091929394565b6000808060001985870986860292508281109083900303905080611a6e5760008411611a6357600080fd5b508290049050610dcf565b808411611a7a57600080fd5b6000848688096000868103871696879004966002600389028118808a02820302808a02820302808a02820302808a02820302808a02820302808a02909103029181900381900460010186841190950394909402919094039290920491909117919091029150509392505050565b60008080611aff6001600160a01b0389168888612239565b505090506000611b21826001600160801b031687670de0b6b3a7640000611a38565b9050886001600160a01b031663a34123a78989611b3d85613704565b6040518463ffffffff1660e01b8152600401808460020b81526020018360020b8152602001826001600160801b0316815260200193505050506040805180830381600087803b158015611b8f57600080fd5b505af1158015611ba3573d6000803e3d6000fd5b505050506040513d6040811015611bb957600080fd5b508051602090910151909450925083151580611bd55750600083115b15611ca857886001600160a01b0316634f1eb3d8868a8a611bf589613704565b611bfe89613704565b6040518663ffffffff1660e01b815260040180866001600160a01b031681526020018560020b81526020018460020b8152602001836001600160801b03168152602001826001600160801b03168152602001955050505050506040805180830381600087803b158015611c7057600080fd5b505af1158015611c84573d6000803e3d6000fd5b505050506040513d6040811015611c9a57600080fd5b50516001600160801b031693505b50509550959350505050565b600080611cc2868585613748565b50604080516309e3d67b60e31b81526001600160a01b038781166004830152600287810b602484015286900b60448301526001600160801b03606483018190526084830152825190891692634f1eb3d89260a480820193918290030181600087803b158015611d3057600080fd5b505af1158015611d44573d6000803e3d6000fd5b505050506040513d6040811015611d5a57600080fd5b5080516020909101516001600160801b039182169891169650945050505050565b600080611d86611999565b509094509250505060ff811615611992578315611dc257600754611dc2906001600160a01b031683611dbd8760ff86166064611a38565b6133e8565b8215611de857600854611de8906001600160a01b031683611dbd8660ff86166064611a38565b7ff8994d9c768d599c5c6e92d52cd9cc24762cd773384c7a4612796773c56a86a6858585604051611e1b93929190614c03565b60405180910390a15050505050565b8082038281111561092257600080fd5b8082018281101561092257600080fd5b838015611e645750600c546001600160a01b038381169116145b15611eda57600c54604051632e1a7d4d60e01b81526001600160a01b0390911690632e1a7d4d90611e99908490600401614c1b565b600060405180830381600087803b158015611eb357600080fd5b505af1158015611ec7573d6000803e3d6000fd5b50505050611ed58382612ff9565b611ee5565b611ee58284836133e8565b50505050565b6001600160a01b038216611f305760405162461bcd60e51b8152600401808060200182810382526021815260200180614eba6021913960400191505060405180910390fd5b611f3c826000836130e8565b611f7981604051806060016040528060228152602001614dbd602291396001600160a01b0385166000908152602081905260409020549190612c61565b6001600160a01b038316600090815260208190526040902055600254611f9f9082613801565b6002556040805182815290516000916001600160a01b038516917fddf252ad1be2c89b69c2b068fc378daa952ba7f163c4a11628f55a4df523b3ef9181900360200190a35050565b600080806120016001600160a01b03891686868a8a612797565b90506001600160801b0381161561213e576040805130602080830182905283518084038201815283850194859052633c8a7d8d60e01b9094526044830182815260028c810b60648601528b900b60848501526001600160801b03861660a485015260a060c48501908152855160e486015285516001600160a01b038f1696633c8a7d8d968f958f958b959394909392610104019185019080838360005b838110156120b657818101518382015260200161209e565b50505050905090810190601f1680156120e35780820380516001836020036101000a031916815260200191505b5096505050505050506040805180830381600087803b15801561210557600080fd5b505af1158015612119573d6000803e3d6000fd5b505050506040513d604081101561212f57600080fd5b50805160209091015190935091505b509550959350505050565b3390565b6001600160a01b0383166121925760405162461bcd60e51b8152600401808060200182810382526024815260200180614f006024913960400191505060405180910390fd5b6001600160a01b0382166121d75760405162461bcd60e51b8152600401808060200182810382526022815260200180614ddf6022913960400191505060405180910390fd5b6001600160a01b03808416600081815260016020908152604080832094871680845294825291829020859055815185815291517f8c5be1e5ebec7d5bd14f71427d1e84f3dd0314c0f7b2291e5b200ac8c7c3b9259281900390910190a3505050565b60008060008061224a30878761385e565b9050866001600160a01b031663514ea4bf826040518263ffffffff1660e01b81526004018082815260200191505060a06040518083038186803b15801561229057600080fd5b505afa1580156122a4573d6000803e3d6000fd5b505050506040513d60a08110156122ba57600080fd5b508051606082015160809092015190999198509650945050505050565b6000808080806122f16001600160a01b038a168989612239565b50909150506001600160801b0381161561247f576040805163a34123a760e01b815260028a810b600483015289900b60248201526001600160801b038316604482015281516001600160a01b038c169263a34123a792606480820193918290030181600087803b15801561236457600080fd5b505af1158015612378573d6000803e3d6000fd5b505050506040513d604081101561238e57600080fd5b5080516020909101519095509350841515806123aa5750600084115b1561247f57604080516309e3d67b60e31b81526001600160a01b03888116600483015260028b810b60248401528a900b60448301526001600160801b0360648301819052608483015282516000938493928e1692634f1eb3d89260a4808301939282900301818787803b15801561242057600080fd5b505af1158015612434573d6000803e3d6000fd5b505050506040513d604081101561244a57600080fd5b5080516020909101516001600160801b03918216935016905061246d8288611e2a565b6124778288611e2a565b909550935050505b50945094509450949050565b600080612496611999565b5050600a54600c5460405163b0a42a5160e01b81529395506001600160a01b03808716955063b0a42a51946124de9450921691600160a01b90910461ffff1690600401614bc2565b60206040518083038186803b1580156124f657600080fd5b505afa15801561250a573d6000803e3d6000fd5b505050506040513d601f19601f8201168201806040525081019061252e9190614a1d565b91505090565b6000806000836001600160a01b0316633850c7bd6040518163ffffffff1660e01b815260040160e06040518083038186803b15801561257257600080fd5b505afa158015612586573d6000803e3d6000fd5b505050506040513d60e081101561259c57600080fd5b508051602082015160609092015190969195509350915050565b60008060006125c586856138b4565b858103979501955050505050565b6000600160ff1b82106126175760405162461bcd60e51b8152600401808060200182810382526028815260200180614f246028913960400191505060405180910390fd5b5090565b600061262f856001600160a01b0316612534565b505090506000620f42408261c350026001600160a01b03168161264e57fe5b04905060008461266057818301612664565b8183035b9050866001600160a01b031663128acb08878787858a6040516020018082151581526020019150506040516020818303038152906040526040518663ffffffff1660e01b815260040180866001600160a01b031681526020018515158152602001848152602001836001600160a01b0316815260200180602001828103825283818151815260200191508051906020019080838360005b838110156127135781810151838201526020016126fb565b50505050905090810190601f1680156127405780820380516001836020036101000a031916815260200191505b5096505050505050506040805180830381600087803b15801561276257600080fd5b505af1158015612776573d6000803e3d6000fd5b505050506040513d604081101561278c57600080fd5b505050505050505050565b600080866001600160a01b0316633850c7bd6040518163ffffffff1660e01b815260040160e06040518083038186803b1580156127d357600080fd5b505afa1580156127e7573d6000803e3d6000fd5b505050506040513d60e08110156127fd57600080fd5b5051905061281e8161280e86613900565b61281786613900565b8989613c32565b9150505b95945050505050565b6000806000866001600160a01b0316633850c7bd6040518163ffffffff1660e01b815260040160e06040518083038186803b15801561286957600080fd5b505afa15801561287d573d6000803e3d6000fd5b505050506040513d60e081101561289357600080fd5b505190506128b3816128a487613900565b6128ad87613900565b89613cf4565b92509250505b94509492505050565b60006128d8856128d28685611e2a565b90613d8f565b6128e6856128d28887611e2a565b116128f2576000612822565b600195945050505050565b60008060006040518060e00160405280888152602001878152602001600081526020016000815260200160006001600160801b03168152602001600060020b8152602001600060020b8152509050600080896001600160a01b0316633850c7bd6040518163ffffffff1660e01b815260040160e06040518083038186803b15801561298757600080fd5b505afa15801561299b573d6000803e3d6000fd5b505050506040513d60e08110156129b157600080fd5b50805160209091015190925090506129ca8188886125b6565b600290810b810b60c0860181905291810b900b60a08501819052845160208601516129f7938e9390613db3565b606085018190526040850182905260a085015160c0860151612a1e938e9390929091612797565b6001600160801b031660808401528251602084015160408501516060860151600093612a4d93909290916128c2565b90508015612a92576000612a6c84866080015187600001516000613de2565b9050612a80612a7a82613ed3565b896138b4565b600290810b900b60c086015250612ac5565b6000612aa9848660800151876020015160006141f2565b9050612ab7612a7a82613ed3565b600290810b900b60a0860152505b612ad88460a001518560c0015189613274565b612ae68460a00151886138b4565b9550612af68460c00151886138b4565b9450505050509550959350505050565b6001600160a01b038316612b4b5760405162461bcd60e51b8152600401808060200182810382526025815260200180614edb6025913960400191505060405180910390fd5b6001600160a01b038216612b905760405162461bcd60e51b8152600401808060200182810382526023815260200180614d9a6023913960400191505060405180910390fd5b612b9b8383836130e8565b612bd881604051806060016040528060268152602001614e01602691396001600160a01b0386166000908152602081905260409020549190612c61565b6001600160a01b038085166000908152602081905260408082209390935590841681522054612c079082612dc2565b6001600160a01b038084166000818152602081815260409182902094909455805185815290519193928716927fddf252ad1be2c89b69c2b068fc378daa952ba7f163c4a11628f55a4df523b3ef92918290030190a3505050565b60008184841115612cf05760405162461bcd60e51b81526004018080602001828103825283818151815260200191508051906020019080838360005b83811015612cb5578181015183820152602001612c9d565b50505050905090810190601f168015612ce25780820380516001836020036101000a031916815260200191505b509250505060405180910390fd5b505050900390565b60007f0000000000000000000000000000000000000000000000000000000000000000612d236142ce565b1415612d5057507f0000000000000000000000000000000000000000000000000000000000000000610907565b612dbb7f00000000000000000000000000000000000000000000000000000000000000007f00000000000000000000000000000000000000000000000000000000000000007f00000000000000000000000000000000000000000000000000000000000000006142d2565b9050610907565b600082820183811015610dcf576040805162461bcd60e51b815260206004820152601b60248201527f536166654d6174683a206164646974696f6e206f766572666c6f770000000000604482015290519081900360640190fd5b5490565b6000806000806000806000612e368f8f8a6131dd565b505093509350935093506000612e5f8c612e598588611e3a90919063ffffffff16565b90611e3a565b90506000612e718c612e598786611e3a565b90508a1580612e7f57508115155b80612e8957508015155b612e8f57fe5b612e9c8f8f84848f614334565b809950819a50829b50505050505050505050985098509895505050505050565b600c546001600160a01b038581169116148015612ed95750804710155b15612fd157600c60009054906101000a90046001600160a01b03166001600160a01b031663d0e30db0826040518263ffffffff1660e01b81526004016000604051808303818588803b158015612f2e57600080fd5b505af1158015612f42573d6000803e3d6000fd5b5050600c5460405163a9059cbb60e01b81526001600160a01b03909116935063a9059cbb9250612f79915085908590600401614bdf565b602060405180830381600087803b158015612f9357600080fd5b505af1158015612fa7573d6000803e3d6000fd5b505050506040513d601f19601f82011682018060405250810190612fcb9190614a01565b50611ee5565b6001600160a01b038316301415612fed57611ed58483836133e8565b611ee5848484846143c8565b604080516000808252602082019092526001600160a01b0384169083906040518082805190602001908083835b602083106130455780518252601f199092019160209182019101613026565b6001836020036101000a03801982511681845116808217855250505050505090500191505060006040518083038185875af1925050503d80600081146130a7576040519150601f19603f3d011682016040523d82523d6000602084013e6130ac565b606091505b50509050806130e8576040805162461bcd60e51b815260206004820152600360248201526253544560e81b604482015290519081900360640190fd5b505050565b6001600160a01b038216613148576040805162461bcd60e51b815260206004820152601f60248201527f45524332303a206d696e7420746f20746865207a65726f206164647265737300604482015290519081900360640190fd5b613154600083836130e8565b6002546131619082612dc2565b6002556001600160a01b0382166000908152602081905260409020546131879082612dc2565b6001600160a01b0383166000818152602081815260408083209490945583518581529351929391927fddf252ad1be2c89b69c2b068fc378daa952ba7f163c4a11628f55a4df523b3ef9281900390910190a35050565b6000806000806000806131f98988600001518960200151614518565b939950919750955093509150876132685760008060008060006132258e8d604001518e60600151614518565b93985091965094509250905061323b8b86611e3a565b9a506132478a85611e3a565b99506132538984611e3a565b985061325f8883611e3a565b97509450505050505b93975093979195509350565b8160020b8360020b126132b4576040805162461bcd60e51b8152602060048201526003602482015262544c5560e81b604482015290519081900360640190fd5b620d89e719600284900b12156132f7576040805162461bcd60e51b8152602060048201526003602482015262544c4d60e81b604482015290519081900360640190fd5b620d89e8600283900b1315613339576040805162461bcd60e51b815260206004820152600360248201526254554d60e81b604482015290519081900360640190fd5b8060020b8360020b8161334857fe5b0760020b15613384576040805162461bcd60e51b8152602060048201526003602482015262544c4960e81b604482015290519081900360640190fd5b8060020b8260020b8161339357fe5b0760020b156130e8576040805162461bcd60e51b815260206004820152600360248201526254554960e81b604482015290519081900360640190fd5b600a546001600160a01b031633146133e657600080fd5b565b604080516001600160a01b038481166024830152604480830185905283518084039091018152606490920183526020820180516001600160e01b031663a9059cbb60e01b1781529251825160009485949389169392918291908083835b602083106134645780518252601f199092019160209182019101613445565b6001836020036101000a0380198251168184511680821785525050505050509050019150506000604051808303816000865af19150503d80600081146134c6576040519150601f19603f3d011682016040523d82523d6000602084013e6134cb565b606091505b50915091508180156134f95750805115806134f957508080602001905160208110156134f657600080fd5b50515b611992576040805162461bcd60e51b815260206004820152600260248201526114d560f21b604482015290519081900360640190fd5b6000613539612cf8565b82604051602001808061190160f01b81525060020183815260200182815260200192505050604051602081830303815290604052805190602001209050919050565b60007f7fffffffffffffffffffffffffffffff5d576e7357a4501ddfe92f46681b20a08211156135dc5760405162461bcd60e51b8152600401808060200182810382526022815260200180614e4e6022913960400191505060405180910390fd5b8360ff16601b14806135f157508360ff16601c145b61362c5760405162461bcd60e51b8152600401808060200182810382526022815260200180614e706022913960400191505060405180910390fd5b600060018686868660405160008152602001604052604051808581526020018460ff1681526020018381526020018281526020019450505050506020604051602081039080840390855afa158015613688573d6000803e3d6000fd5b5050604051601f1901519150506001600160a01b0381166136f0576040805162461bcd60e51b815260206004820152601860248201527f45434453413a20696e76616c6964207369676e61747572650000000000000000604482015290519081900360640190fd5b90505b949350505050565b80546001019055565b6000600160801b82106126175760405162461bcd60e51b8152600401808060200182810382526027815260200180614e276027913960400191505060405180910390fd5b600061375e6001600160a01b0385168484612239565b50909150506001600160801b03811615610dcf57836001600160a01b031663a34123a7848460006040518463ffffffff1660e01b8152600401808460020b81526020018360020b815260200182815260200193505050506040805180830381600087803b1580156137ce57600080fd5b505af11580156137e2573d6000803e3d6000fd5b505050506040513d60408110156137f857600080fd5b50509392505050565b600082821115613858576040805162461bcd60e51b815260206004820152601e60248201527f536166654d6174683a207375627472616374696f6e206f766572666c6f770000604482015290519081900360640190fd5b50900390565b6040805160609490941b6bffffffffffffffffffffffff1916602080860191909152600293840b60e890811b60348701529290930b90911b60378401528051808403601a018152603a9093019052815191012090565b6000808260020b8460020b816138c657fe5b05905060008460020b1280156138ed57508260020b8460020b816138e657fe5b0760020b15155b156138f757600019015b90910292915050565b60008060008360020b12613917578260020b61391f565b8260020b6000035b9050620d89e881111561395d576040805162461bcd60e51b81526020600482015260016024820152601560fa1b604482015290519081900360640190fd5b60006001821661397157600160801b613983565b6ffffcb933bd6fad37aa2d162d1a5940015b70ffffffffffffffffffffffffffffffffff16905060028216156139b7576ffff97272373d413259a46990580e213a0260801c5b60048216156139d6576ffff2e50f5f656932ef12357cf3c7fdcc0260801c5b60088216156139f5576fffe5caca7e10e4e61c3624eaa0941cd00260801c5b6010821615613a14576fffcb9843d60f6159c9db58835c9266440260801c5b6020821615613a33576fff973b41fa98c081472e6896dfb254c00260801c5b6040821615613a52576fff2ea16466c96a3843ec78b326b528610260801c5b6080821615613a71576ffe5dee046a99a2a811c461f1969c30530260801c5b610100821615613a91576ffcbe86c7900a88aedcffc83b479aa3a40260801c5b610200821615613ab1576ff987a7253ac413176f2b074cf7815e540260801c5b610400821615613ad1576ff3392b0822b70005940c7a398e4b70f30260801c5b610800821615613af1576fe7159475a2c29b7443b29c7fa6e889d90260801c5b611000821615613b11576fd097f3bdfd2022b8845ad8f792aa58250260801c5b612000821615613b31576fa9f746462d870fdf8a65dc1f90e061e50260801c5b614000821615613b51576f70d869a156d2a1b890bb3df62baf32f70260801c5b618000821615613b71576f31be135f97d08fd981231505542fcfa60260801c5b62010000821615613b92576f09aa508b5b7a84e1c677de54f3e99bc90260801c5b62020000821615613bb2576e5d6af8dedb81196699c329225ee6040260801c5b62040000821615613bd1576d2216e584f5fa1ea926041bedfe980260801c5b62080000821615613bee576b048a170391f7dc42444e8fa20260801c5b60008460020b1315613c09578060001981613c0557fe5b0490505b640100000000810615613c1d576001613c20565b60005b60ff16602082901c0192505050919050565b6000836001600160a01b0316856001600160a01b03161115613c52579293925b846001600160a01b0316866001600160a01b031611613c7d57613c7685858561455d565b9050612822565b836001600160a01b0316866001600160a01b03161015613cdf576000613ca487868661455d565b90506000613cb38789866145c0565b9050806001600160801b0316826001600160801b031610613cd45780613cd6565b815b92505050612822565b613cea8585846145c0565b9695505050505050565b600080836001600160a01b0316856001600160a01b03161115613d15579293925b846001600160a01b0316866001600160a01b031611613d4057613d398585856145fd565b91506128b9565b836001600160a01b0316866001600160a01b03161015613d7957613d658685856145fd565b9150613d72858785614666565b90506128b9565b613d84858585614666565b905094509492505050565b6000821580613daa57505081810281838281613da757fe5b04145b61092257600080fd5b6000806000613dc58888888888612797565b9050613dd38882878761282b565b90999098509650505050505050565b600082613df05750836136f3565b6fffffffffffffffffffffffffffffffff60601b606085901b168215613e87576001600160a01b03861684810290858281613e2757fe5b041415613e5857818101828110613e5657613e4c83896001600160a01b0316836146a9565b93505050506136f3565b505b613e7e82613e79878a6001600160a01b03168681613e7257fe5b0490611e3a565b6146e3565b925050506136f3565b6001600160a01b03861684810290858281613e9e57fe5b04148015613eab57508082115b613eb457600080fd5b808203613e4c613ece846001600160a01b038b16846146a9565b6146ee565b60006401000276a36001600160a01b03831610801590613f0f575073fffd8963efd1fc6a506488495d951d5263988d266001600160a01b038316105b613f44576040805162461bcd60e51b81526020600482015260016024820152602960f91b604482015290519081900360640190fd5b640100000000600160c01b03602083901b166001600160801b03811160071b81811c67ffffffffffffffff811160061b90811c63ffffffff811160051b90811c61ffff811160041b90811c60ff8111600390811b91821c600f811160021b90811c918211600190811b92831c97908811961790941790921717909117171760808110613fd857607f810383901c9150613fe2565b80607f0383901b91505b908002607f81811c60ff83811c9190911c800280831c81831c1c800280841c81841c1c800280851c81851c1c800280861c81861c1c800280871c81871c1c800280881c81881c1c800280891c81891c1c8002808a1c818a1c1c8002808b1c818b1c1c8002808c1c818c1c1c8002808d1c818d1c1c8002808e1c9c81901c9c909c1c80029c8d901c9e9d607f198f0160401b60c09190911c678000000000000000161760c19b909b1c674000000000000000169a909a1760c29990991c672000000000000000169890981760c39790971c671000000000000000169690961760c49590951c670800000000000000169490941760c59390931c670400000000000000169290921760c69190911c670200000000000000161760c79190911c670100000000000000161760c89190911c6680000000000000161760c99190911c6640000000000000161760ca9190911c6620000000000000161760cb9190911c6610000000000000161760cc9190911c6608000000000000161760cd9190911c66040000000000001617693627a301d71055774c8581026f028f6481ab7f045a5af012a19d003aa9198101608090811d906fdb2df09e81959a81455e260799a0632f8301901d600281810b9083900b146141e357886001600160a01b03166141c782613900565b6001600160a01b031611156141dc57816141de565b805b6141e5565b815b9998505050505050505050565b600081156142605760006001600160a01b038411156142285761422384600160601b876001600160801b0316611a38565b614240565b6001600160801b038516606085901b8161423e57fe5b045b9050614258613ece6001600160a01b03881683611e3a565b9150506136f3565b60006001600160a01b0384111561428e5761428984600160601b876001600160801b03166146a9565b6142a5565b6142a5606085901b6001600160801b0387166146e3565b905080866001600160a01b0316116142bc57600080fd5b6001600160a01b0386160390506136f3565b4690565b60008383836142df6142ce565b3060405160200180868152602001858152602001848152602001838152602001826001600160a01b03168152602001955050505050506040516020818303038152906040528051906020012090509392505050565b600080808361435857508690508580821161434f5780614351565b815b92506143bd565b8561436a575085614351818587611a38565b8461437d57879150614351828588611a38565b614388878787611a38565b91508782101561439f575085614351818587611a38565b8791506143ad828688611a38565b90506143ba828588611a38565b92505b955095509592505050565b604080516001600160a01b0385811660248301528481166044830152606480830185905283518084039091018152608490920183526020820180516001600160e01b03166323b872dd60e01b178152925182516000948594938a169392918291908083835b6020831061444c5780518252601f19909201916020918201910161442d565b6001836020036101000a0380198251168184511680821785525050505050509050019150506000604051808303816000865af19150503d80600081146144ae576040519150601f19603f3d011682016040523d82523d6000602084013e6144b3565b606091505b50915091508180156144e15750805115806144e157508080602001905160208110156144de57600080fd5b50515b61167d576040805162461bcd60e51b815260206004820152600360248201526229aa2360e91b604482015290519081900360640190fd5b600080600080600061452b888888613748565b90506001600160801b0381161561455257614547888888614704565b929750909550935091505b939792965093509350565b6000826001600160a01b0316846001600160a01b0316111561457d579192915b60006145a0856001600160a01b0316856001600160a01b0316600160601b611a38565b90506128226145bb84838888036001600160a01b0316611a38565b614750565b6000826001600160a01b0316846001600160a01b031611156145e0579192915b6136f36145bb83600160601b8787036001600160a01b0316611a38565b6000826001600160a01b0316846001600160a01b0316111561461d579192915b836001600160a01b0316614656606060ff16846001600160801b0316901b8686036001600160a01b0316866001600160a01b0316611a38565b8161465d57fe5b04949350505050565b6000826001600160a01b0316846001600160a01b03161115614686579192915b6136f3826001600160801b03168585036001600160a01b0316600160601b611a38565b60006146b6848484611a38565b9050600082806146c257fe5b8486091115610dcf5760001981106146d957600080fd5b6001019392505050565b808204910615150190565b806001600160a01b0381168114610eb757600080fd5b600080600080600080600061471a8a8a8a612239565b92509250925060008061472f8c868d8d61282b565b9099509750506001600160801b039283169550501691505093509350935093565b806001600160801b0381168114610eb757600080fd5b604051806101c001604052806000815260200160008152602001600060020b8152602001600060020b8152602001600060020b8152602001600081526020016000815260200160006001600160801b0316815260200160008152602001600081526020016000151581526020016000815260200160006001600160a01b0316815260200160006001600160a01b031681525090565b60008083601f84011261480c578182fd5b50813567ffffffffffffffff811115614823578182fd5b60208301915083602082850101111561483b57600080fd5b9250929050565b600060208284031215614853578081fd5b8135610dcf81614d55565b60008060408385031215614870578081fd5b823561487b81614d55565b9150602083013561488b81614d55565b809150509250929050565b600080600080600060a086880312156148ad578081fd5b85516148b881614d55565b60208701519095506148c981614d55565b60408701519094506148da81614d55565b60608701519093506148eb81614d8a565b60808701519092506148fc81614d8a565b809150509295509295909350565b60008060006060848603121561491e578283fd5b833561492981614d55565b9250602084013561493981614d55565b929592945050506040919091013590565b600080600080600080600060e0888a031215614964578182fd5b873561496f81614d55565b9650602088013561497f81614d55565b95506040880135945060608801359350608088013561499d81614d8a565b9699959850939692959460a0840135945060c09093013592915050565b600080604083850312156149cc578182fd5b82356149d781614d55565b946020939093013593505050565b6000602082840312156149f6578081fd5b8135610dcf81614d6d565b600060208284031215614a12578081fd5b8151610dcf81614d6d565b600060208284031215614a2e578081fd5b8151610dcf81614d7b565b60008060008060808587031215614a4e578182fd5b843593506020850135614a6081614d6d565b92506040850135614a7081614d7b565b91506060850135614a8081614d7b565b939692955090935050565b60008060008060608587031215614aa0578182fd5b8435935060208501359250604085013567ffffffffffffffff811115614ac4578283fd5b614ad0878288016147fb565b95989497509550505050565b600060208284031215614aed578081fd5b5051919050565b600080600060608486031215614b08578081fd5b833592506020840135614b1a81614d55565b91506040840135614b2a81614d6d565b809150509250925092565b600080600060608486031215614b49578081fd5b83359250602084013591506040840135614b2a81614d55565b600060208284031215614b73578081fd5b8135610dcf81614d8a565b6001600160a01b0391909116815260200190565b6001600160a01b039485168152928416602084015262ffffff919091166040830152909116606082015260800190565b6001600160a01b0392909216825261ffff16602082015260400190565b6001600160a01b03929092168252602082015260400190565b901515815260200190565b92151583526020830191909152604082015260600190565b90815260200190565b600294850b815292840b602084015290830b604083015290910b606082015260800190565b6000602080835283518082850152825b81811015614c7557858101830151858201604001528201614c59565b81811115614c865783604083870101525b50601f01601f1916929092016040019392505050565b602080825260029082015261135360f21b604082015260600190565b602080825260029082015261495360f01b604082015260600190565b918252602082015260400190565b9283526020830191909152604082015260600190565b93845260208401929092526040830152606082015260800190565b9586526020860194909452604085019290925260608401526001600160801b0390811660808401521660a082015260c00190565b60ff91909116815260200190565b6001600160a01b0381168114614d6a57600080fd5b50565b8015158114614d6a57600080fd5b8060020b8114614d6a57600080fd5b60ff81168114614d6a57600080fdfe45524332303a207472616e7366657220746f20746865207a65726f206164647265737345524332303a206275726e20616d6f756e7420657863656564732062616c616e636545524332303a20617070726f766520746f20746865207a65726f206164647265737345524332303a207472616e7366657220616d6f756e7420657863656564732062616c616e636553616665436173743a2076616c756520646f65736e27742066697420696e20313238206269747345434453413a20696e76616c6964207369676e6174757265202773272076616c756545434453413a20696e76616c6964207369676e6174757265202776272076616c756545524332303a207472616e7366657220616d6f756e74206578636565647320616c6c6f77616e636545524332303a206275726e2066726f6d20746865207a65726f206164647265737345524332303a207472616e736665722066726f6d20746865207a65726f206164647265737345524332303a20617070726f76652066726f6d20746865207a65726f206164647265737353616665436173743a2076616c756520646f65736e27742066697420696e20616e20696e7432353645524332303a2064656372656173656420616c6c6f77616e63652062656c6f77207a65726fa2646970667358221220865d490fe59b97de1a97e67d4f48f3305a7991ce5b782b2853084ba8902d06db64736f6c63430007060033a2646970667358221220c36eb6274f8b3c0b46e20ed5ff0eb728511dfa536e304a7fa274240abeb0c17c64736f6c63430007060033",
    "linkReferences": {}
  },
  "methodIdentifiers": {
    "createVault(address,address,uint24,uint16,uint160,string,string)": "859e3fad",
    "getUnipilotDetails()": "38d77280",
    "setGovernance(address)": "ab033ea9",
    "setUnipilotDetails(address,address,uint8)": "3f1e478b",
    "vaults(address,address,uint24,uint16)": "517d6c3c"
  },
  "id": 0
}