{
  "abi": [
    {
      "inputs": [
        {
          "internalType": "address",
          "name": "_pool",
          "type": "address"
        },
        {
          "internalType": "address",
          "name": "_unipilotFactory",
          "type": "address"
        },
        {
          "internalType": "address",
          "name": "_WETH",
          "type": "address"
        },
        {
          "internalType": "string",
          "name": "_name",
          "type": "string"
        },
        {
          "internalType": "string",
          "name": "_symbol",
          "type": "string"
        }
      ],
      "stateMutability": "nonpayable",
      "type": "constructor"
    },
    {
      "anonymous": false,
      "inputs": [
        {
          "indexed": true,
          "internalType": "address",
          "name": "owner",
          "type": "address"
        },
        {
          "indexed": true,
          "internalType": "address",
          "name": "spender",
          "type": "address"
        },
        {
          "indexed": false,
          "internalType": "uint256",
          "name": "value",
          "type": "uint256"
        }
      ],
      "name": "Approval",
      "type": "event"
    },
    {
      "anonymous": false,
      "inputs": [
        {
          "indexed": false,
          "internalType": "uint256",
          "name": "amount0",
          "type": "uint256"
        },
        {
          "indexed": false,
          "internalType": "uint256",
          "name": "amount1",
          "type": "uint256"
        }
      ],
      "name": "CompoundFees",
      "type": "event"
    },
    {
      "anonymous": false,
      "inputs": [
        {
          "indexed": true,
          "internalType": "address",
          "name": "depositor",
          "type": "address"
        },
        {
          "indexed": true,
          "internalType": "address",
          "name": "recipient",
          "type": "address"
        },
        {
          "indexed": false,
          "internalType": "uint256",
          "name": "amount0",
          "type": "uint256"
        },
        {
          "indexed": false,
          "internalType": "uint256",
          "name": "amount1",
          "type": "uint256"
        },
        {
          "indexed": false,
          "internalType": "uint256",
          "name": "lpShares",
          "type": "uint256"
        }
      ],
      "name": "Deposit",
      "type": "event"
    },
    {
      "anonymous": false,
      "inputs": [
        {
          "indexed": false,
          "internalType": "bool",
          "name": "isReadjustLiquidity",
          "type": "bool"
        },
        {
          "indexed": false,
          "internalType": "uint256",
          "name": "fees0",
          "type": "uint256"
        },
        {
          "indexed": false,
          "internalType": "uint256",
          "name": "fees1",
          "type": "uint256"
        }
      ],
      "name": "FeesSnapshot",
      "type": "event"
    },
    {
      "anonymous": false,
      "inputs": [
        {
          "indexed": false,
          "internalType": "uint256",
          "name": "reserves0",
          "type": "uint256"
        },
        {
          "indexed": false,
          "internalType": "uint256",
          "name": "reserves1",
          "type": "uint256"
        },
        {
          "indexed": false,
          "internalType": "uint256",
          "name": "fees0",
          "type": "uint256"
        },
        {
          "indexed": false,
          "internalType": "uint256",
          "name": "fees1",
          "type": "uint256"
        }
      ],
      "name": "PullLiquidity",
      "type": "event"
    },
    {
      "anonymous": false,
      "inputs": [
        {
          "indexed": true,
          "internalType": "address",
          "name": "from",
          "type": "address"
        },
        {
          "indexed": true,
          "internalType": "address",
          "name": "to",
          "type": "address"
        },
        {
          "indexed": false,
          "internalType": "uint256",
          "name": "value",
          "type": "uint256"
        }
      ],
      "name": "Transfer",
      "type": "event"
    },
    {
      "anonymous": false,
      "inputs": [
        {
          "indexed": true,
          "internalType": "address",
          "name": "recipient",
          "type": "address"
        },
        {
          "indexed": false,
          "internalType": "uint256",
          "name": "shares",
          "type": "uint256"
        },
        {
          "indexed": false,
          "internalType": "uint256",
          "name": "amount0",
          "type": "uint256"
        },
        {
          "indexed": false,
          "internalType": "uint256",
          "name": "amount1",
          "type": "uint256"
        }
      ],
      "name": "Withdraw",
      "type": "event"
    },
    {
      "stateMutability": "payable",
      "type": "fallback"
    },
    {
      "inputs": [],
      "name": "DOMAIN_SEPARATOR",
      "outputs": [
        {
          "internalType": "bytes32",
          "name": "",
          "type": "bytes32"
        }
      ],
      "stateMutability": "view",
      "type": "function"
    },
    {
      "inputs": [],
      "name": "_totalSupply",
      "outputs": [
        {
          "internalType": "uint256",
          "name": "",
          "type": "uint256"
        }
      ],
      "stateMutability": "view",
      "type": "function"
    },
    {
      "inputs": [
        {
          "internalType": "address",
          "name": "owner",
          "type": "address"
        },
        {
          "internalType": "address",
          "name": "spender",
          "type": "address"
        }
      ],
      "name": "allowance",
      "outputs": [
        {
          "internalType": "uint256",
          "name": "",
          "type": "uint256"
        }
      ],
      "stateMutability": "view",
      "type": "function"
    },
    {
      "inputs": [
        {
          "internalType": "address",
          "name": "spender",
          "type": "address"
        },
        {
          "internalType": "uint256",
          "name": "amount",
          "type": "uint256"
        }
      ],
      "name": "approve",
      "outputs": [
        {
          "internalType": "bool",
          "name": "",
          "type": "bool"
        }
      ],
      "stateMutability": "nonpayable",
      "type": "function"
    },
    {
      "inputs": [
        {
          "internalType": "address",
          "name": "account",
          "type": "address"
        }
      ],
      "name": "balanceOf",
      "outputs": [
        {
          "internalType": "uint256",
          "name": "",
          "type": "uint256"
        }
      ],
      "stateMutability": "view",
      "type": "function"
    },
    {
      "inputs": [],
      "name": "decimals",
      "outputs": [
        {
          "internalType": "uint8",
          "name": "",
          "type": "uint8"
        }
      ],
      "stateMutability": "view",
      "type": "function"
    },
    {
      "inputs": [
        {
          "internalType": "address",
          "name": "spender",
          "type": "address"
        },
        {
          "internalType": "uint256",
          "name": "subtractedValue",
          "type": "uint256"
        }
      ],
      "name": "decreaseAllowance",
      "outputs": [
        {
          "internalType": "bool",
          "name": "",
          "type": "bool"
        }
      ],
      "stateMutability": "nonpayable",
      "type": "function"
    },
    {
      "inputs": [
        {
          "internalType": "uint256",
          "name": "amount0Desired",
          "type": "uint256"
        },
        {
          "internalType": "uint256",
          "name": "amount1Desired",
          "type": "uint256"
        },
        {
          "internalType": "address",
          "name": "recipient",
          "type": "address"
        }
      ],
      "name": "deposit",
      "outputs": [
        {
          "internalType": "uint256",
          "name": "lpShares",
          "type": "uint256"
        },
        {
          "internalType": "uint256",
          "name": "amount0",
          "type": "uint256"
        },
        {
          "internalType": "uint256",
          "name": "amount1",
          "type": "uint256"
        }
      ],
      "stateMutability": "payable",
      "type": "function"
    },
    {
      "inputs": [],
      "name": "getPositionDetails",
      "outputs": [
        {
          "internalType": "uint256",
          "name": "amount0",
          "type": "uint256"
        },
        {
          "internalType": "uint256",
          "name": "amount1",
          "type": "uint256"
        },
        {
          "internalType": "uint256",
          "name": "fees0",
          "type": "uint256"
        },
        {
          "internalType": "uint256",
          "name": "fees1",
          "type": "uint256"
        },
        {
          "internalType": "uint128",
          "name": "baseLiquidity",
          "type": "uint128"
        },
        {
          "internalType": "uint128",
          "name": "rangeLiquidity",
          "type": "uint128"
        }
      ],
      "stateMutability": "nonpayable",
      "type": "function"
    },
    {
      "inputs": [],
      "name": "getVaultInfo",
      "outputs": [
        {
          "internalType": "address",
          "name": "",
          "type": "address"
        },
        {
          "internalType": "address",
          "name": "",
          "type": "address"
        },
        {
          "internalType": "uint24",
          "name": "",
          "type": "uint24"
        },
        {
          "internalType": "address",
          "name": "",
          "type": "address"
        }
      ],
      "stateMutability": "view",
      "type": "function"
    },
    {
      "inputs": [
        {
          "internalType": "address",
          "name": "spender",
          "type": "address"
        },
        {
          "internalType": "uint256",
          "name": "addedValue",
          "type": "uint256"
        }
      ],
      "name": "increaseAllowance",
      "outputs": [
        {
          "internalType": "bool",
          "name": "",
          "type": "bool"
        }
      ],
      "stateMutability": "nonpayable",
      "type": "function"
    },
    {
      "inputs": [],
      "name": "name",
      "outputs": [
        {
          "internalType": "string",
          "name": "",
          "type": "string"
        }
      ],
      "stateMutability": "view",
      "type": "function"
    },
    {
      "inputs": [
        {
          "internalType": "address",
          "name": "owner",
          "type": "address"
        }
      ],
      "name": "nonces",
      "outputs": [
        {
          "internalType": "uint256",
          "name": "",
          "type": "uint256"
        }
      ],
      "stateMutability": "view",
      "type": "function"
    },
    {
      "inputs": [
        {
          "internalType": "address",
          "name": "owner",
          "type": "address"
        },
        {
          "internalType": "address",
          "name": "spender",
          "type": "address"
        },
        {
          "internalType": "uint256",
          "name": "value",
          "type": "uint256"
        },
        {
          "internalType": "uint256",
          "name": "deadline",
          "type": "uint256"
        },
        {
          "internalType": "uint8",
          "name": "v",
          "type": "uint8"
        },
        {
          "internalType": "bytes32",
          "name": "r",
          "type": "bytes32"
        },
        {
          "internalType": "bytes32",
          "name": "s",
          "type": "bytes32"
        }
      ],
      "name": "permit",
      "outputs": [],
      "stateMutability": "nonpayable",
      "type": "function"
    },
    {
      "inputs": [
        {
          "internalType": "uint8",
          "name": "swapBP",
          "type": "uint8"
        }
      ],
      "name": "readjustLiquidity",
      "outputs": [],
      "stateMutability": "nonpayable",
      "type": "function"
    },
    {
      "inputs": [],
      "name": "symbol",
      "outputs": [
        {
          "internalType": "string",
          "name": "",
          "type": "string"
        }
      ],
      "stateMutability": "view",
      "type": "function"
    },
    {
      "inputs": [],
      "name": "ticksData",
      "outputs": [
        {
          "internalType": "int24",
          "name": "baseTickLower",
          "type": "int24"
        },
        {
          "internalType": "int24",
          "name": "baseTickUpper",
          "type": "int24"
        },
        {
          "internalType": "int24",
          "name": "rangeTickLower",
          "type": "int24"
        },
        {
          "internalType": "int24",
          "name": "rangeTickUpper",
          "type": "int24"
        }
      ],
      "stateMutability": "view",
      "type": "function"
    },
    {
      "inputs": [],
      "name": "totalSupply",
      "outputs": [
        {
          "internalType": "uint256",
          "name": "",
          "type": "uint256"
        }
      ],
      "stateMutability": "view",
      "type": "function"
    },
    {
      "inputs": [
        {
          "internalType": "address",
          "name": "recipient",
          "type": "address"
        },
        {
          "internalType": "uint256",
          "name": "amount",
          "type": "uint256"
        }
      ],
      "name": "transfer",
      "outputs": [
        {
          "internalType": "bool",
          "name": "",
          "type": "bool"
        }
      ],
      "stateMutability": "nonpayable",
      "type": "function"
    },
    {
      "inputs": [
        {
          "internalType": "address",
          "name": "sender",
          "type": "address"
        },
        {
          "internalType": "address",
          "name": "recipient",
          "type": "address"
        },
        {
          "internalType": "uint256",
          "name": "amount",
          "type": "uint256"
        }
      ],
      "name": "transferFrom",
      "outputs": [
        {
          "internalType": "bool",
          "name": "",
          "type": "bool"
        }
      ],
      "stateMutability": "nonpayable",
      "type": "function"
    },
    {
      "inputs": [
        {
          "internalType": "uint256",
          "name": "amount0Owed",
          "type": "uint256"
        },
        {
          "internalType": "uint256",
          "name": "amount1Owed",
          "type": "uint256"
        },
        {
          "internalType": "bytes",
          "name": "data",
          "type": "bytes"
        }
      ],
      "name": "uniswapV3MintCallback",
      "outputs": [],
      "stateMutability": "nonpayable",
      "type": "function"
    },
    {
      "inputs": [
        {
          "internalType": "int256",
          "name": "amount0",
          "type": "int256"
        },
        {
          "internalType": "int256",
          "name": "amount1",
          "type": "int256"
        },
        {
          "internalType": "bytes",
          "name": "data",
          "type": "bytes"
        }
      ],
      "name": "uniswapV3SwapCallback",
      "outputs": [],
      "stateMutability": "nonpayable",
      "type": "function"
    },
    {
      "inputs": [
        {
          "internalType": "uint256",
          "name": "liquidity",
          "type": "uint256"
        },
        {
          "internalType": "address",
          "name": "recipient",
          "type": "address"
        },
        {
          "internalType": "bool",
          "name": "refundAsETH",
          "type": "bool"
        }
      ],
      "name": "withdraw",
      "outputs": [
        {
          "internalType": "uint256",
          "name": "amount0",
          "type": "uint256"
        },
        {
          "internalType": "uint256",
          "name": "amount1",
          "type": "uint256"
        }
      ],
      "stateMutability": "nonpayable",
      "type": "function"
    },
    {
      "stateMutability": "payable",
      "type": "receive"
    }
  ],
  "bytecode": {
    "object": "0x6102006040527f6e71edae12b1b97f4d1f60370fef10105fa2faae0126114a169c64845d6126c961012052600880546001600160a01b0316600160a01b1790553480156200004c57600080fd5b5060405162004ba338038062004ba38339810160408190526200006f91620005e2565b8180604051806040016040528060018152602001603160f81b81525084848160039080519060200190620000a59291906200045a565b508051620000bb9060049060208401906200045a565b50506005805460ff1916601217905550815160208084019190912082519183019190912060c082905260e08190527f8b73c3c69bb8fe3d512ecc4cf759cc79239f7b179b0ffacaa9a75d522b39400f62000114620003f2565b60a05262000124818484620003f6565b6080526101005250505050506001600160a01b0385166200014457600080fd5b6001600160a01b0383166200015857600080fd5b6001600160a01b0384166200016c57600080fd5b600880546001600160a01b038088166001600160a01b031990921691909117918290556001600160601b0319606087811b82166101e05286901b166101c05260408051630dfe168160e01b815290519290911691630dfe168191600480820192602092909190829003018186803b158015620001e757600080fd5b505afa158015620001fc573d6000803e3d6000fd5b505050506040513d601f19601f82011682018060405250810190620002229190620005be565b60601b6001600160601b031916610140526008546040805163d21220a760e01b815290516001600160a01b039092169163d21220a791600480820192602092909190829003018186803b1580156200027957600080fd5b505afa1580156200028e573d6000803e3d6000fd5b505050506040513d601f19601f82011682018060405250810190620002b49190620005be565b60601b6001600160601b031916610160526008546040805163ddca3f4360e01b815290516001600160a01b039092169163ddca3f4391600480820192602092909190829003018186803b1580156200030b57600080fd5b505afa15801562000320573d6000803e3d6000fd5b505050506040513d601f19601f82011682018060405250810190620003469190620006a5565b60e81b6001600160e81b03191661018052600854604080516334324e9f60e21b815290516001600160a01b039092169163d0c93a7c91600480820192602092909190829003018186803b1580156200039d57600080fd5b505afa158015620003b2573d6000803e3d6000fd5b505050506040513d601f19601f82011682018060405250810190620003d8919062000682565b600290810b900b60e81b6101a05250620006ca9350505050565b4690565b600083838362000405620003f2565b3060405160200180868152602001858152602001848152602001838152602001826001600160a01b03168152602001955050505050506040516020818303038152906040528051906020012090509392505050565b828054600181600116156101000203166002900490600052602060002090601f016020900481019282620004925760008555620004dd565b82601f10620004ad57805160ff1916838001178555620004dd565b82800160010185558215620004dd579182015b82811115620004dd578251825591602001919060010190620004c0565b50620004eb929150620004ef565b5090565b5b80821115620004eb5760008155600101620004f0565b80516001600160a01b03811681146200051e57600080fd5b919050565b600082601f83011262000534578081fd5b81516001600160401b03808211156200054957fe5b6040516020601f8401601f19168201810183811183821017156200056957fe5b604052838252858401810187101562000580578485fd5b8492505b83831015620005a3578583018101518284018201529182019162000584565b83831115620005b457848185840101525b5095945050505050565b600060208284031215620005d0578081fd5b620005db8262000506565b9392505050565b600080600080600060a08688031215620005fa578081fd5b620006058662000506565b9450620006156020870162000506565b9350620006256040870162000506565b60608701519093506001600160401b038082111562000642578283fd5b6200065089838a0162000523565b9350608088015191508082111562000666578283fd5b50620006758882890162000523565b9150509295509295909350565b60006020828403121562000694578081fd5b81518060020b8114620005db578182fd5b600060208284031215620006b7578081fd5b815162ffffff81168114620005db578182fd5b60805160a05160c05160e05161010051610120516101405160601c6101605160601c6101805160e81c6101a05160e81c6101c05160601c6101e05160601c6143f6620007ad60003980611378525080611639528061247852806124be52806125445280612e5752505080610be05250806106295280610bbe5280610d4b52806110b8528061133a52806115fa5280611bf35250806105f75280610b9c5280610d1f52806110875280611303528061154b5280611bb452508061115552508061230f5250806123515250806123305250806122b65250806122e652506143f66000f3fe6080604052600436106101435760003560e01c80637ecebe00116100b6578063ac2dc5621161006f578063ac2dc5621461037c578063c8696232146103a1578063d3487997146103c8578063d505accf146103e8578063dd62ed3e14610408578063fa461e33146104285761014a565b80637ecebe00146102c05780637f98aa71146102e05780638dbdbe6d1461030557806395d89b4114610327578063a457c2d71461033c578063a9059cbb1461035c5761014a565b806323b872dd1161010857806323b872dd14610214578063313ce567146102345780633644e51514610256578063395093511461026b5780633eaaf86b1461028b57806370a08231146102a05761014a565b8062ebf5dd1461014c57806306fdde0314610183578063095ea7b3146101a557806318160ddd146101d25780631a87e87d146101f45761014a565b3661014a57005b005b34801561015857600080fd5b5061016c610167366004613f8b565b610448565b60405161017a92919061414e565b60405180910390f35b34801561018f57600080fd5b5061019861077a565b60405161017a91906140c3565b3480156101b157600080fd5b506101c56101c0366004613e4c565b610811565b60405161017a9190614072565b3480156101de57600080fd5b506101e761082f565b60405161017a9190614095565b34801561020057600080fd5b5061014a61020f366004613ff9565b610835565b34801561022057600080fd5b506101c561022f366004613d9c565b610a63565b34801561024057600080fd5b50610249610aeb565b60405161017a91906141a6565b34801561026257600080fd5b506101e7610af4565b34801561027757600080fd5b506101c5610286366004613e4c565b610b03565b34801561029757600080fd5b506101e7610b51565b3480156102ac57600080fd5b506101e76102bb366004613cd4565b610b57565b3480156102cc57600080fd5b506101e76102db366004613cd4565b610b76565b3480156102ec57600080fd5b506102f5610b97565b60405161017a9493929190614029565b610318610313366004613fcc565b610c0e565b60405161017a9392919061415c565b34801561033357600080fd5b50610198610ec7565b34801561034857600080fd5b506101c5610357366004613e4c565b610f28565b34801561036857600080fd5b506101c5610377366004613e4c565b610f90565b34801561038857600080fd5b50610391610fa4565b60405161017a949392919061409e565b3480156103ad57600080fd5b506103b6610fcd565b60405161017a96959493929190614172565b3480156103d457600080fd5b5061014a6103e3366004613f22565b611058565b3480156103f457600080fd5b5061014a610403366004613ddc565b6110e6565b34801561041457600080fd5b506101e7610423366004613cf0565b61129d565b34801561043457600080fd5b5061014a610443366004613f22565b6112c8565b600080600860149054906101000a90046001600160601b03166001600160601b031660011461047657600080fd5b600880546001600160a01b0316600160a11b179055600061049561136e565b505060085460405163051bb83360e01b81529294506001600160a01b03808616945063051bb833936104cd9350911690600401614015565b60006040518083038186803b1580156104e557600080fd5b505afa1580156104f9573d6000803e3d6000fd5b505050506000861161050a57600080fd5b600061052687670de0b6b3a764000061052161082f565b611418565b600754909150600090819061054a90600281810b9163010000009004900b856114c7565b6007549193509150600090819061057790600160301b8104600290810b91600160481b9004900b876114c7565b90925090506105868483611521565b97506105928382611521565b965060006105b46105ab8a6105a5611531565b906115d0565b8d61052161082f565b905060006105d06105c78a6105a56115e0565b8e61052161082f565b90506105dc8a83611521565b99506105e88982611521565b9850891561061c5761061c8b8d7f00000000000000000000000000000000000000000000000000000000000000008d61162f565b881561064e5761064e8b8d7f00000000000000000000000000000000000000000000000000000000000000008c61162f565b60075461068990600281810b9163010000009004900b61066c611531565b6106746115e0565b6008546001600160a01b031693929190611692565b60075491975095506106b390600160301b8104600290810b91600160481b9004900b61066c611531565b90945092506106c2338e6117f4565b8b6001600160a01b03167f02f25270a4d87bea75db541cdfe559334a275b4a233520ed6c0a2429667cca948e8c8c6040516106ff9392919061415c565b60405180910390a27f2fb985eb745b9e89bb1ab82e0f8ceb6bf94d4d60aed7e8196540c50161a5fe916107328786611521565b61073c8786611521565b60405161074a92919061414e565b60405180910390a15050600880546001600160a01b0316600160a01b179055509599949850939650505050505050565b60038054604080516020601f60026000196101006001881615020190951694909404938401819004810282018101909252828152606093909290918301828280156108065780601f106107db57610100808354040283529160200191610806565b820191906000526020600020905b8154815290600101906020018083116107e957829003601f168201915b505050505090505b90565b600061082561081e6118f0565b84846118f4565b5060015b92915050565b60025490565b600854600160a01b90046001600160601b031660011461085457600080fd5b600880546001600160a01b0316600160a11b179055600061087361136e565b505060085460405163051bb83360e01b81529294506001600160a01b03808616945063051bb833936108ab9350911690600401614015565b60006040518083038186803b1580156108c357600080fd5b505afa1580156108d7573d6000803e3d6000fd5b5050600754600854600093508392508291829161090f916001600160a01b0390911690600281810b9163010000009004900b306119e0565b6007546008549498509296509094509250600091829182918291610953916001600160a01b031690600160301b8104600290810b91600160481b9004900b306119e0565b9296509094509250905061097b600161096c8885611521565b6109768885611521565b611b94565b60006109878986611521565b905060006109958986611521565b90508115806109a2575080155b15610a205760008083116109b75760006109ba565b60015b905060006109c661136e565b9450505050506000826109ef576109ea6109e5858460ff166064611418565b611c64565b610a01565b610a016109e5868460ff166064611418565b600854909150610a1c906001600160a01b0316308584611cac565b5050505b610a28611531565b9150610a326115e0565b9050610a3e8282611e28565b5050600880546001600160a01b0316600160a01b179055505050505050505050505050565b6000610a708484846120c0565b610ae084610a7c6118f0565b610adb856040518060600160405280602881526020016142e2602891396001600160a01b038a16600090815260016020526040812090610aba6118f0565b6001600160a01b03168152602081019190915260400160002054919061221b565b6118f4565b5060015b9392505050565b60055460ff1690565b6000610afe6122b2565b905090565b6000610825610b106118f0565b84610adb8560016000610b216118f0565b6001600160a01b03908116825260208083019390935260409182016000908120918c16815292529020549061237c565b60025481565b6001600160a01b0381166000908152602081905260409020545b919050565b6001600160a01b0381166000908152600660205260408120610829906123d6565b6008547f0000000000000000000000000000000000000000000000000000000000000000917f0000000000000000000000000000000000000000000000000000000000000000917f0000000000000000000000000000000000000000000000000000000000000000916001600160a01b0390911690565b6000806000600860149054906101000a90046001600160601b03166001600160601b0316600114610c3e57600080fd5b60088054600160a11b6001600160a01b03918216179091558416610c6157600080fd5b600086118015610c715750600085115b610c7a57600080fd5b6000610c846118f0565b90506000610c9061082f565b9050610d1360008989610ca1611531565b610ca96115e0565b60408051608081018252600754600281810b810b810b835263010000008204810b810b810b6020840152600160301b8204810b810b810b93830193909352600160481b9004820b820b90910b60608201526008546001600160a01b031695949392919088906123da565b91965094509250610d467f0000000000000000000000000000000000000000000000000000000000000000833087612476565b610d727f0000000000000000000000000000000000000000000000000000000000000000833086612476565b80610db2576103e88511610da15760405162461bcd60e51b8152600401610d9890614116565b60405180910390fd5b610dab8484611e28565b5050610e3b565b84610dcf5760405162461bcd60e51b8152600401610d9890614132565b6007546008546000918291610e00916001600160a01b0390911690600281810b9163010000009004900b8989611692565b6007549193509150610e3690600160301b8104600290810b91600160481b9004900b610e2c89866115d0565b61067489866115d0565b505050505b4715610e4b57610e4b82476125fe565b610e5586866126f2565b856001600160a01b0316826001600160a01b03167f4e2ca0515ed1aef1395f66b5303bb5d6f1bf9d61a353fa53f73f8ac9973fa9f6868689604051610e9c9392919061415c565b60405180910390a35050600880546001600160a01b0316600160a01b17905591959094509092509050565b60048054604080516020601f60026000196101006001881615020190951694909404938401819004810282018101909252828152606093909290918301828280156108065780601f106107db57610100808354040283529160200191610806565b6000610825610f356118f0565b84610adb8560405180606001604052806025815260200161439c6025913960016000610f5f6118f0565b6001600160a01b03908116825260208083019390935260409182016000908120918d1681529252902054919061221b565b6000610825610f9d6118f0565b84846120c0565b600754600281810b9163010000008104820b91600160301b8204810b91600160481b9004900b84565b60408051608081018252600754600281810b810b810b835263010000008204810b810b810b6020840152600160301b8204810b810b810b93830193909352600160481b9004820b820b90910b606082015260085460009182918291829182918291611045916001600160a01b039091169083906127e2565b949b939a50919850965094509092509050565b611060612879565b600061106a6118f0565b9050600061107a83850185613cd4565b905085156110ad576110ad7f00000000000000000000000000000000000000000000000000000000000000008388612892565b84156110de576110de7f00000000000000000000000000000000000000000000000000000000000000008387612892565b505050505050565b8342111561113b576040805162461bcd60e51b815260206004820152601d60248201527f45524332305065726d69743a206578706972656420646561646c696e65000000604482015290519081900360640190fd5b6001600160a01b03871660009081526006602052604081207f000000000000000000000000000000000000000000000000000000000000000090899089908990611184906123d6565b8960405160200180878152602001866001600160a01b03168152602001856001600160a01b03168152602001848152602001838152602001828152602001965050505050505060405160208183030381529060405280519060200120905060006111ed826129d9565b905060006111fd82878787612a25565b9050896001600160a01b0316816001600160a01b031614611265576040805162461bcd60e51b815260206004820152601e60248201527f45524332305065726d69743a20696e76616c6964207369676e61747572650000604482015290519081900360640190fd5b6001600160a01b038a16600090815260066020526040902061128690612ba3565b6112918a8a8a6118f4565b50505050505050505050565b6001600160a01b03918216600090815260016020908152604080832093909416825291909152205490565b6112d0612879565b60008413806112df5750600083135b6112e857600080fd5b60006112f682840184613e77565b90508015611335576113307f000000000000000000000000000000000000000000000000000000000000000061132a6118f0565b87612892565b611367565b6113677f00000000000000000000000000000000000000000000000000000000000000006113616118f0565b86612892565b5050505050565b60008060008060007f00000000000000000000000000000000000000000000000000000000000000006001600160a01b03166338d772806040518163ffffffff1660e01b815260040160a06040518083038186803b1580156113cf57600080fd5b505afa1580156113e3573d6000803e3d6000fd5b505050506040513d601f19601f820116820180604052508101906114079190613d28565b945094509450945094509091929394565b600080806000198587098686029250828110908390030390508061144e576000841161144357600080fd5b508290049050610ae4565b80841161145a57600080fd5b6000848688096000868103871696879004966002600389028118808a02820302808a02820302808a02820302808a02820302808a02820302808a02909103029181900381900460010186841190950394909402919094039290920491909117919091029150509392505050565b60085460009081906114e5906001600160a01b031686868630612bac565b60085491935091506000908190611507906001600160a01b0316308989612d79565b9150915061151760008383611b94565b5050935093915050565b8082018281101561082957600080fd5b6040516370a0823160e01b81526000906001600160a01b037f000000000000000000000000000000000000000000000000000000000000000016906370a0823190611580903090600401614015565b60206040518083038186803b15801561159857600080fd5b505afa1580156115ac573d6000803e3d6000fd5b505050506040513d601f19601f82011682018060405250810190610afe9190613f73565b8082038281111561082957600080fd5b6040516370a0823160e01b81526000906001600160a01b037f000000000000000000000000000000000000000000000000000000000000000016906370a0823190611580903090600401614015565b83801561166d57507f00000000000000000000000000000000000000000000000000000000000000006001600160a01b0316826001600160a01b0316145b156116815761167c8184612e40565b61168c565b61168c828483612892565b50505050565b600080806116ac6001600160a01b03891686868a8a612ecc565b90506001600160801b038116156117e9576040805130602080830182905283518084038201815283850194859052633c8a7d8d60e01b9094526044830182815260028c810b60648601528b900b60848501526001600160801b03861660a485015260a060c48501908152855160e486015285516001600160a01b038f1696633c8a7d8d968f958f958b959394909392610104019185019080838360005b83811015611761578181015183820152602001611749565b50505050905090810190601f16801561178e5780820380516001836020036101000a031916815260200191505b5096505050505050506040805180830381600087803b1580156117b057600080fd5b505af11580156117c4573d6000803e3d6000fd5b505050506040513d60408110156117da57600080fd5b50805160209091015190935091505b509550959350505050565b6001600160a01b0382166118395760405162461bcd60e51b815260040180806020018281038252602181526020018061430a6021913960400191505060405180910390fd5b611845826000836126ed565b6118828160405180606001604052806022815260200161420d602291396001600160a01b038516600090815260208190526040902054919061221b565b6001600160a01b0383166000908152602081905260409020556002546118a89082612f5e565b6002556040805182815290516000916001600160a01b038516917fddf252ad1be2c89b69c2b068fc378daa952ba7f163c4a11628f55a4df523b3ef9181900360200190a35050565b3390565b6001600160a01b0383166119395760405162461bcd60e51b81526004018080602001828103825260248152602001806143506024913960400191505060405180910390fd5b6001600160a01b03821661197e5760405162461bcd60e51b815260040180806020018281038252602281526020018061422f6022913960400191505060405180910390fd5b6001600160a01b03808416600081815260016020908152604080832094871680845294825291829020859055815185815291517f8c5be1e5ebec7d5bd14f71427d1e84f3dd0314c0f7b2291e5b200ac8c7c3b9259281900390910190a3505050565b6000808080806119fa6001600160a01b038a168989612fbb565b50909150506001600160801b03811615611b88576040805163a34123a760e01b815260028a810b600483015289900b60248201526001600160801b038316604482015281516001600160a01b038c169263a34123a792606480820193918290030181600087803b158015611a6d57600080fd5b505af1158015611a81573d6000803e3d6000fd5b505050506040513d6040811015611a9757600080fd5b508051602090910151909550935084151580611ab35750600084115b15611b8857604080516309e3d67b60e31b81526001600160a01b03888116600483015260028b810b60248401528a900b60448301526001600160801b0360648301819052608483015282516000938493928e1692634f1eb3d89260a4808301939282900301818787803b158015611b2957600080fd5b505af1158015611b3d573d6000803e3d6000fd5b505050506040513d6040811015611b5357600080fd5b5080516020909101516001600160801b039182169350169050611b7682886115d0565b611b8082886115d0565b909550935050505b50945094509450949050565b600080611b9f61136e565b509350935050506000841115611be857611be87f000000000000000000000000000000000000000000000000000000000000000083611be3878560ff166064611418565b612892565b8215611c2257611c227f000000000000000000000000000000000000000000000000000000000000000083611be3868560ff166064611418565b7ff8994d9c768d599c5c6e92d52cd9cc24762cd773384c7a4612796773c56a86a6858585604051611c559392919061407d565b60405180910390a15050505050565b6000600160ff1b8210611ca85760405162461bcd60e51b81526004018080602001828103825260288152602001806143746028913960400191505060405180910390fd5b5090565b6000611cc0856001600160a01b0316613059565b505090506000620f42408261c350026001600160a01b031681611cdf57fe5b049050600084611cf157818301611cf5565b8183035b9050866001600160a01b031663128acb08878787858a6040516020018082151581526020019150506040516020818303038152906040526040518663ffffffff1660e01b815260040180866001600160a01b031681526020018515158152602001848152602001836001600160a01b0316815260200180602001828103825283818151815260200191508051906020019080838360005b83811015611da4578181015183820152602001611d8c565b50505050905090810190601f168015611dd15780820380516001836020036101000a031916815260200191505b5096505050505050506040805180830381600087803b158015611df357600080fd5b505af1158015611e07573d6000803e3d6000fd5b505050506040513d6040811015611e1d57600080fd5b505050505050505050565b600080611e33613c46565b600854611e48906001600160a01b03166130db565b600290810b810b60a088015290810b810b608087015290810b810b606086015290810b810b604085015290810b810b6020840181905291810b900b808352600854611ea1926001600160a01b0390911691908888611692565b825160078054602086015162ffffff19909116600293840b62ffffff9081169190911765ffffff000000191663010000009290940b160291909117905590935091506000611eef86856115d0565b90506000611efd86856115d0565b9050600080831180611f0f5750600082115b1561204e5760408401516060850151600854600092611f3d926001600160a01b039092169187918791612ecc565b608086015160a0870151600854929350600092611f69926001600160a01b039091169188918891612ecc565b9050816001600160801b0316816001600160801b03161015611fde576040860151600780546060890151600290810b62ffffff908116600160481b0262ffffff60481b199590920b16600160301b0268ffffff000000000000199092169190911792909216919091179055909150819061204b565b806001600160801b0316826001600160801b0316101561204b5760808601516007805460a0890151600290810b62ffffff908116600160481b0262ffffff60481b199590920b16600160301b0268ffffff0000000000001990921691909117929092169190911790559150815b50505b6001600160801b038116156120b5576007546008546000918291612095916001600160a01b0390911690600160301b8104600290810b91600160481b9004900b8888611692565b90925090506120a48883611521565b97506120b08782611521565b965050505b505050509250929050565b6001600160a01b0383166121055760405162461bcd60e51b815260040180806020018281038252602581526020018061432b6025913960400191505060405180910390fd5b6001600160a01b03821661214a5760405162461bcd60e51b81526004018080602001828103825260238152602001806141ea6023913960400191505060405180910390fd5b6121558383836126ed565b61219281604051806060016040528060268152602001614251602691396001600160a01b038616600090815260208190526040902054919061221b565b6001600160a01b0380851660009081526020819052604080822093909355908416815220546121c1908261237c565b6001600160a01b038084166000818152602081815260409182902094909455805185815290519193928716927fddf252ad1be2c89b69c2b068fc378daa952ba7f163c4a11628f55a4df523b3ef92918290030190a3505050565b600081848411156122aa5760405162461bcd60e51b81526004018080602001828103825283818151815260200191508051906020019080838360005b8381101561226f578181015183820152602001612257565b50505050905090810190601f16801561229c5780820380516001836020036101000a031916815260200191505b509250505060405180910390fd5b505050900390565b60007f00000000000000000000000000000000000000000000000000000000000000006122dd613188565b141561230a57507f000000000000000000000000000000000000000000000000000000000000000061080e565b6123757f00000000000000000000000000000000000000000000000000000000000000007f00000000000000000000000000000000000000000000000000000000000000007f000000000000000000000000000000000000000000000000000000000000000061318c565b905061080e565b600082820183811015610ae4576040805162461bcd60e51b815260206004820152601b60248201527f536166654d6174683a206164646974696f6e206f766572666c6f770000000000604482015290519081900360640190fd5b5490565b60008060008060008060006123f08f8f8a6127e2565b5050935093509350935060006124198c612413858861152190919063ffffffff16565b90611521565b9050600061242b8c6124138786611521565b90508a158061243957508115155b8061244357508015155b61244957fe5b6124568f8f84848f6131ee565b809950819a50829b50505050505050505050985098509895505050505050565b7f00000000000000000000000000000000000000000000000000000000000000006001600160a01b0316846001600160a01b03161480156124b75750804710155b156125d6577f00000000000000000000000000000000000000000000000000000000000000006001600160a01b031663d0e30db0826040518263ffffffff1660e01b81526004016000604051808303818588803b15801561251757600080fd5b505af115801561252b573d6000803e3d6000fd5b505060405163a9059cbb60e01b81526001600160a01b037f000000000000000000000000000000000000000000000000000000000000000016935063a9059cbb925061257e915085908590600401614059565b602060405180830381600087803b15801561259857600080fd5b505af11580156125ac573d6000803e3d6000fd5b505050506040513d601f19601f820116820180604052508101906125d09190613e93565b5061168c565b6001600160a01b0383163014156125f25761167c848383612892565b61168c84848484613282565b604080516000808252602082019092526001600160a01b0384169083906040518082805190602001908083835b6020831061264a5780518252601f19909201916020918201910161262b565b6001836020036101000a03801982511681845116808217855250505050505090500191505060006040518083038185875af1925050503d80600081146126ac576040519150601f19603f3d011682016040523d82523d6000602084013e6126b1565b606091505b50509050806126ed576040805162461bcd60e51b815260206004820152600360248201526253544560e81b604482015290519081900360640190fd5b505050565b6001600160a01b03821661274d576040805162461bcd60e51b815260206004820152601f60248201527f45524332303a206d696e7420746f20746865207a65726f206164647265737300604482015290519081900360640190fd5b612759600083836126ed565b600254612766908261237c565b6002556001600160a01b03821660009081526020819052604090205461278c908261237c565b6001600160a01b0383166000818152602081815260408083209490945583518581529351929391927fddf252ad1be2c89b69c2b068fc378daa952ba7f163c4a11628f55a4df523b3ef9281900390910190a35050565b6000806000806000806127fe89886000015189602001516133d2565b9399509197509550935091508761286d57600080600080600061282a8e8d604001518e606001516133d2565b9398509196509450925090506128408b86611521565b9a5061284c8a85611521565b99506128588984611521565b98506128648883611521565b97509450505050505b93975093979195509350565b6008546001600160a01b0316331461289057600080fd5b565b604080516001600160a01b038481166024830152604480830185905283518084039091018152606490920183526020820180516001600160e01b031663a9059cbb60e01b1781529251825160009485949389169392918291908083835b6020831061290e5780518252601f1990920191602091820191016128ef565b6001836020036101000a0380198251168184511680821785525050505050509050019150506000604051808303816000865af19150503d8060008114612970576040519150601f19603f3d011682016040523d82523d6000602084013e612975565b606091505b50915091508180156129a35750805115806129a357508080602001905160208110156129a057600080fd5b50515b611367576040805162461bcd60e51b815260206004820152600260248201526114d560f21b604482015290519081900360640190fd5b60006129e36122b2565b82604051602001808061190160f01b81525060020183815260200182815260200192505050604051602081830303815290604052805190602001209050919050565b60007f7fffffffffffffffffffffffffffffff5d576e7357a4501ddfe92f46681b20a0821115612a865760405162461bcd60e51b815260040180806020018281038252602281526020018061429e6022913960400191505060405180910390fd5b8360ff16601b1480612a9b57508360ff16601c145b612ad65760405162461bcd60e51b81526004018080602001828103825260228152602001806142c06022913960400191505060405180910390fd5b600060018686868660405160008152602001604052604051808581526020018460ff1681526020018381526020018281526020019450505050506020604051602081039080840390855afa158015612b32573d6000803e3d6000fd5b5050604051601f1901519150506001600160a01b038116612b9a576040805162461bcd60e51b815260206004820152601860248201527f45434453413a20696e76616c6964207369676e61747572650000000000000000604482015290519081900360640190fd5b95945050505050565b80546001019055565b60008080612bc46001600160a01b0389168888612fbb565b505090506000612be6826001600160801b031687670de0b6b3a7640000611418565b9050886001600160a01b031663a34123a78989612c0285613417565b6040518463ffffffff1660e01b8152600401808460020b81526020018360020b8152602001826001600160801b0316815260200193505050506040805180830381600087803b158015612c5457600080fd5b505af1158015612c68573d6000803e3d6000fd5b505050506040513d6040811015612c7e57600080fd5b508051602090910151909450925083151580612c9a5750600083115b15612d6d57886001600160a01b0316634f1eb3d8868a8a612cba89613417565b612cc389613417565b6040518663ffffffff1660e01b815260040180866001600160a01b031681526020018560020b81526020018460020b8152602001836001600160801b03168152602001826001600160801b03168152602001955050505050506040805180830381600087803b158015612d3557600080fd5b505af1158015612d49573d6000803e3d6000fd5b505050506040513d6040811015612d5f57600080fd5b50516001600160801b031693505b50509550959350505050565b600080612d8786858561345b565b50604080516309e3d67b60e31b81526001600160a01b038781166004830152600287810b602484015286900b60448301526001600160801b03606483018190526084830152825190891692634f1eb3d89260a480820193918290030181600087803b158015612df557600080fd5b505af1158015612e09573d6000803e3d6000fd5b505050506040513d6040811015612e1f57600080fd5b5080516020909101516001600160801b039182169891169650945050505050565b604051632e1a7d4d60e01b81526001600160a01b037f00000000000000000000000000000000000000000000000000000000000000001690632e1a7d4d90612e8c908590600401614095565b600060405180830381600087803b158015612ea657600080fd5b505af1158015612eba573d6000803e3d6000fd5b50505050612ec881836125fe565b5050565b600080866001600160a01b0316633850c7bd6040518163ffffffff1660e01b815260040160e06040518083038186803b158015612f0857600080fd5b505afa158015612f1c573d6000803e3d6000fd5b505050506040513d60e0811015612f3257600080fd5b50519050612f5381612f4386613514565b612f4c86613514565b8989613846565b979650505050505050565b600082821115612fb5576040805162461bcd60e51b815260206004820152601e60248201527f536166654d6174683a207375627472616374696f6e206f766572666c6f770000604482015290519081900360640190fd5b50900390565b600080600080612fcc308787613908565b9050866001600160a01b031663514ea4bf826040518263ffffffff1660e01b81526004018082815260200191505060a06040518083038186803b15801561301257600080fd5b505afa158015613026573d6000803e3d6000fd5b505050506040513d60a081101561303c57600080fd5b508051606082015160809092015190999198509650945050505050565b6000806000836001600160a01b0316633850c7bd6040518163ffffffff1660e01b815260040160e06040518083038186803b15801561309757600080fd5b505afa1580156130ab573d6000803e3d6000fd5b505050506040513d60e08110156130c157600080fd5b508051602082015160609092015190969195509350915050565b60008060008060008060006130ee61136e565b505060405163802036f560e01b8152919350506001600160a01b038316915063802036f590613121908b90600401614015565b60c060405180830381600087803b15801561313b57600080fd5b505af115801561314f573d6000803e3d6000fd5b505050506040513d601f19601f820116820180604052508101906131739190613eaf565b949d939c50919a509850965090945092505050565b4690565b6000838383613199613188565b3060405160200180868152602001858152602001848152602001838152602001826001600160a01b03168152602001955050505050506040516020818303038152906040528051906020012090509392505050565b6000808083613212575086905085808211613209578061320b565b815b9250613277565b8561322457508561320b818587611418565b846132375787915061320b828588611418565b613242878787611418565b91508782101561325957508561320b818587611418565b879150613267828688611418565b9050613274828588611418565b92505b955095509592505050565b604080516001600160a01b0385811660248301528481166044830152606480830185905283518084039091018152608490920183526020820180516001600160e01b03166323b872dd60e01b178152925182516000948594938a169392918291908083835b602083106133065780518252601f1990920191602091820191016132e7565b6001836020036101000a0380198251168184511680821785525050505050509050019150506000604051808303816000865af19150503d8060008114613368576040519150601f19603f3d011682016040523d82523d6000602084013e61336d565b606091505b509150915081801561339b57508051158061339b575080806020019051602081101561339857600080fd5b50515b6110de576040805162461bcd60e51b815260206004820152600360248201526229aa2360e91b604482015290519081900360640190fd5b60008060008060006133e588888861345b565b90506001600160801b0381161561340c5761340188888861395e565b929750909550935091505b939792965093509350565b6000600160801b8210611ca85760405162461bcd60e51b81526004018080602001828103825260278152602001806142776027913960400191505060405180910390fd5b60006134716001600160a01b0385168484612fbb565b50909150506001600160801b03811615610ae457836001600160a01b031663a34123a7848460006040518463ffffffff1660e01b8152600401808460020b81526020018360020b815260200182815260200193505050506040805180830381600087803b1580156134e157600080fd5b505af11580156134f5573d6000803e3d6000fd5b505050506040513d604081101561350b57600080fd5b50509392505050565b60008060008360020b1261352b578260020b613533565b8260020b6000035b9050620d89e8811115613571576040805162461bcd60e51b81526020600482015260016024820152601560fa1b604482015290519081900360640190fd5b60006001821661358557600160801b613597565b6ffffcb933bd6fad37aa2d162d1a5940015b70ffffffffffffffffffffffffffffffffff16905060028216156135cb576ffff97272373d413259a46990580e213a0260801c5b60048216156135ea576ffff2e50f5f656932ef12357cf3c7fdcc0260801c5b6008821615613609576fffe5caca7e10e4e61c3624eaa0941cd00260801c5b6010821615613628576fffcb9843d60f6159c9db58835c9266440260801c5b6020821615613647576fff973b41fa98c081472e6896dfb254c00260801c5b6040821615613666576fff2ea16466c96a3843ec78b326b528610260801c5b6080821615613685576ffe5dee046a99a2a811c461f1969c30530260801c5b6101008216156136a5576ffcbe86c7900a88aedcffc83b479aa3a40260801c5b6102008216156136c5576ff987a7253ac413176f2b074cf7815e540260801c5b6104008216156136e5576ff3392b0822b70005940c7a398e4b70f30260801c5b610800821615613705576fe7159475a2c29b7443b29c7fa6e889d90260801c5b611000821615613725576fd097f3bdfd2022b8845ad8f792aa58250260801c5b612000821615613745576fa9f746462d870fdf8a65dc1f90e061e50260801c5b614000821615613765576f70d869a156d2a1b890bb3df62baf32f70260801c5b618000821615613785576f31be135f97d08fd981231505542fcfa60260801c5b620100008216156137a6576f09aa508b5b7a84e1c677de54f3e99bc90260801c5b620200008216156137c6576e5d6af8dedb81196699c329225ee6040260801c5b620400008216156137e5576d2216e584f5fa1ea926041bedfe980260801c5b62080000821615613802576b048a170391f7dc42444e8fa20260801c5b60008460020b131561381d57806000198161381957fe5b0490505b640100000000810615613831576001613834565b60005b60ff16602082901c0192505050919050565b6000836001600160a01b0316856001600160a01b03161115613866579293925b846001600160a01b0316866001600160a01b0316116138915761388a8585856139aa565b9050612b9a565b836001600160a01b0316866001600160a01b031610156138f35760006138b88786866139aa565b905060006138c7878986613a0d565b9050806001600160801b0316826001600160801b0316106138e857806138ea565b815b92505050612b9a565b6138fe858584613a0d565b9695505050505050565b6040805160609490941b6bffffffffffffffffffffffff1916602080860191909152600293840b60e890811b60348701529290930b90911b60378401528051808403601a018152603a9093019052815191012090565b60008060008060008060006139748a8a8a612fbb565b9250925092506000806139898c868d8d613a52565b9099509750506001600160801b039283169550501691505093509350935093565b6000826001600160a01b0316846001600160a01b031611156139ca579192915b60006139ed856001600160a01b0316856001600160a01b0316600160601b611418565b9050612b9a613a0884838888036001600160a01b0316611418565b613ae9565b6000826001600160a01b0316846001600160a01b03161115613a2d579192915b613a4a613a0883600160601b8787036001600160a01b0316611418565b949350505050565b6000806000866001600160a01b0316633850c7bd6040518163ffffffff1660e01b815260040160e06040518083038186803b158015613a9057600080fd5b505afa158015613aa4573d6000803e3d6000fd5b505050506040513d60e0811015613aba57600080fd5b50519050613ada81613acb87613514565b613ad487613514565b89613aff565b92509250505b94509492505050565b806001600160801b0381168114610b7157600080fd5b600080836001600160a01b0316856001600160a01b03161115613b20579293925b846001600160a01b0316866001600160a01b031611613b4b57613b44858585613b9a565b9150613ae0565b836001600160a01b0316866001600160a01b03161015613b8457613b70868585613b9a565b9150613b7d858785613c03565b9050613ae0565b613b8f858585613c03565b905094509492505050565b6000826001600160a01b0316846001600160a01b03161115613bba579192915b836001600160a01b0316613bf3606060ff16846001600160801b0316901b8686036001600160a01b0316866001600160a01b0316611418565b81613bfa57fe5b04949350505050565b6000826001600160a01b0316846001600160a01b03161115613c23579192915b613a4a826001600160801b03168585036001600160a01b0316600160601b611418565b6040805160c081018252600080825260208201819052918101829052606081018290526080810182905260a081019190915290565b60008083601f840112613c8c578182fd5b50813567ffffffffffffffff811115613ca3578182fd5b602083019150836020828501011115613cbb57600080fd5b9250929050565b8051600281900b8114610b7157600080fd5b600060208284031215613ce5578081fd5b8135610ae4816141b4565b60008060408385031215613d02578081fd5b8235613d0d816141b4565b91506020830135613d1d816141b4565b809150509250929050565b600080600080600060a08688031215613d3f578081fd5b8551613d4a816141b4565b6020870151909550613d5b816141b4565b6040870151909450613d6c816141b4565b6060870151909350613d7d816141da565b6080870151909250613d8e816141da565b809150509295509295909350565b600080600060608486031215613db0578283fd5b8335613dbb816141b4565b92506020840135613dcb816141b4565b929592945050506040919091013590565b600080600080600080600060e0888a031215613df6578182fd5b8735613e01816141b4565b96506020880135613e11816141b4565b955060408801359450606088013593506080880135613e2f816141da565b9699959850939692959460a0840135945060c09093013592915050565b60008060408385031215613e5e578182fd5b8235613e69816141b4565b946020939093013593505050565b600060208284031215613e88578081fd5b8135610ae4816141cc565b600060208284031215613ea4578081fd5b8151610ae4816141cc565b60008060008060008060c08789031215613ec7578182fd5b613ed087613cc2565b9550613ede60208801613cc2565b9450613eec60408801613cc2565b9350613efa60608801613cc2565b9250613f0860808801613cc2565b9150613f1660a08801613cc2565b90509295509295509295565b60008060008060608587031215613f37578182fd5b8435935060208501359250604085013567ffffffffffffffff811115613f5b578283fd5b613f6787828801613c7b565b95989497509550505050565b600060208284031215613f84578081fd5b5051919050565b600080600060608486031215613f9f578081fd5b833592506020840135613fb1816141b4565b91506040840135613fc1816141cc565b809150509250925092565b600080600060608486031215613fe0578081fd5b83359250602084013591506040840135613fc1816141b4565b60006020828403121561400a578081fd5b8135610ae4816141da565b6001600160a01b0391909116815260200190565b6001600160a01b039485168152928416602084015262ffffff919091166040830152909116606082015260800190565b6001600160a01b03929092168252602082015260400190565b901515815260200190565b92151583526020830191909152604082015260600190565b90815260200190565b600294850b815292840b602084015290830b604083015290910b606082015260800190565b6000602080835283518082850152825b818110156140ef578581018301518582016040015282016140d3565b818111156141005783604083870101525b50601f01601f1916929092016040019392505050565b602080825260029082015261135360f21b604082015260600190565b602080825260029082015261495360f01b604082015260600190565b918252602082015260400190565b9283526020830191909152604082015260600190565b9586526020860194909452604085019290925260608401526001600160801b0390811660808401521660a082015260c00190565b60ff91909116815260200190565b6001600160a01b03811681146141c957600080fd5b50565b80151581146141c957600080fd5b60ff811681146141c957600080fdfe45524332303a207472616e7366657220746f20746865207a65726f206164647265737345524332303a206275726e20616d6f756e7420657863656564732062616c616e636545524332303a20617070726f766520746f20746865207a65726f206164647265737345524332303a207472616e7366657220616d6f756e7420657863656564732062616c616e636553616665436173743a2076616c756520646f65736e27742066697420696e20313238206269747345434453413a20696e76616c6964207369676e6174757265202773272076616c756545434453413a20696e76616c6964207369676e6174757265202776272076616c756545524332303a207472616e7366657220616d6f756e74206578636565647320616c6c6f77616e636545524332303a206275726e2066726f6d20746865207a65726f206164647265737345524332303a207472616e736665722066726f6d20746865207a65726f206164647265737345524332303a20617070726f76652066726f6d20746865207a65726f206164647265737353616665436173743a2076616c756520646f65736e27742066697420696e20616e20696e7432353645524332303a2064656372656173656420616c6c6f77616e63652062656c6f77207a65726fa2646970667358221220851ef0560d219576bfe157898bdb299684163b5e57c5b0fde5a320fb0d15f3ed64736f6c63430007060033",
    "linkReferences": {}
  },
  "methodIdentifiers": {
    "DOMAIN_SEPARATOR()": "3644e515",
    "_totalSupply()": "3eaaf86b",
    "allowance(address,address)": "dd62ed3e",
    "approve(address,uint256)": "095ea7b3",
    "balanceOf(address)": "70a08231",
    "decimals()": "313ce567",
    "decreaseAllowance(address,uint256)": "a457c2d7",
    "deposit(uint256,uint256,address)": "8dbdbe6d",
    "getPositionDetails()": "c8696232",
    "getVaultInfo()": "7f98aa71",
    "increaseAllowance(address,uint256)": "39509351",
    "name()": "06fdde03",
    "nonces(address)": "7ecebe00",
    "permit(address,address,uint256,uint256,uint8,bytes32,bytes32)": "d505accf",
    "readjustLiquidity(uint8)": "1a87e87d",
    "symbol()": "95d89b41",
    "ticksData()": "ac2dc562",
    "totalSupply()": "18160ddd",
    "transfer(address,uint256)": "a9059cbb",
    "transferFrom(address,address,uint256)": "23b872dd",
    "uniswapV3MintCallback(uint256,uint256,bytes)": "d3487997",
    "uniswapV3SwapCallback(int256,int256,bytes)": "fa461e33",
    "withdraw(uint256,address,bool)": "00ebf5dd"
  },
  "id": 4
}